{
  "_format": "hh-sol-artifact-1",
  "contractName": "GlobalFiUpgradeableNew",
  "sourceName": "contracts/GlobalFIUpgradeableNew.sol",
  "abi": [
    {
      "anonymous": false,
      "inputs": [
        {
          "indexed": false,
          "internalType": "address",
          "name": "previousAdmin",
          "type": "address"
        },
        {
          "indexed": false,
          "internalType": "address",
          "name": "newAdmin",
          "type": "address"
        }
      ],
      "name": "AdminChanged",
      "type": "event"
    },
    {
      "anonymous": false,
      "inputs": [
        {
          "indexed": true,
          "internalType": "address",
          "name": "beacon",
          "type": "address"
        }
      ],
      "name": "BeaconUpgraded",
      "type": "event"
    },
    {
      "anonymous": false,
      "inputs": [
        {
          "indexed": false,
          "internalType": "uint256",
          "name": "referrerId",
          "type": "uint256"
        },
        {
          "indexed": false,
          "internalType": "uint256",
          "name": "userId",
          "type": "uint256"
        },
        {
          "indexed": false,
          "internalType": "uint256",
          "name": "valueInWei",
          "type": "uint256"
        }
      ],
      "name": "DirectBusinessUpdated",
      "type": "event"
    },
    {
      "anonymous": false,
      "inputs": [
        {
          "indexed": false,
          "internalType": "uint256",
          "name": "id",
          "type": "uint256"
        },
        {
          "indexed": false,
          "internalType": "uint8",
          "name": "poolId",
          "type": "uint8"
        },
        {
          "indexed": false,
          "internalType": "uint256",
          "name": "rewardInWei",
          "type": "uint256"
        }
      ],
      "name": "DistributedPoolReward",
      "type": "event"
    },
    {
      "anonymous": false,
      "inputs": [
        {
          "indexed": false,
          "internalType": "address",
          "name": "userAddress",
          "type": "address"
        },
        {
          "indexed": false,
          "internalType": "uint256",
          "name": "id",
          "type": "uint256"
        }
      ],
      "name": "IdOwnerUpdated",
      "type": "event"
    },
    {
      "anonymous": false,
      "inputs": [
        {
          "indexed": false,
          "internalType": "address",
          "name": "userAddress",
          "type": "address"
        },
        {
          "indexed": false,
          "internalType": "uint256",
          "name": "id",
          "type": "uint256"
        }
      ],
      "name": "IdUpdated",
      "type": "event"
    },
    {
      "anonymous": false,
      "inputs": [
        {
          "indexed": false,
          "internalType": "uint256",
          "name": "id",
          "type": "uint256"
        },
        {
          "indexed": false,
          "internalType": "uint8",
          "name": "poolId",
          "type": "uint8"
        }
      ],
      "name": "IdUpgradedInPool",
      "type": "event"
    },
    {
      "anonymous": false,
      "inputs": [
        {
          "indexed": false,
          "internalType": "uint8",
          "name": "version",
          "type": "uint8"
        }
      ],
      "name": "Initialized",
      "type": "event"
    },
    {
      "anonymous": false,
      "inputs": [
        {
          "indexed": true,
          "internalType": "address",
          "name": "previousOwner",
          "type": "address"
        },
        {
          "indexed": true,
          "internalType": "address",
          "name": "newOwner",
          "type": "address"
        }
      ],
      "name": "OwnershipTransferred",
      "type": "event"
    },
    {
      "anonymous": false,
      "inputs": [
        {
          "indexed": false,
          "internalType": "address",
          "name": "account",
          "type": "address"
        }
      ],
      "name": "Paused",
      "type": "event"
    },
    {
      "anonymous": false,
      "inputs": [
        {
          "indexed": false,
          "internalType": "uint256",
          "name": "parentId",
          "type": "uint256"
        },
        {
          "indexed": false,
          "internalType": "uint256",
          "name": "referrerId",
          "type": "uint256"
        },
        {
          "indexed": false,
          "internalType": "uint256",
          "name": "userId",
          "type": "uint256"
        }
      ],
      "name": "RefereeAssigned",
      "type": "event"
    },
    {
      "anonymous": false,
      "inputs": [
        {
          "indexed": false,
          "internalType": "uint256",
          "name": "referrerId",
          "type": "uint256"
        },
        {
          "indexed": false,
          "internalType": "uint256",
          "name": "userId",
          "type": "uint256"
        },
        {
          "indexed": false,
          "internalType": "uint256",
          "name": "referralValue",
          "type": "uint256"
        },
        {
          "indexed": false,
          "internalType": "uint256",
          "name": "level",
          "type": "uint256"
        }
      ],
      "name": "ReferralDistributed",
      "type": "event"
    },
    {
      "anonymous": false,
      "inputs": [
        {
          "indexed": false,
          "internalType": "uint256",
          "name": "referrerId",
          "type": "uint256"
        },
        {
          "indexed": false,
          "internalType": "uint256",
          "name": "userId",
          "type": "uint256"
        }
      ],
      "name": "ReferrerUpdated",
      "type": "event"
    },
    {
      "anonymous": false,
      "inputs": [
        {
          "indexed": false,
          "internalType": "address",
          "name": "newAddress",
          "type": "address"
        }
      ],
      "name": "SelfAddressUpdated",
      "type": "event"
    },
    {
      "anonymous": false,
      "inputs": [
        {
          "indexed": false,
          "internalType": "uint256",
          "name": "userId",
          "type": "uint256"
        },
        {
          "indexed": false,
          "internalType": "uint256",
          "name": "valueInWei",
          "type": "uint256"
        }
      ],
      "name": "SelfBusinessUpdated",
      "type": "event"
    },
    {
      "anonymous": false,
      "inputs": [
        {
          "indexed": false,
          "internalType": "uint256",
          "name": "referrerId",
          "type": "uint256"
        },
        {
          "indexed": false,
          "internalType": "uint256",
          "name": "userId",
          "type": "uint256"
        },
        {
          "indexed": false,
          "internalType": "uint256",
          "name": "valueInWei",
          "type": "uint256"
        },
        {
          "indexed": false,
          "internalType": "uint256",
          "name": "level",
          "type": "uint256"
        }
      ],
      "name": "TeamBusinessUpdated",
      "type": "event"
    },
    {
      "anonymous": false,
      "inputs": [
        {
          "indexed": false,
          "internalType": "address",
          "name": "parent",
          "type": "address"
        },
        {
          "indexed": false,
          "internalType": "address",
          "name": "user",
          "type": "address"
        }
      ],
      "name": "TeamNonGlobaRemoved",
      "type": "event"
    },
    {
      "anonymous": false,
      "inputs": [
        {
          "indexed": false,
          "internalType": "address",
          "name": "parent",
          "type": "address"
        },
        {
          "indexed": false,
          "internalType": "address",
          "name": "user",
          "type": "address"
        }
      ],
      "name": "TeamNonGlobalAdded",
      "type": "event"
    },
    {
      "anonymous": false,
      "inputs": [
        {
          "indexed": false,
          "internalType": "uint256",
          "name": "parent",
          "type": "uint256"
        },
        {
          "indexed": false,
          "internalType": "uint256",
          "name": "userId",
          "type": "uint256"
        }
      ],
      "name": "TeamUpdated",
      "type": "event"
    },
    {
      "anonymous": false,
      "inputs": [
        {
          "indexed": false,
          "internalType": "address",
          "name": "account",
          "type": "address"
        }
      ],
      "name": "Unpaused",
      "type": "event"
    },
    {
      "anonymous": false,
      "inputs": [
        {
          "indexed": true,
          "internalType": "address",
          "name": "implementation",
          "type": "address"
        }
      ],
      "name": "Upgraded",
      "type": "event"
    },
    {
      "inputs": [
        {
          "internalType": "address",
          "name": "_tokenContractAddress",
          "type": "address"
        },
        {
          "internalType": "bool",
          "name": "_isStable",
          "type": "bool"
        },
        {
          "internalType": "address",
          "name": "_aggregatorContractAddress",
          "type": "address"
        }
      ],
      "name": "addBaseCurrency",
      "outputs": [],
      "stateMutability": "nonpayable",
      "type": "function"
    },
    {
      "inputs": [
        {
          "internalType": "uint256",
          "name": "_id",
          "type": "uint256"
        }
      ],
      "name": "getIdAccount",
      "outputs": [
        {
          "components": [
            {
              "internalType": "uint256",
              "name": "id",
              "type": "uint256"
            },
            {
              "internalType": "address",
              "name": "owner",
              "type": "address"
            },
            {
              "internalType": "uint256",
              "name": "referrerId",
              "type": "uint256"
            },
            {
              "internalType": "uint256",
              "name": "parentId",
              "type": "uint256"
            },
            {
              "internalType": "uint256[]",
              "name": "refereeIds",
              "type": "uint256[]"
            },
            {
              "components": [
                {
                  "internalType": "uint256",
                  "name": "refereeId",
                  "type": "uint256"
                },
                {
                  "internalType": "uint256",
                  "name": "assignedToid",
                  "type": "uint256"
                }
              ],
              "internalType": "struct RefereeAssignedStruct[]",
              "name": "refereesAssigned",
              "type": "tuple[]"
            },
            {
              "components": [
                {
                  "internalType": "uint256",
                  "name": "teamId",
                  "type": "uint256"
                },
                {
                  "internalType": "uint256",
                  "name": "teamLevel",
                  "type": "uint256"
                }
              ],
              "internalType": "struct TeamStruct[]",
              "name": "team",
              "type": "tuple[]"
            },
            {
              "components": [
                {
                  "internalType": "uint256",
                  "name": "selfBusiness",
                  "type": "uint256"
                },
                {
                  "internalType": "uint256",
                  "name": "directBusiness",
                  "type": "uint256"
                },
                {
                  "internalType": "uint256",
                  "name": "teamBusiness",
                  "type": "uint256"
                }
              ],
              "internalType": "struct BusinessStruct",
              "name": "business",
              "type": "tuple"
            },
            {
              "components": [
                {
                  "internalType": "uint256",
                  "name": "referralRewards",
                  "type": "uint256"
                },
                {
                  "internalType": "uint256",
                  "name": "spillOverRewards",
                  "type": "uint256"
                },
                {
                  "internalType": "uint256",
                  "name": "globalRewards",
                  "type": "uint256"
                }
              ],
              "internalType": "struct RewardsStruct",
              "name": "rewards",
              "type": "tuple"
            },
            {
              "internalType": "bool",
              "name": "isInPool",
              "type": "bool"
            }
          ],
          "internalType": "struct IdStruct",
          "name": "",
          "type": "tuple"
        }
      ],
      "stateMutability": "view",
      "type": "function"
    },
    {
      "inputs": [
        {
          "internalType": "uint8",
          "name": "_poolId",
          "type": "uint8"
        }
      ],
      "name": "getPools",
      "outputs": [
        {
          "components": [
            {
              "internalType": "uint256",
              "name": "poolId",
              "type": "uint256"
            },
            {
              "internalType": "uint256",
              "name": "rewardToDistribute",
              "type": "uint256"
            },
            {
              "internalType": "uint8",
              "name": "minUserCounter",
              "type": "uint8"
            },
            {
              "internalType": "uint256",
              "name": "userCountToUpgrade",
              "type": "uint256"
            },
            {
              "internalType": "uint256[]",
              "name": "userIds",
              "type": "uint256[]"
            },
            {
              "internalType": "uint256",
              "name": "totalRewardDistributed",
              "type": "uint256"
            }
          ],
          "internalType": "struct PoolStruct",
          "name": "",
          "type": "tuple"
        }
      ],
      "stateMutability": "view",
      "type": "function"
    },
    {
      "inputs": [],
      "name": "getSupportedCurrencies",
      "outputs": [
        {
          "components": [
            {
              "internalType": "address",
              "name": "contractAddress",
              "type": "address"
            },
            {
              "internalType": "uint256",
              "name": "decimals",
              "type": "uint256"
            },
            {
              "internalType": "bool",
              "name": "isStable",
              "type": "bool"
            },
            {
              "internalType": "address",
              "name": "aggregatorAddress",
              "type": "address"
            },
            {
              "internalType": "bool",
              "name": "isEnaled",
              "type": "bool"
            }
          ],
          "internalType": "struct SupportedTokensStruct[]",
          "name": "",
          "type": "tuple[]"
        }
      ],
      "stateMutability": "view",
      "type": "function"
    },
    {
      "inputs": [
        {
          "internalType": "address",
          "name": "_userAddress",
          "type": "address"
        }
      ],
      "name": "getUserAccount",
      "outputs": [
        {
          "components": [
            {
              "internalType": "address",
              "name": "selfAddress",
              "type": "address"
            },
            {
              "internalType": "uint256[]",
              "name": "ids",
              "type": "uint256[]"
            }
          ],
          "internalType": "struct AccountStruct",
          "name": "",
          "type": "tuple"
        }
      ],
      "stateMutability": "view",
      "type": "function"
    },
    {
      "inputs": [],
      "name": "initialize",
      "outputs": [],
      "stateMutability": "nonpayable",
      "type": "function"
    },
    {
      "inputs": [],
      "name": "owner",
      "outputs": [
        {
          "internalType": "address",
          "name": "",
          "type": "address"
        }
      ],
      "stateMutability": "view",
      "type": "function"
    },
    {
      "inputs": [],
      "name": "paused",
      "outputs": [
        {
          "internalType": "bool",
          "name": "",
          "type": "bool"
        }
      ],
      "stateMutability": "view",
      "type": "function"
    },
    {
      "inputs": [],
      "name": "proxiableUUID",
      "outputs": [
        {
          "internalType": "bytes32",
          "name": "",
          "type": "bytes32"
        }
      ],
      "stateMutability": "view",
      "type": "function"
    },
    {
      "inputs": [
        {
          "internalType": "uint256",
          "name": "_referrerId",
          "type": "uint256"
        },
        {
          "internalType": "address",
          "name": "_userAddress",
          "type": "address"
        },
        {
          "internalType": "address",
          "name": "_tokenAddress",
          "type": "address"
        }
      ],
      "name": "register",
      "outputs": [],
      "stateMutability": "nonpayable",
      "type": "function"
    },
    {
      "inputs": [
        {
          "internalType": "address",
          "name": "_tokenContractAddress",
          "type": "address"
        },
        {
          "internalType": "bool",
          "name": "_status",
          "type": "bool"
        }
      ],
      "name": "removeBaseCurrency",
      "outputs": [],
      "stateMutability": "nonpayable",
      "type": "function"
    },
    {
      "inputs": [],
      "name": "renounceOwnership",
      "outputs": [],
      "stateMutability": "nonpayable",
      "type": "function"
    },
    {
      "inputs": [
        {
          "internalType": "uint8",
          "name": "_poolId",
          "type": "uint8"
        },
        {
          "internalType": "uint256",
          "name": "_rewardToDistributeInDecimals",
          "type": "uint256"
        },
        {
          "internalType": "uint8",
          "name": "_minUserCounter",
          "type": "uint8"
        }
      ],
      "name": "setPools",
      "outputs": [],
      "stateMutability": "nonpayable",
      "type": "function"
    },
    {
      "inputs": [
        {
          "internalType": "address",
          "name": "newOwner",
          "type": "address"
        }
      ],
      "name": "transferOwnership",
      "outputs": [],
      "stateMutability": "nonpayable",
      "type": "function"
    },
    {
      "inputs": [
        {
          "internalType": "address",
          "name": "newImplementation",
          "type": "address"
        }
      ],
      "name": "upgradeTo",
      "outputs": [],
      "stateMutability": "nonpayable",
      "type": "function"
    },
    {
      "inputs": [
        {
          "internalType": "address",
          "name": "newImplementation",
          "type": "address"
        },
        {
          "internalType": "bytes",
          "name": "data",
          "type": "bytes"
        }
      ],
      "name": "upgradeToAndCall",
      "outputs": [],
      "stateMutability": "payable",
      "type": "function"
    }
  ],
  "bytecode": "0x60a06040523060805234801561001457600080fd5b506080516130e361004c600039600081816103cb01528181610414015281816104b3015281816104f3015261058601526130e36000f3fe6080604052600436106100f35760003560e01c80638129fc1c1161008a578063f2fde38b11610059578063f2fde38b1461027d578063f782abc71461029d578063fb47e016146102bd578063ff43599c146102ea57600080fd5b80638129fc1c146101f35780638da5cb5b14610208578063a73c50fa14610230578063c48d8e021461025057600080fd5b806354f132e8116100c657806354f132e81461017b5780635bc62ff81461019b5780635c975abb146101bb578063715018a6146101de57600080fd5b80632ce75863146100f85780633659cfe6146101235780634f1ef2861461014557806352d1902d14610158575b600080fd5b34801561010457600080fd5b5061010d610317565b60405161011a9190612852565b60405180910390f35b34801561012f57600080fd5b5061014361013e3660046128e9565b6103c1565b005b61014361015336600461291a565b6104a9565b34801561016457600080fd5b5061016d610579565b60405190815260200161011a565b34801561018757600080fd5b506101436101963660046129ea565b61062c565b3480156101a757600080fd5b506101436101b6366004612a30565b6107a0565b3480156101c757600080fd5b5060335460ff16604051901515815260200161011a565b3480156101ea57600080fd5b506101436107ee565b3480156101ff57600080fd5b50610143610802565b34801561021457600080fd5b506065546040516001600160a01b03909116815260200161011a565b34801561023c57600080fd5b5061014361024b366004612a72565b610979565b34801561025c57600080fd5b5061027061026b366004612aae565b610d56565b60405161011a9190612b06565b34801561028957600080fd5b506101436102983660046128e9565b610e3d565b3480156102a957600080fd5b506101436102b8366004612b63565b610eb3565b3480156102c957600080fd5b506102dd6102d83660046128e9565b611146565b60405161011a9190612b91565b3480156102f657600080fd5b5061030a610305366004612bc6565b6111e4565b60405161011a9190612c1a565b6060610107805480602002602001604051908101604052809291908181526020016000905b828210156103b85760008481526020908190206040805160a0810182526003860290920180546001600160a01b0390811684526001808301548587015260029092015460ff80821615159486019490945261010081049091166060850152600160a81b900490911615156080830152908352909201910161033c565b50505050905090565b6001600160a01b037f00000000000000000000000000000000000000000000000000000000000000001630036104125760405162461bcd60e51b815260040161040990612d10565b60405180910390fd5b7f00000000000000000000000000000000000000000000000000000000000000006001600160a01b031661045b600080516020613067833981519152546001600160a01b031690565b6001600160a01b0316146104815760405162461bcd60e51b815260040161040990612d5c565b61048a816113d9565b604080516000808252602082019092526104a6918391906113e1565b50565b6001600160a01b037f00000000000000000000000000000000000000000000000000000000000000001630036104f15760405162461bcd60e51b815260040161040990612d10565b7f00000000000000000000000000000000000000000000000000000000000000006001600160a01b031661053a600080516020613067833981519152546001600160a01b031690565b6001600160a01b0316146105605760405162461bcd60e51b815260040161040990612d5c565b610569826113d9565b610575828260016113e1565b5050565b6000306001600160a01b037f000000000000000000000000000000000000000000000000000000000000000016146106195760405162461bcd60e51b815260206004820152603860248201527f555550535570677261646561626c653a206d757374206e6f742062652063616c60448201527f6c6564207468726f7567682064656c656761746563616c6c00000000000000006064820152608401610409565b5060008051602061306783398151915290565b610634611551565b6001600160a01b03828116600090815261010a6020526040902054166106b95760405162461bcd60e51b815260206004820152603460248201527f736574537570706f72746564546f6b656e53746174757328293a20546f6b656e6044820152731034b9903737ba1030b23232b21030b23232b21760611b6064820152608401610409565b6001600160a01b038216600090815261010a6020526040902060020154811515600160a81b90910460ff161515036107675760405162461bcd60e51b815260206004820152604560248201527f736574537570706f72746564546f6b656e53746174757328293a20546f6b656e60448201527f2073746174757320697320616c72656164792073616d65206173206d656e746960648201526437b732b21760d91b608482015260a401610409565b6001600160a01b03909116600090815261010a602052604090206002018054911515600160a81b0260ff60a81b19909216919091179055565b6107a8611551565b60ff8316600081815261010b602052604090209081556107d083670de0b6b3a7640000612dbe565b6001820155600201805460ff191660ff929092169190911790555050565b6107f6611551565b61080060006115ab565b565b600054610100900460ff16158080156108225750600054600160ff909116105b8061083c5750303b15801561083c575060005460ff166001145b61089f5760405162461bcd60e51b815260206004820152602e60248201527f496e697469616c697a61626c653a20636f6e747261637420697320616c72656160448201526d191e481a5b9a5d1a585b1a5e995960921b6064820152608401610409565b6000805460ff1916600117905580156108c2576000805461ff0019166101001790555b600260ff556040805160208101909152603281526108e49060fe90600161274d565b50610100805460ff1916601417905561010280546001600160a01b03191633179055678ac7230489e80000610101556005610104556109216115fd565b61092961162c565b61093161165b565b80156104a6576000805461ff0019169055604051600181527f7f26b83ff96e1f2b6a682f133852f6798a09c465da95921460cefb38474024989060200160405180910390a150565b610101546001600160a01b038216600090815261010a6020526040902060020154339190600160a81b900460ff1615610a3b57826001600160a01b031663a9059cbb836109c68487611682565b6040516001600160e01b031960e085901b1681526001600160a01b03909216600483015260248201526044016020604051808303816000875af1158015610a11573d6000803e3d6000fd5b505050506040513d601f19601f82011682018060405250810190610a359190612dd5565b50610aa2565b60405162461bcd60e51b815260206004820152603660248201527f726567697374657228293a20426173652043757272656e6379206973206e6f746044820152751039bab83837b93a32b21037b91032b730b13632b21760511b6064820152608401610409565b6000858152610109602090815260408083206001600160a01b0388168452610108909252909120610ad38187611715565b6000610add61178d565b600081815261010960205260409020909150610af981846117a3565b5060408051610140810182528254815260018301546001600160a01b031660208083019190915260028401548284015260038401546060830152600484018054845181840281018401909552808552610d0e9486936080860193919290830182828015610b8557602002820191906000526020600020905b815481526020019060010190808311610b71575b5050505050815260200160058201805480602002602001604051908101604052809291908181526020016000905b82821015610bf957838290600052602060002090600202016040518060400160405290816000820154815260200160018201548152505081526020019060010190610bb3565b50505050815260200160068201805480602002602001604051908101604052809291908181526020016000905b82821015610c6c57838290600052602060002090600202016040518060400160405290816000820154815260200160018201548152505081526020019060010190610c26565b5050509082525060408051606080820183526007850154825260088501546020838101919091526009860154838501528085019290925282518082018452600a8601548152600b86015492810192909252600c8501548284015291830152600d9092015460ff1615159101525160fd80546001810182556000919091527f9346ac6dd7de6b96975fec380d4d994c4c12e6a8897544f22915316cc6cca2800155565b6000610d1a85836118e4565b9050610d2682876120bc565b610d328287838b612110565b856101066000828254610d459190612df2565b909155505050505050505050505050565b610d926040518060c001604052806000815260200160008152602001600060ff1681526020016000815260200160608152602001600081525090565b60ff808316600090815261010b6020908152604091829020825160c081018452815481526001820154818401526002820154909416848401526003810154606085015260048101805484518185028101850190955280855291936080860193909290830182828015610e2357602002820191906000526020600020905b815481526020019060010190808311610e0f575b505050505081526020016005820154815250509050919050565b610e45611551565b6001600160a01b038116610eaa5760405162461bcd60e51b815260206004820152602660248201527f4f776e61626c653a206e6577206f776e657220697320746865207a65726f206160448201526564647265737360d01b6064820152608401610409565b6104a6816115ab565b610ebb611551565b6001600160a01b03838116600090815261010a60205260409020541615610f405760405162461bcd60e51b815260206004820152603360248201527f70757368537570706f72746564546f6b656e546f4c69737428293a20546f6b65604482015272371034b99030b63932b0b23c9030b23232b21760691b6064820152608401610409565b6040518060a00160405280846001600160a01b03168152602001846001600160a01b031663313ce5676040518163ffffffff1660e01b8152600401602060405180830381865afa158015610f98573d6000803e3d6000fd5b505050506040513d601f19601f82011682018060405250810190610fbc9190612e05565b60ff90811682529315156020808301919091526001600160a01b0393841660408084019190915260016060938401819052968516600090815261010a8352818120855181549088166001600160a01b031991821617825593860151818a0190815592860151600282018054968801516080909801511515600160a81b90810260ff60a81b19998b16610100908102610100600160a81b031995151586166001600160a81b03199b8c1617178b1691909117835561010780549d8e01815590955292546003909b027f47c4908e245f386bfc1825973249847f4053a761ddb4880ad63c323a7b5a2a25810180549097169b8a169b909b1790955592547f47c4908e245f386bfc1825973249847f4053a761ddb4880ad63c323a7b5a2a268a015583547f47c4908e245f386bfc1825973249847f4053a761ddb4880ad63c323a7b5a2a279099018054998916151560ff198b1681178255855484900490981690920296909216979093169690961793909317808255925485900490931615159093029216919091179055565b6040805180820190915260008152606060208201526001600160a01b038083166000908152610108602090815260409182902082518084018452815490941684526001810180548451818502810185019095528085529193858401939092908301828280156111d457602002820191906000526020600020905b8154815260200190600101908083116111c0575b5050505050815250509050919050565b6111ec61279d565b600082815261010960209081526040918290208251610140810184528154815260018201546001600160a01b03168184015260028201548185015260038201546060820152600482018054855181860281018601909652808652919492936080860193929083018282801561128057602002820191906000526020600020905b81548152602001906001019080831161126c575b5050505050815260200160058201805480602002602001604051908101604052809291908181526020016000905b828210156112f4578382906000526020600020906002020160405180604001604052908160008201548152602001600182015481525050815260200190600101906112ae565b50505050815260200160068201805480602002602001604051908101604052809291908181526020016000905b8282101561136757838290600052602060002090600202016040518060400160405290816000820154815260200160018201548152505081526020019060010190611321565b5050509082525060408051606080820183526007850154825260088501546020838101919091526009860154838501528085019290925282518082018452600a8601548152600b86015492810192909252600c8501548284015291830152600d9092015460ff16151591015292915050565b6104a6611551565b7f4910fdfa16fed3260ed0e7147f7cc6da11a60208b5b9406d12a635614ffd91435460ff16156114195761141483612413565b505050565b826001600160a01b03166352d1902d6040518163ffffffff1660e01b8152600401602060405180830381865afa925050508015611473575060408051601f3d908101601f1916820190925261147091810190612e22565b60015b6114d65760405162461bcd60e51b815260206004820152602e60248201527f45524331393637557067726164653a206e657720696d706c656d656e7461746960448201526d6f6e206973206e6f74205555505360901b6064820152608401610409565b60008051602061306783398151915281146115455760405162461bcd60e51b815260206004820152602960248201527f45524331393637557067726164653a20756e737570706f727465642070726f786044820152681a58589b195555525160ba1b6064820152608401610409565b506114148383836124af565b6065546001600160a01b031633146108005760405162461bcd60e51b815260206004820181905260248201527f4f776e61626c653a2063616c6c6572206973206e6f7420746865206f776e65726044820152606401610409565b606580546001600160a01b038381166001600160a01b0319831681179093556040519116919082907f8be0079c531659141344cd1fd0a4f28419497f9722a3daafe3b4186f6b6457e090600090a35050565b600054610100900460ff166116245760405162461bcd60e51b815260040161040990612e3b565b6108006124da565b600054610100900460ff166116535760405162461bcd60e51b815260040161040990612e3b565b61080061250d565b600054610100900460ff166108005760405162461bcd60e51b815260040161040990612e3b565b6000670de0b6b3a7640000826001600160a01b031663313ce5676040518163ffffffff1660e01b8152600401602060405180830381865afa1580156116cb573d6000803e3d6000fd5b505050506040513d601f19601f820116820180604052508101906116ef9190612e05565b6116fa90600a612f6a565b6117049085612dbe565b61170e9190612f79565b9392505050565b81546001600160a01b031615801561173557506001600160a01b03811615155b156105755781546001600160a01b0319166001600160a01b03821690811783556040519081527f3b819cfb39116b78a5d1267e92ab85058e96d63a7882322d296ab4135720b79a906020015b60405180910390a15050565b600060fc54600161179e9190612df2565b905090565b8154600090156118015760405162461bcd60e51b815260206004820152602360248201527f5f757064617465496428293a20496420697320616c726561647920637265617460448201526232b21760e91b6064820152608401610409565b60fc805490600061181183612f9b565b909155505060fc5480845560018381018054918201815560009081526020908190209091018290558354604080516001600160a01b0390921682529181018390529192507f1edfaf20eb0251dd2ca45e125c8b9a615022667b9822cf6a8dc1d2ce7e91ea68910160405180910390a181546001840180546001600160a01b0319166001600160a01b03928316179055825460408051919092168152602081018390527f4f3673673d1e6f88f67f26845b9609a7707201984d7885988d35aedf43b9fe44910160405180910390a192915050565b80546000906118fb6065546001600160a01b031690565b6001600160a01b0316336001600160a01b0316146119795783546000036119795760405162461bcd60e51b815260206004820152602c60248201527f5f616464526566657272657228293a2052656665727265204964206973206e6f60448201526b3a1030b1ba34bb30ba32b21760a11b6064820152608401610409565b808460020154036119e75760405162461bcd60e51b815260206004820152603260248201527f5f616464526566657272657228293a20526566657265652063616e6e6f74206260448201527132903932b332b93932b9103ab83634b7329760711b6064820152608401610409565b8015611a485760405162461bcd60e51b815260206004820152602a60248201527f5f616464526566657272657228293a205573657220726566657272657220616c6044820152693932b0b23c9039b2ba1760b11b6064820152608401610409565b60408051610140810182528554815260018601546001600160a01b031660208083019190915260028701548284015260038701546060830152600487018054845181840281018401909552808552611c2b9489936080860193919290830182828015611ad357602002820191906000526020600020905b815481526020019060010190808311611abf575b5050505050815260200160058201805480602002602001604051908101604052809291908181526020016000905b82821015611b4757838290600052602060002090600202016040518060400160405290816000820154815260200160018201548152505081526020019060010190611b01565b50505050815260200160068201805480602002602001604051908101604052809291908181526020016000905b82821015611bba57838290600052602060002090600202016040518060400160405290816000820154815260200160018201548152505081526020019060010190611b74565b5050509082525060408051606080820183526007850154825260088501546020838101919091526009860154838501528085019290925282518082018452600a8601548152600b86015492810192909252600c8501548284015291830152600d9092015460ff16151591015261253d565b611c975783546002840181905560038401556004840180546001810182556000918252602091829020018290558454604080519182529181018390527fe6b2c1ca4b33533eddccfdd2dd0fbe5ff44d75017001d4b2329b4daee1821436910160405180910390a1611ffa565b60fd54611cf25760405162461bcd60e51b8152602060048201526024808201527f5f616464526566657272657228293a20476c6f62616c2069647320617265206f6044820152633b32b91760e11b6064820152608401610409565b6000610109600060fd600081548110611d0d57611d0d612fb4565b600091825260208083209190910154835282810193909352604091820181208054600289810191909155895460038a015583518085018552878152825481870190815260058c0180546001808201835591875295889020925195909302909101938455519201919091558754815483519182529381019390935290820184905291507f347a3b2fe969c7ab7c51c290dbcae965d7b5a6b03d2b9336a480169d79a5f51f9060600160405180910390a16004810180546001810182556000918252602091829020018390558154604080519182529181018490527fe6b2c1ca4b33533eddccfdd2dd0fbe5ff44d75017001d4b2329b4daee1821436910160405180910390a160408051610140810182528254815260018301546001600160a01b031660208083019190915260028401548284015260038401546060830152600484018054845181840281018401909552808552611ff49486936080860193919290830182828015611e9c57602002820191906000526020600020905b815481526020019060010190808311611e88575b5050505050815260200160058201805480602002602001604051908101604052809291908181526020016000905b82821015611f1057838290600052602060002090600202016040518060400160405290816000820154815260200160018201548152505081526020019060010190611eca565b50505050815260200160068201805480602002602001604051908101604052809291908181526020016000905b82821015611f8357838290600052602060002090600202016040518060400160405290816000820154815260200160018201548152505081526020019060010190611f3d565b5050509082525060408051606080820183526007850154825260088501546020838101919091526009860154838501528085019290925282518082018452600a8601548152600b86015492810192909252600c8501548284015291830152600d9092015460ff161515910152612556565b60019250505b6101005460ff1660005b818110156120b3578454600090815261010960209081526040918290208251808401909352858352916006830191810161203f856001612df2565b905281546001808201845560009384526020938490208351600290930201918255918301519101558154604080519182529181018690527f48e403ae2a509cd9336134c0899083ba110bf3a35566606add88a2066ccbaa1a910160405180910390a194506120ac81612f9b565b9050612004565b50505092915050565b808260070160000160008282546120d39190612df2565b9091555050815460408051918252602082018390527f7bc272836d15a231dbca2c8759d5bb751d4ecf39d918fef56f6cc2fc3c2386b09101611781565b8354600083156121345750600385015460009081526101096020526040902061214a565b5060028501546000908152610109602052604090205b848160070160010160008282546121619190612df2565b90915550508054865460408051928352602083019190915281018690527f57b50e0e70daa32ac46409245990bb5a21b96da6f9c1bcbba5424aa58723907a9060600160405180910390a1600060fe8054806020026020016040519081016040528092919081815260200182805480156121f957602002820191906000526020600020905b8154815260200190600101908083116121e5575b505050505090506000805b82518110156123f05761010960008a60020154815260200190815260200160002093506000606484838151811061223d5761223d612fb4565b60200260200101518a6122509190612dbe565b61225a9190612f79565b60018601549091506001600160a01b038089169163a9059cbb911661227f848b611682565b6040516001600160e01b031960e085901b1681526001600160a01b03909216600483015260248201526044016020604051808303816000875af11580156122ca573d6000803e3d6000fd5b505050506040513d601f19601f820116820180604052508101906122ee9190612dd5565b5084547ff4bff7ddf097f430e0163107b212ddccc7c9a80ff7d32462be0c6f30bbbad0df908783612320866001612df2565b60408051948552602085019390935291830152606082015260800160405180910390a161234d8184612df2565b92508085600a0160000160008282546123669190612df2565b90915550506009850180548a9190600090612382908490612df2565b909155505084547fe586f9a83f2ffed00511a0a180ebbe02001f778fc773252bd05a65bf364f74db90878b6123b8866001612df2565b60408051948552602085019390935291830152606082015260800160405180910390a184995050806123e990612f9b565b9050612204565b508061010560008282546124049190612df2565b90915550505050505050505050565b6001600160a01b0381163b6124805760405162461bcd60e51b815260206004820152602d60248201527f455243313936373a206e657720696d706c656d656e746174696f6e206973206e60448201526c1bdd08184818dbdb9d1c9858dd609a1b6064820152608401610409565b60008051602061306783398151915280546001600160a01b0319166001600160a01b0392909216919091179055565b6124b8836125d9565b6000825111806124c55750805b15611414576124d48383612619565b50505050565b600054610100900460ff166125015760405162461bcd60e51b815260040161040990612e3b565b6033805460ff19169055565b600054610100900460ff166125345760405162461bcd60e51b815260040161040990612e3b565b610800336115ab565b600060ff5482608001515103612551575060015b919050565b61255f8161253d565b156104a65760fd805461257490600190612fca565b8154811061258457612584612fb4565b906000526020600020015460fd6000815481106125a3576125a3612fb4565b60009182526020909120015560fd8054806125c0576125c0612fdd565b6001900381819060005260206000200160009055905550565b6125e281612413565b6040516001600160a01b038216907fbc7cd75a20ee27fd9adebab32041f755214dbc6bffa90cc0225b39da2e5c2d3b90600090a250565b60606001600160a01b0383163b6126815760405162461bcd60e51b815260206004820152602660248201527f416464726573733a2064656c65676174652063616c6c20746f206e6f6e2d636f6044820152651b9d1c9858dd60d21b6064820152608401610409565b600080846001600160a01b03168460405161269c9190613017565b600060405180830381855af49150503d80600081146126d7576040519150601f19603f3d011682016040523d82523d6000602084013e6126dc565b606091505b509150915061270482826040518060600160405280602781526020016130876027913961270f565b925050505b92915050565b6060831561271e57508161170e565b61170e83838151156127335781518083602001fd5b8060405162461bcd60e51b81526004016104099190613033565b82805482825590600052602060002090810192821561278d579160200282015b8281111561278d578251829060ff1690559160200191906001019061276d565b5061279992915061283d565b5090565b6040518061014001604052806000815260200160006001600160a01b03168152602001600081526020016000815260200160608152602001606081526020016060815260200161280760405180606001604052806000815260200160008152602001600081525090565b815260200161283060405180606001604052806000815260200160008152602001600081525090565b8152600060209091015290565b5b80821115612799576000815560010161283e565b602080825282518282018190526000919060409081850190868401855b828110156128c557815180516001600160a01b0390811686528782015188870152868201511515878701526060808301519091169086015260809081015115159085015260a0909301929085019060010161286f565b5091979650505050505050565b80356001600160a01b038116811461255157600080fd5b6000602082840312156128fb57600080fd5b61170e826128d2565b634e487b7160e01b600052604160045260246000fd5b6000806040838503121561292d57600080fd5b612936836128d2565b9150602083013567ffffffffffffffff8082111561295357600080fd5b818501915085601f83011261296757600080fd5b81358181111561297957612979612904565b604051601f8201601f19908116603f011681019083821181831017156129a1576129a1612904565b816040528281528860208487010111156129ba57600080fd5b8260208601602083013760006020848301015280955050505050509250929050565b80151581146104a657600080fd5b600080604083850312156129fd57600080fd5b612a06836128d2565b91506020830135612a16816129dc565b809150509250929050565b60ff811681146104a657600080fd5b600080600060608486031215612a4557600080fd5b8335612a5081612a21565b9250602084013591506040840135612a6781612a21565b809150509250925092565b600080600060608486031215612a8757600080fd5b83359250612a97602085016128d2565b9150612aa5604085016128d2565b90509250925092565b600060208284031215612ac057600080fd5b813561170e81612a21565b600081518084526020808501945080840160005b83811015612afb57815187529582019590820190600101612adf565b509495945050505050565b60208152815160208201526020820151604082015260ff6040830151166060820152606082015160808201526000608083015160c060a0840152612b4d60e0840182612acb565b905060a084015160c08401528091505092915050565b600080600060608486031215612b7857600080fd5b612b81846128d2565b92506020840135612a97816129dc565b602080825282516001600160a01b031682820152820151604080830152600090612bbe6060840182612acb565b949350505050565b600060208284031215612bd857600080fd5b5035919050565b600081518084526020808501945080840160005b83811015612afb578151805188528301518388015260409096019590820190600101612bf3565b602081528151602082015260006020830151612c4160408401826001600160a01b03169052565b50604083015160608301526060830151608083015260808301516101c08060a0850152612c726101e0850183612acb565b915060a0850151601f19808685030160c0870152612c908483612bdf565b935060c08701519150808685030160e087015250612cae8382612bdf565b92505060e0850151610100612cd9818701838051825260208082015190830152604090810151910152565b86015180516101608701526020810151610180870152604001516101a0860152506101209094015115159390920192909252919050565b6020808252602c908201527f46756e6374696f6e206d7573742062652063616c6c6564207468726f7567682060408201526b19195b1959d85d1958d85b1b60a21b606082015260800190565b6020808252602c908201527f46756e6374696f6e206d7573742062652063616c6c6564207468726f7567682060408201526b6163746976652070726f787960a01b606082015260800190565b634e487b7160e01b600052601160045260246000fd5b808202811582820484141761270957612709612da8565b600060208284031215612de757600080fd5b815161170e816129dc565b8082018082111561270957612709612da8565b600060208284031215612e1757600080fd5b815161170e81612a21565b600060208284031215612e3457600080fd5b5051919050565b6020808252602b908201527f496e697469616c697a61626c653a20636f6e7472616374206973206e6f74206960408201526a6e697469616c697a696e6760a81b606082015260800190565b600181815b80851115612ec1578160001904821115612ea757612ea7612da8565b80851615612eb457918102915b93841c9390800290612e8b565b509250929050565b600082612ed857506001612709565b81612ee557506000612709565b8160018114612efb5760028114612f0557612f21565b6001915050612709565b60ff841115612f1657612f16612da8565b50506001821b612709565b5060208310610133831016604e8410600b8410161715612f44575081810a612709565b612f4e8383612e86565b8060001904821115612f6257612f62612da8565b029392505050565b600061170e60ff841683612ec9565b600082612f9657634e487b7160e01b600052601260045260246000fd5b500490565b600060018201612fad57612fad612da8565b5060010190565b634e487b7160e01b600052603260045260246000fd5b8181038181111561270957612709612da8565b634e487b7160e01b600052603160045260246000fd5b60005b8381101561300e578181015183820152602001612ff6565b50506000910152565b60008251613029818460208701612ff3565b9190910192915050565b6020815260008251806020840152613052816040850160208701612ff3565b601f01601f1916919091016040019291505056fe360894a13ba1a3210667c828492db98dca3e2076cc3735a920a3ca505d382bbc416464726573733a206c6f772d6c6576656c2064656c65676174652063616c6c206661696c6564a2646970667358221220754b3c9e310b079f432e7db46e65632eb82942e0951fb75eee702841ae3d11c864736f6c63430008120033",
  "linkReferences": {},
  "deployedLinkReferences": {}
}