{
  "_format": "hh-sol-artifact-1",
  "contractName": "GlobalFiUpgradeableNew",
  "sourceName": "contracts/GlobalFIUpgradeableNew.sol",
  "abi": [
    {
      "anonymous": false,
      "inputs": [
        {
          "indexed": false,
          "internalType": "address",
          "name": "previousAdmin",
          "type": "address"
        },
        {
          "indexed": false,
          "internalType": "address",
          "name": "newAdmin",
          "type": "address"
        }
      ],
      "name": "AdminChanged",
      "type": "event"
    },
    {
      "anonymous": false,
      "inputs": [
        {
          "indexed": true,
          "internalType": "address",
          "name": "beacon",
          "type": "address"
        }
      ],
      "name": "BeaconUpgraded",
      "type": "event"
    },
    {
      "anonymous": false,
      "inputs": [
        {
          "indexed": false,
          "internalType": "uint256",
          "name": "referrerId",
          "type": "uint256"
        },
        {
          "indexed": false,
          "internalType": "uint256",
          "name": "userId",
          "type": "uint256"
        },
        {
          "indexed": false,
          "internalType": "uint256",
          "name": "valueInWei",
          "type": "uint256"
        }
      ],
      "name": "DirectBusinessUpdated",
      "type": "event"
    },
    {
      "anonymous": false,
      "inputs": [
        {
          "indexed": false,
          "internalType": "uint256",
          "name": "id",
          "type": "uint256"
        },
        {
          "indexed": false,
          "internalType": "uint8",
          "name": "poolId",
          "type": "uint8"
        },
        {
          "indexed": false,
          "internalType": "uint256",
          "name": "rewardInWei",
          "type": "uint256"
        }
      ],
      "name": "DistributedPoolReward",
      "type": "event"
    },
    {
      "anonymous": false,
      "inputs": [
        {
          "indexed": false,
          "internalType": "address",
          "name": "userAddress",
          "type": "address"
        },
        {
          "indexed": false,
          "internalType": "uint256",
          "name": "id",
          "type": "uint256"
        }
      ],
      "name": "IdOwnerUpdated",
      "type": "event"
    },
    {
      "anonymous": false,
      "inputs": [
        {
          "indexed": false,
          "internalType": "address",
          "name": "userAddress",
          "type": "address"
        },
        {
          "indexed": false,
          "internalType": "uint256",
          "name": "id",
          "type": "uint256"
        }
      ],
      "name": "IdUpdated",
      "type": "event"
    },
    {
      "anonymous": false,
      "inputs": [
        {
          "indexed": false,
          "internalType": "uint256",
          "name": "id",
          "type": "uint256"
        },
        {
          "indexed": false,
          "internalType": "uint8",
          "name": "poolId",
          "type": "uint8"
        }
      ],
      "name": "IdUpgradedInPool",
      "type": "event"
    },
    {
      "anonymous": false,
      "inputs": [
        {
          "indexed": false,
          "internalType": "uint8",
          "name": "version",
          "type": "uint8"
        }
      ],
      "name": "Initialized",
      "type": "event"
    },
    {
      "anonymous": false,
      "inputs": [
        {
          "indexed": true,
          "internalType": "address",
          "name": "previousOwner",
          "type": "address"
        },
        {
          "indexed": true,
          "internalType": "address",
          "name": "newOwner",
          "type": "address"
        }
      ],
      "name": "OwnershipTransferred",
      "type": "event"
    },
    {
      "anonymous": false,
      "inputs": [
        {
          "indexed": false,
          "internalType": "address",
          "name": "account",
          "type": "address"
        }
      ],
      "name": "Paused",
      "type": "event"
    },
    {
      "anonymous": false,
      "inputs": [
        {
          "indexed": false,
          "internalType": "uint256",
          "name": "parentId",
          "type": "uint256"
        },
        {
          "indexed": false,
          "internalType": "uint256",
          "name": "referrerId",
          "type": "uint256"
        },
        {
          "indexed": false,
          "internalType": "uint256",
          "name": "userId",
          "type": "uint256"
        }
      ],
      "name": "RefereeAssigned",
      "type": "event"
    },
    {
      "anonymous": false,
      "inputs": [
        {
          "indexed": false,
          "internalType": "uint256",
          "name": "referrerId",
          "type": "uint256"
        },
        {
          "indexed": false,
          "internalType": "uint256",
          "name": "userId",
          "type": "uint256"
        },
        {
          "indexed": false,
          "internalType": "uint256",
          "name": "referralValue",
          "type": "uint256"
        },
        {
          "indexed": false,
          "internalType": "uint256",
          "name": "level",
          "type": "uint256"
        }
      ],
      "name": "ReferralDistributed",
      "type": "event"
    },
    {
      "anonymous": false,
      "inputs": [
        {
          "indexed": false,
          "internalType": "uint256",
          "name": "referrerId",
          "type": "uint256"
        },
        {
          "indexed": false,
          "internalType": "uint256",
          "name": "userId",
          "type": "uint256"
        }
      ],
      "name": "ReferrerUpdated",
      "type": "event"
    },
    {
      "anonymous": false,
      "inputs": [
        {
          "indexed": false,
          "internalType": "address",
          "name": "newAddress",
          "type": "address"
        }
      ],
      "name": "SelfAddressUpdated",
      "type": "event"
    },
    {
      "anonymous": false,
      "inputs": [
        {
          "indexed": false,
          "internalType": "uint256",
          "name": "userId",
          "type": "uint256"
        },
        {
          "indexed": false,
          "internalType": "uint256",
          "name": "valueInWei",
          "type": "uint256"
        }
      ],
      "name": "SelfBusinessUpdated",
      "type": "event"
    },
    {
      "anonymous": false,
      "inputs": [
        {
          "indexed": false,
          "internalType": "uint256",
          "name": "referrerId",
          "type": "uint256"
        },
        {
          "indexed": false,
          "internalType": "uint256",
          "name": "userId",
          "type": "uint256"
        },
        {
          "indexed": false,
          "internalType": "uint256",
          "name": "valueInWei",
          "type": "uint256"
        },
        {
          "indexed": false,
          "internalType": "uint256",
          "name": "level",
          "type": "uint256"
        }
      ],
      "name": "TeamBusinessUpdated",
      "type": "event"
    },
    {
      "anonymous": false,
      "inputs": [
        {
          "indexed": false,
          "internalType": "address",
          "name": "parent",
          "type": "address"
        },
        {
          "indexed": false,
          "internalType": "address",
          "name": "user",
          "type": "address"
        }
      ],
      "name": "TeamNonGlobaRemoved",
      "type": "event"
    },
    {
      "anonymous": false,
      "inputs": [
        {
          "indexed": false,
          "internalType": "address",
          "name": "parent",
          "type": "address"
        },
        {
          "indexed": false,
          "internalType": "address",
          "name": "user",
          "type": "address"
        }
      ],
      "name": "TeamNonGlobalAdded",
      "type": "event"
    },
    {
      "anonymous": false,
      "inputs": [
        {
          "indexed": false,
          "internalType": "uint256",
          "name": "parent",
          "type": "uint256"
        },
        {
          "indexed": false,
          "internalType": "uint256",
          "name": "userId",
          "type": "uint256"
        }
      ],
      "name": "TeamUpdated",
      "type": "event"
    },
    {
      "anonymous": false,
      "inputs": [
        {
          "indexed": false,
          "internalType": "address",
          "name": "account",
          "type": "address"
        }
      ],
      "name": "Unpaused",
      "type": "event"
    },
    {
      "anonymous": false,
      "inputs": [
        {
          "indexed": true,
          "internalType": "address",
          "name": "implementation",
          "type": "address"
        }
      ],
      "name": "Upgraded",
      "type": "event"
    },
    {
      "inputs": [
        {
          "internalType": "address",
          "name": "_tokenContractAddress",
          "type": "address"
        },
        {
          "internalType": "bool",
          "name": "_isStable",
          "type": "bool"
        },
        {
          "internalType": "address",
          "name": "_aggregatorContractAddress",
          "type": "address"
        }
      ],
      "name": "addBaseCurrency",
      "outputs": [],
      "stateMutability": "nonpayable",
      "type": "function"
    },
    {
      "inputs": [
        {
          "internalType": "uint256",
          "name": "_id",
          "type": "uint256"
        }
      ],
      "name": "getIdAccount",
      "outputs": [
        {
          "components": [
            {
              "internalType": "uint256",
              "name": "id",
              "type": "uint256"
            },
            {
              "internalType": "address",
              "name": "owner",
              "type": "address"
            },
            {
              "internalType": "uint256",
              "name": "referrerId",
              "type": "uint256"
            },
            {
              "internalType": "uint256",
              "name": "parentId",
              "type": "uint256"
            },
            {
              "internalType": "uint256[]",
              "name": "refereeIds",
              "type": "uint256[]"
            },
            {
              "components": [
                {
                  "internalType": "uint256",
                  "name": "refereeId",
                  "type": "uint256"
                },
                {
                  "internalType": "uint256",
                  "name": "assignedToid",
                  "type": "uint256"
                }
              ],
              "internalType": "struct RefereeAssignedStruct[]",
              "name": "refereesAssigned",
              "type": "tuple[]"
            },
            {
              "components": [
                {
                  "internalType": "uint256",
                  "name": "teamId",
                  "type": "uint256"
                },
                {
                  "internalType": "uint256",
                  "name": "teamLevel",
                  "type": "uint256"
                }
              ],
              "internalType": "struct TeamStruct[]",
              "name": "team",
              "type": "tuple[]"
            },
            {
              "components": [
                {
                  "internalType": "uint256",
                  "name": "selfBusiness",
                  "type": "uint256"
                },
                {
                  "internalType": "uint256",
                  "name": "directBusiness",
                  "type": "uint256"
                },
                {
                  "internalType": "uint256",
                  "name": "teamBusiness",
                  "type": "uint256"
                }
              ],
              "internalType": "struct BusinessStruct",
              "name": "business",
              "type": "tuple"
            },
            {
              "components": [
                {
                  "internalType": "uint256",
                  "name": "referralRewards",
                  "type": "uint256"
                },
                {
                  "internalType": "uint256",
                  "name": "spillOverRewards",
                  "type": "uint256"
                },
                {
                  "internalType": "uint256",
                  "name": "globalRewards",
                  "type": "uint256"
                }
              ],
              "internalType": "struct RewardsStruct",
              "name": "rewards",
              "type": "tuple"
            },
            {
              "internalType": "bool",
              "name": "isInPool",
              "type": "bool"
            }
          ],
          "internalType": "struct IdStruct",
          "name": "",
          "type": "tuple"
        }
      ],
      "stateMutability": "view",
      "type": "function"
    },
    {
      "inputs": [
        {
          "internalType": "uint8",
          "name": "_poolId",
          "type": "uint8"
        }
      ],
      "name": "getPools",
      "outputs": [
        {
          "components": [
            {
              "internalType": "uint8",
              "name": "poolId",
              "type": "uint8"
            },
            {
              "internalType": "uint256",
              "name": "rewardToDistribute",
              "type": "uint256"
            },
            {
              "internalType": "uint8",
              "name": "minUserCounter",
              "type": "uint8"
            },
            {
              "internalType": "uint256",
              "name": "userCountToUpgrade",
              "type": "uint256"
            },
            {
              "internalType": "uint256",
              "name": "count",
              "type": "uint256"
            },
            {
              "internalType": "uint256[]",
              "name": "userIds",
              "type": "uint256[]"
            },
            {
              "internalType": "uint256",
              "name": "totalRewardDistributed",
              "type": "uint256"
            }
          ],
          "internalType": "struct PoolStruct",
          "name": "",
          "type": "tuple"
        }
      ],
      "stateMutability": "view",
      "type": "function"
    },
    {
      "inputs": [],
      "name": "getSupportedCurrencies",
      "outputs": [
        {
          "components": [
            {
              "internalType": "address",
              "name": "contractAddress",
              "type": "address"
            },
            {
              "internalType": "uint256",
              "name": "decimals",
              "type": "uint256"
            },
            {
              "internalType": "bool",
              "name": "isStable",
              "type": "bool"
            },
            {
              "internalType": "address",
              "name": "aggregatorAddress",
              "type": "address"
            },
            {
              "internalType": "bool",
              "name": "isEnaled",
              "type": "bool"
            }
          ],
          "internalType": "struct SupportedTokensStruct[]",
          "name": "",
          "type": "tuple[]"
        }
      ],
      "stateMutability": "view",
      "type": "function"
    },
    {
      "inputs": [
        {
          "internalType": "address",
          "name": "_userAddress",
          "type": "address"
        }
      ],
      "name": "getUserAccount",
      "outputs": [
        {
          "components": [
            {
              "internalType": "address",
              "name": "selfAddress",
              "type": "address"
            },
            {
              "internalType": "uint256[]",
              "name": "ids",
              "type": "uint256[]"
            }
          ],
          "internalType": "struct AccountStruct",
          "name": "",
          "type": "tuple"
        }
      ],
      "stateMutability": "view",
      "type": "function"
    },
    {
      "inputs": [],
      "name": "initialize",
      "outputs": [],
      "stateMutability": "nonpayable",
      "type": "function"
    },
    {
      "inputs": [],
      "name": "owner",
      "outputs": [
        {
          "internalType": "address",
          "name": "",
          "type": "address"
        }
      ],
      "stateMutability": "view",
      "type": "function"
    },
    {
      "inputs": [],
      "name": "paused",
      "outputs": [
        {
          "internalType": "bool",
          "name": "",
          "type": "bool"
        }
      ],
      "stateMutability": "view",
      "type": "function"
    },
    {
      "inputs": [],
      "name": "proxiableUUID",
      "outputs": [
        {
          "internalType": "bytes32",
          "name": "",
          "type": "bytes32"
        }
      ],
      "stateMutability": "view",
      "type": "function"
    },
    {
      "inputs": [
        {
          "internalType": "uint256",
          "name": "_referrerId",
          "type": "uint256"
        },
        {
          "internalType": "address",
          "name": "_userAddress",
          "type": "address"
        },
        {
          "internalType": "address",
          "name": "_tokenAddress",
          "type": "address"
        }
      ],
      "name": "register",
      "outputs": [],
      "stateMutability": "nonpayable",
      "type": "function"
    },
    {
      "inputs": [
        {
          "internalType": "address",
          "name": "_tokenContractAddress",
          "type": "address"
        },
        {
          "internalType": "bool",
          "name": "_status",
          "type": "bool"
        }
      ],
      "name": "removeBaseCurrency",
      "outputs": [],
      "stateMutability": "nonpayable",
      "type": "function"
    },
    {
      "inputs": [],
      "name": "renounceOwnership",
      "outputs": [],
      "stateMutability": "nonpayable",
      "type": "function"
    },
    {
      "inputs": [
        {
          "internalType": "uint8",
          "name": "_poolId",
          "type": "uint8"
        },
        {
          "internalType": "uint256",
          "name": "_rewardToDistributeInDecimals",
          "type": "uint256"
        },
        {
          "internalType": "uint8",
          "name": "_minUserCounter",
          "type": "uint8"
        }
      ],
      "name": "setPools",
      "outputs": [],
      "stateMutability": "nonpayable",
      "type": "function"
    },
    {
      "inputs": [
        {
          "internalType": "address",
          "name": "newOwner",
          "type": "address"
        }
      ],
      "name": "transferOwnership",
      "outputs": [],
      "stateMutability": "nonpayable",
      "type": "function"
    },
    {
      "inputs": [
        {
          "internalType": "address",
          "name": "newImplementation",
          "type": "address"
        }
      ],
      "name": "upgradeTo",
      "outputs": [],
      "stateMutability": "nonpayable",
      "type": "function"
    },
    {
      "inputs": [
        {
          "internalType": "address",
          "name": "newImplementation",
          "type": "address"
        },
        {
          "internalType": "bytes",
          "name": "data",
          "type": "bytes"
        }
      ],
      "name": "upgradeToAndCall",
      "outputs": [],
      "stateMutability": "payable",
      "type": "function"
    }
  ],
  "bytecode": "0x60a06040523060805234801561001457600080fd5b5060805161350961004c600039600081816103cb01528181610414015281816104b3015281816104f3015261058601526135096000f3fe6080604052600436106100f35760003560e01c80638129fc1c1161008a578063f2fde38b11610059578063f2fde38b1461027d578063f782abc71461029d578063fb47e016146102bd578063ff43599c146102ea57600080fd5b80638129fc1c146101f35780638da5cb5b14610208578063a73c50fa14610230578063c48d8e021461025057600080fd5b806354f132e8116100c657806354f132e81461017b5780635bc62ff81461019b5780635c975abb146101bb578063715018a6146101de57600080fd5b80632ce75863146100f85780633659cfe6146101235780634f1ef2861461014557806352d1902d14610158575b600080fd5b34801561010457600080fd5b5061010d610317565b60405161011a9190612c32565b60405180910390f35b34801561012f57600080fd5b5061014361013e366004612cc9565b6103c1565b005b610143610153366004612cfa565b6104a9565b34801561016457600080fd5b5061016d610579565b60405190815260200161011a565b34801561018757600080fd5b50610143610196366004612dca565b61062c565b3480156101a757600080fd5b506101436101b6366004612e10565b6107a0565b3480156101c757600080fd5b5060335460ff16604051901515815260200161011a565b3480156101ea57600080fd5b506101436107f6565b3480156101ff57600080fd5b5061014361080a565b34801561021457600080fd5b506065546040516001600160a01b03909116815260200161011a565b34801561023c57600080fd5b5061014361024b366004612e52565b610981565b34801561025c57600080fd5b5061027061026b366004612e8e565b610d5e565b60405161011a9190612ee6565b34801561028957600080fd5b50610143610298366004612cc9565b610e5b565b3480156102a957600080fd5b506101436102b8366004612f51565b610ed1565b3480156102c957600080fd5b506102dd6102d8366004612cc9565b611164565b60405161011a9190612f7f565b3480156102f657600080fd5b5061030a610305366004612fb4565b611202565b60405161011a9190613008565b6060610107805480602002602001604051908101604052809291908181526020016000905b828210156103b85760008481526020908190206040805160a0810182526003860290920180546001600160a01b0390811684526001808301548587015260029092015460ff80821615159486019490945261010081049091166060850152600160a81b900490911615156080830152908352909201910161033c565b50505050905090565b6001600160a01b037f00000000000000000000000000000000000000000000000000000000000000001630036104125760405162461bcd60e51b8152600401610409906130fe565b60405180910390fd5b7f00000000000000000000000000000000000000000000000000000000000000006001600160a01b031661045b60008051602061348d833981519152546001600160a01b031690565b6001600160a01b0316146104815760405162461bcd60e51b81526004016104099061314a565b61048a816113f7565b604080516000808252602082019092526104a6918391906113ff565b50565b6001600160a01b037f00000000000000000000000000000000000000000000000000000000000000001630036104f15760405162461bcd60e51b8152600401610409906130fe565b7f00000000000000000000000000000000000000000000000000000000000000006001600160a01b031661053a60008051602061348d833981519152546001600160a01b031690565b6001600160a01b0316146105605760405162461bcd60e51b81526004016104099061314a565b610569826113f7565b610575828260016113ff565b5050565b6000306001600160a01b037f000000000000000000000000000000000000000000000000000000000000000016146106195760405162461bcd60e51b815260206004820152603860248201527f555550535570677261646561626c653a206d757374206e6f742062652063616c60448201527f6c6564207468726f7567682064656c656761746563616c6c00000000000000006064820152608401610409565b5060008051602061348d83398151915290565b61063461156f565b6001600160a01b03828116600090815261010a6020526040902054166106b95760405162461bcd60e51b815260206004820152603460248201527f736574537570706f72746564546f6b656e53746174757328293a20546f6b656e6044820152731034b9903737ba1030b23232b21030b23232b21760611b6064820152608401610409565b6001600160a01b038216600090815261010a6020526040902060020154811515600160a81b90910460ff161515036107675760405162461bcd60e51b815260206004820152604560248201527f736574537570706f72746564546f6b656e53746174757328293a20546f6b656e60448201527f2073746174757320697320616c72656164792073616d65206173206d656e746960648201526437b732b21760d91b608482015260a401610409565b6001600160a01b03909116600090815261010a602052604090206002018054911515600160a81b0260ff60a81b19909216919091179055565b6107a861156f565b60ff8316600081815261010b60205260409020805460ff191690911781556107d883670de0b6b3a76400006131ac565b6001820155600201805460ff191660ff929092169190911790555050565b6107fe61156f565b61080860006115c9565b565b600054610100900460ff161580801561082a5750600054600160ff909116105b806108445750303b158015610844575060005460ff166001145b6108a75760405162461bcd60e51b815260206004820152602e60248201527f496e697469616c697a61626c653a20636f6e747261637420697320616c72656160448201526d191e481a5b9a5d1a585b1a5e995960921b6064820152608401610409565b6000805460ff1916600117905580156108ca576000805461ff0019166101001790555b600260ff556040805160208101909152603281526108ec9060fe906001612b2d565b50610100805460ff1916601417905561010280546001600160a01b03191633179055678ac7230489e800006101015560056101045561092961161b565b61093161164a565b610939611679565b80156104a6576000805461ff0019169055604051600181527f7f26b83ff96e1f2b6a682f133852f6798a09c465da95921460cefb38474024989060200160405180910390a150565b610101546001600160a01b038216600090815261010a6020526040902060020154339190600160a81b900460ff1615610a4357826001600160a01b031663a9059cbb836109ce84876116a0565b6040516001600160e01b031960e085901b1681526001600160a01b03909216600483015260248201526044016020604051808303816000875af1158015610a19573d6000803e3d6000fd5b505050506040513d601f19601f82011682018060405250810190610a3d91906131c3565b50610aaa565b60405162461bcd60e51b815260206004820152603660248201527f726567697374657228293a20426173652043757272656e6379206973206e6f746044820152751039bab83837b93a32b21037b91032b730b13632b21760511b6064820152608401610409565b6000858152610109602090815260408083206001600160a01b0388168452610108909252909120610adb8187611733565b6000610ae56117ab565b600081815261010960205260409020909150610b0181846117c1565b5060408051610140810182528254815260018301546001600160a01b031660208083019190915260028401548284015260038401546060830152600484018054845181840281018401909552808552610d169486936080860193919290830182828015610b8d57602002820191906000526020600020905b815481526020019060010190808311610b79575b5050505050815260200160058201805480602002602001604051908101604052809291908181526020016000905b82821015610c0157838290600052602060002090600202016040518060400160405290816000820154815260200160018201548152505081526020019060010190610bbb565b50505050815260200160068201805480602002602001604051908101604052809291908181526020016000905b82821015610c7457838290600052602060002090600202016040518060400160405290816000820154815260200160018201548152505081526020019060010190610c2e565b5050509082525060408051606080820183526007850154825260088501546020838101919091526009860154838501528085019290925282518082018452600a8601548152600b86015492810192909252600c8501548284015291830152600d9092015460ff1615159101525160fd80546001810182556000919091527f9346ac6dd7de6b96975fec380d4d994c4c12e6a8897544f22915316cc6cca2800155565b6000610d228583611902565b9050610d2e82876120da565b610d3a8287838b61212e565b856101066000828254610d4d91906131e0565b909155505050505050505050505050565b610da46040518060e00160405280600060ff16815260200160008152602001600060ff168152602001600081526020016000815260200160608152602001600081525090565b60ff808316600090815261010b6020908152604091829020825160e0810184528154851681526001820154818401526002820154909416848401526003810154606085015260048101546080850152600581018054845181850281018501909552808552919360a0860193909290830182828015610e4157602002820191906000526020600020905b815481526020019060010190808311610e2d575b505050505081526020016006820154815250509050919050565b610e6361156f565b6001600160a01b038116610ec85760405162461bcd60e51b815260206004820152602660248201527f4f776e61626c653a206e6577206f776e657220697320746865207a65726f206160448201526564647265737360d01b6064820152608401610409565b6104a6816115c9565b610ed961156f565b6001600160a01b03838116600090815261010a60205260409020541615610f5e5760405162461bcd60e51b815260206004820152603360248201527f70757368537570706f72746564546f6b656e546f4c69737428293a20546f6b65604482015272371034b99030b63932b0b23c9030b23232b21760691b6064820152608401610409565b6040518060a00160405280846001600160a01b03168152602001846001600160a01b031663313ce5676040518163ffffffff1660e01b8152600401602060405180830381865afa158015610fb6573d6000803e3d6000fd5b505050506040513d601f19601f82011682018060405250810190610fda91906131f3565b60ff90811682529315156020808301919091526001600160a01b0393841660408084019190915260016060938401819052968516600090815261010a8352818120855181549088166001600160a01b031991821617825593860151818a0190815592860151600282018054968801516080909801511515600160a81b90810260ff60a81b19998b16610100908102610100600160a81b031995151586166001600160a81b03199b8c1617178b1691909117835561010780549d8e01815590955292546003909b027f47c4908e245f386bfc1825973249847f4053a761ddb4880ad63c323a7b5a2a25810180549097169b8a169b909b1790955592547f47c4908e245f386bfc1825973249847f4053a761ddb4880ad63c323a7b5a2a268a015583547f47c4908e245f386bfc1825973249847f4053a761ddb4880ad63c323a7b5a2a279099018054998916151560ff198b1681178255855484900490981690920296909216979093169690961793909317808255925485900490931615159093029216919091179055565b6040805180820190915260008152606060208201526001600160a01b038083166000908152610108602090815260409182902082518084018452815490941684526001810180548451818502810185019095528085529193858401939092908301828280156111f257602002820191906000526020600020905b8154815260200190600101908083116111de575b5050505050815250509050919050565b61120a612b7d565b600082815261010960209081526040918290208251610140810184528154815260018201546001600160a01b03168184015260028201548185015260038201546060820152600482018054855181860281018601909652808652919492936080860193929083018282801561129e57602002820191906000526020600020905b81548152602001906001019080831161128a575b5050505050815260200160058201805480602002602001604051908101604052809291908181526020016000905b82821015611312578382906000526020600020906002020160405180604001604052908160008201548152602001600182015481525050815260200190600101906112cc565b50505050815260200160068201805480602002602001604051908101604052809291908181526020016000905b828210156113855783829060005260206000209060020201604051806040016040529081600082015481526020016001820154815250508152602001906001019061133f565b5050509082525060408051606080820183526007850154825260088501546020838101919091526009860154838501528085019290925282518082018452600a8601548152600b86015492810192909252600c8501548284015291830152600d9092015460ff16151591015292915050565b6104a661156f565b7f4910fdfa16fed3260ed0e7147f7cc6da11a60208b5b9406d12a635614ffd91435460ff16156114375761143283612446565b505050565b826001600160a01b03166352d1902d6040518163ffffffff1660e01b8152600401602060405180830381865afa925050508015611491575060408051601f3d908101601f1916820190925261148e91810190613210565b60015b6114f45760405162461bcd60e51b815260206004820152602e60248201527f45524331393637557067726164653a206e657720696d706c656d656e7461746960448201526d6f6e206973206e6f74205555505360901b6064820152608401610409565b60008051602061348d83398151915281146115635760405162461bcd60e51b815260206004820152602960248201527f45524331393637557067726164653a20756e737570706f727465642070726f786044820152681a58589b195555525160ba1b6064820152608401610409565b506114328383836124e2565b6065546001600160a01b031633146108085760405162461bcd60e51b815260206004820181905260248201527f4f776e61626c653a2063616c6c6572206973206e6f7420746865206f776e65726044820152606401610409565b606580546001600160a01b038381166001600160a01b0319831681179093556040519116919082907f8be0079c531659141344cd1fd0a4f28419497f9722a3daafe3b4186f6b6457e090600090a35050565b600054610100900460ff166116425760405162461bcd60e51b815260040161040990613229565b61080861250d565b600054610100900460ff166116715760405162461bcd60e51b815260040161040990613229565b610808612540565b600054610100900460ff166108085760405162461bcd60e51b815260040161040990613229565b6000670de0b6b3a7640000826001600160a01b031663313ce5676040518163ffffffff1660e01b8152600401602060405180830381865afa1580156116e9573d6000803e3d6000fd5b505050506040513d601f19601f8201168201806040525081019061170d91906131f3565b61171890600a613358565b61172290856131ac565b61172c9190613367565b9392505050565b81546001600160a01b031615801561175357506001600160a01b03811615155b156105755781546001600160a01b0319166001600160a01b03821690811783556040519081527f3b819cfb39116b78a5d1267e92ab85058e96d63a7882322d296ab4135720b79a906020015b60405180910390a15050565b600060fc5460016117bc91906131e0565b905090565b81546000901561181f5760405162461bcd60e51b815260206004820152602360248201527f5f757064617465496428293a20496420697320616c726561647920637265617460448201526232b21760e91b6064820152608401610409565b60fc805490600061182f83613389565b909155505060fc5480845560018381018054918201815560009081526020908190209091018290558354604080516001600160a01b0390921682529181018390529192507f1edfaf20eb0251dd2ca45e125c8b9a615022667b9822cf6a8dc1d2ce7e91ea68910160405180910390a181546001840180546001600160a01b0319166001600160a01b03928316179055825460408051919092168152602081018390527f4f3673673d1e6f88f67f26845b9609a7707201984d7885988d35aedf43b9fe44910160405180910390a192915050565b80546000906119196065546001600160a01b031690565b6001600160a01b0316336001600160a01b0316146119975783546000036119975760405162461bcd60e51b815260206004820152602c60248201527f5f616464526566657272657228293a2052656665727265204964206973206e6f60448201526b3a1030b1ba34bb30ba32b21760a11b6064820152608401610409565b80846002015403611a055760405162461bcd60e51b815260206004820152603260248201527f5f616464526566657272657228293a20526566657265652063616e6e6f74206260448201527132903932b332b93932b9103ab83634b7329760711b6064820152608401610409565b8015611a665760405162461bcd60e51b815260206004820152602a60248201527f5f616464526566657272657228293a205573657220726566657272657220616c6044820152693932b0b23c9039b2ba1760b11b6064820152608401610409565b60408051610140810182528554815260018601546001600160a01b031660208083019190915260028701548284015260038701546060830152600487018054845181840281018401909552808552611c499489936080860193919290830182828015611af157602002820191906000526020600020905b815481526020019060010190808311611add575b5050505050815260200160058201805480602002602001604051908101604052809291908181526020016000905b82821015611b6557838290600052602060002090600202016040518060400160405290816000820154815260200160018201548152505081526020019060010190611b1f565b50505050815260200160068201805480602002602001604051908101604052809291908181526020016000905b82821015611bd857838290600052602060002090600202016040518060400160405290816000820154815260200160018201548152505081526020019060010190611b92565b5050509082525060408051606080820183526007850154825260088501546020838101919091526009860154838501528085019290925282518082018452600a8601548152600b86015492810192909252600c8501548284015291830152600d9092015460ff161515910152612570565b611cb55783546002840181905560038401556004840180546001810182556000918252602091829020018290558454604080519182529181018390527fe6b2c1ca4b33533eddccfdd2dd0fbe5ff44d75017001d4b2329b4daee1821436910160405180910390a1612018565b60fd54611d105760405162461bcd60e51b8152602060048201526024808201527f5f616464526566657272657228293a20476c6f62616c2069647320617265206f6044820152633b32b91760e11b6064820152608401610409565b6000610109600060fd600081548110611d2b57611d2b6133a2565b600091825260208083209190910154835282810193909352604091820181208054600289810191909155895460038a015583518085018552878152825481870190815260058c0180546001808201835591875295889020925195909302909101938455519201919091558754815483519182529381019390935290820184905291507f347a3b2fe969c7ab7c51c290dbcae965d7b5a6b03d2b9336a480169d79a5f51f9060600160405180910390a16004810180546001810182556000918252602091829020018390558154604080519182529181018490527fe6b2c1ca4b33533eddccfdd2dd0fbe5ff44d75017001d4b2329b4daee1821436910160405180910390a160408051610140810182528254815260018301546001600160a01b0316602080830191909152600284015482840152600384015460608301526004840180548451818402810184019095528085526120129486936080860193919290830182828015611eba57602002820191906000526020600020905b815481526020019060010190808311611ea6575b5050505050815260200160058201805480602002602001604051908101604052809291908181526020016000905b82821015611f2e57838290600052602060002090600202016040518060400160405290816000820154815260200160018201548152505081526020019060010190611ee8565b50505050815260200160068201805480602002602001604051908101604052809291908181526020016000905b82821015611fa157838290600052602060002090600202016040518060400160405290816000820154815260200160018201548152505081526020019060010190611f5b565b5050509082525060408051606080820183526007850154825260088501546020838101919091526009860154838501528085019290925282518082018452600a8601548152600b86015492810192909252600c8501548284015291830152600d9092015460ff161515910152612589565b60019250505b6101005460ff1660005b818110156120d1578454600090815261010960209081526040918290208251808401909352858352916006830191810161205d8560016131e0565b905281546001808201845560009384526020938490208351600290930201918255918301519101558154604080519182529181018690527f48e403ae2a509cd9336134c0899083ba110bf3a35566606add88a2066ccbaa1a910160405180910390a194506120ca81613389565b9050612022565b50505092915050565b808260070160000160008282546120f191906131e0565b9091555050815460408051918252602082018390527f7bc272836d15a231dbca2c8759d5bb751d4ecf39d918fef56f6cc2fc3c2386b0910161179f565b83546000831561215257506003850154600090815261010960205260409020612168565b5060028501546000908152610109602052604090205b8481600701600101600082825461217f91906131e0565b90915550508054865460408051928352602083019190915281018690527f57b50e0e70daa32ac46409245990bb5a21b96da6f9c1bcbba5424aa58723907a9060600160405180910390a1600060fe80548060200260200160405190810160405280929190818152602001828054801561221757602002820191906000526020600020905b815481526020019060010190808311612203575b505050505090506000805b825181101561241a5760028901546000908152610109602052604081209450819003612251576122518461260c565b60006064848381518110612267576122676133a2565b60200260200101518a61227a91906131ac565b6122849190613367565b60018601549091506001600160a01b038089169163a9059cbb91166122a9848b6116a0565b6040516001600160e01b031960e085901b1681526001600160a01b03909216600483015260248201526044016020604051808303816000875af11580156122f4573d6000803e3d6000fd5b505050506040513d601f19601f8201168201806040525081019061231891906131c3565b5084547ff4bff7ddf097f430e0163107b212ddccc7c9a80ff7d32462be0c6f30bbbad0df90878361234a8660016131e0565b60408051948552602085019390935291830152606082015260800160405180910390a161237781846131e0565b92508085600a01600001600082825461239091906131e0565b90915550506009850180548a91906000906123ac9084906131e0565b909155505084547fe586f9a83f2ffed00511a0a180ebbe02001f778fc773252bd05a65bf364f74db90878b6123e28660016131e0565b60408051948552602085019390935291830152606082015260800160405180910390a1849950508061241390613389565b9050612222565b5061242485612717565b80610105600082825461243791906131e0565b90915550505050505050505050565b6001600160a01b0381163b6124b35760405162461bcd60e51b815260206004820152602d60248201527f455243313936373a206e657720696d706c656d656e746174696f6e206973206e60448201526c1bdd08184818dbdb9d1c9858dd609a1b6064820152608401610409565b60008051602061348d83398151915280546001600160a01b0319166001600160a01b0392909216919091179055565b6124eb836129b9565b6000825111806124f85750805b156114325761250783836129f9565b50505050565b600054610100900460ff166125345760405162461bcd60e51b815260040161040990613229565b6033805460ff19169055565b600054610100900460ff166125675760405162461bcd60e51b815260040161040990613229565b610808336115c9565b600060ff5482608001515103612584575060015b919050565b61259281612570565b156104a65760fd80546125a7906001906133b8565b815481106125b7576125b76133a2565b906000526020600020015460fd6000815481106125d6576125d66133a2565b60009182526020909120015560fd8054806125f3576125f36133cb565b6001900381819060005260206000200160009055905550565b600d81015460ff166104a65761010b60205280547f6e52e526d0a430c19b585340217228bc17d6c1fa1e249cf1b148e60115ab6322805460018101825560009182527fcac8872e54ea00258b0d3696790d7823213af1134451fde9e6ae74c1f21f001f01919091557f6e52e526d0a430c19b585340217228bc17d6c1fa1e249cf1b148e60115ab632180547f6e52e526d0a430c19b585340217228bc17d6c1fa1e249cf1b148e60115ab631d929091906126c583613389565b9091555050600d8201805460ff1916600190811790915582546040517fdae0be714878398df4bce5e16513993cf11a07c4b626f7acf376a79f71f721f89261179f92825260ff16602082015260400190565b60015b60148160ff1610156105755760ff808216600090815261010b602052604081208054909216900361274a57505050565b6002810154600482015460ff909116116129a857600061010b8161276f8560016133e1565b60ff1660ff168152602001908152602001600020905080600501826005018360030154815481106127a2576127a26133a2565b6000918252602080832090910154835460018101855593835291209091015560038201546005830180547fdae0be714878398df4bce5e16513993cf11a07c4b626f7acf376a79f71f721f8929081106127fd576127fd6133a2565b906000526020600020015484600161281591906133e1565b6040805192835260ff90911660208301520160405180910390a1600061010960008460050185600301548154811061284f5761284f6133a2565b906000526020600020015481526020019081526020016000209050846001600160a01b031663a9059cbb8260010160009054906101000a90046001600160a01b031661289f8660010154896116a0565b6040516001600160e01b031960e085901b1681526001600160a01b03909216600483015260248201526044016020604051808303816000875af11580156128ea573d6000803e3d6000fd5b505050506040513d601f19601f8201168201806040525081019061290e91906131c3565b507f89b70f5f92b02d089769dea775c6dce9797ebfb25ae57bcfbab1d88a31a6721283600501846003015481548110612949576129496133a2565b60009182526020918290200154855460018701546040805193845260ff9092169383019390935281019190915260600160405180910390a1826001015483600601600082825461299991906131e0565b90915550506000600484015550505b506129b2816133fa565b905061271a565b6129c281612446565b6040516001600160a01b038216907fbc7cd75a20ee27fd9adebab32041f755214dbc6bffa90cc0225b39da2e5c2d3b90600090a250565b60606001600160a01b0383163b612a615760405162461bcd60e51b815260206004820152602660248201527f416464726573733a2064656c65676174652063616c6c20746f206e6f6e2d636f6044820152651b9d1c9858dd60d21b6064820152608401610409565b600080846001600160a01b031684604051612a7c919061343d565b600060405180830381855af49150503d8060008114612ab7576040519150601f19603f3d011682016040523d82523d6000602084013e612abc565b606091505b5091509150612ae482826040518060600160405280602781526020016134ad60279139612aef565b925050505b92915050565b60608315612afe57508161172c565b61172c8383815115612b135781518083602001fd5b8060405162461bcd60e51b81526004016104099190613459565b828054828255906000526020600020908101928215612b6d579160200282015b82811115612b6d578251829060ff16905591602001919060010190612b4d565b50612b79929150612c1d565b5090565b6040518061014001604052806000815260200160006001600160a01b031681526020016000815260200160008152602001606081526020016060815260200160608152602001612be760405180606001604052806000815260200160008152602001600081525090565b8152602001612c1060405180606001604052806000815260200160008152602001600081525090565b8152600060209091015290565b5b80821115612b795760008155600101612c1e565b602080825282518282018190526000919060409081850190868401855b82811015612ca557815180516001600160a01b0390811686528782015188870152868201511515878701526060808301519091169086015260809081015115159085015260a09093019290850190600101612c4f565b5091979650505050505050565b80356001600160a01b038116811461258457600080fd5b600060208284031215612cdb57600080fd5b61172c82612cb2565b634e487b7160e01b600052604160045260246000fd5b60008060408385031215612d0d57600080fd5b612d1683612cb2565b9150602083013567ffffffffffffffff80821115612d3357600080fd5b818501915085601f830112612d4757600080fd5b813581811115612d5957612d59612ce4565b604051601f8201601f19908116603f01168101908382118183101715612d8157612d81612ce4565b81604052828152886020848701011115612d9a57600080fd5b8260208601602083013760006020848301015280955050505050509250929050565b80151581146104a657600080fd5b60008060408385031215612ddd57600080fd5b612de683612cb2565b91506020830135612df681612dbc565b809150509250929050565b60ff811681146104a657600080fd5b600080600060608486031215612e2557600080fd5b8335612e3081612e01565b9250602084013591506040840135612e4781612e01565b809150509250925092565b600080600060608486031215612e6757600080fd5b83359250612e7760208501612cb2565b9150612e8560408501612cb2565b90509250925092565b600060208284031215612ea057600080fd5b813561172c81612e01565b600081518084526020808501945080840160005b83811015612edb57815187529582019590820190600101612ebf565b509495945050505050565b6020815260ff82511660208201526020820151604082015260ff604083015116606082015260608201516080820152608082015160a0820152600060a083015160e060c0840152612f3b610100840182612eab565b905060c084015160e08401528091505092915050565b600080600060608486031215612f6657600080fd5b612f6f84612cb2565b92506020840135612e7781612dbc565b602080825282516001600160a01b031682820152820151604080830152600090612fac6060840182612eab565b949350505050565b600060208284031215612fc657600080fd5b5035919050565b600081518084526020808501945080840160005b83811015612edb578151805188528301518388015260409096019590820190600101612fe1565b60208152815160208201526000602083015161302f60408401826001600160a01b03169052565b50604083015160608301526060830151608083015260808301516101c08060a08501526130606101e0850183612eab565b915060a0850151601f19808685030160c087015261307e8483612fcd565b935060c08701519150808685030160e08701525061309c8382612fcd565b92505060e08501516101006130c7818701838051825260208082015190830152604090810151910152565b86015180516101608701526020810151610180870152604001516101a0860152506101209094015115159390920192909252919050565b6020808252602c908201527f46756e6374696f6e206d7573742062652063616c6c6564207468726f7567682060408201526b19195b1959d85d1958d85b1b60a21b606082015260800190565b6020808252602c908201527f46756e6374696f6e206d7573742062652063616c6c6564207468726f7567682060408201526b6163746976652070726f787960a01b606082015260800190565b634e487b7160e01b600052601160045260246000fd5b8082028115828204841417612ae957612ae9613196565b6000602082840312156131d557600080fd5b815161172c81612dbc565b80820180821115612ae957612ae9613196565b60006020828403121561320557600080fd5b815161172c81612e01565b60006020828403121561322257600080fd5b5051919050565b6020808252602b908201527f496e697469616c697a61626c653a20636f6e7472616374206973206e6f74206960408201526a6e697469616c697a696e6760a81b606082015260800190565b600181815b808511156132af57816000190482111561329557613295613196565b808516156132a257918102915b93841c9390800290613279565b509250929050565b6000826132c657506001612ae9565b816132d357506000612ae9565b81600181146132e957600281146132f35761330f565b6001915050612ae9565b60ff84111561330457613304613196565b50506001821b612ae9565b5060208310610133831016604e8410600b8410161715613332575081810a612ae9565b61333c8383613274565b806000190482111561335057613350613196565b029392505050565b600061172c60ff8416836132b7565b60008261338457634e487b7160e01b600052601260045260246000fd5b500490565b60006001820161339b5761339b613196565b5060010190565b634e487b7160e01b600052603260045260246000fd5b81810381811115612ae957612ae9613196565b634e487b7160e01b600052603160045260246000fd5b60ff8181168382160190811115612ae957612ae9613196565b600060ff821660ff810361341057613410613196565b60010192915050565b60005b8381101561343457818101518382015260200161341c565b50506000910152565b6000825161344f818460208701613419565b9190910192915050565b6020815260008251806020840152613478816040850160208701613419565b601f01601f1916919091016040019291505056fe360894a13ba1a3210667c828492db98dca3e2076cc3735a920a3ca505d382bbc416464726573733a206c6f772d6c6576656c2064656c65676174652063616c6c206661696c6564a26469706673582212205dbf0c8514e7d19f7cea36d267d6640aa5f5226e5befabc8abd0399f4244e3e764736f6c63430008120033",
  "linkReferences": {},
  "deployedLinkReferences": {}
}