{"contracts/GlobalFIUpgradeable.sol":{"GlobalFiUpgradeable":{"abi":[{"anonymous":false,"inputs":[{"indexed":false,"internalType":"address","name":"previousAdmin","type":"address"},{"indexed":false,"internalType":"address","name":"newAdmin","type":"address"}],"name":"AdminChanged","type":"event"},{"anonymous":false,"inputs":[{"indexed":true,"internalType":"address","name":"beacon","type":"address"}],"name":"BeaconUpgraded","type":"event"},{"anonymous":false,"inputs":[{"indexed":false,"internalType":"uint256","name":"referrerId","type":"uint256"},{"indexed":false,"internalType":"uint256","name":"userId","type":"uint256"},{"indexed":false,"internalType":"uint256","name":"valueInWei","type":"uint256"}],"name":"DirectBusinessUpdated","type":"event"},{"anonymous":false,"inputs":[{"indexed":false,"internalType":"uint256","name":"id","type":"uint256"},{"indexed":false,"internalType":"uint8","name":"poolId","type":"uint8"},{"indexed":false,"internalType":"uint256","name":"rewardInWei","type":"uint256"}],"name":"DistributedPoolReward","type":"event"},{"anonymous":false,"inputs":[{"indexed":false,"internalType":"address","name":"userAddress","type":"address"},{"indexed":false,"internalType":"uint256","name":"id","type":"uint256"}],"name":"IdOwnerUpdated","type":"event"},{"anonymous":false,"inputs":[{"indexed":false,"internalType":"address","name":"userAddress","type":"address"},{"indexed":false,"internalType":"uint256","name":"id","type":"uint256"}],"name":"IdUpdated","type":"event"},{"anonymous":false,"inputs":[{"indexed":false,"internalType":"uint256","name":"id","type":"uint256"},{"indexed":false,"internalType":"uint8","name":"poolId","type":"uint8"}],"name":"IdUpgradedInPool","type":"event"},{"anonymous":false,"inputs":[{"indexed":false,"internalType":"uint8","name":"version","type":"uint8"}],"name":"Initialized","type":"event"},{"anonymous":false,"inputs":[{"indexed":true,"internalType":"address","name":"previousOwner","type":"address"},{"indexed":true,"internalType":"address","name":"newOwner","type":"address"}],"name":"OwnershipTransferred","type":"event"},{"anonymous":false,"inputs":[{"indexed":false,"internalType":"address","name":"account","type":"address"}],"name":"Paused","type":"event"},{"anonymous":false,"inputs":[{"indexed":false,"internalType":"uint256","name":"parentId","type":"uint256"},{"indexed":false,"internalType":"uint256","name":"referrerId","type":"uint256"},{"indexed":false,"internalType":"uint256","name":"userId","type":"uint256"}],"name":"RefereeAssigned","type":"event"},{"anonymous":false,"inputs":[{"indexed":false,"internalType":"uint256","name":"referrerId","type":"uint256"},{"indexed":false,"internalType":"uint256","name":"userId","type":"uint256"},{"indexed":false,"internalType":"uint256","name":"referralValue","type":"uint256"},{"indexed":false,"internalType":"uint256","name":"level","type":"uint256"}],"name":"ReferralDistributed","type":"event"},{"anonymous":false,"inputs":[{"indexed":false,"internalType":"uint256","name":"referrerId","type":"uint256"},{"indexed":false,"internalType":"uint256","name":"userId","type":"uint256"}],"name":"ReferrerUpdated","type":"event"},{"anonymous":false,"inputs":[{"indexed":false,"internalType":"address","name":"newAddress","type":"address"}],"name":"SelfAddressUpdated","type":"event"},{"anonymous":false,"inputs":[{"indexed":false,"internalType":"uint256","name":"userId","type":"uint256"},{"indexed":false,"internalType":"uint256","name":"valueInWei","type":"uint256"}],"name":"SelfBusinessUpdated","type":"event"},{"anonymous":false,"inputs":[{"indexed":false,"internalType":"uint256","name":"referrerId","type":"uint256"},{"indexed":false,"internalType":"uint256","name":"userId","type":"uint256"},{"indexed":false,"internalType":"uint256","name":"valueInWei","type":"uint256"},{"indexed":false,"internalType":"uint256","name":"level","type":"uint256"}],"name":"TeamBusinessUpdated","type":"event"},{"anonymous":false,"inputs":[{"indexed":false,"internalType":"address","name":"parent","type":"address"},{"indexed":false,"internalType":"address","name":"user","type":"address"}],"name":"TeamNonGlobaRemoved","type":"event"},{"anonymous":false,"inputs":[{"indexed":false,"internalType":"address","name":"parent","type":"address"},{"indexed":false,"internalType":"address","name":"user","type":"address"}],"name":"TeamNonGlobalAdded","type":"event"},{"anonymous":false,"inputs":[{"indexed":false,"internalType":"uint256","name":"parent","type":"uint256"},{"indexed":false,"internalType":"uint256","name":"userId","type":"uint256"}],"name":"TeamUpdated","type":"event"},{"anonymous":false,"inputs":[{"indexed":false,"internalType":"address","name":"account","type":"address"}],"name":"Unpaused","type":"event"},{"anonymous":false,"inputs":[{"indexed":true,"internalType":"address","name":"implementation","type":"address"}],"name":"Upgraded","type":"event"},{"inputs":[{"internalType":"address","name":"_tokenContractAddress","type":"address"},{"internalType":"bool","name":"_isStable","type":"bool"},{"internalType":"address","name":"_aggregatorContractAddress","type":"address"}],"name":"addBaseCurrency","outputs":[],"stateMutability":"nonpayable","type":"function"},{"inputs":[],"name":"getContractAnalytics","outputs":[{"internalType":"uint256","name":"usersCount","type":"uint256"},{"internalType":"uint256","name":"idsCount","type":"uint256"},{"internalType":"uint256","name":"nonGlobalIdsCount","type":"uint256"},{"internalType":"uint256","name":"totalReferralPaid","type":"uint256"},{"internalType":"uint256","name":"totalValueRegistered","type":"uint256"}],"stateMutability":"view","type":"function"},{"inputs":[],"name":"getContractDefaults","outputs":[{"internalType":"uint256[]","name":"levelRates","type":"uint256[]"},{"internalType":"uint256","name":"maxRefereeLimit","type":"uint256"},{"internalType":"uint256","name":"teamLevelsToCount","type":"uint256"},{"internalType":"uint256","name":"registrationAmountInUSD","type":"uint256"},{"internalType":"address","name":"adminAddress","type":"address"},{"internalType":"address","name":"taxBeneficiaryAddress","type":"address"},{"internalType":"uint256","name":"taxPer","type":"uint256"}],"stateMutability":"view","type":"function"},{"inputs":[{"internalType":"uint256","name":"_id","type":"uint256"}],"name":"getIdAccount","outputs":[{"components":[{"internalType":"uint256","name":"id","type":"uint256"},{"internalType":"address","name":"owner","type":"address"},{"internalType":"uint256","name":"referrerId","type":"uint256"},{"internalType":"uint256","name":"parentId","type":"uint256"},{"internalType":"uint256[]","name":"refereeIds","type":"uint256[]"},{"components":[{"internalType":"uint256","name":"refereeId","type":"uint256"},{"internalType":"uint256","name":"assignedToid","type":"uint256"}],"internalType":"struct RefereeAssignedStruct[]","name":"refereesAssigned","type":"tuple[]"},{"components":[{"internalType":"uint256","name":"teamId","type":"uint256"},{"internalType":"uint256","name":"teamLevel","type":"uint256"}],"internalType":"struct TeamStruct[]","name":"team","type":"tuple[]"},{"components":[{"internalType":"uint256","name":"selfBusiness","type":"uint256"},{"internalType":"uint256","name":"directBusiness","type":"uint256"},{"internalType":"uint256","name":"teamBusiness","type":"uint256"}],"internalType":"struct BusinessStruct","name":"business","type":"tuple"},{"components":[{"internalType":"uint256","name":"referralRewards","type":"uint256"},{"internalType":"uint256","name":"spillOverRewards","type":"uint256"},{"internalType":"uint256","name":"globalRewards","type":"uint256"}],"internalType":"struct RewardsStruct","name":"rewards","type":"tuple"},{"internalType":"bool","name":"isInPool","type":"bool"}],"internalType":"struct IdStruct","name":"","type":"tuple"}],"stateMutability":"view","type":"function"},{"inputs":[{"internalType":"uint8","name":"_poolId","type":"uint8"}],"name":"getPools","outputs":[{"components":[{"internalType":"uint8","name":"poolId","type":"uint8"},{"internalType":"uint256","name":"rewardToDistribute","type":"uint256"},{"internalType":"uint8","name":"minUserCounter","type":"uint8"},{"internalType":"uint256","name":"userCountToUpgrade","type":"uint256"},{"internalType":"uint256","name":"count","type":"uint256"},{"internalType":"uint256[]","name":"userIds","type":"uint256[]"},{"internalType":"uint256","name":"totalRewardDistributed","type":"uint256"}],"internalType":"struct PoolStruct","name":"","type":"tuple"}],"stateMutability":"view","type":"function"},{"inputs":[],"name":"getSupportedCurrencies","outputs":[{"components":[{"internalType":"address","name":"contractAddress","type":"address"},{"internalType":"uint256","name":"decimals","type":"uint256"},{"internalType":"bool","name":"isStable","type":"bool"},{"internalType":"address","name":"aggregatorAddress","type":"address"},{"internalType":"bool","name":"isEnaled","type":"bool"}],"internalType":"struct SupportedTokensStruct[]","name":"","type":"tuple[]"}],"stateMutability":"view","type":"function"},{"inputs":[{"internalType":"address","name":"_userAddress","type":"address"}],"name":"getUserAccount","outputs":[{"components":[{"internalType":"address","name":"selfAddress","type":"address"},{"internalType":"uint256[]","name":"ids","type":"uint256[]"}],"internalType":"struct AccountStruct","name":"","type":"tuple"}],"stateMutability":"view","type":"function"},{"inputs":[],"name":"initialize","outputs":[],"stateMutability":"nonpayable","type":"function"},{"inputs":[],"name":"owner","outputs":[{"internalType":"address","name":"","type":"address"}],"stateMutability":"view","type":"function"},{"inputs":[],"name":"paused","outputs":[{"internalType":"bool","name":"","type":"bool"}],"stateMutability":"view","type":"function"},{"inputs":[],"name":"proxiableUUID","outputs":[{"internalType":"bytes32","name":"","type":"bytes32"}],"stateMutability":"view","type":"function"},{"inputs":[{"internalType":"uint256","name":"_referrerId","type":"uint256"},{"internalType":"address","name":"_userAddress","type":"address"},{"internalType":"address","name":"_tokenAddress","type":"address"}],"name":"register","outputs":[],"stateMutability":"nonpayable","type":"function"},{"inputs":[{"internalType":"address","name":"_tokenContractAddress","type":"address"},{"internalType":"bool","name":"_status","type":"bool"}],"name":"removeBaseCurrency","outputs":[],"stateMutability":"nonpayable","type":"function"},{"inputs":[],"name":"renounceOwnership","outputs":[],"stateMutability":"nonpayable","type":"function"},{"inputs":[{"internalType":"uint8","name":"_poolId","type":"uint8"},{"internalType":"uint256","name":"_rewardToDistributeInDecimals","type":"uint256"},{"internalType":"uint8","name":"_minUserCounter","type":"uint8"}],"name":"setPools","outputs":[],"stateMutability":"nonpayable","type":"function"},{"inputs":[{"internalType":"address","name":"newOwner","type":"address"}],"name":"transferOwnership","outputs":[],"stateMutability":"nonpayable","type":"function"},{"inputs":[{"internalType":"address","name":"newImplementation","type":"address"}],"name":"upgradeTo","outputs":[],"stateMutability":"nonpayable","type":"function"},{"inputs":[{"internalType":"address","name":"newImplementation","type":"address"},{"internalType":"bytes","name":"data","type":"bytes"}],"name":"upgradeToAndCall","outputs":[],"stateMutability":"payable","type":"function"}],"evm":{"bytecode":{"linkReferences":{},"object":"60a060405230608052348015610013575f80fd5b506080516136df6100485f395f81816104ef01528181610538015281816105d50152818161061501526106a601526136df5ff3fe608060405260043610610105575f3560e01c80638129fc1c11610092578063c48d8e0211610062578063c48d8e02146102c3578063f2fde38b146102ef578063f782abc71461030e578063fb47e0161461032d578063ff43599c14610359575f80fd5b80638129fc1c1461022457806383b41e66146102385780638da5cb5b1461027d578063a73c50fa146102a4575f80fd5b806352d1902d116100d857806352d1902d1461018e57806354f132e8146101b05780635bc62ff8146101cf5780635c975abb146101ee578063715018a614610210575f80fd5b80631a746344146101095780632ce75863146101395780633659cfe61461015a5780634f1ef2861461017b575b5f80fd5b348015610114575f80fd5b5061011d610385565b6040516101309796959493929190612d86565b60405180910390f35b348015610144575f80fd5b5061014d61043d565b6040516101309190612dfb565b348015610165575f80fd5b50610179610174366004612e90565b6104e5565b005b610179610189366004612ebd565b6105cb565b348015610199575f80fd5b506101a261069a565b604051908152602001610130565b3480156101bb575f80fd5b506101796101ca366004612f86565b61074b565b3480156101da575f80fd5b506101796101e9366004612fc9565b6108bc565b3480156101f9575f80fd5b5060335460ff166040519015158152602001610130565b34801561021b575f80fd5b50610179610911565b34801561022f575f80fd5b50610179610924565b348015610243575f80fd5b5060fb5460fc5460fd546101055461010654604080519586526020860194909452928401919091526060830152608082015260a001610130565b348015610288575f80fd5b506065546040516001600160a01b039091168152602001610130565b3480156102af575f80fd5b506101796102be366004613008565b610ab8565b3480156102ce575f80fd5b506102e26102dd366004613041565b610ebe565b6040516101309190613095565b3480156102fa575f80fd5b50610179610309366004612e90565b610fb2565b348015610319575f80fd5b506101796103283660046130ff565b611028565b348015610338575f80fd5b5061034c610347366004612e90565b6112b7565b604051610130919061312a565b348015610364575f80fd5b5061037861037336600461315e565b611351565b60405161013091906131ae565b60605f805f805f8060fe8054806020026020016040519081016040528092919081815260200182805480156103d757602002820191905f5260205f20905b8154815260200190600101908083116103c3575b5050505050965060ff5495506101005f9054906101000a900460ff1660ff1694506101015493506101025f9054906101000a90046001600160a01b031692506101035f9054906101000a90046001600160a01b0316915061010454905090919293949596565b6060610107805480602002602001604051908101604052809291908181526020015f905b828210156104dc575f8481526020908190206040805160a0810182526003860290920180546001600160a01b0390811684526001808301548587015260029092015460ff80821615159486019490945261010081049091166060850152600160a81b9004909116151560808301529083529092019101610461565b50505050905090565b6001600160a01b037f00000000000000000000000000000000000000000000000000000000000000001630036105365760405162461bcd60e51b815260040161052d906132a3565b60405180910390fd5b7f00000000000000000000000000000000000000000000000000000000000000006001600160a01b031661057e5f80516020613663833981519152546001600160a01b031690565b6001600160a01b0316146105a45760405162461bcd60e51b815260040161052d906132ef565b6105ad8161153b565b604080515f808252602082019092526105c891839190611543565b50565b6001600160a01b037f00000000000000000000000000000000000000000000000000000000000000001630036106135760405162461bcd60e51b815260040161052d906132a3565b7f00000000000000000000000000000000000000000000000000000000000000006001600160a01b031661065b5f80516020613663833981519152546001600160a01b031690565b6001600160a01b0316146106815760405162461bcd60e51b815260040161052d906132ef565b61068a8261153b565b61069682826001611543565b5050565b5f306001600160a01b037f000000000000000000000000000000000000000000000000000000000000000016146107395760405162461bcd60e51b815260206004820152603860248201527f555550535570677261646561626c653a206d757374206e6f742062652063616c60448201527f6c6564207468726f7567682064656c656761746563616c6c0000000000000000606482015260840161052d565b505f8051602061366383398151915290565b6107536116b2565b6001600160a01b038281165f90815261010b6020526040902054166107d75760405162461bcd60e51b815260206004820152603460248201527f736574537570706f72746564546f6b656e53746174757328293a20546f6b656e6044820152731034b9903737ba1030b23232b21030b23232b21760611b606482015260840161052d565b6001600160a01b0382165f90815261010b6020526040902060020154811515600160a81b90910460ff161515036108845760405162461bcd60e51b815260206004820152604560248201527f736574537570706f72746564546f6b656e53746174757328293a20546f6b656e60448201527f2073746174757320697320616c72656164792073616d65206173206d656e746960648201526437b732b21760d91b608482015260a40161052d565b6001600160a01b039091165f90815261010b602052604090206002018054911515600160a81b0260ff60a81b19909216919091179055565b6108c46116b2565b60ff83165f81815261010c60205260409020805460ff191690911781556108f383670de0b6b3a764000061334f565b6001820155600201805460ff191660ff929092169190911790555050565b6109196116b2565b6109225f61170c565b565b5f54610100900460ff161580801561094257505f54600160ff909116105b8061095b5750303b15801561095b57505f5460ff166001145b6109be5760405162461bcd60e51b815260206004820152602e60248201527f496e697469616c697a61626c653a20636f6e747261637420697320616c72656160448201526d191e481a5b9a5d1a585b1a5e995960921b606482015260840161052d565b5f805460ff1916600117905580156109df575f805461ff0019166101001790555b600260ff55604080516020810190915260328152610a019060fe906001612c8f565b50610100805460ff1916601417905561010280546001600160a01b0319908116331790915561010380549091167314a8ee34edcb63f88d301215862ff5e017ebdff1179055678ac7230489e8000061010155600561010455610a6161175d565b610a6961178b565b610a716117b9565b80156105c8575f805461ff0019169055604051600181527f7f26b83ff96e1f2b6a682f133852f6798a09c465da95921460cefb38474024989060200160405180910390a150565b6101085460ff1615610adc5760405162461bcd60e51b815260040161052d90613366565b610108805460ff19166001179055610101546001600160a01b0382165f90815261010b6020526040902060020154339190600160a81b900460ff1615610ba857826001600160a01b031663a9059cbb83610b3684876117df565b6040516001600160e01b031960e085901b1681526001600160a01b03909216600483015260248201526044016020604051808303815f875af1158015610b7e573d5f803e3d5ffd5b505050506040513d601f19601f82011682018060405250810190610ba291906133b1565b50610c0f565b60405162461bcd60e51b815260206004820152603660248201527f726567697374657228293a20426173652043757272656e6379206973206e6f746044820152751039bab83837b93a32b21037b91032b730b13632b21760511b606482015260840161052d565b5f85815261010a602090815260408083206001600160a01b0388168452610109909252909120610c3f818761186f565b5f610c486118e7565b5f81815261010a60205260409020909150610c6381846118fc565b5060408051610140810182528254815260018301546001600160a01b031660208083019190915260028401548284015260038401546060830152600484018054845181840281018401909552808552610e6d9486936080860193919290830182828015610ced57602002820191905f5260205f20905b815481526020019060010190808311610cd9575b5050505050815260200160058201805480602002602001604051908101604052809291908181526020015f905b82821015610d5d578382905f5260205f2090600202016040518060400160405290815f820154815260200160018201548152505081526020019060010190610d1a565b50505050815260200160068201805480602002602001604051908101604052809291908181526020015f905b82821015610dcc578382905f5260205f2090600202016040518060400160405290815f820154815260200160018201548152505081526020019060010190610d89565b5050509082525060408051606080820183526007850154825260088501546020838101919091526009860154838501528085019290925282518082018452600a8601548152600b86015492810192909252600c8501548284015291830152600d9092015460ff1615159101525160fd80546001810182555f919091527f9346ac6dd7de6b96975fec380d4d994c4c12e6a8897544f22915316cc6cca2800155565b5f610e788583611a3a565b9050610e8482876121f3565b610e908287838b612245565b856101065f828254610ea291906133cc565b9091555050610108805460ff1916905550505050505050505050565b610efe6040518060e001604052805f60ff1681526020015f81526020015f60ff1681526020015f81526020015f8152602001606081526020015f81525090565b60ff8083165f90815261010c6020908152604091829020825160e0810184528154851681526001820154818401526002820154909416848401526003810154606085015260048101546080850152600581018054845181850281018501909552808552919360a0860193909290830182828015610f9857602002820191905f5260205f20905b815481526020019060010190808311610f84575b505050505081526020016006820154815250509050919050565b610fba6116b2565b6001600160a01b03811661101f5760405162461bcd60e51b815260206004820152602660248201527f4f776e61626c653a206e6577206f776e657220697320746865207a65726f206160448201526564647265737360d01b606482015260840161052d565b6105c88161170c565b6110306116b2565b6001600160a01b038381165f90815261010b602052604090205416156110b45760405162461bcd60e51b815260206004820152603360248201527f70757368537570706f72746564546f6b656e546f4c69737428293a20546f6b65604482015272371034b99030b63932b0b23c9030b23232b21760691b606482015260840161052d565b6040518060a00160405280846001600160a01b03168152602001846001600160a01b031663313ce5676040518163ffffffff1660e01b8152600401602060405180830381865afa15801561110a573d5f803e3d5ffd5b505050506040513d601f19601f8201168201806040525081019061112e91906133df565b60ff90811682529315156020808301919091526001600160a01b03938416604080840191909152600160609384018190529685165f90815261010b8352818120855181549088166001600160a01b031991821617825593860151818a0190815592860151600282018054968801516080909801511515600160a81b90810260ff60a81b19998b16610100908102610100600160a81b031995151586166001600160a81b03199b8c1617178b1691909117835561010780549d8e01815590955292546003909b027f47c4908e245f386bfc1825973249847f4053a761ddb4880ad63c323a7b5a2a25810180549097169b8a169b909b1790955592547f47c4908e245f386bfc1825973249847f4053a761ddb4880ad63c323a7b5a2a268a015583547f47c4908e245f386bfc1825973249847f4053a761ddb4880ad63c323a7b5a2a279099018054998916151560ff198b1681178255855484900490981690920296909216979093169690961793909317808255925485900490931615159093029216919091179055565b604080518082019091525f8152606060208201526001600160a01b038083165f9081526101096020908152604091829020825180840184528154909416845260018101805484518185028101850190955280855291938584019390929083018282801561134157602002820191905f5260205f20905b81548152602001906001019080831161132d575b5050505050815250509050919050565b611359612cdd565b5f82815261010a60209081526040918290208251610140810184528154815260018201546001600160a01b0316818401526002820154818501526003820154606082015260048201805485518186028101860190965280865291949293608086019392908301828280156113ea57602002820191905f5260205f20905b8154815260200190600101908083116113d6575b5050505050815260200160058201805480602002602001604051908101604052809291908181526020015f905b8282101561145a578382905f5260205f2090600202016040518060400160405290815f820154815260200160018201548152505081526020019060010190611417565b50505050815260200160068201805480602002602001604051908101604052809291908181526020015f905b828210156114c9578382905f5260205f2090600202016040518060400160405290815f820154815260200160018201548152505081526020019060010190611486565b5050509082525060408051606080820183526007850154825260088501546020838101919091526009860154838501528085019290925282518082018452600a8601548152600b86015492810192909252600c8501548284015291830152600d9092015460ff16151591015292915050565b6105c86116b2565b7f4910fdfa16fed3260ed0e7147f7cc6da11a60208b5b9406d12a635614ffd91435460ff161561157b5761157683612589565b505050565b826001600160a01b03166352d1902d6040518163ffffffff1660e01b8152600401602060405180830381865afa9250505080156115d5575060408051601f3d908101601f191682019092526115d2918101906133fa565b60015b6116385760405162461bcd60e51b815260206004820152602e60248201527f45524331393637557067726164653a206e657720696d706c656d656e7461746960448201526d6f6e206973206e6f74205555505360901b606482015260840161052d565b5f8051602061366383398151915281146116a65760405162461bcd60e51b815260206004820152602960248201527f45524331393637557067726164653a20756e737570706f727465642070726f786044820152681a58589b195555525160ba1b606482015260840161052d565b50611576838383612624565b6065546001600160a01b031633146109225760405162461bcd60e51b815260206004820181905260248201527f4f776e61626c653a2063616c6c6572206973206e6f7420746865206f776e6572604482015260640161052d565b606580546001600160a01b038381166001600160a01b0319831681179093556040519116919082907f8be0079c531659141344cd1fd0a4f28419497f9722a3daafe3b4186f6b6457e0905f90a35050565b5f54610100900460ff166117835760405162461bcd60e51b815260040161052d90613411565b61092261264e565b5f54610100900460ff166117b15760405162461bcd60e51b815260040161052d90613411565b610922612680565b5f54610100900460ff166109225760405162461bcd60e51b815260040161052d90613411565b5f670de0b6b3a7640000826001600160a01b031663313ce5676040518163ffffffff1660e01b8152600401602060405180830381865afa158015611825573d5f803e3d5ffd5b505050506040513d601f19601f8201168201806040525081019061184991906133df565b61185490600a61353c565b61185e908561334f565b611868919061354a565b9392505050565b81546001600160a01b031615801561188f57506001600160a01b03811615155b156106965781546001600160a01b0319166001600160a01b03821690811783556040519081527f3b819cfb39116b78a5d1267e92ab85058e96d63a7882322d296ab4135720b79a906020015b60405180910390a15050565b5f60fc5460016118f791906133cc565b905090565b81545f90156119595760405162461bcd60e51b815260206004820152602360248201527f5f757064617465496428293a20496420697320616c726561647920637265617460448201526232b21760e91b606482015260840161052d565b60fc8054905f61196883613569565b909155505060fc548084556001838101805491820181555f9081526020908190209091018290558354604080516001600160a01b0390921682529181018390529192507f1edfaf20eb0251dd2ca45e125c8b9a615022667b9822cf6a8dc1d2ce7e91ea68910160405180910390a181546001840180546001600160a01b0319166001600160a01b03928316179055825460408051919092168152602081018390527f4f3673673d1e6f88f67f26845b9609a7707201984d7885988d35aedf43b9fe44910160405180910390a192915050565b80545f90611a506065546001600160a01b031690565b6001600160a01b0316336001600160a01b031614611acd5783545f03611acd5760405162461bcd60e51b815260206004820152602c60248201527f5f616464526566657272657228293a2052656665727265204964206973206e6f60448201526b3a1030b1ba34bb30ba32b21760a11b606482015260840161052d565b80846002015403611b3b5760405162461bcd60e51b815260206004820152603260248201527f5f616464526566657272657228293a20526566657265652063616e6e6f74206260448201527132903932b332b93932b9103ab83634b7329760711b606482015260840161052d565b8015611b9c5760405162461bcd60e51b815260206004820152602a60248201527f5f616464526566657272657228293a205573657220726566657272657220616c6044820152693932b0b23c9039b2ba1760b11b606482015260840161052d565b60408051610140810182528554815260018601546001600160a01b031660208083019190915260028701548284015260038701546060830152600487018054845181840281018401909552808552611d759489936080860193919290830182828015611c2557602002820191905f5260205f20905b815481526020019060010190808311611c11575b5050505050815260200160058201805480602002602001604051908101604052809291908181526020015f905b82821015611c95578382905f5260205f2090600202016040518060400160405290815f820154815260200160018201548152505081526020019060010190611c52565b50505050815260200160068201805480602002602001604051908101604052809291908181526020015f905b82821015611d04578382905f5260205f2090600202016040518060400160405290815f820154815260200160018201548152505081526020019060010190611cc1565b5050509082525060408051606080820183526007850154825260088501546020838101919091526009860154838501528085019290925282518082018452600a8601548152600b86015492810192909252600c8501548284015291830152600d9092015460ff1615159101526126af565b611de05783546002840181905560038401556004840180546001810182555f918252602091829020018290558454604080519182529181018390527fe6b2c1ca4b33533eddccfdd2dd0fbe5ff44d75017001d4b2329b4daee1821436910160405180910390a1612134565b60fd54611e3b5760405162461bcd60e51b8152602060048201526024808201527f5f616464526566657272657228293a20476c6f62616c2069647320617265206f6044820152633b32b91760e11b606482015260840161052d565b5f61010a5f60fd5f81548110611e5357611e53613581565b5f91825260208083209190910154835282810193909352604091820181208054600289810191909155895460038a015583518085018552878152825481870190815260058c0180546001808201835591875295889020925195909302909101938455519201919091558754815483519182529381019390935290820184905291507f347a3b2fe969c7ab7c51c290dbcae965d7b5a6b03d2b9336a480169d79a5f51f9060600160405180910390a16004810180546001810182555f918252602091829020018390558154604080519182529181018490527fe6b2c1ca4b33533eddccfdd2dd0fbe5ff44d75017001d4b2329b4daee1821436910160405180910390a160408051610140810182528254815260018301546001600160a01b03166020808301919091526002840154828401526003840154606083015260048401805484518184028101840190955280855261212e9486936080860193919290830182828015611fde57602002820191905f5260205f20905b815481526020019060010190808311611fca575b5050505050815260200160058201805480602002602001604051908101604052809291908181526020015f905b8282101561204e578382905f5260205f2090600202016040518060400160405290815f82015481526020016001820154815250508152602001906001019061200b565b50505050815260200160068201805480602002602001604051908101604052809291908181526020015f905b828210156120bd578382905f5260205f2090600202016040518060400160405290815f82015481526020016001820154815250508152602001906001019061207a565b5050509082525060408051606080820183526007850154825260088501546020838101919091526009860154838501528085019290925282518082018452600a8601548152600b86015492810192909252600c8501548284015291830152600d9092015460ff1615159101526126c7565b60019250505b6101005460ff165f5b818110156121ea5784545f90815261010a6020908152604091829020825180840190935285835291600683019181016121778560016133cc565b90528154600180820184555f9384526020938490208351600290930201918255918301519101558154604080519182529181018690527f48e403ae2a509cd9336134c0899083ba110bf3a35566606add88a2066ccbaa1a910160405180910390a194506121e381613569565b905061213d565b50505092915050565b80826007015f015f82825461220891906133cc565b9091555050815460408051918252602082018390527f7bc272836d15a231dbca2c8759d5bb751d4ecf39d918fef56f6cc2fc3c2386b091016118db565b6101085460ff16156122695760405162461bcd60e51b815260040161052d90613366565b610108805460ff1916600117905583545f8315612299575060038501545f90815261010a602052604090206122ae565b5060028501545f90815261010a602052604090205b84816007016001015f8282546122c491906133cc565b90915550508054865460408051928352602083019190915281018690527f57b50e0e70daa32ac46409245990bb5a21b96da6f9c1bcbba5424aa58723907a9060600160405180910390a15f60fe80548060200260200160405190810160405280929190818152602001828054801561235957602002820191905f5260205f20905b815481526020019060010190808311612345575b505050505090505f805b82518110156125535760028901545f90815261010a6020526040812094508190036123915761239184612743565b5f60648483815181106123a6576123a6613581565b60200260200101518a6123b9919061334f565b6123c3919061354a565b60018601549091506001600160a01b038089169163a9059cbb91166123e8848b6117df565b6040516001600160e01b031960e085901b1681526001600160a01b03909216600483015260248201526044016020604051808303815f875af1158015612430573d5f803e3d5ffd5b505050506040513d601f19601f8201168201806040525081019061245491906133b1565b5084547ff4bff7ddf097f430e0163107b212ddccc7c9a80ff7d32462be0c6f30bbbad0df9087836124868660016133cc565b60408051948552602085019390935291830152606082015260800160405180910390a16124b381846133cc565b92508085600a015f015f8282546124ca91906133cc565b90915550506009850180548a91905f906124e59084906133cc565b909155505084547fe586f9a83f2ffed00511a0a180ebbe02001f778fc773252bd05a65bf364f74db90878b61251b8660016133cc565b60408051948552602085019390935291830152606082015260800160405180910390a1849950508061254c90613569565b9050612363565b5061255d8561284d565b806101055f82825461256f91906133cc565b9091555050610108805460ff191690555050505050505050565b6001600160a01b0381163b6125f65760405162461bcd60e51b815260206004820152602d60248201527f455243313936373a206e657720696d706c656d656e746174696f6e206973206e60448201526c1bdd08184818dbdb9d1c9858dd609a1b606482015260840161052d565b5f8051602061366383398151915280546001600160a01b0319166001600160a01b0392909216919091179055565b61262d83612b20565b5f825111806126395750805b15611576576126488383612b5f565b50505050565b5f54610100900460ff166126745760405162461bcd60e51b815260040161052d90613411565b6033805460ff19169055565b5f54610100900460ff166126a65760405162461bcd60e51b815260040161052d90613411565b6109223361170c565b5f60ff54826080015151036126c2575060015b919050565b6126d0816126af565b156105c85760fd80546126e590600190613595565b815481106126f5576126f5613581565b905f5260205f20015460fd5f8154811061271157612711613581565b5f9182526020909120015560fd80548061272d5761272d6135a8565b600190038181905f5260205f20015f9055905550565b600d81015460ff166105c85761010c60205280547f0625def9f98cef4573a21467b5825682d95256166e93b101e7736af0f0abb7d980546001810182555f9182527fc69f7dc13ff0368927d430f2bfae368cd0038a71b8376ee58a80d537f3f8f60d01919091557f0625def9f98cef4573a21467b5825682d95256166e93b101e7736af0f0abb7d880547f0625def9f98cef4573a21467b5825682d95256166e93b101e7736af0f0abb7d4929091906127fb83613569565b9091555050600d8201805460ff1916600190811790915582546040517fdae0be714878398df4bce5e16513993cf11a07c4b626f7acf376a79f71f721f8926118db92825260ff16602082015260400190565b6101085460ff16156128715760405162461bcd60e51b815260040161052d90613366565b610108805460ff191660019081179091555b60148160ff161015612b115760ff8082165f90815261010c60205260408120805490921690036128b35750612b11565b6002810154600482015460ff90911611612b00575f61010c816128d78560016135bc565b60ff1660ff1681526020019081526020015f209050806005018260050183600301548154811061290957612909613581565b5f918252602080832090910154835460018101855593835291209091015560038201546005830180547fdae0be714878398df4bce5e16513993cf11a07c4b626f7acf376a79f71f721f89290811061296357612963613581565b905f5260205f20015484600161297991906135bc565b6040805192835260ff90911660208301520160405180910390a15f61010a5f846005018560030154815481106129b1576129b1613581565b905f5260205f20015481526020019081526020015f209050846001600160a01b031663a9059cbb826001015f9054906101000a90046001600160a01b03166129fd8660010154896117df565b6040516001600160e01b031960e085901b1681526001600160a01b03909216600483015260248201526044016020604051808303815f875af1158015612a45573d5f803e3d5ffd5b505050506040513d601f19601f82011682018060405250810190612a6991906133b1565b507f89b70f5f92b02d089769dea775c6dce9797ebfb25ae57bcfbab1d88a31a6721283600501846003015481548110612aa457612aa4613581565b5f9182526020918290200154855460018701546040805193845260ff9092169383019390935281019190915260600160405180910390a18260010154836006015f828254612af291906133cc565b90915550505f600484015550505b50612b0a816135d5565b9050612883565b5050610108805460ff19169055565b612b2981612589565b6040516001600160a01b038216907fbc7cd75a20ee27fd9adebab32041f755214dbc6bffa90cc0225b39da2e5c2d3b905f90a250565b60606001600160a01b0383163b612bc75760405162461bcd60e51b815260206004820152602660248201527f416464726573733a2064656c65676174652063616c6c20746f206e6f6e2d636f6044820152651b9d1c9858dd60d21b606482015260840161052d565b5f80846001600160a01b031684604051612be19190613615565b5f60405180830381855af49150503d805f8114612c19576040519150601f19603f3d011682016040523d82523d5f602084013e612c1e565b606091505b5091509150612c46828260405180606001604052806027815260200161368360279139612c51565b925050505b92915050565b60608315612c60575081611868565b6118688383815115612c755781518083602001fd5b8060405162461bcd60e51b815260040161052d9190613630565b828054828255905f5260205f20908101928215612ccd579160200282015b82811115612ccd578251829060ff16905591602001919060010190612cad565b50612cd9929150612d72565b5090565b6040518061014001604052805f81526020015f6001600160a01b031681526020015f81526020015f8152602001606081526020016060815260200160608152602001612d4060405180606001604052805f81526020015f81526020015f81525090565b8152602001612d6660405180606001604052805f81526020015f81526020015f81525090565b81525f60209091015290565b5b80821115612cd9575f8155600101612d73565b60e080825288519082018190525f90602090610100840190828c01845b82811015612dbf57815184529284019290840190600101612da3565b5050509083019890985250604081019590955260608501939093526001600160a01b0391821660808501521660a083015260c090910152919050565b602080825282518282018190525f919060409081850190868401855b82811015612e6d57815180516001600160a01b0390811686528782015188870152868201511515878701526060808301519091169086015260809081015115159085015260a09093019290850190600101612e17565b5091979650505050505050565b80356001600160a01b03811681146126c2575f80fd5b5f60208284031215612ea0575f80fd5b61186882612e7a565b634e487b7160e01b5f52604160045260245ffd5b5f8060408385031215612ece575f80fd5b612ed783612e7a565b9150602083013567ffffffffffffffff80821115612ef3575f80fd5b818501915085601f830112612f06575f80fd5b813581811115612f1857612f18612ea9565b604051601f8201601f19908116603f01168101908382118183101715612f4057612f40612ea9565b81604052828152886020848701011115612f58575f80fd5b826020860160208301375f6020848301015280955050505050509250929050565b80151581146105c8575f80fd5b5f8060408385031215612f97575f80fd5b612fa083612e7a565b91506020830135612fb081612f79565b809150509250929050565b60ff811681146105c8575f80fd5b5f805f60608486031215612fdb575f80fd5b8335612fe681612fbb565b9250602084013591506040840135612ffd81612fbb565b809150509250925092565b5f805f6060848603121561301a575f80fd5b8335925061302a60208501612e7a565b915061303860408501612e7a565b90509250925092565b5f60208284031215613051575f80fd5b813561186881612fbb565b5f8151808452602080850194508084015f5b8381101561308a5781518752958201959082019060010161306e565b509495945050505050565b6020815260ff82511660208201526020820151604082015260ff604083015116606082015260608201516080820152608082015160a08201525f60a083015160e060c08401526130e961010084018261305c565b905060c084015160e08401528091505092915050565b5f805f60608486031215613111575f80fd5b61311a84612e7a565b9250602084013561302a81612f79565b602080825282516001600160a01b0316828201528201516040808301525f90613156606084018261305c565b949350505050565b5f6020828403121561316e575f80fd5b5035919050565b5f8151808452602080850194508084015f5b8381101561308a578151805188528301518388015260409096019590820190600101613187565b60208152815160208201525f60208301516131d460408401826001600160a01b03169052565b50604083015160608301526060830151608083015260808301516101c08060a08501526132056101e085018361305c565b915060a0850151601f19808685030160c08701526132238483613175565b935060c08701519150808685030160e0870152506132418382613175565b92505060e085015161010061326c818701838051825260208082015190830152604090810151910152565b86015180516101608701526020810151610180870152604001516101a0860152506101209094015115159390920192909252919050565b6020808252602c908201527f46756e6374696f6e206d7573742062652063616c6c6564207468726f7567682060408201526b19195b1959d85d1958d85b1b60a21b606082015260800190565b6020808252602c908201527f46756e6374696f6e206d7573742062652063616c6c6564207468726f7567682060408201526b6163746976652070726f787960a01b606082015260800190565b634e487b7160e01b5f52601160045260245ffd5b8082028115828204841417612c4b57612c4b61333b565b6020808252602b908201527f5265656e7472616e6379477561726428293a20436f6e7472616374205265656e60408201526a1d1c985b98de51dd585c9960aa1b606082015260800190565b5f602082840312156133c1575f80fd5b815161186881612f79565b80820180821115612c4b57612c4b61333b565b5f602082840312156133ef575f80fd5b815161186881612fbb565b5f6020828403121561340a575f80fd5b5051919050565b6020808252602b908201527f496e697469616c697a61626c653a20636f6e7472616374206973206e6f74206960408201526a6e697469616c697a696e6760a81b606082015260800190565b600181815b8085111561349657815f190482111561347c5761347c61333b565b8085161561348957918102915b93841c9390800290613461565b509250929050565b5f826134ac57506001612c4b565b816134b857505f612c4b565b81600181146134ce57600281146134d8576134f4565b6001915050612c4b565b60ff8411156134e9576134e961333b565b50506001821b612c4b565b5060208310610133831016604e8410600b8410161715613517575081810a612c4b565b613521838361345c565b805f19048211156135345761353461333b565b029392505050565b5f61186860ff84168361349e565b5f8261356457634e487b7160e01b5f52601260045260245ffd5b500490565b5f6001820161357a5761357a61333b565b5060010190565b634e487b7160e01b5f52603260045260245ffd5b81810381811115612c4b57612c4b61333b565b634e487b7160e01b5f52603160045260245ffd5b60ff8181168382160190811115612c4b57612c4b61333b565b5f60ff821660ff81036135ea576135ea61333b565b60010192915050565b5f5b8381101561360d5781810151838201526020016135f5565b50505f910152565b5f82516136268184602087016135f3565b9190910192915050565b602081525f825180602084015261364e8160408501602087016135f3565b601f01601f1916919091016040019291505056fe360894a13ba1a3210667c828492db98dca3e2076cc3735a920a3ca505d382bbc416464726573733a206c6f772d6c6576656c2064656c65676174652063616c6c206661696c6564a26469706673582212204caee42e334996445777de5ad009b2f8983dcf9a1bc58d1fd9385309038d631064736f6c63430008140033","opcodes":"PUSH1 0xA0 PUSH1 0x40 MSTORE ADDRESS PUSH1 0x80 MSTORE CALLVALUE DUP1 ISZERO PUSH2 0x13 JUMPI PUSH0 DUP1 REVERT JUMPDEST POP PUSH1 0x80 MLOAD PUSH2 0x36DF PUSH2 0x48 PUSH0 CODECOPY PUSH0 DUP2 DUP2 PUSH2 0x4EF ADD MSTORE DUP2 DUP2 PUSH2 0x538 ADD MSTORE DUP2 DUP2 PUSH2 0x5D5 ADD MSTORE DUP2 DUP2 PUSH2 0x615 ADD MSTORE PUSH2 0x6A6 ADD MSTORE PUSH2 0x36DF PUSH0 RETURN INVALID PUSH1 0x80 PUSH1 0x40 MSTORE PUSH1 0x4 CALLDATASIZE LT PUSH2 0x105 JUMPI PUSH0 CALLDATALOAD PUSH1 0xE0 SHR DUP1 PUSH4 0x8129FC1C GT PUSH2 0x92 JUMPI DUP1 PUSH4 0xC48D8E02 GT PUSH2 0x62 JUMPI DUP1 PUSH4 0xC48D8E02 EQ PUSH2 0x2C3 JUMPI DUP1 PUSH4 0xF2FDE38B EQ PUSH2 0x2EF JUMPI DUP1 PUSH4 0xF782ABC7 EQ PUSH2 0x30E JUMPI DUP1 PUSH4 0xFB47E016 EQ PUSH2 0x32D JUMPI DUP1 PUSH4 0xFF43599C EQ PUSH2 0x359 JUMPI PUSH0 DUP1 REVERT JUMPDEST DUP1 PUSH4 0x8129FC1C EQ PUSH2 0x224 JUMPI DUP1 PUSH4 0x83B41E66 EQ PUSH2 0x238 JUMPI DUP1 PUSH4 0x8DA5CB5B EQ PUSH2 0x27D JUMPI DUP1 PUSH4 0xA73C50FA EQ PUSH2 0x2A4 JUMPI PUSH0 DUP1 REVERT JUMPDEST DUP1 PUSH4 0x52D1902D GT PUSH2 0xD8 JUMPI DUP1 PUSH4 0x52D1902D EQ PUSH2 0x18E JUMPI DUP1 PUSH4 0x54F132E8 EQ PUSH2 0x1B0 JUMPI DUP1 PUSH4 0x5BC62FF8 EQ PUSH2 0x1CF JUMPI DUP1 PUSH4 0x5C975ABB EQ PUSH2 0x1EE JUMPI DUP1 PUSH4 0x715018A6 EQ PUSH2 0x210 JUMPI PUSH0 DUP1 REVERT JUMPDEST DUP1 PUSH4 0x1A746344 EQ PUSH2 0x109 JUMPI DUP1 PUSH4 0x2CE75863 EQ PUSH2 0x139 JUMPI DUP1 PUSH4 0x3659CFE6 EQ PUSH2 0x15A JUMPI DUP1 PUSH4 0x4F1EF286 EQ PUSH2 0x17B JUMPI JUMPDEST PUSH0 DUP1 REVERT JUMPDEST CALLVALUE DUP1 ISZERO PUSH2 0x114 JUMPI PUSH0 DUP1 REVERT JUMPDEST POP PUSH2 0x11D PUSH2 0x385 JUMP JUMPDEST PUSH1 0x40 MLOAD PUSH2 0x130 SWAP8 SWAP7 SWAP6 SWAP5 SWAP4 SWAP3 SWAP2 SWAP1 PUSH2 0x2D86 JUMP JUMPDEST PUSH1 0x40 MLOAD DUP1 SWAP2 SUB SWAP1 RETURN JUMPDEST CALLVALUE DUP1 ISZERO PUSH2 0x144 JUMPI PUSH0 DUP1 REVERT JUMPDEST POP PUSH2 0x14D PUSH2 0x43D JUMP JUMPDEST PUSH1 0x40 MLOAD PUSH2 0x130 SWAP2 SWAP1 PUSH2 0x2DFB JUMP JUMPDEST CALLVALUE DUP1 ISZERO PUSH2 0x165 JUMPI PUSH0 DUP1 REVERT JUMPDEST POP PUSH2 0x179 PUSH2 0x174 CALLDATASIZE PUSH1 0x4 PUSH2 0x2E90 JUMP JUMPDEST PUSH2 0x4E5 JUMP JUMPDEST STOP JUMPDEST PUSH2 0x179 PUSH2 0x189 CALLDATASIZE PUSH1 0x4 PUSH2 0x2EBD JUMP JUMPDEST PUSH2 0x5CB JUMP JUMPDEST CALLVALUE DUP1 ISZERO PUSH2 0x199 JUMPI PUSH0 DUP1 REVERT JUMPDEST POP PUSH2 0x1A2 PUSH2 0x69A JUMP JUMPDEST PUSH1 0x40 MLOAD SWAP1 DUP2 MSTORE PUSH1 0x20 ADD PUSH2 0x130 JUMP JUMPDEST CALLVALUE DUP1 ISZERO PUSH2 0x1BB JUMPI PUSH0 DUP1 REVERT JUMPDEST POP PUSH2 0x179 PUSH2 0x1CA CALLDATASIZE PUSH1 0x4 PUSH2 0x2F86 JUMP JUMPDEST PUSH2 0x74B JUMP JUMPDEST CALLVALUE DUP1 ISZERO PUSH2 0x1DA JUMPI PUSH0 DUP1 REVERT JUMPDEST POP PUSH2 0x179 PUSH2 0x1E9 CALLDATASIZE PUSH1 0x4 PUSH2 0x2FC9 JUMP JUMPDEST PUSH2 0x8BC JUMP JUMPDEST CALLVALUE DUP1 ISZERO PUSH2 0x1F9 JUMPI PUSH0 DUP1 REVERT JUMPDEST POP PUSH1 0x33 SLOAD PUSH1 0xFF AND PUSH1 0x40 MLOAD SWAP1 ISZERO ISZERO DUP2 MSTORE PUSH1 0x20 ADD PUSH2 0x130 JUMP JUMPDEST CALLVALUE DUP1 ISZERO PUSH2 0x21B JUMPI PUSH0 DUP1 REVERT JUMPDEST POP PUSH2 0x179 PUSH2 0x911 JUMP JUMPDEST CALLVALUE DUP1 ISZERO PUSH2 0x22F JUMPI PUSH0 DUP1 REVERT JUMPDEST POP PUSH2 0x179 PUSH2 0x924 JUMP JUMPDEST CALLVALUE DUP1 ISZERO PUSH2 0x243 JUMPI PUSH0 DUP1 REVERT JUMPDEST POP PUSH1 0xFB SLOAD PUSH1 0xFC SLOAD PUSH1 0xFD SLOAD PUSH2 0x105 SLOAD PUSH2 0x106 SLOAD PUSH1 0x40 DUP1 MLOAD SWAP6 DUP7 MSTORE PUSH1 0x20 DUP7 ADD SWAP5 SWAP1 SWAP5 MSTORE SWAP3 DUP5 ADD SWAP2 SWAP1 SWAP2 MSTORE PUSH1 0x60 DUP4 ADD MSTORE PUSH1 0x80 DUP3 ADD MSTORE PUSH1 0xA0 ADD PUSH2 0x130 JUMP JUMPDEST CALLVALUE DUP1 ISZERO PUSH2 0x288 JUMPI PUSH0 DUP1 REVERT JUMPDEST POP PUSH1 0x65 SLOAD PUSH1 0x40 MLOAD PUSH1 0x1 PUSH1 0x1 PUSH1 0xA0 SHL SUB SWAP1 SWAP2 AND DUP2 MSTORE PUSH1 0x20 ADD PUSH2 0x130 JUMP JUMPDEST CALLVALUE DUP1 ISZERO PUSH2 0x2AF JUMPI PUSH0 DUP1 REVERT JUMPDEST POP PUSH2 0x179 PUSH2 0x2BE CALLDATASIZE PUSH1 0x4 PUSH2 0x3008 JUMP JUMPDEST PUSH2 0xAB8 JUMP JUMPDEST CALLVALUE DUP1 ISZERO PUSH2 0x2CE JUMPI PUSH0 DUP1 REVERT JUMPDEST POP PUSH2 0x2E2 PUSH2 0x2DD CALLDATASIZE PUSH1 0x4 PUSH2 0x3041 JUMP JUMPDEST PUSH2 0xEBE JUMP JUMPDEST PUSH1 0x40 MLOAD PUSH2 0x130 SWAP2 SWAP1 PUSH2 0x3095 JUMP JUMPDEST CALLVALUE DUP1 ISZERO PUSH2 0x2FA JUMPI PUSH0 DUP1 REVERT JUMPDEST POP PUSH2 0x179 PUSH2 0x309 CALLDATASIZE PUSH1 0x4 PUSH2 0x2E90 JUMP JUMPDEST PUSH2 0xFB2 JUMP JUMPDEST CALLVALUE DUP1 ISZERO PUSH2 0x319 JUMPI PUSH0 DUP1 REVERT JUMPDEST POP PUSH2 0x179 PUSH2 0x328 CALLDATASIZE PUSH1 0x4 PUSH2 0x30FF JUMP JUMPDEST PUSH2 0x1028 JUMP JUMPDEST CALLVALUE DUP1 ISZERO PUSH2 0x338 JUMPI PUSH0 DUP1 REVERT JUMPDEST POP PUSH2 0x34C PUSH2 0x347 CALLDATASIZE PUSH1 0x4 PUSH2 0x2E90 JUMP JUMPDEST PUSH2 0x12B7 JUMP JUMPDEST PUSH1 0x40 MLOAD PUSH2 0x130 SWAP2 SWAP1 PUSH2 0x312A JUMP JUMPDEST CALLVALUE DUP1 ISZERO PUSH2 0x364 JUMPI PUSH0 DUP1 REVERT JUMPDEST POP PUSH2 0x378 PUSH2 0x373 CALLDATASIZE PUSH1 0x4 PUSH2 0x315E JUMP JUMPDEST PUSH2 0x1351 JUMP JUMPDEST PUSH1 0x40 MLOAD PUSH2 0x130 SWAP2 SWAP1 PUSH2 0x31AE JUMP JUMPDEST PUSH1 0x60 PUSH0 DUP1 PUSH0 DUP1 PUSH0 DUP1 PUSH1 0xFE DUP1 SLOAD DUP1 PUSH1 0x20 MUL PUSH1 0x20 ADD PUSH1 0x40 MLOAD SWAP1 DUP2 ADD PUSH1 0x40 MSTORE DUP1 SWAP3 SWAP2 SWAP1 DUP2 DUP2 MSTORE PUSH1 0x20 ADD DUP3 DUP1 SLOAD DUP1 ISZERO PUSH2 0x3D7 JUMPI PUSH1 0x20 MUL DUP3 ADD SWAP2 SWAP1 PUSH0 MSTORE PUSH1 0x20 PUSH0 KECCAK256 SWAP1 JUMPDEST DUP2 SLOAD DUP2 MSTORE PUSH1 0x20 ADD SWAP1 PUSH1 0x1 ADD SWAP1 DUP1 DUP4 GT PUSH2 0x3C3 JUMPI JUMPDEST POP POP POP POP POP SWAP7 POP PUSH1 0xFF SLOAD SWAP6 POP PUSH2 0x100 PUSH0 SWAP1 SLOAD SWAP1 PUSH2 0x100 EXP SWAP1 DIV PUSH1 0xFF AND PUSH1 0xFF AND SWAP5 POP PUSH2 0x101 SLOAD SWAP4 POP PUSH2 0x102 PUSH0 SWAP1 SLOAD SWAP1 PUSH2 0x100 EXP SWAP1 DIV PUSH1 0x1 PUSH1 0x1 PUSH1 0xA0 SHL SUB AND SWAP3 POP PUSH2 0x103 PUSH0 SWAP1 SLOAD SWAP1 PUSH2 0x100 EXP SWAP1 DIV PUSH1 0x1 PUSH1 0x1 PUSH1 0xA0 SHL SUB AND SWAP2 POP PUSH2 0x104 SLOAD SWAP1 POP SWAP1 SWAP2 SWAP3 SWAP4 SWAP5 SWAP6 SWAP7 JUMP JUMPDEST PUSH1 0x60 PUSH2 0x107 DUP1 SLOAD DUP1 PUSH1 0x20 MUL PUSH1 0x20 ADD PUSH1 0x40 MLOAD SWAP1 DUP2 ADD PUSH1 0x40 MSTORE DUP1 SWAP3 SWAP2 SWAP1 DUP2 DUP2 MSTORE PUSH1 0x20 ADD PUSH0 SWAP1 JUMPDEST DUP3 DUP3 LT ISZERO PUSH2 0x4DC JUMPI PUSH0 DUP5 DUP2 MSTORE PUSH1 0x20 SWAP1 DUP2 SWAP1 KECCAK256 PUSH1 0x40 DUP1 MLOAD PUSH1 0xA0 DUP2 ADD DUP3 MSTORE PUSH1 0x3 DUP7 MUL SWAP1 SWAP3 ADD DUP1 SLOAD PUSH1 0x1 PUSH1 0x1 PUSH1 0xA0 SHL SUB SWAP1 DUP2 AND DUP5 MSTORE PUSH1 0x1 DUP1 DUP4 ADD SLOAD DUP6 DUP8 ADD MSTORE PUSH1 0x2 SWAP1 SWAP3 ADD SLOAD PUSH1 0xFF DUP1 DUP3 AND ISZERO ISZERO SWAP5 DUP7 ADD SWAP5 SWAP1 SWAP5 MSTORE PUSH2 0x100 DUP2 DIV SWAP1 SWAP2 AND PUSH1 0x60 DUP6 ADD MSTORE PUSH1 0x1 PUSH1 0xA8 SHL SWAP1 DIV SWAP1 SWAP2 AND ISZERO ISZERO PUSH1 0x80 DUP4 ADD MSTORE SWAP1 DUP4 MSTORE SWAP1 SWAP3 ADD SWAP2 ADD PUSH2 0x461 JUMP JUMPDEST POP POP POP POP SWAP1 POP SWAP1 JUMP JUMPDEST PUSH1 0x1 PUSH1 0x1 PUSH1 0xA0 SHL SUB PUSH32 0x0 AND ADDRESS SUB PUSH2 0x536 JUMPI PUSH1 0x40 MLOAD PUSH3 0x461BCD PUSH1 0xE5 SHL DUP2 MSTORE PUSH1 0x4 ADD PUSH2 0x52D SWAP1 PUSH2 0x32A3 JUMP JUMPDEST PUSH1 0x40 MLOAD DUP1 SWAP2 SUB SWAP1 REVERT JUMPDEST PUSH32 0x0 PUSH1 0x1 PUSH1 0x1 PUSH1 0xA0 SHL SUB AND PUSH2 0x57E PUSH0 DUP1 MLOAD PUSH1 0x20 PUSH2 0x3663 DUP4 CODECOPY DUP2 MLOAD SWAP2 MSTORE SLOAD PUSH1 0x1 PUSH1 0x1 PUSH1 0xA0 SHL SUB AND SWAP1 JUMP JUMPDEST PUSH1 0x1 PUSH1 0x1 PUSH1 0xA0 SHL SUB AND EQ PUSH2 0x5A4 JUMPI PUSH1 0x40 MLOAD PUSH3 0x461BCD PUSH1 0xE5 SHL DUP2 MSTORE PUSH1 0x4 ADD PUSH2 0x52D SWAP1 PUSH2 0x32EF JUMP JUMPDEST PUSH2 0x5AD DUP2 PUSH2 0x153B JUMP JUMPDEST PUSH1 0x40 DUP1 MLOAD PUSH0 DUP1 DUP3 MSTORE PUSH1 0x20 DUP3 ADD SWAP1 SWAP3 MSTORE PUSH2 0x5C8 SWAP2 DUP4 SWAP2 SWAP1 PUSH2 0x1543 JUMP JUMPDEST POP JUMP JUMPDEST PUSH1 0x1 PUSH1 0x1 PUSH1 0xA0 SHL SUB PUSH32 0x0 AND ADDRESS SUB PUSH2 0x613 JUMPI PUSH1 0x40 MLOAD PUSH3 0x461BCD PUSH1 0xE5 SHL DUP2 MSTORE PUSH1 0x4 ADD PUSH2 0x52D SWAP1 PUSH2 0x32A3 JUMP JUMPDEST PUSH32 0x0 PUSH1 0x1 PUSH1 0x1 PUSH1 0xA0 SHL SUB AND PUSH2 0x65B PUSH0 DUP1 MLOAD PUSH1 0x20 PUSH2 0x3663 DUP4 CODECOPY DUP2 MLOAD SWAP2 MSTORE SLOAD PUSH1 0x1 PUSH1 0x1 PUSH1 0xA0 SHL SUB AND SWAP1 JUMP JUMPDEST PUSH1 0x1 PUSH1 0x1 PUSH1 0xA0 SHL SUB AND EQ PUSH2 0x681 JUMPI PUSH1 0x40 MLOAD PUSH3 0x461BCD PUSH1 0xE5 SHL DUP2 MSTORE PUSH1 0x4 ADD PUSH2 0x52D SWAP1 PUSH2 0x32EF JUMP JUMPDEST PUSH2 0x68A DUP3 PUSH2 0x153B JUMP JUMPDEST PUSH2 0x696 DUP3 DUP3 PUSH1 0x1 PUSH2 0x1543 JUMP JUMPDEST POP POP JUMP JUMPDEST PUSH0 ADDRESS PUSH1 0x1 PUSH1 0x1 PUSH1 0xA0 SHL SUB PUSH32 0x0 AND EQ PUSH2 0x739 JUMPI PUSH1 0x40 MLOAD PUSH3 0x461BCD PUSH1 0xE5 SHL DUP2 MSTORE PUSH1 0x20 PUSH1 0x4 DUP3 ADD MSTORE PUSH1 0x38 PUSH1 0x24 DUP3 ADD MSTORE PUSH32 0x555550535570677261646561626C653A206D757374206E6F742062652063616C PUSH1 0x44 DUP3 ADD MSTORE PUSH32 0x6C6564207468726F7567682064656C656761746563616C6C0000000000000000 PUSH1 0x64 DUP3 ADD MSTORE PUSH1 0x84 ADD PUSH2 0x52D JUMP JUMPDEST POP PUSH0 DUP1 MLOAD PUSH1 0x20 PUSH2 0x3663 DUP4 CODECOPY DUP2 MLOAD SWAP2 MSTORE SWAP1 JUMP JUMPDEST PUSH2 0x753 PUSH2 0x16B2 JUMP JUMPDEST PUSH1 0x1 PUSH1 0x1 PUSH1 0xA0 SHL SUB DUP3 DUP2 AND PUSH0 SWAP1 DUP2 MSTORE PUSH2 0x10B PUSH1 0x20 MSTORE PUSH1 0x40 SWAP1 KECCAK256 SLOAD AND PUSH2 0x7D7 JUMPI PUSH1 0x40 MLOAD PUSH3 0x461BCD PUSH1 0xE5 SHL DUP2 MSTORE PUSH1 0x20 PUSH1 0x4 DUP3 ADD MSTORE PUSH1 0x34 PUSH1 0x24 DUP3 ADD MSTORE PUSH32 0x736574537570706F72746564546F6B656E53746174757328293A20546F6B656E PUSH1 0x44 DUP3 ADD MSTORE PUSH20 0x1034B9903737BA1030B23232B21030B23232B217 PUSH1 0x61 SHL PUSH1 0x64 DUP3 ADD MSTORE PUSH1 0x84 ADD PUSH2 0x52D JUMP JUMPDEST PUSH1 0x1 PUSH1 0x1 PUSH1 0xA0 SHL SUB DUP3 AND PUSH0 SWAP1 DUP2 MSTORE PUSH2 0x10B PUSH1 0x20 MSTORE PUSH1 0x40 SWAP1 KECCAK256 PUSH1 0x2 ADD SLOAD DUP2 ISZERO ISZERO PUSH1 0x1 PUSH1 0xA8 SHL SWAP1 SWAP2 DIV PUSH1 0xFF AND ISZERO ISZERO SUB PUSH2 0x884 JUMPI PUSH1 0x40 MLOAD PUSH3 0x461BCD PUSH1 0xE5 SHL DUP2 MSTORE PUSH1 0x20 PUSH1 0x4 DUP3 ADD MSTORE PUSH1 0x45 PUSH1 0x24 DUP3 ADD MSTORE PUSH32 0x736574537570706F72746564546F6B656E53746174757328293A20546F6B656E PUSH1 0x44 DUP3 ADD MSTORE PUSH32 0x2073746174757320697320616C72656164792073616D65206173206D656E7469 PUSH1 0x64 DUP3 ADD MSTORE PUSH5 0x37B732B217 PUSH1 0xD9 SHL PUSH1 0x84 DUP3 ADD MSTORE PUSH1 0xA4 ADD PUSH2 0x52D JUMP JUMPDEST PUSH1 0x1 PUSH1 0x1 PUSH1 0xA0 SHL SUB SWAP1 SWAP2 AND PUSH0 SWAP1 DUP2 MSTORE PUSH2 0x10B PUSH1 0x20 MSTORE PUSH1 0x40 SWAP1 KECCAK256 PUSH1 0x2 ADD DUP1 SLOAD SWAP2 ISZERO ISZERO PUSH1 0x1 PUSH1 0xA8 SHL MUL PUSH1 0xFF PUSH1 0xA8 SHL NOT SWAP1 SWAP3 AND SWAP2 SWAP1 SWAP2 OR SWAP1 SSTORE JUMP JUMPDEST PUSH2 0x8C4 PUSH2 0x16B2 JUMP JUMPDEST PUSH1 0xFF DUP4 AND PUSH0 DUP2 DUP2 MSTORE PUSH2 0x10C PUSH1 0x20 MSTORE PUSH1 0x40 SWAP1 KECCAK256 DUP1 SLOAD PUSH1 0xFF NOT AND SWAP1 SWAP2 OR DUP2 SSTORE PUSH2 0x8F3 DUP4 PUSH8 0xDE0B6B3A7640000 PUSH2 0x334F JUMP JUMPDEST PUSH1 0x1 DUP3 ADD SSTORE PUSH1 0x2 ADD DUP1 SLOAD PUSH1 0xFF NOT AND PUSH1 0xFF SWAP3 SWAP1 SWAP3 AND SWAP2 SWAP1 SWAP2 OR SWAP1 SSTORE POP POP JUMP JUMPDEST PUSH2 0x919 PUSH2 0x16B2 JUMP JUMPDEST PUSH2 0x922 PUSH0 PUSH2 0x170C JUMP JUMPDEST JUMP JUMPDEST PUSH0 SLOAD PUSH2 0x100 SWAP1 DIV PUSH1 0xFF AND ISZERO DUP1 DUP1 ISZERO PUSH2 0x942 JUMPI POP PUSH0 SLOAD PUSH1 0x1 PUSH1 0xFF SWAP1 SWAP2 AND LT JUMPDEST DUP1 PUSH2 0x95B JUMPI POP ADDRESS EXTCODESIZE ISZERO DUP1 ISZERO PUSH2 0x95B JUMPI POP PUSH0 SLOAD PUSH1 0xFF AND PUSH1 0x1 EQ JUMPDEST PUSH2 0x9BE JUMPI PUSH1 0x40 MLOAD PUSH3 0x461BCD PUSH1 0xE5 SHL DUP2 MSTORE PUSH1 0x20 PUSH1 0x4 DUP3 ADD MSTORE PUSH1 0x2E PUSH1 0x24 DUP3 ADD MSTORE PUSH32 0x496E697469616C697A61626C653A20636F6E747261637420697320616C726561 PUSH1 0x44 DUP3 ADD MSTORE PUSH14 0x191E481A5B9A5D1A585B1A5E9959 PUSH1 0x92 SHL PUSH1 0x64 DUP3 ADD MSTORE PUSH1 0x84 ADD PUSH2 0x52D JUMP JUMPDEST PUSH0 DUP1 SLOAD PUSH1 0xFF NOT AND PUSH1 0x1 OR SWAP1 SSTORE DUP1 ISZERO PUSH2 0x9DF JUMPI PUSH0 DUP1 SLOAD PUSH2 0xFF00 NOT AND PUSH2 0x100 OR SWAP1 SSTORE JUMPDEST PUSH1 0x2 PUSH1 0xFF SSTORE PUSH1 0x40 DUP1 MLOAD PUSH1 0x20 DUP2 ADD SWAP1 SWAP2 MSTORE PUSH1 0x32 DUP2 MSTORE PUSH2 0xA01 SWAP1 PUSH1 0xFE SWAP1 PUSH1 0x1 PUSH2 0x2C8F JUMP JUMPDEST POP PUSH2 0x100 DUP1 SLOAD PUSH1 0xFF NOT AND PUSH1 0x14 OR SWAP1 SSTORE PUSH2 0x102 DUP1 SLOAD PUSH1 0x1 PUSH1 0x1 PUSH1 0xA0 SHL SUB NOT SWAP1 DUP2 AND CALLER OR SWAP1 SWAP2 SSTORE PUSH2 0x103 DUP1 SLOAD SWAP1 SWAP2 AND PUSH20 0x14A8EE34EDCB63F88D301215862FF5E017EBDFF1 OR SWAP1 SSTORE PUSH8 0x8AC7230489E80000 PUSH2 0x101 SSTORE PUSH1 0x5 PUSH2 0x104 SSTORE PUSH2 0xA61 PUSH2 0x175D JUMP JUMPDEST PUSH2 0xA69 PUSH2 0x178B JUMP JUMPDEST PUSH2 0xA71 PUSH2 0x17B9 JUMP JUMPDEST DUP1 ISZERO PUSH2 0x5C8 JUMPI PUSH0 DUP1 SLOAD PUSH2 0xFF00 NOT AND SWAP1 SSTORE PUSH1 0x40 MLOAD PUSH1 0x1 DUP2 MSTORE PUSH32 0x7F26B83FF96E1F2B6A682F133852F6798A09C465DA95921460CEFB3847402498 SWAP1 PUSH1 0x20 ADD PUSH1 0x40 MLOAD DUP1 SWAP2 SUB SWAP1 LOG1 POP JUMP JUMPDEST PUSH2 0x108 SLOAD PUSH1 0xFF AND ISZERO PUSH2 0xADC JUMPI PUSH1 0x40 MLOAD PUSH3 0x461BCD PUSH1 0xE5 SHL DUP2 MSTORE PUSH1 0x4 ADD PUSH2 0x52D SWAP1 PUSH2 0x3366 JUMP JUMPDEST PUSH2 0x108 DUP1 SLOAD PUSH1 0xFF NOT AND PUSH1 0x1 OR SWAP1 SSTORE PUSH2 0x101 SLOAD PUSH1 0x1 PUSH1 0x1 PUSH1 0xA0 SHL SUB DUP3 AND PUSH0 SWAP1 DUP2 MSTORE PUSH2 0x10B PUSH1 0x20 MSTORE PUSH1 0x40 SWAP1 KECCAK256 PUSH1 0x2 ADD SLOAD CALLER SWAP2 SWAP1 PUSH1 0x1 PUSH1 0xA8 SHL SWAP1 DIV PUSH1 0xFF AND ISZERO PUSH2 0xBA8 JUMPI DUP3 PUSH1 0x1 PUSH1 0x1 PUSH1 0xA0 SHL SUB AND PUSH4 0xA9059CBB DUP4 PUSH2 0xB36 DUP5 DUP8 PUSH2 0x17DF JUMP JUMPDEST PUSH1 0x40 MLOAD PUSH1 0x1 PUSH1 0x1 PUSH1 0xE0 SHL SUB NOT PUSH1 0xE0 DUP6 SWAP1 SHL AND DUP2 MSTORE PUSH1 0x1 PUSH1 0x1 PUSH1 0xA0 SHL SUB SWAP1 SWAP3 AND PUSH1 0x4 DUP4 ADD MSTORE PUSH1 0x24 DUP3 ADD MSTORE PUSH1 0x44 ADD PUSH1 0x20 PUSH1 0x40 MLOAD DUP1 DUP4 SUB DUP2 PUSH0 DUP8 GAS CALL ISZERO DUP1 ISZERO PUSH2 0xB7E JUMPI RETURNDATASIZE PUSH0 DUP1 RETURNDATACOPY RETURNDATASIZE PUSH0 REVERT JUMPDEST POP POP POP POP PUSH1 0x40 MLOAD RETURNDATASIZE PUSH1 0x1F NOT PUSH1 0x1F DUP3 ADD AND DUP3 ADD DUP1 PUSH1 0x40 MSTORE POP DUP2 ADD SWAP1 PUSH2 0xBA2 SWAP2 SWAP1 PUSH2 0x33B1 JUMP JUMPDEST POP PUSH2 0xC0F JUMP JUMPDEST PUSH1 0x40 MLOAD PUSH3 0x461BCD PUSH1 0xE5 SHL DUP2 MSTORE PUSH1 0x20 PUSH1 0x4 DUP3 ADD MSTORE PUSH1 0x36 PUSH1 0x24 DUP3 ADD MSTORE PUSH32 0x726567697374657228293A20426173652043757272656E6379206973206E6F74 PUSH1 0x44 DUP3 ADD MSTORE PUSH22 0x1039BAB83837B93A32B21037B91032B730B13632B217 PUSH1 0x51 SHL PUSH1 0x64 DUP3 ADD MSTORE PUSH1 0x84 ADD PUSH2 0x52D JUMP JUMPDEST PUSH0 DUP6 DUP2 MSTORE PUSH2 0x10A PUSH1 0x20 SWAP1 DUP2 MSTORE PUSH1 0x40 DUP1 DUP4 KECCAK256 PUSH1 0x1 PUSH1 0x1 PUSH1 0xA0 SHL SUB DUP9 AND DUP5 MSTORE PUSH2 0x109 SWAP1 SWAP3 MSTORE SWAP1 SWAP2 KECCAK256 PUSH2 0xC3F DUP2 DUP8 PUSH2 0x186F JUMP JUMPDEST PUSH0 PUSH2 0xC48 PUSH2 0x18E7 JUMP JUMPDEST PUSH0 DUP2 DUP2 MSTORE PUSH2 0x10A PUSH1 0x20 MSTORE PUSH1 0x40 SWAP1 KECCAK256 SWAP1 SWAP2 POP PUSH2 0xC63 DUP2 DUP5 PUSH2 0x18FC JUMP JUMPDEST POP PUSH1 0x40 DUP1 MLOAD PUSH2 0x140 DUP2 ADD DUP3 MSTORE DUP3 SLOAD DUP2 MSTORE PUSH1 0x1 DUP4 ADD SLOAD PUSH1 0x1 PUSH1 0x1 PUSH1 0xA0 SHL SUB AND PUSH1 0x20 DUP1 DUP4 ADD SWAP2 SWAP1 SWAP2 MSTORE PUSH1 0x2 DUP5 ADD SLOAD DUP3 DUP5 ADD MSTORE PUSH1 0x3 DUP5 ADD SLOAD PUSH1 0x60 DUP4 ADD MSTORE PUSH1 0x4 DUP5 ADD DUP1 SLOAD DUP5 MLOAD DUP2 DUP5 MUL DUP2 ADD DUP5 ADD SWAP1 SWAP6 MSTORE DUP1 DUP6 MSTORE PUSH2 0xE6D SWAP5 DUP7 SWAP4 PUSH1 0x80 DUP7 ADD SWAP4 SWAP2 SWAP3 SWAP1 DUP4 ADD DUP3 DUP3 DUP1 ISZERO PUSH2 0xCED JUMPI PUSH1 0x20 MUL DUP3 ADD SWAP2 SWAP1 PUSH0 MSTORE PUSH1 0x20 PUSH0 KECCAK256 SWAP1 JUMPDEST DUP2 SLOAD DUP2 MSTORE PUSH1 0x20 ADD SWAP1 PUSH1 0x1 ADD SWAP1 DUP1 DUP4 GT PUSH2 0xCD9 JUMPI JUMPDEST POP POP POP POP POP DUP2 MSTORE PUSH1 0x20 ADD PUSH1 0x5 DUP3 ADD DUP1 SLOAD DUP1 PUSH1 0x20 MUL PUSH1 0x20 ADD PUSH1 0x40 MLOAD SWAP1 DUP2 ADD PUSH1 0x40 MSTORE DUP1 SWAP3 SWAP2 SWAP1 DUP2 DUP2 MSTORE PUSH1 0x20 ADD PUSH0 SWAP1 JUMPDEST DUP3 DUP3 LT ISZERO PUSH2 0xD5D JUMPI DUP4 DUP3 SWAP1 PUSH0 MSTORE PUSH1 0x20 PUSH0 KECCAK256 SWAP1 PUSH1 0x2 MUL ADD PUSH1 0x40 MLOAD DUP1 PUSH1 0x40 ADD PUSH1 0x40 MSTORE SWAP1 DUP2 PUSH0 DUP3 ADD SLOAD DUP2 MSTORE PUSH1 0x20 ADD PUSH1 0x1 DUP3 ADD SLOAD DUP2 MSTORE POP POP DUP2 MSTORE PUSH1 0x20 ADD SWAP1 PUSH1 0x1 ADD SWAP1 PUSH2 0xD1A JUMP JUMPDEST POP POP POP POP DUP2 MSTORE PUSH1 0x20 ADD PUSH1 0x6 DUP3 ADD DUP1 SLOAD DUP1 PUSH1 0x20 MUL PUSH1 0x20 ADD PUSH1 0x40 MLOAD SWAP1 DUP2 ADD PUSH1 0x40 MSTORE DUP1 SWAP3 SWAP2 SWAP1 DUP2 DUP2 MSTORE PUSH1 0x20 ADD PUSH0 SWAP1 JUMPDEST DUP3 DUP3 LT ISZERO PUSH2 0xDCC JUMPI DUP4 DUP3 SWAP1 PUSH0 MSTORE PUSH1 0x20 PUSH0 KECCAK256 SWAP1 PUSH1 0x2 MUL ADD PUSH1 0x40 MLOAD DUP1 PUSH1 0x40 ADD PUSH1 0x40 MSTORE SWAP1 DUP2 PUSH0 DUP3 ADD SLOAD DUP2 MSTORE PUSH1 0x20 ADD PUSH1 0x1 DUP3 ADD SLOAD DUP2 MSTORE POP POP DUP2 MSTORE PUSH1 0x20 ADD SWAP1 PUSH1 0x1 ADD SWAP1 PUSH2 0xD89 JUMP JUMPDEST POP POP POP SWAP1 DUP3 MSTORE POP PUSH1 0x40 DUP1 MLOAD PUSH1 0x60 DUP1 DUP3 ADD DUP4 MSTORE PUSH1 0x7 DUP6 ADD SLOAD DUP3 MSTORE PUSH1 0x8 DUP6 ADD SLOAD PUSH1 0x20 DUP4 DUP2 ADD SWAP2 SWAP1 SWAP2 MSTORE PUSH1 0x9 DUP7 ADD SLOAD DUP4 DUP6 ADD MSTORE DUP1 DUP6 ADD SWAP3 SWAP1 SWAP3 MSTORE DUP3 MLOAD DUP1 DUP3 ADD DUP5 MSTORE PUSH1 0xA DUP7 ADD SLOAD DUP2 MSTORE PUSH1 0xB DUP7 ADD SLOAD SWAP3 DUP2 ADD SWAP3 SWAP1 SWAP3 MSTORE PUSH1 0xC DUP6 ADD SLOAD DUP3 DUP5 ADD MSTORE SWAP2 DUP4 ADD MSTORE PUSH1 0xD SWAP1 SWAP3 ADD SLOAD PUSH1 0xFF AND ISZERO ISZERO SWAP2 ADD MSTORE MLOAD PUSH1 0xFD DUP1 SLOAD PUSH1 0x1 DUP2 ADD DUP3 SSTORE PUSH0 SWAP2 SWAP1 SWAP2 MSTORE PUSH32 0x9346AC6DD7DE6B96975FEC380D4D994C4C12E6A8897544F22915316CC6CCA280 ADD SSTORE JUMP JUMPDEST PUSH0 PUSH2 0xE78 DUP6 DUP4 PUSH2 0x1A3A JUMP JUMPDEST SWAP1 POP PUSH2 0xE84 DUP3 DUP8 PUSH2 0x21F3 JUMP JUMPDEST PUSH2 0xE90 DUP3 DUP8 DUP4 DUP12 PUSH2 0x2245 JUMP JUMPDEST DUP6 PUSH2 0x106 PUSH0 DUP3 DUP3 SLOAD PUSH2 0xEA2 SWAP2 SWAP1 PUSH2 0x33CC JUMP JUMPDEST SWAP1 SWAP2 SSTORE POP POP PUSH2 0x108 DUP1 SLOAD PUSH1 0xFF NOT AND SWAP1 SSTORE POP POP POP POP POP POP POP POP POP POP JUMP JUMPDEST PUSH2 0xEFE PUSH1 0x40 MLOAD DUP1 PUSH1 0xE0 ADD PUSH1 0x40 MSTORE DUP1 PUSH0 PUSH1 0xFF AND DUP2 MSTORE PUSH1 0x20 ADD PUSH0 DUP2 MSTORE PUSH1 0x20 ADD PUSH0 PUSH1 0xFF AND DUP2 MSTORE PUSH1 0x20 ADD PUSH0 DUP2 MSTORE PUSH1 0x20 ADD PUSH0 DUP2 MSTORE PUSH1 0x20 ADD PUSH1 0x60 DUP2 MSTORE PUSH1 0x20 ADD PUSH0 DUP2 MSTORE POP SWAP1 JUMP JUMPDEST PUSH1 0xFF DUP1 DUP4 AND PUSH0 SWAP1 DUP2 MSTORE PUSH2 0x10C PUSH1 0x20 SWAP1 DUP2 MSTORE PUSH1 0x40 SWAP2 DUP3 SWAP1 KECCAK256 DUP3 MLOAD PUSH1 0xE0 DUP2 ADD DUP5 MSTORE DUP2 SLOAD DUP6 AND DUP2 MSTORE PUSH1 0x1 DUP3 ADD SLOAD DUP2 DUP5 ADD MSTORE PUSH1 0x2 DUP3 ADD SLOAD SWAP1 SWAP5 AND DUP5 DUP5 ADD MSTORE PUSH1 0x3 DUP2 ADD SLOAD PUSH1 0x60 DUP6 ADD MSTORE PUSH1 0x4 DUP2 ADD SLOAD PUSH1 0x80 DUP6 ADD MSTORE PUSH1 0x5 DUP2 ADD DUP1 SLOAD DUP5 MLOAD DUP2 DUP6 MUL DUP2 ADD DUP6 ADD SWAP1 SWAP6 MSTORE DUP1 DUP6 MSTORE SWAP2 SWAP4 PUSH1 0xA0 DUP7 ADD SWAP4 SWAP1 SWAP3 SWAP1 DUP4 ADD DUP3 DUP3 DUP1 ISZERO PUSH2 0xF98 JUMPI PUSH1 0x20 MUL DUP3 ADD SWAP2 SWAP1 PUSH0 MSTORE PUSH1 0x20 PUSH0 KECCAK256 SWAP1 JUMPDEST DUP2 SLOAD DUP2 MSTORE PUSH1 0x20 ADD SWAP1 PUSH1 0x1 ADD SWAP1 DUP1 DUP4 GT PUSH2 0xF84 JUMPI JUMPDEST POP POP POP POP POP DUP2 MSTORE PUSH1 0x20 ADD PUSH1 0x6 DUP3 ADD SLOAD DUP2 MSTORE POP POP SWAP1 POP SWAP2 SWAP1 POP JUMP JUMPDEST PUSH2 0xFBA PUSH2 0x16B2 JUMP JUMPDEST PUSH1 0x1 PUSH1 0x1 PUSH1 0xA0 SHL SUB DUP2 AND PUSH2 0x101F JUMPI PUSH1 0x40 MLOAD PUSH3 0x461BCD PUSH1 0xE5 SHL DUP2 MSTORE PUSH1 0x20 PUSH1 0x4 DUP3 ADD MSTORE PUSH1 0x26 PUSH1 0x24 DUP3 ADD MSTORE PUSH32 0x4F776E61626C653A206E6577206F776E657220697320746865207A65726F2061 PUSH1 0x44 DUP3 ADD MSTORE PUSH6 0x646472657373 PUSH1 0xD0 SHL PUSH1 0x64 DUP3 ADD MSTORE PUSH1 0x84 ADD PUSH2 0x52D JUMP JUMPDEST PUSH2 0x5C8 DUP2 PUSH2 0x170C JUMP JUMPDEST PUSH2 0x1030 PUSH2 0x16B2 JUMP JUMPDEST PUSH1 0x1 PUSH1 0x1 PUSH1 0xA0 SHL SUB DUP4 DUP2 AND PUSH0 SWAP1 DUP2 MSTORE PUSH2 0x10B PUSH1 0x20 MSTORE PUSH1 0x40 SWAP1 KECCAK256 SLOAD AND ISZERO PUSH2 0x10B4 JUMPI PUSH1 0x40 MLOAD PUSH3 0x461BCD PUSH1 0xE5 SHL DUP2 MSTORE PUSH1 0x20 PUSH1 0x4 DUP3 ADD MSTORE PUSH1 0x33 PUSH1 0x24 DUP3 ADD MSTORE PUSH32 0x70757368537570706F72746564546F6B656E546F4C69737428293A20546F6B65 PUSH1 0x44 DUP3 ADD MSTORE PUSH19 0x371034B99030B63932B0B23C9030B23232B217 PUSH1 0x69 SHL PUSH1 0x64 DUP3 ADD MSTORE PUSH1 0x84 ADD PUSH2 0x52D JUMP JUMPDEST PUSH1 0x40 MLOAD DUP1 PUSH1 0xA0 ADD PUSH1 0x40 MSTORE DUP1 DUP5 PUSH1 0x1 PUSH1 0x1 PUSH1 0xA0 SHL SUB AND DUP2 MSTORE PUSH1 0x20 ADD DUP5 PUSH1 0x1 PUSH1 0x1 PUSH1 0xA0 SHL SUB AND PUSH4 0x313CE567 PUSH1 0x40 MLOAD DUP2 PUSH4 0xFFFFFFFF AND PUSH1 0xE0 SHL DUP2 MSTORE PUSH1 0x4 ADD PUSH1 0x20 PUSH1 0x40 MLOAD DUP1 DUP4 SUB DUP2 DUP7 GAS STATICCALL ISZERO DUP1 ISZERO PUSH2 0x110A JUMPI RETURNDATASIZE PUSH0 DUP1 RETURNDATACOPY RETURNDATASIZE PUSH0 REVERT JUMPDEST POP POP POP POP PUSH1 0x40 MLOAD RETURNDATASIZE PUSH1 0x1F NOT PUSH1 0x1F DUP3 ADD AND DUP3 ADD DUP1 PUSH1 0x40 MSTORE POP DUP2 ADD SWAP1 PUSH2 0x112E SWAP2 SWAP1 PUSH2 0x33DF JUMP JUMPDEST PUSH1 0xFF SWAP1 DUP2 AND DUP3 MSTORE SWAP4 ISZERO ISZERO PUSH1 0x20 DUP1 DUP4 ADD SWAP2 SWAP1 SWAP2 MSTORE PUSH1 0x1 PUSH1 0x1 PUSH1 0xA0 SHL SUB SWAP4 DUP5 AND PUSH1 0x40 DUP1 DUP5 ADD SWAP2 SWAP1 SWAP2 MSTORE PUSH1 0x1 PUSH1 0x60 SWAP4 DUP5 ADD DUP2 SWAP1 MSTORE SWAP7 DUP6 AND PUSH0 SWAP1 DUP2 MSTORE PUSH2 0x10B DUP4 MSTORE DUP2 DUP2 KECCAK256 DUP6 MLOAD DUP2 SLOAD SWAP1 DUP9 AND PUSH1 0x1 PUSH1 0x1 PUSH1 0xA0 SHL SUB NOT SWAP2 DUP3 AND OR DUP3 SSTORE SWAP4 DUP7 ADD MLOAD DUP2 DUP11 ADD SWAP1 DUP2 SSTORE SWAP3 DUP7 ADD MLOAD PUSH1 0x2 DUP3 ADD DUP1 SLOAD SWAP7 DUP9 ADD MLOAD PUSH1 0x80 SWAP1 SWAP9 ADD MLOAD ISZERO ISZERO PUSH1 0x1 PUSH1 0xA8 SHL SWAP1 DUP2 MUL PUSH1 0xFF PUSH1 0xA8 SHL NOT SWAP10 DUP12 AND PUSH2 0x100 SWAP1 DUP2 MUL PUSH2 0x100 PUSH1 0x1 PUSH1 0xA8 SHL SUB NOT SWAP6 ISZERO ISZERO DUP7 AND PUSH1 0x1 PUSH1 0x1 PUSH1 0xA8 SHL SUB NOT SWAP12 DUP13 AND OR OR DUP12 AND SWAP2 SWAP1 SWAP2 OR DUP4 SSTORE PUSH2 0x107 DUP1 SLOAD SWAP14 DUP15 ADD DUP2 SSTORE SWAP1 SWAP6 MSTORE SWAP3 SLOAD PUSH1 0x3 SWAP1 SWAP12 MUL PUSH32 0x47C4908E245F386BFC1825973249847F4053A761DDB4880AD63C323A7B5A2A25 DUP2 ADD DUP1 SLOAD SWAP1 SWAP8 AND SWAP12 DUP11 AND SWAP12 SWAP1 SWAP12 OR SWAP1 SWAP6 SSTORE SWAP3 SLOAD PUSH32 0x47C4908E245F386BFC1825973249847F4053A761DDB4880AD63C323A7B5A2A26 DUP11 ADD SSTORE DUP4 SLOAD PUSH32 0x47C4908E245F386BFC1825973249847F4053A761DDB4880AD63C323A7B5A2A27 SWAP1 SWAP10 ADD DUP1 SLOAD SWAP10 DUP10 AND ISZERO ISZERO PUSH1 0xFF NOT DUP12 AND DUP2 OR DUP3 SSTORE DUP6 SLOAD DUP5 SWAP1 DIV SWAP1 SWAP9 AND SWAP1 SWAP3 MUL SWAP7 SWAP1 SWAP3 AND SWAP8 SWAP1 SWAP4 AND SWAP7 SWAP1 SWAP7 OR SWAP4 SWAP1 SWAP4 OR DUP1 DUP3 SSTORE SWAP3 SLOAD DUP6 SWAP1 DIV SWAP1 SWAP4 AND ISZERO ISZERO SWAP1 SWAP4 MUL SWAP3 AND SWAP2 SWAP1 SWAP2 OR SWAP1 SSTORE JUMP JUMPDEST PUSH1 0x40 DUP1 MLOAD DUP1 DUP3 ADD SWAP1 SWAP2 MSTORE PUSH0 DUP2 MSTORE PUSH1 0x60 PUSH1 0x20 DUP3 ADD MSTORE PUSH1 0x1 PUSH1 0x1 PUSH1 0xA0 SHL SUB DUP1 DUP4 AND PUSH0 SWAP1 DUP2 MSTORE PUSH2 0x109 PUSH1 0x20 SWAP1 DUP2 MSTORE PUSH1 0x40 SWAP2 DUP3 SWAP1 KECCAK256 DUP3 MLOAD DUP1 DUP5 ADD DUP5 MSTORE DUP2 SLOAD SWAP1 SWAP5 AND DUP5 MSTORE PUSH1 0x1 DUP2 ADD DUP1 SLOAD DUP5 MLOAD DUP2 DUP6 MUL DUP2 ADD DUP6 ADD SWAP1 SWAP6 MSTORE DUP1 DUP6 MSTORE SWAP2 SWAP4 DUP6 DUP5 ADD SWAP4 SWAP1 SWAP3 SWAP1 DUP4 ADD DUP3 DUP3 DUP1 ISZERO PUSH2 0x1341 JUMPI PUSH1 0x20 MUL DUP3 ADD SWAP2 SWAP1 PUSH0 MSTORE PUSH1 0x20 PUSH0 KECCAK256 SWAP1 JUMPDEST DUP2 SLOAD DUP2 MSTORE PUSH1 0x20 ADD SWAP1 PUSH1 0x1 ADD SWAP1 DUP1 DUP4 GT PUSH2 0x132D JUMPI JUMPDEST POP POP POP POP POP DUP2 MSTORE POP POP SWAP1 POP SWAP2 SWAP1 POP JUMP JUMPDEST PUSH2 0x1359 PUSH2 0x2CDD JUMP JUMPDEST PUSH0 DUP3 DUP2 MSTORE PUSH2 0x10A PUSH1 0x20 SWAP1 DUP2 MSTORE PUSH1 0x40 SWAP2 DUP3 SWAP1 KECCAK256 DUP3 MLOAD PUSH2 0x140 DUP2 ADD DUP5 MSTORE DUP2 SLOAD DUP2 MSTORE PUSH1 0x1 DUP3 ADD SLOAD PUSH1 0x1 PUSH1 0x1 PUSH1 0xA0 SHL SUB AND DUP2 DUP5 ADD MSTORE PUSH1 0x2 DUP3 ADD SLOAD DUP2 DUP6 ADD MSTORE PUSH1 0x3 DUP3 ADD SLOAD PUSH1 0x60 DUP3 ADD MSTORE PUSH1 0x4 DUP3 ADD DUP1 SLOAD DUP6 MLOAD DUP2 DUP7 MUL DUP2 ADD DUP7 ADD SWAP1 SWAP7 MSTORE DUP1 DUP7 MSTORE SWAP2 SWAP5 SWAP3 SWAP4 PUSH1 0x80 DUP7 ADD SWAP4 SWAP3 SWAP1 DUP4 ADD DUP3 DUP3 DUP1 ISZERO PUSH2 0x13EA JUMPI PUSH1 0x20 MUL DUP3 ADD SWAP2 SWAP1 PUSH0 MSTORE PUSH1 0x20 PUSH0 KECCAK256 SWAP1 JUMPDEST DUP2 SLOAD DUP2 MSTORE PUSH1 0x20 ADD SWAP1 PUSH1 0x1 ADD SWAP1 DUP1 DUP4 GT PUSH2 0x13D6 JUMPI JUMPDEST POP POP POP POP POP DUP2 MSTORE PUSH1 0x20 ADD PUSH1 0x5 DUP3 ADD DUP1 SLOAD DUP1 PUSH1 0x20 MUL PUSH1 0x20 ADD PUSH1 0x40 MLOAD SWAP1 DUP2 ADD PUSH1 0x40 MSTORE DUP1 SWAP3 SWAP2 SWAP1 DUP2 DUP2 MSTORE PUSH1 0x20 ADD PUSH0 SWAP1 JUMPDEST DUP3 DUP3 LT ISZERO PUSH2 0x145A JUMPI DUP4 DUP3 SWAP1 PUSH0 MSTORE PUSH1 0x20 PUSH0 KECCAK256 SWAP1 PUSH1 0x2 MUL ADD PUSH1 0x40 MLOAD DUP1 PUSH1 0x40 ADD PUSH1 0x40 MSTORE SWAP1 DUP2 PUSH0 DUP3 ADD SLOAD DUP2 MSTORE PUSH1 0x20 ADD PUSH1 0x1 DUP3 ADD SLOAD DUP2 MSTORE POP POP DUP2 MSTORE PUSH1 0x20 ADD SWAP1 PUSH1 0x1 ADD SWAP1 PUSH2 0x1417 JUMP JUMPDEST POP POP POP POP DUP2 MSTORE PUSH1 0x20 ADD PUSH1 0x6 DUP3 ADD DUP1 SLOAD DUP1 PUSH1 0x20 MUL PUSH1 0x20 ADD PUSH1 0x40 MLOAD SWAP1 DUP2 ADD PUSH1 0x40 MSTORE DUP1 SWAP3 SWAP2 SWAP1 DUP2 DUP2 MSTORE PUSH1 0x20 ADD PUSH0 SWAP1 JUMPDEST DUP3 DUP3 LT ISZERO PUSH2 0x14C9 JUMPI DUP4 DUP3 SWAP1 PUSH0 MSTORE PUSH1 0x20 PUSH0 KECCAK256 SWAP1 PUSH1 0x2 MUL ADD PUSH1 0x40 MLOAD DUP1 PUSH1 0x40 ADD PUSH1 0x40 MSTORE SWAP1 DUP2 PUSH0 DUP3 ADD SLOAD DUP2 MSTORE PUSH1 0x20 ADD PUSH1 0x1 DUP3 ADD SLOAD DUP2 MSTORE POP POP DUP2 MSTORE PUSH1 0x20 ADD SWAP1 PUSH1 0x1 ADD SWAP1 PUSH2 0x1486 JUMP JUMPDEST POP POP POP SWAP1 DUP3 MSTORE POP PUSH1 0x40 DUP1 MLOAD PUSH1 0x60 DUP1 DUP3 ADD DUP4 MSTORE PUSH1 0x7 DUP6 ADD SLOAD DUP3 MSTORE PUSH1 0x8 DUP6 ADD SLOAD PUSH1 0x20 DUP4 DUP2 ADD SWAP2 SWAP1 SWAP2 MSTORE PUSH1 0x9 DUP7 ADD SLOAD DUP4 DUP6 ADD MSTORE DUP1 DUP6 ADD SWAP3 SWAP1 SWAP3 MSTORE DUP3 MLOAD DUP1 DUP3 ADD DUP5 MSTORE PUSH1 0xA DUP7 ADD SLOAD DUP2 MSTORE PUSH1 0xB DUP7 ADD SLOAD SWAP3 DUP2 ADD SWAP3 SWAP1 SWAP3 MSTORE PUSH1 0xC DUP6 ADD SLOAD DUP3 DUP5 ADD MSTORE SWAP2 DUP4 ADD MSTORE PUSH1 0xD SWAP1 SWAP3 ADD SLOAD PUSH1 0xFF AND ISZERO ISZERO SWAP2 ADD MSTORE SWAP3 SWAP2 POP POP JUMP JUMPDEST PUSH2 0x5C8 PUSH2 0x16B2 JUMP JUMPDEST PUSH32 0x4910FDFA16FED3260ED0E7147F7CC6DA11A60208B5B9406D12A635614FFD9143 SLOAD PUSH1 0xFF AND ISZERO PUSH2 0x157B JUMPI PUSH2 0x1576 DUP4 PUSH2 0x2589 JUMP JUMPDEST POP POP POP JUMP JUMPDEST DUP3 PUSH1 0x1 PUSH1 0x1 PUSH1 0xA0 SHL SUB AND PUSH4 0x52D1902D PUSH1 0x40 MLOAD DUP2 PUSH4 0xFFFFFFFF AND PUSH1 0xE0 SHL DUP2 MSTORE PUSH1 0x4 ADD PUSH1 0x20 PUSH1 0x40 MLOAD DUP1 DUP4 SUB DUP2 DUP7 GAS STATICCALL SWAP3 POP POP POP DUP1 ISZERO PUSH2 0x15D5 JUMPI POP PUSH1 0x40 DUP1 MLOAD PUSH1 0x1F RETURNDATASIZE SWAP1 DUP2 ADD PUSH1 0x1F NOT AND DUP3 ADD SWAP1 SWAP3 MSTORE PUSH2 0x15D2 SWAP2 DUP2 ADD SWAP1 PUSH2 0x33FA JUMP JUMPDEST PUSH1 0x1 JUMPDEST PUSH2 0x1638 JUMPI PUSH1 0x40 MLOAD PUSH3 0x461BCD PUSH1 0xE5 SHL DUP2 MSTORE PUSH1 0x20 PUSH1 0x4 DUP3 ADD MSTORE PUSH1 0x2E PUSH1 0x24 DUP3 ADD MSTORE PUSH32 0x45524331393637557067726164653A206E657720696D706C656D656E74617469 PUSH1 0x44 DUP3 ADD MSTORE PUSH14 0x6F6E206973206E6F742055555053 PUSH1 0x90 SHL PUSH1 0x64 DUP3 ADD MSTORE PUSH1 0x84 ADD PUSH2 0x52D JUMP JUMPDEST PUSH0 DUP1 MLOAD PUSH1 0x20 PUSH2 0x3663 DUP4 CODECOPY DUP2 MLOAD SWAP2 MSTORE DUP2 EQ PUSH2 0x16A6 JUMPI PUSH1 0x40 MLOAD PUSH3 0x461BCD PUSH1 0xE5 SHL DUP2 MSTORE PUSH1 0x20 PUSH1 0x4 DUP3 ADD MSTORE PUSH1 0x29 PUSH1 0x24 DUP3 ADD MSTORE PUSH32 0x45524331393637557067726164653A20756E737570706F727465642070726F78 PUSH1 0x44 DUP3 ADD MSTORE PUSH9 0x1A58589B1955555251 PUSH1 0xBA SHL PUSH1 0x64 DUP3 ADD MSTORE PUSH1 0x84 ADD PUSH2 0x52D JUMP JUMPDEST POP PUSH2 0x1576 DUP4 DUP4 DUP4 PUSH2 0x2624 JUMP JUMPDEST PUSH1 0x65 SLOAD PUSH1 0x1 PUSH1 0x1 PUSH1 0xA0 SHL SUB AND CALLER EQ PUSH2 0x922 JUMPI PUSH1 0x40 MLOAD PUSH3 0x461BCD PUSH1 0xE5 SHL DUP2 MSTORE PUSH1 0x20 PUSH1 0x4 DUP3 ADD DUP2 SWAP1 MSTORE PUSH1 0x24 DUP3 ADD MSTORE PUSH32 0x4F776E61626C653A2063616C6C6572206973206E6F7420746865206F776E6572 PUSH1 0x44 DUP3 ADD MSTORE PUSH1 0x64 ADD PUSH2 0x52D JUMP JUMPDEST PUSH1 0x65 DUP1 SLOAD PUSH1 0x1 PUSH1 0x1 PUSH1 0xA0 SHL SUB DUP4 DUP2 AND PUSH1 0x1 PUSH1 0x1 PUSH1 0xA0 SHL SUB NOT DUP4 AND DUP2 OR SWAP1 SWAP4 SSTORE PUSH1 0x40 MLOAD SWAP2 AND SWAP2 SWAP1 DUP3 SWAP1 PUSH32 0x8BE0079C531659141344CD1FD0A4F28419497F9722A3DAAFE3B4186F6B6457E0 SWAP1 PUSH0 SWAP1 LOG3 POP POP JUMP JUMPDEST PUSH0 SLOAD PUSH2 0x100 SWAP1 DIV PUSH1 0xFF AND PUSH2 0x1783 JUMPI PUSH1 0x40 MLOAD PUSH3 0x461BCD PUSH1 0xE5 SHL DUP2 MSTORE PUSH1 0x4 ADD PUSH2 0x52D SWAP1 PUSH2 0x3411 JUMP JUMPDEST PUSH2 0x922 PUSH2 0x264E JUMP JUMPDEST PUSH0 SLOAD PUSH2 0x100 SWAP1 DIV PUSH1 0xFF AND PUSH2 0x17B1 JUMPI PUSH1 0x40 MLOAD PUSH3 0x461BCD PUSH1 0xE5 SHL DUP2 MSTORE PUSH1 0x4 ADD PUSH2 0x52D SWAP1 PUSH2 0x3411 JUMP JUMPDEST PUSH2 0x922 PUSH2 0x2680 JUMP JUMPDEST PUSH0 SLOAD PUSH2 0x100 SWAP1 DIV PUSH1 0xFF AND PUSH2 0x922 JUMPI PUSH1 0x40 MLOAD PUSH3 0x461BCD PUSH1 0xE5 SHL DUP2 MSTORE PUSH1 0x4 ADD PUSH2 0x52D SWAP1 PUSH2 0x3411 JUMP JUMPDEST PUSH0 PUSH8 0xDE0B6B3A7640000 DUP3 PUSH1 0x1 PUSH1 0x1 PUSH1 0xA0 SHL SUB AND PUSH4 0x313CE567 PUSH1 0x40 MLOAD DUP2 PUSH4 0xFFFFFFFF AND PUSH1 0xE0 SHL DUP2 MSTORE PUSH1 0x4 ADD PUSH1 0x20 PUSH1 0x40 MLOAD DUP1 DUP4 SUB DUP2 DUP7 GAS STATICCALL ISZERO DUP1 ISZERO PUSH2 0x1825 JUMPI RETURNDATASIZE PUSH0 DUP1 RETURNDATACOPY RETURNDATASIZE PUSH0 REVERT JUMPDEST POP POP POP POP PUSH1 0x40 MLOAD RETURNDATASIZE PUSH1 0x1F NOT PUSH1 0x1F DUP3 ADD AND DUP3 ADD DUP1 PUSH1 0x40 MSTORE POP DUP2 ADD SWAP1 PUSH2 0x1849 SWAP2 SWAP1 PUSH2 0x33DF JUMP JUMPDEST PUSH2 0x1854 SWAP1 PUSH1 0xA PUSH2 0x353C JUMP JUMPDEST PUSH2 0x185E SWAP1 DUP6 PUSH2 0x334F JUMP JUMPDEST PUSH2 0x1868 SWAP2 SWAP1 PUSH2 0x354A JUMP JUMPDEST SWAP4 SWAP3 POP POP POP JUMP JUMPDEST DUP2 SLOAD PUSH1 0x1 PUSH1 0x1 PUSH1 0xA0 SHL SUB AND ISZERO DUP1 ISZERO PUSH2 0x188F JUMPI POP PUSH1 0x1 PUSH1 0x1 PUSH1 0xA0 SHL SUB DUP2 AND ISZERO ISZERO JUMPDEST ISZERO PUSH2 0x696 JUMPI DUP2 SLOAD PUSH1 0x1 PUSH1 0x1 PUSH1 0xA0 SHL SUB NOT AND PUSH1 0x1 PUSH1 0x1 PUSH1 0xA0 SHL SUB DUP3 AND SWAP1 DUP2 OR DUP4 SSTORE PUSH1 0x40 MLOAD SWAP1 DUP2 MSTORE PUSH32 0x3B819CFB39116B78A5D1267E92AB85058E96D63A7882322D296AB4135720B79A SWAP1 PUSH1 0x20 ADD JUMPDEST PUSH1 0x40 MLOAD DUP1 SWAP2 SUB SWAP1 LOG1 POP POP JUMP JUMPDEST PUSH0 PUSH1 0xFC SLOAD PUSH1 0x1 PUSH2 0x18F7 SWAP2 SWAP1 PUSH2 0x33CC JUMP JUMPDEST SWAP1 POP SWAP1 JUMP JUMPDEST DUP2 SLOAD PUSH0 SWAP1 ISZERO PUSH2 0x1959 JUMPI PUSH1 0x40 MLOAD PUSH3 0x461BCD PUSH1 0xE5 SHL DUP2 MSTORE PUSH1 0x20 PUSH1 0x4 DUP3 ADD MSTORE PUSH1 0x23 PUSH1 0x24 DUP3 ADD MSTORE PUSH32 0x5F757064617465496428293A20496420697320616C7265616479206372656174 PUSH1 0x44 DUP3 ADD MSTORE PUSH3 0x32B217 PUSH1 0xE9 SHL PUSH1 0x64 DUP3 ADD MSTORE PUSH1 0x84 ADD PUSH2 0x52D JUMP JUMPDEST PUSH1 0xFC DUP1 SLOAD SWAP1 PUSH0 PUSH2 0x1968 DUP4 PUSH2 0x3569 JUMP JUMPDEST SWAP1 SWAP2 SSTORE POP POP PUSH1 0xFC SLOAD DUP1 DUP5 SSTORE PUSH1 0x1 DUP4 DUP2 ADD DUP1 SLOAD SWAP2 DUP3 ADD DUP2 SSTORE PUSH0 SWAP1 DUP2 MSTORE PUSH1 0x20 SWAP1 DUP2 SWAP1 KECCAK256 SWAP1 SWAP2 ADD DUP3 SWAP1 SSTORE DUP4 SLOAD PUSH1 0x40 DUP1 MLOAD PUSH1 0x1 PUSH1 0x1 PUSH1 0xA0 SHL SUB SWAP1 SWAP3 AND DUP3 MSTORE SWAP2 DUP2 ADD DUP4 SWAP1 MSTORE SWAP2 SWAP3 POP PUSH32 0x1EDFAF20EB0251DD2CA45E125C8B9A615022667B9822CF6A8DC1D2CE7E91EA68 SWAP2 ADD PUSH1 0x40 MLOAD DUP1 SWAP2 SUB SWAP1 LOG1 DUP2 SLOAD PUSH1 0x1 DUP5 ADD DUP1 SLOAD PUSH1 0x1 PUSH1 0x1 PUSH1 0xA0 SHL SUB NOT AND PUSH1 0x1 PUSH1 0x1 PUSH1 0xA0 SHL SUB SWAP3 DUP4 AND OR SWAP1 SSTORE DUP3 SLOAD PUSH1 0x40 DUP1 MLOAD SWAP2 SWAP1 SWAP3 AND DUP2 MSTORE PUSH1 0x20 DUP2 ADD DUP4 SWAP1 MSTORE PUSH32 0x4F3673673D1E6F88F67F26845B9609A7707201984D7885988D35AEDF43B9FE44 SWAP2 ADD PUSH1 0x40 MLOAD DUP1 SWAP2 SUB SWAP1 LOG1 SWAP3 SWAP2 POP POP JUMP JUMPDEST DUP1 SLOAD PUSH0 SWAP1 PUSH2 0x1A50 PUSH1 0x65 SLOAD PUSH1 0x1 PUSH1 0x1 PUSH1 0xA0 SHL SUB AND SWAP1 JUMP JUMPDEST PUSH1 0x1 PUSH1 0x1 PUSH1 0xA0 SHL SUB AND CALLER PUSH1 0x1 PUSH1 0x1 PUSH1 0xA0 SHL SUB AND EQ PUSH2 0x1ACD JUMPI DUP4 SLOAD PUSH0 SUB PUSH2 0x1ACD JUMPI PUSH1 0x40 MLOAD PUSH3 0x461BCD PUSH1 0xE5 SHL DUP2 MSTORE PUSH1 0x20 PUSH1 0x4 DUP3 ADD MSTORE PUSH1 0x2C PUSH1 0x24 DUP3 ADD MSTORE PUSH32 0x5F616464526566657272657228293A2052656665727265204964206973206E6F PUSH1 0x44 DUP3 ADD MSTORE PUSH12 0x3A1030B1BA34BB30BA32B217 PUSH1 0xA1 SHL PUSH1 0x64 DUP3 ADD MSTORE PUSH1 0x84 ADD PUSH2 0x52D JUMP JUMPDEST DUP1 DUP5 PUSH1 0x2 ADD SLOAD SUB PUSH2 0x1B3B JUMPI PUSH1 0x40 MLOAD PUSH3 0x461BCD PUSH1 0xE5 SHL DUP2 MSTORE PUSH1 0x20 PUSH1 0x4 DUP3 ADD MSTORE PUSH1 0x32 PUSH1 0x24 DUP3 ADD MSTORE PUSH32 0x5F616464526566657272657228293A20526566657265652063616E6E6F742062 PUSH1 0x44 DUP3 ADD MSTORE PUSH18 0x32903932B332B93932B9103AB83634B73297 PUSH1 0x71 SHL PUSH1 0x64 DUP3 ADD MSTORE PUSH1 0x84 ADD PUSH2 0x52D JUMP JUMPDEST DUP1 ISZERO PUSH2 0x1B9C JUMPI PUSH1 0x40 MLOAD PUSH3 0x461BCD PUSH1 0xE5 SHL DUP2 MSTORE PUSH1 0x20 PUSH1 0x4 DUP3 ADD MSTORE PUSH1 0x2A PUSH1 0x24 DUP3 ADD MSTORE PUSH32 0x5F616464526566657272657228293A205573657220726566657272657220616C PUSH1 0x44 DUP3 ADD MSTORE PUSH10 0x3932B0B23C9039B2BA17 PUSH1 0xB1 SHL PUSH1 0x64 DUP3 ADD MSTORE PUSH1 0x84 ADD PUSH2 0x52D JUMP JUMPDEST PUSH1 0x40 DUP1 MLOAD PUSH2 0x140 DUP2 ADD DUP3 MSTORE DUP6 SLOAD DUP2 MSTORE PUSH1 0x1 DUP7 ADD SLOAD PUSH1 0x1 PUSH1 0x1 PUSH1 0xA0 SHL SUB AND PUSH1 0x20 DUP1 DUP4 ADD SWAP2 SWAP1 SWAP2 MSTORE PUSH1 0x2 DUP8 ADD SLOAD DUP3 DUP5 ADD MSTORE PUSH1 0x3 DUP8 ADD SLOAD PUSH1 0x60 DUP4 ADD MSTORE PUSH1 0x4 DUP8 ADD DUP1 SLOAD DUP5 MLOAD DUP2 DUP5 MUL DUP2 ADD DUP5 ADD SWAP1 SWAP6 MSTORE DUP1 DUP6 MSTORE PUSH2 0x1D75 SWAP5 DUP10 SWAP4 PUSH1 0x80 DUP7 ADD SWAP4 SWAP2 SWAP3 SWAP1 DUP4 ADD DUP3 DUP3 DUP1 ISZERO PUSH2 0x1C25 JUMPI PUSH1 0x20 MUL DUP3 ADD SWAP2 SWAP1 PUSH0 MSTORE PUSH1 0x20 PUSH0 KECCAK256 SWAP1 JUMPDEST DUP2 SLOAD DUP2 MSTORE PUSH1 0x20 ADD SWAP1 PUSH1 0x1 ADD SWAP1 DUP1 DUP4 GT PUSH2 0x1C11 JUMPI JUMPDEST POP POP POP POP POP DUP2 MSTORE PUSH1 0x20 ADD PUSH1 0x5 DUP3 ADD DUP1 SLOAD DUP1 PUSH1 0x20 MUL PUSH1 0x20 ADD PUSH1 0x40 MLOAD SWAP1 DUP2 ADD PUSH1 0x40 MSTORE DUP1 SWAP3 SWAP2 SWAP1 DUP2 DUP2 MSTORE PUSH1 0x20 ADD PUSH0 SWAP1 JUMPDEST DUP3 DUP3 LT ISZERO PUSH2 0x1C95 JUMPI DUP4 DUP3 SWAP1 PUSH0 MSTORE PUSH1 0x20 PUSH0 KECCAK256 SWAP1 PUSH1 0x2 MUL ADD PUSH1 0x40 MLOAD DUP1 PUSH1 0x40 ADD PUSH1 0x40 MSTORE SWAP1 DUP2 PUSH0 DUP3 ADD SLOAD DUP2 MSTORE PUSH1 0x20 ADD PUSH1 0x1 DUP3 ADD SLOAD DUP2 MSTORE POP POP DUP2 MSTORE PUSH1 0x20 ADD SWAP1 PUSH1 0x1 ADD SWAP1 PUSH2 0x1C52 JUMP JUMPDEST POP POP POP POP DUP2 MSTORE PUSH1 0x20 ADD PUSH1 0x6 DUP3 ADD DUP1 SLOAD DUP1 PUSH1 0x20 MUL PUSH1 0x20 ADD PUSH1 0x40 MLOAD SWAP1 DUP2 ADD PUSH1 0x40 MSTORE DUP1 SWAP3 SWAP2 SWAP1 DUP2 DUP2 MSTORE PUSH1 0x20 ADD PUSH0 SWAP1 JUMPDEST DUP3 DUP3 LT ISZERO PUSH2 0x1D04 JUMPI DUP4 DUP3 SWAP1 PUSH0 MSTORE PUSH1 0x20 PUSH0 KECCAK256 SWAP1 PUSH1 0x2 MUL ADD PUSH1 0x40 MLOAD DUP1 PUSH1 0x40 ADD PUSH1 0x40 MSTORE SWAP1 DUP2 PUSH0 DUP3 ADD SLOAD DUP2 MSTORE PUSH1 0x20 ADD PUSH1 0x1 DUP3 ADD SLOAD DUP2 MSTORE POP POP DUP2 MSTORE PUSH1 0x20 ADD SWAP1 PUSH1 0x1 ADD SWAP1 PUSH2 0x1CC1 JUMP JUMPDEST POP POP POP SWAP1 DUP3 MSTORE POP PUSH1 0x40 DUP1 MLOAD PUSH1 0x60 DUP1 DUP3 ADD DUP4 MSTORE PUSH1 0x7 DUP6 ADD SLOAD DUP3 MSTORE PUSH1 0x8 DUP6 ADD SLOAD PUSH1 0x20 DUP4 DUP2 ADD SWAP2 SWAP1 SWAP2 MSTORE PUSH1 0x9 DUP7 ADD SLOAD DUP4 DUP6 ADD MSTORE DUP1 DUP6 ADD SWAP3 SWAP1 SWAP3 MSTORE DUP3 MLOAD DUP1 DUP3 ADD DUP5 MSTORE PUSH1 0xA DUP7 ADD SLOAD DUP2 MSTORE PUSH1 0xB DUP7 ADD SLOAD SWAP3 DUP2 ADD SWAP3 SWAP1 SWAP3 MSTORE PUSH1 0xC DUP6 ADD SLOAD DUP3 DUP5 ADD MSTORE SWAP2 DUP4 ADD MSTORE PUSH1 0xD SWAP1 SWAP3 ADD SLOAD PUSH1 0xFF AND ISZERO ISZERO SWAP2 ADD MSTORE PUSH2 0x26AF JUMP JUMPDEST PUSH2 0x1DE0 JUMPI DUP4 SLOAD PUSH1 0x2 DUP5 ADD DUP2 SWAP1 SSTORE PUSH1 0x3 DUP5 ADD SSTORE PUSH1 0x4 DUP5 ADD DUP1 SLOAD PUSH1 0x1 DUP2 ADD DUP3 SSTORE PUSH0 SWAP2 DUP3 MSTORE PUSH1 0x20 SWAP2 DUP3 SWAP1 KECCAK256 ADD DUP3 SWAP1 SSTORE DUP5 SLOAD PUSH1 0x40 DUP1 MLOAD SWAP2 DUP3 MSTORE SWAP2 DUP2 ADD DUP4 SWAP1 MSTORE PUSH32 0xE6B2C1CA4B33533EDDCCFDD2DD0FBE5FF44D75017001D4B2329B4DAEE1821436 SWAP2 ADD PUSH1 0x40 MLOAD DUP1 SWAP2 SUB SWAP1 LOG1 PUSH2 0x2134 JUMP JUMPDEST PUSH1 0xFD SLOAD PUSH2 0x1E3B JUMPI PUSH1 0x40 MLOAD PUSH3 0x461BCD PUSH1 0xE5 SHL DUP2 MSTORE PUSH1 0x20 PUSH1 0x4 DUP3 ADD MSTORE PUSH1 0x24 DUP1 DUP3 ADD MSTORE PUSH32 0x5F616464526566657272657228293A20476C6F62616C2069647320617265206F PUSH1 0x44 DUP3 ADD MSTORE PUSH4 0x3B32B917 PUSH1 0xE1 SHL PUSH1 0x64 DUP3 ADD MSTORE PUSH1 0x84 ADD PUSH2 0x52D JUMP JUMPDEST PUSH0 PUSH2 0x10A PUSH0 PUSH1 0xFD PUSH0 DUP2 SLOAD DUP2 LT PUSH2 0x1E53 JUMPI PUSH2 0x1E53 PUSH2 0x3581 JUMP JUMPDEST PUSH0 SWAP2 DUP3 MSTORE PUSH1 0x20 DUP1 DUP4 KECCAK256 SWAP2 SWAP1 SWAP2 ADD SLOAD DUP4 MSTORE DUP3 DUP2 ADD SWAP4 SWAP1 SWAP4 MSTORE PUSH1 0x40 SWAP2 DUP3 ADD DUP2 KECCAK256 DUP1 SLOAD PUSH1 0x2 DUP10 DUP2 ADD SWAP2 SWAP1 SWAP2 SSTORE DUP10 SLOAD PUSH1 0x3 DUP11 ADD SSTORE DUP4 MLOAD DUP1 DUP6 ADD DUP6 MSTORE DUP8 DUP2 MSTORE DUP3 SLOAD DUP2 DUP8 ADD SWAP1 DUP2 MSTORE PUSH1 0x5 DUP13 ADD DUP1 SLOAD PUSH1 0x1 DUP1 DUP3 ADD DUP4 SSTORE SWAP2 DUP8 MSTORE SWAP6 DUP9 SWAP1 KECCAK256 SWAP3 MLOAD SWAP6 SWAP1 SWAP4 MUL SWAP1 SWAP2 ADD SWAP4 DUP5 SSTORE MLOAD SWAP3 ADD SWAP2 SWAP1 SWAP2 SSTORE DUP8 SLOAD DUP2 SLOAD DUP4 MLOAD SWAP2 DUP3 MSTORE SWAP4 DUP2 ADD SWAP4 SWAP1 SWAP4 MSTORE SWAP1 DUP3 ADD DUP5 SWAP1 MSTORE SWAP2 POP PUSH32 0x347A3B2FE969C7AB7C51C290DBCAE965D7B5A6B03D2B9336A480169D79A5F51F SWAP1 PUSH1 0x60 ADD PUSH1 0x40 MLOAD DUP1 SWAP2 SUB SWAP1 LOG1 PUSH1 0x4 DUP2 ADD DUP1 SLOAD PUSH1 0x1 DUP2 ADD DUP3 SSTORE PUSH0 SWAP2 DUP3 MSTORE PUSH1 0x20 SWAP2 DUP3 SWAP1 KECCAK256 ADD DUP4 SWAP1 SSTORE DUP2 SLOAD PUSH1 0x40 DUP1 MLOAD SWAP2 DUP3 MSTORE SWAP2 DUP2 ADD DUP5 SWAP1 MSTORE PUSH32 0xE6B2C1CA4B33533EDDCCFDD2DD0FBE5FF44D75017001D4B2329B4DAEE1821436 SWAP2 ADD PUSH1 0x40 MLOAD DUP1 SWAP2 SUB SWAP1 LOG1 PUSH1 0x40 DUP1 MLOAD PUSH2 0x140 DUP2 ADD DUP3 MSTORE DUP3 SLOAD DUP2 MSTORE PUSH1 0x1 DUP4 ADD SLOAD PUSH1 0x1 PUSH1 0x1 PUSH1 0xA0 SHL SUB AND PUSH1 0x20 DUP1 DUP4 ADD SWAP2 SWAP1 SWAP2 MSTORE PUSH1 0x2 DUP5 ADD SLOAD DUP3 DUP5 ADD MSTORE PUSH1 0x3 DUP5 ADD SLOAD PUSH1 0x60 DUP4 ADD MSTORE PUSH1 0x4 DUP5 ADD DUP1 SLOAD DUP5 MLOAD DUP2 DUP5 MUL DUP2 ADD DUP5 ADD SWAP1 SWAP6 MSTORE DUP1 DUP6 MSTORE PUSH2 0x212E SWAP5 DUP7 SWAP4 PUSH1 0x80 DUP7 ADD SWAP4 SWAP2 SWAP3 SWAP1 DUP4 ADD DUP3 DUP3 DUP1 ISZERO PUSH2 0x1FDE JUMPI PUSH1 0x20 MUL DUP3 ADD SWAP2 SWAP1 PUSH0 MSTORE PUSH1 0x20 PUSH0 KECCAK256 SWAP1 JUMPDEST DUP2 SLOAD DUP2 MSTORE PUSH1 0x20 ADD SWAP1 PUSH1 0x1 ADD SWAP1 DUP1 DUP4 GT PUSH2 0x1FCA JUMPI JUMPDEST POP POP POP POP POP DUP2 MSTORE PUSH1 0x20 ADD PUSH1 0x5 DUP3 ADD DUP1 SLOAD DUP1 PUSH1 0x20 MUL PUSH1 0x20 ADD PUSH1 0x40 MLOAD SWAP1 DUP2 ADD PUSH1 0x40 MSTORE DUP1 SWAP3 SWAP2 SWAP1 DUP2 DUP2 MSTORE PUSH1 0x20 ADD PUSH0 SWAP1 JUMPDEST DUP3 DUP3 LT ISZERO PUSH2 0x204E JUMPI DUP4 DUP3 SWAP1 PUSH0 MSTORE PUSH1 0x20 PUSH0 KECCAK256 SWAP1 PUSH1 0x2 MUL ADD PUSH1 0x40 MLOAD DUP1 PUSH1 0x40 ADD PUSH1 0x40 MSTORE SWAP1 DUP2 PUSH0 DUP3 ADD SLOAD DUP2 MSTORE PUSH1 0x20 ADD PUSH1 0x1 DUP3 ADD SLOAD DUP2 MSTORE POP POP DUP2 MSTORE PUSH1 0x20 ADD SWAP1 PUSH1 0x1 ADD SWAP1 PUSH2 0x200B JUMP JUMPDEST POP POP POP POP DUP2 MSTORE PUSH1 0x20 ADD PUSH1 0x6 DUP3 ADD DUP1 SLOAD DUP1 PUSH1 0x20 MUL PUSH1 0x20 ADD PUSH1 0x40 MLOAD SWAP1 DUP2 ADD PUSH1 0x40 MSTORE DUP1 SWAP3 SWAP2 SWAP1 DUP2 DUP2 MSTORE PUSH1 0x20 ADD PUSH0 SWAP1 JUMPDEST DUP3 DUP3 LT ISZERO PUSH2 0x20BD JUMPI DUP4 DUP3 SWAP1 PUSH0 MSTORE PUSH1 0x20 PUSH0 KECCAK256 SWAP1 PUSH1 0x2 MUL ADD PUSH1 0x40 MLOAD DUP1 PUSH1 0x40 ADD PUSH1 0x40 MSTORE SWAP1 DUP2 PUSH0 DUP3 ADD SLOAD DUP2 MSTORE PUSH1 0x20 ADD PUSH1 0x1 DUP3 ADD SLOAD DUP2 MSTORE POP POP DUP2 MSTORE PUSH1 0x20 ADD SWAP1 PUSH1 0x1 ADD SWAP1 PUSH2 0x207A JUMP JUMPDEST POP POP POP SWAP1 DUP3 MSTORE POP PUSH1 0x40 DUP1 MLOAD PUSH1 0x60 DUP1 DUP3 ADD DUP4 MSTORE PUSH1 0x7 DUP6 ADD SLOAD DUP3 MSTORE PUSH1 0x8 DUP6 ADD SLOAD PUSH1 0x20 DUP4 DUP2 ADD SWAP2 SWAP1 SWAP2 MSTORE PUSH1 0x9 DUP7 ADD SLOAD DUP4 DUP6 ADD MSTORE DUP1 DUP6 ADD SWAP3 SWAP1 SWAP3 MSTORE DUP3 MLOAD DUP1 DUP3 ADD DUP5 MSTORE PUSH1 0xA DUP7 ADD SLOAD DUP2 MSTORE PUSH1 0xB DUP7 ADD SLOAD SWAP3 DUP2 ADD SWAP3 SWAP1 SWAP3 MSTORE PUSH1 0xC DUP6 ADD SLOAD DUP3 DUP5 ADD MSTORE SWAP2 DUP4 ADD MSTORE PUSH1 0xD SWAP1 SWAP3 ADD SLOAD PUSH1 0xFF AND ISZERO ISZERO SWAP2 ADD MSTORE PUSH2 0x26C7 JUMP JUMPDEST PUSH1 0x1 SWAP3 POP POP JUMPDEST PUSH2 0x100 SLOAD PUSH1 0xFF AND PUSH0 JUMPDEST DUP2 DUP2 LT ISZERO PUSH2 0x21EA JUMPI DUP5 SLOAD PUSH0 SWAP1 DUP2 MSTORE PUSH2 0x10A PUSH1 0x20 SWAP1 DUP2 MSTORE PUSH1 0x40 SWAP2 DUP3 SWAP1 KECCAK256 DUP3 MLOAD DUP1 DUP5 ADD SWAP1 SWAP4 MSTORE DUP6 DUP4 MSTORE SWAP2 PUSH1 0x6 DUP4 ADD SWAP2 DUP2 ADD PUSH2 0x2177 DUP6 PUSH1 0x1 PUSH2 0x33CC JUMP JUMPDEST SWAP1 MSTORE DUP2 SLOAD PUSH1 0x1 DUP1 DUP3 ADD DUP5 SSTORE PUSH0 SWAP4 DUP5 MSTORE PUSH1 0x20 SWAP4 DUP5 SWAP1 KECCAK256 DUP4 MLOAD PUSH1 0x2 SWAP1 SWAP4 MUL ADD SWAP2 DUP3 SSTORE SWAP2 DUP4 ADD MLOAD SWAP2 ADD SSTORE DUP2 SLOAD PUSH1 0x40 DUP1 MLOAD SWAP2 DUP3 MSTORE SWAP2 DUP2 ADD DUP7 SWAP1 MSTORE PUSH32 0x48E403AE2A509CD9336134C0899083BA110BF3A35566606ADD88A2066CCBAA1A SWAP2 ADD PUSH1 0x40 MLOAD DUP1 SWAP2 SUB SWAP1 LOG1 SWAP5 POP PUSH2 0x21E3 DUP2 PUSH2 0x3569 JUMP JUMPDEST SWAP1 POP PUSH2 0x213D JUMP JUMPDEST POP POP POP SWAP3 SWAP2 POP POP JUMP JUMPDEST DUP1 DUP3 PUSH1 0x7 ADD PUSH0 ADD PUSH0 DUP3 DUP3 SLOAD PUSH2 0x2208 SWAP2 SWAP1 PUSH2 0x33CC JUMP JUMPDEST SWAP1 SWAP2 SSTORE POP POP DUP2 SLOAD PUSH1 0x40 DUP1 MLOAD SWAP2 DUP3 MSTORE PUSH1 0x20 DUP3 ADD DUP4 SWAP1 MSTORE PUSH32 0x7BC272836D15A231DBCA2C8759D5BB751D4ECF39D918FEF56F6CC2FC3C2386B0 SWAP2 ADD PUSH2 0x18DB JUMP JUMPDEST PUSH2 0x108 SLOAD PUSH1 0xFF AND ISZERO PUSH2 0x2269 JUMPI PUSH1 0x40 MLOAD PUSH3 0x461BCD PUSH1 0xE5 SHL DUP2 MSTORE PUSH1 0x4 ADD PUSH2 0x52D SWAP1 PUSH2 0x3366 JUMP JUMPDEST PUSH2 0x108 DUP1 SLOAD PUSH1 0xFF NOT AND PUSH1 0x1 OR SWAP1 SSTORE DUP4 SLOAD PUSH0 DUP4 ISZERO PUSH2 0x2299 JUMPI POP PUSH1 0x3 DUP6 ADD SLOAD PUSH0 SWAP1 DUP2 MSTORE PUSH2 0x10A PUSH1 0x20 MSTORE PUSH1 0x40 SWAP1 KECCAK256 PUSH2 0x22AE JUMP JUMPDEST POP PUSH1 0x2 DUP6 ADD SLOAD PUSH0 SWAP1 DUP2 MSTORE PUSH2 0x10A PUSH1 0x20 MSTORE PUSH1 0x40 SWAP1 KECCAK256 JUMPDEST DUP5 DUP2 PUSH1 0x7 ADD PUSH1 0x1 ADD PUSH0 DUP3 DUP3 SLOAD PUSH2 0x22C4 SWAP2 SWAP1 PUSH2 0x33CC JUMP JUMPDEST SWAP1 SWAP2 SSTORE POP POP DUP1 SLOAD DUP7 SLOAD PUSH1 0x40 DUP1 MLOAD SWAP3 DUP4 MSTORE PUSH1 0x20 DUP4 ADD SWAP2 SWAP1 SWAP2 MSTORE DUP2 ADD DUP7 SWAP1 MSTORE PUSH32 0x57B50E0E70DAA32AC46409245990BB5A21B96DA6F9C1BCBBA5424AA58723907A SWAP1 PUSH1 0x60 ADD PUSH1 0x40 MLOAD DUP1 SWAP2 SUB SWAP1 LOG1 PUSH0 PUSH1 0xFE DUP1 SLOAD DUP1 PUSH1 0x20 MUL PUSH1 0x20 ADD PUSH1 0x40 MLOAD SWAP1 DUP2 ADD PUSH1 0x40 MSTORE DUP1 SWAP3 SWAP2 SWAP1 DUP2 DUP2 MSTORE PUSH1 0x20 ADD DUP3 DUP1 SLOAD DUP1 ISZERO PUSH2 0x2359 JUMPI PUSH1 0x20 MUL DUP3 ADD SWAP2 SWAP1 PUSH0 MSTORE PUSH1 0x20 PUSH0 KECCAK256 SWAP1 JUMPDEST DUP2 SLOAD DUP2 MSTORE PUSH1 0x20 ADD SWAP1 PUSH1 0x1 ADD SWAP1 DUP1 DUP4 GT PUSH2 0x2345 JUMPI JUMPDEST POP POP POP POP POP SWAP1 POP PUSH0 DUP1 JUMPDEST DUP3 MLOAD DUP2 LT ISZERO PUSH2 0x2553 JUMPI PUSH1 0x2 DUP10 ADD SLOAD PUSH0 SWAP1 DUP2 MSTORE PUSH2 0x10A PUSH1 0x20 MSTORE PUSH1 0x40 DUP2 KECCAK256 SWAP5 POP DUP2 SWAP1 SUB PUSH2 0x2391 JUMPI PUSH2 0x2391 DUP5 PUSH2 0x2743 JUMP JUMPDEST PUSH0 PUSH1 0x64 DUP5 DUP4 DUP2 MLOAD DUP2 LT PUSH2 0x23A6 JUMPI PUSH2 0x23A6 PUSH2 0x3581 JUMP JUMPDEST PUSH1 0x20 MUL PUSH1 0x20 ADD ADD MLOAD DUP11 PUSH2 0x23B9 SWAP2 SWAP1 PUSH2 0x334F JUMP JUMPDEST PUSH2 0x23C3 SWAP2 SWAP1 PUSH2 0x354A JUMP JUMPDEST PUSH1 0x1 DUP7 ADD SLOAD SWAP1 SWAP2 POP PUSH1 0x1 PUSH1 0x1 PUSH1 0xA0 SHL SUB DUP1 DUP10 AND SWAP2 PUSH4 0xA9059CBB SWAP2 AND PUSH2 0x23E8 DUP5 DUP12 PUSH2 0x17DF JUMP JUMPDEST PUSH1 0x40 MLOAD PUSH1 0x1 PUSH1 0x1 PUSH1 0xE0 SHL SUB NOT PUSH1 0xE0 DUP6 SWAP1 SHL AND DUP2 MSTORE PUSH1 0x1 PUSH1 0x1 PUSH1 0xA0 SHL SUB SWAP1 SWAP3 AND PUSH1 0x4 DUP4 ADD MSTORE PUSH1 0x24 DUP3 ADD MSTORE PUSH1 0x44 ADD PUSH1 0x20 PUSH1 0x40 MLOAD DUP1 DUP4 SUB DUP2 PUSH0 DUP8 GAS CALL ISZERO DUP1 ISZERO PUSH2 0x2430 JUMPI RETURNDATASIZE PUSH0 DUP1 RETURNDATACOPY RETURNDATASIZE PUSH0 REVERT JUMPDEST POP POP POP POP PUSH1 0x40 MLOAD RETURNDATASIZE PUSH1 0x1F NOT PUSH1 0x1F DUP3 ADD AND DUP3 ADD DUP1 PUSH1 0x40 MSTORE POP DUP2 ADD SWAP1 PUSH2 0x2454 SWAP2 SWAP1 PUSH2 0x33B1 JUMP JUMPDEST POP DUP5 SLOAD PUSH32 0xF4BFF7DDF097F430E0163107B212DDCCC7C9A80FF7D32462BE0C6F30BBBAD0DF SWAP1 DUP8 DUP4 PUSH2 0x2486 DUP7 PUSH1 0x1 PUSH2 0x33CC JUMP JUMPDEST PUSH1 0x40 DUP1 MLOAD SWAP5 DUP6 MSTORE PUSH1 0x20 DUP6 ADD SWAP4 SWAP1 SWAP4 MSTORE SWAP2 DUP4 ADD MSTORE PUSH1 0x60 DUP3 ADD MSTORE PUSH1 0x80 ADD PUSH1 0x40 MLOAD DUP1 SWAP2 SUB SWAP1 LOG1 PUSH2 0x24B3 DUP2 DUP5 PUSH2 0x33CC JUMP JUMPDEST SWAP3 POP DUP1 DUP6 PUSH1 0xA ADD PUSH0 ADD PUSH0 DUP3 DUP3 SLOAD PUSH2 0x24CA SWAP2 SWAP1 PUSH2 0x33CC JUMP JUMPDEST SWAP1 SWAP2 SSTORE POP POP PUSH1 0x9 DUP6 ADD DUP1 SLOAD DUP11 SWAP2 SWAP1 PUSH0 SWAP1 PUSH2 0x24E5 SWAP1 DUP5 SWAP1 PUSH2 0x33CC JUMP JUMPDEST SWAP1 SWAP2 SSTORE POP POP DUP5 SLOAD PUSH32 0xE586F9A83F2FFED00511A0A180EBBE02001F778FC773252BD05A65BF364F74DB SWAP1 DUP8 DUP12 PUSH2 0x251B DUP7 PUSH1 0x1 PUSH2 0x33CC JUMP JUMPDEST PUSH1 0x40 DUP1 MLOAD SWAP5 DUP6 MSTORE PUSH1 0x20 DUP6 ADD SWAP4 SWAP1 SWAP4 MSTORE SWAP2 DUP4 ADD MSTORE PUSH1 0x60 DUP3 ADD MSTORE PUSH1 0x80 ADD PUSH1 0x40 MLOAD DUP1 SWAP2 SUB SWAP1 LOG1 DUP5 SWAP10 POP POP DUP1 PUSH2 0x254C SWAP1 PUSH2 0x3569 JUMP JUMPDEST SWAP1 POP PUSH2 0x2363 JUMP JUMPDEST POP PUSH2 0x255D DUP6 PUSH2 0x284D JUMP JUMPDEST DUP1 PUSH2 0x105 PUSH0 DUP3 DUP3 SLOAD PUSH2 0x256F SWAP2 SWAP1 PUSH2 0x33CC JUMP JUMPDEST SWAP1 SWAP2 SSTORE POP POP PUSH2 0x108 DUP1 SLOAD PUSH1 0xFF NOT AND SWAP1 SSTORE POP POP POP POP POP POP POP POP JUMP JUMPDEST PUSH1 0x1 PUSH1 0x1 PUSH1 0xA0 SHL SUB DUP2 AND EXTCODESIZE PUSH2 0x25F6 JUMPI PUSH1 0x40 MLOAD PUSH3 0x461BCD PUSH1 0xE5 SHL DUP2 MSTORE PUSH1 0x20 PUSH1 0x4 DUP3 ADD MSTORE PUSH1 0x2D PUSH1 0x24 DUP3 ADD MSTORE PUSH32 0x455243313936373A206E657720696D706C656D656E746174696F6E206973206E PUSH1 0x44 DUP3 ADD MSTORE PUSH13 0x1BDD08184818DBDB9D1C9858DD PUSH1 0x9A SHL PUSH1 0x64 DUP3 ADD MSTORE PUSH1 0x84 ADD PUSH2 0x52D JUMP JUMPDEST PUSH0 DUP1 MLOAD PUSH1 0x20 PUSH2 0x3663 DUP4 CODECOPY DUP2 MLOAD SWAP2 MSTORE DUP1 SLOAD PUSH1 0x1 PUSH1 0x1 PUSH1 0xA0 SHL SUB NOT AND PUSH1 0x1 PUSH1 0x1 PUSH1 0xA0 SHL SUB SWAP3 SWAP1 SWAP3 AND SWAP2 SWAP1 SWAP2 OR SWAP1 SSTORE JUMP JUMPDEST PUSH2 0x262D DUP4 PUSH2 0x2B20 JUMP JUMPDEST PUSH0 DUP3 MLOAD GT DUP1 PUSH2 0x2639 JUMPI POP DUP1 JUMPDEST ISZERO PUSH2 0x1576 JUMPI PUSH2 0x2648 DUP4 DUP4 PUSH2 0x2B5F JUMP JUMPDEST POP POP POP POP JUMP JUMPDEST PUSH0 SLOAD PUSH2 0x100 SWAP1 DIV PUSH1 0xFF AND PUSH2 0x2674 JUMPI PUSH1 0x40 MLOAD PUSH3 0x461BCD PUSH1 0xE5 SHL DUP2 MSTORE PUSH1 0x4 ADD PUSH2 0x52D SWAP1 PUSH2 0x3411 JUMP JUMPDEST PUSH1 0x33 DUP1 SLOAD PUSH1 0xFF NOT AND SWAP1 SSTORE JUMP JUMPDEST PUSH0 SLOAD PUSH2 0x100 SWAP1 DIV PUSH1 0xFF AND PUSH2 0x26A6 JUMPI PUSH1 0x40 MLOAD PUSH3 0x461BCD PUSH1 0xE5 SHL DUP2 MSTORE PUSH1 0x4 ADD PUSH2 0x52D SWAP1 PUSH2 0x3411 JUMP JUMPDEST PUSH2 0x922 CALLER PUSH2 0x170C JUMP JUMPDEST PUSH0 PUSH1 0xFF SLOAD DUP3 PUSH1 0x80 ADD MLOAD MLOAD SUB PUSH2 0x26C2 JUMPI POP PUSH1 0x1 JUMPDEST SWAP2 SWAP1 POP JUMP JUMPDEST PUSH2 0x26D0 DUP2 PUSH2 0x26AF JUMP JUMPDEST ISZERO PUSH2 0x5C8 JUMPI PUSH1 0xFD DUP1 SLOAD PUSH2 0x26E5 SWAP1 PUSH1 0x1 SWAP1 PUSH2 0x3595 JUMP JUMPDEST DUP2 SLOAD DUP2 LT PUSH2 0x26F5 JUMPI PUSH2 0x26F5 PUSH2 0x3581 JUMP JUMPDEST SWAP1 PUSH0 MSTORE PUSH1 0x20 PUSH0 KECCAK256 ADD SLOAD PUSH1 0xFD PUSH0 DUP2 SLOAD DUP2 LT PUSH2 0x2711 JUMPI PUSH2 0x2711 PUSH2 0x3581 JUMP JUMPDEST PUSH0 SWAP2 DUP3 MSTORE PUSH1 0x20 SWAP1 SWAP2 KECCAK256 ADD SSTORE PUSH1 0xFD DUP1 SLOAD DUP1 PUSH2 0x272D JUMPI PUSH2 0x272D PUSH2 0x35A8 JUMP JUMPDEST PUSH1 0x1 SWAP1 SUB DUP2 DUP2 SWAP1 PUSH0 MSTORE PUSH1 0x20 PUSH0 KECCAK256 ADD PUSH0 SWAP1 SSTORE SWAP1 SSTORE POP JUMP JUMPDEST PUSH1 0xD DUP2 ADD SLOAD PUSH1 0xFF AND PUSH2 0x5C8 JUMPI PUSH2 0x10C PUSH1 0x20 MSTORE DUP1 SLOAD PUSH32 0x625DEF9F98CEF4573A21467B5825682D95256166E93B101E7736AF0F0ABB7D9 DUP1 SLOAD PUSH1 0x1 DUP2 ADD DUP3 SSTORE PUSH0 SWAP2 DUP3 MSTORE PUSH32 0xC69F7DC13FF0368927D430F2BFAE368CD0038A71B8376EE58A80D537F3F8F60D ADD SWAP2 SWAP1 SWAP2 SSTORE PUSH32 0x625DEF9F98CEF4573A21467B5825682D95256166E93B101E7736AF0F0ABB7D8 DUP1 SLOAD PUSH32 0x625DEF9F98CEF4573A21467B5825682D95256166E93B101E7736AF0F0ABB7D4 SWAP3 SWAP1 SWAP2 SWAP1 PUSH2 0x27FB DUP4 PUSH2 0x3569 JUMP JUMPDEST SWAP1 SWAP2 SSTORE POP POP PUSH1 0xD DUP3 ADD DUP1 SLOAD PUSH1 0xFF NOT AND PUSH1 0x1 SWAP1 DUP2 OR SWAP1 SWAP2 SSTORE DUP3 SLOAD PUSH1 0x40 MLOAD PUSH32 0xDAE0BE714878398DF4BCE5E16513993CF11A07C4B626F7ACF376A79F71F721F8 SWAP3 PUSH2 0x18DB SWAP3 DUP3 MSTORE PUSH1 0xFF AND PUSH1 0x20 DUP3 ADD MSTORE PUSH1 0x40 ADD SWAP1 JUMP JUMPDEST PUSH2 0x108 SLOAD PUSH1 0xFF AND ISZERO PUSH2 0x2871 JUMPI PUSH1 0x40 MLOAD PUSH3 0x461BCD PUSH1 0xE5 SHL DUP2 MSTORE PUSH1 0x4 ADD PUSH2 0x52D SWAP1 PUSH2 0x3366 JUMP JUMPDEST PUSH2 0x108 DUP1 SLOAD PUSH1 0xFF NOT AND PUSH1 0x1 SWAP1 DUP2 OR SWAP1 SWAP2 SSTORE JUMPDEST PUSH1 0x14 DUP2 PUSH1 0xFF AND LT ISZERO PUSH2 0x2B11 JUMPI PUSH1 0xFF DUP1 DUP3 AND PUSH0 SWAP1 DUP2 MSTORE PUSH2 0x10C PUSH1 0x20 MSTORE PUSH1 0x40 DUP2 KECCAK256 DUP1 SLOAD SWAP1 SWAP3 AND SWAP1 SUB PUSH2 0x28B3 JUMPI POP PUSH2 0x2B11 JUMP JUMPDEST PUSH1 0x2 DUP2 ADD SLOAD PUSH1 0x4 DUP3 ADD SLOAD PUSH1 0xFF SWAP1 SWAP2 AND GT PUSH2 0x2B00 JUMPI PUSH0 PUSH2 0x10C DUP2 PUSH2 0x28D7 DUP6 PUSH1 0x1 PUSH2 0x35BC JUMP JUMPDEST PUSH1 0xFF AND PUSH1 0xFF AND DUP2 MSTORE PUSH1 0x20 ADD SWAP1 DUP2 MSTORE PUSH1 0x20 ADD PUSH0 KECCAK256 SWAP1 POP DUP1 PUSH1 0x5 ADD DUP3 PUSH1 0x5 ADD DUP4 PUSH1 0x3 ADD SLOAD DUP2 SLOAD DUP2 LT PUSH2 0x2909 JUMPI PUSH2 0x2909 PUSH2 0x3581 JUMP JUMPDEST PUSH0 SWAP2 DUP3 MSTORE PUSH1 0x20 DUP1 DUP4 KECCAK256 SWAP1 SWAP2 ADD SLOAD DUP4 SLOAD PUSH1 0x1 DUP2 ADD DUP6 SSTORE SWAP4 DUP4 MSTORE SWAP2 KECCAK256 SWAP1 SWAP2 ADD SSTORE PUSH1 0x3 DUP3 ADD SLOAD PUSH1 0x5 DUP4 ADD DUP1 SLOAD PUSH32 0xDAE0BE714878398DF4BCE5E16513993CF11A07C4B626F7ACF376A79F71F721F8 SWAP3 SWAP1 DUP2 LT PUSH2 0x2963 JUMPI PUSH2 0x2963 PUSH2 0x3581 JUMP JUMPDEST SWAP1 PUSH0 MSTORE PUSH1 0x20 PUSH0 KECCAK256 ADD SLOAD DUP5 PUSH1 0x1 PUSH2 0x2979 SWAP2 SWAP1 PUSH2 0x35BC JUMP JUMPDEST PUSH1 0x40 DUP1 MLOAD SWAP3 DUP4 MSTORE PUSH1 0xFF SWAP1 SWAP2 AND PUSH1 0x20 DUP4 ADD MSTORE ADD PUSH1 0x40 MLOAD DUP1 SWAP2 SUB SWAP1 LOG1 PUSH0 PUSH2 0x10A PUSH0 DUP5 PUSH1 0x5 ADD DUP6 PUSH1 0x3 ADD SLOAD DUP2 SLOAD DUP2 LT PUSH2 0x29B1 JUMPI PUSH2 0x29B1 PUSH2 0x3581 JUMP JUMPDEST SWAP1 PUSH0 MSTORE PUSH1 0x20 PUSH0 KECCAK256 ADD SLOAD DUP2 MSTORE PUSH1 0x20 ADD SWAP1 DUP2 MSTORE PUSH1 0x20 ADD PUSH0 KECCAK256 SWAP1 POP DUP5 PUSH1 0x1 PUSH1 0x1 PUSH1 0xA0 SHL SUB AND PUSH4 0xA9059CBB DUP3 PUSH1 0x1 ADD PUSH0 SWAP1 SLOAD SWAP1 PUSH2 0x100 EXP SWAP1 DIV PUSH1 0x1 PUSH1 0x1 PUSH1 0xA0 SHL SUB AND PUSH2 0x29FD DUP7 PUSH1 0x1 ADD SLOAD DUP10 PUSH2 0x17DF JUMP JUMPDEST PUSH1 0x40 MLOAD PUSH1 0x1 PUSH1 0x1 PUSH1 0xE0 SHL SUB NOT PUSH1 0xE0 DUP6 SWAP1 SHL AND DUP2 MSTORE PUSH1 0x1 PUSH1 0x1 PUSH1 0xA0 SHL SUB SWAP1 SWAP3 AND PUSH1 0x4 DUP4 ADD MSTORE PUSH1 0x24 DUP3 ADD MSTORE PUSH1 0x44 ADD PUSH1 0x20 PUSH1 0x40 MLOAD DUP1 DUP4 SUB DUP2 PUSH0 DUP8 GAS CALL ISZERO DUP1 ISZERO PUSH2 0x2A45 JUMPI RETURNDATASIZE PUSH0 DUP1 RETURNDATACOPY RETURNDATASIZE PUSH0 REVERT JUMPDEST POP POP POP POP PUSH1 0x40 MLOAD RETURNDATASIZE PUSH1 0x1F NOT PUSH1 0x1F DUP3 ADD AND DUP3 ADD DUP1 PUSH1 0x40 MSTORE POP DUP2 ADD SWAP1 PUSH2 0x2A69 SWAP2 SWAP1 PUSH2 0x33B1 JUMP JUMPDEST POP PUSH32 0x89B70F5F92B02D089769DEA775C6DCE9797EBFB25AE57BCFBAB1D88A31A67212 DUP4 PUSH1 0x5 ADD DUP5 PUSH1 0x3 ADD SLOAD DUP2 SLOAD DUP2 LT PUSH2 0x2AA4 JUMPI PUSH2 0x2AA4 PUSH2 0x3581 JUMP JUMPDEST PUSH0 SWAP2 DUP3 MSTORE PUSH1 0x20 SWAP2 DUP3 SWAP1 KECCAK256 ADD SLOAD DUP6 SLOAD PUSH1 0x1 DUP8 ADD SLOAD PUSH1 0x40 DUP1 MLOAD SWAP4 DUP5 MSTORE PUSH1 0xFF SWAP1 SWAP3 AND SWAP4 DUP4 ADD SWAP4 SWAP1 SWAP4 MSTORE DUP2 ADD SWAP2 SWAP1 SWAP2 MSTORE PUSH1 0x60 ADD PUSH1 0x40 MLOAD DUP1 SWAP2 SUB SWAP1 LOG1 DUP3 PUSH1 0x1 ADD SLOAD DUP4 PUSH1 0x6 ADD PUSH0 DUP3 DUP3 SLOAD PUSH2 0x2AF2 SWAP2 SWAP1 PUSH2 0x33CC JUMP JUMPDEST SWAP1 SWAP2 SSTORE POP POP PUSH0 PUSH1 0x4 DUP5 ADD SSTORE POP POP JUMPDEST POP PUSH2 0x2B0A DUP2 PUSH2 0x35D5 JUMP JUMPDEST SWAP1 POP PUSH2 0x2883 JUMP JUMPDEST POP POP PUSH2 0x108 DUP1 SLOAD PUSH1 0xFF NOT AND SWAP1 SSTORE JUMP JUMPDEST PUSH2 0x2B29 DUP2 PUSH2 0x2589 JUMP JUMPDEST PUSH1 0x40 MLOAD PUSH1 0x1 PUSH1 0x1 PUSH1 0xA0 SHL SUB DUP3 AND SWAP1 PUSH32 0xBC7CD75A20EE27FD9ADEBAB32041F755214DBC6BFFA90CC0225B39DA2E5C2D3B SWAP1 PUSH0 SWAP1 LOG2 POP JUMP JUMPDEST PUSH1 0x60 PUSH1 0x1 PUSH1 0x1 PUSH1 0xA0 SHL SUB DUP4 AND EXTCODESIZE PUSH2 0x2BC7 JUMPI PUSH1 0x40 MLOAD PUSH3 0x461BCD PUSH1 0xE5 SHL DUP2 MSTORE PUSH1 0x20 PUSH1 0x4 DUP3 ADD MSTORE PUSH1 0x26 PUSH1 0x24 DUP3 ADD MSTORE PUSH32 0x416464726573733A2064656C65676174652063616C6C20746F206E6F6E2D636F PUSH1 0x44 DUP3 ADD MSTORE PUSH6 0x1B9D1C9858DD PUSH1 0xD2 SHL PUSH1 0x64 DUP3 ADD MSTORE PUSH1 0x84 ADD PUSH2 0x52D JUMP JUMPDEST PUSH0 DUP1 DUP5 PUSH1 0x1 PUSH1 0x1 PUSH1 0xA0 SHL SUB AND DUP5 PUSH1 0x40 MLOAD PUSH2 0x2BE1 SWAP2 SWAP1 PUSH2 0x3615 JUMP JUMPDEST PUSH0 PUSH1 0x40 MLOAD DUP1 DUP4 SUB DUP2 DUP6 GAS DELEGATECALL SWAP2 POP POP RETURNDATASIZE DUP1 PUSH0 DUP2 EQ PUSH2 0x2C19 JUMPI PUSH1 0x40 MLOAD SWAP2 POP PUSH1 0x1F NOT PUSH1 0x3F RETURNDATASIZE ADD AND DUP3 ADD PUSH1 0x40 MSTORE RETURNDATASIZE DUP3 MSTORE RETURNDATASIZE PUSH0 PUSH1 0x20 DUP5 ADD RETURNDATACOPY PUSH2 0x2C1E JUMP JUMPDEST PUSH1 0x60 SWAP2 POP JUMPDEST POP SWAP2 POP SWAP2 POP PUSH2 0x2C46 DUP3 DUP3 PUSH1 0x40 MLOAD DUP1 PUSH1 0x60 ADD PUSH1 0x40 MSTORE DUP1 PUSH1 0x27 DUP2 MSTORE PUSH1 0x20 ADD PUSH2 0x3683 PUSH1 0x27 SWAP2 CODECOPY PUSH2 0x2C51 JUMP JUMPDEST SWAP3 POP POP POP JUMPDEST SWAP3 SWAP2 POP POP JUMP JUMPDEST PUSH1 0x60 DUP4 ISZERO PUSH2 0x2C60 JUMPI POP DUP2 PUSH2 0x1868 JUMP JUMPDEST PUSH2 0x1868 DUP4 DUP4 DUP2 MLOAD ISZERO PUSH2 0x2C75 JUMPI DUP2 MLOAD DUP1 DUP4 PUSH1 0x20 ADD REVERT JUMPDEST DUP1 PUSH1 0x40 MLOAD PUSH3 0x461BCD PUSH1 0xE5 SHL DUP2 MSTORE PUSH1 0x4 ADD PUSH2 0x52D SWAP2 SWAP1 PUSH2 0x3630 JUMP JUMPDEST DUP3 DUP1 SLOAD DUP3 DUP3 SSTORE SWAP1 PUSH0 MSTORE PUSH1 0x20 PUSH0 KECCAK256 SWAP1 DUP2 ADD SWAP3 DUP3 ISZERO PUSH2 0x2CCD JUMPI SWAP2 PUSH1 0x20 MUL DUP3 ADD JUMPDEST DUP3 DUP2 GT ISZERO PUSH2 0x2CCD JUMPI DUP3 MLOAD DUP3 SWAP1 PUSH1 0xFF AND SWAP1 SSTORE SWAP2 PUSH1 0x20 ADD SWAP2 SWAP1 PUSH1 0x1 ADD SWAP1 PUSH2 0x2CAD JUMP JUMPDEST POP PUSH2 0x2CD9 SWAP3 SWAP2 POP PUSH2 0x2D72 JUMP JUMPDEST POP SWAP1 JUMP JUMPDEST PUSH1 0x40 MLOAD DUP1 PUSH2 0x140 ADD PUSH1 0x40 MSTORE DUP1 PUSH0 DUP2 MSTORE PUSH1 0x20 ADD PUSH0 PUSH1 0x1 PUSH1 0x1 PUSH1 0xA0 SHL SUB AND DUP2 MSTORE PUSH1 0x20 ADD PUSH0 DUP2 MSTORE PUSH1 0x20 ADD PUSH0 DUP2 MSTORE PUSH1 0x20 ADD PUSH1 0x60 DUP2 MSTORE PUSH1 0x20 ADD PUSH1 0x60 DUP2 MSTORE PUSH1 0x20 ADD PUSH1 0x60 DUP2 MSTORE PUSH1 0x20 ADD PUSH2 0x2D40 PUSH1 0x40 MLOAD DUP1 PUSH1 0x60 ADD PUSH1 0x40 MSTORE DUP1 PUSH0 DUP2 MSTORE PUSH1 0x20 ADD PUSH0 DUP2 MSTORE PUSH1 0x20 ADD PUSH0 DUP2 MSTORE POP SWAP1 JUMP JUMPDEST DUP2 MSTORE PUSH1 0x20 ADD PUSH2 0x2D66 PUSH1 0x40 MLOAD DUP1 PUSH1 0x60 ADD PUSH1 0x40 MSTORE DUP1 PUSH0 DUP2 MSTORE PUSH1 0x20 ADD PUSH0 DUP2 MSTORE PUSH1 0x20 ADD PUSH0 DUP2 MSTORE POP SWAP1 JUMP JUMPDEST DUP2 MSTORE PUSH0 PUSH1 0x20 SWAP1 SWAP2 ADD MSTORE SWAP1 JUMP JUMPDEST JUMPDEST DUP1 DUP3 GT ISZERO PUSH2 0x2CD9 JUMPI PUSH0 DUP2 SSTORE PUSH1 0x1 ADD PUSH2 0x2D73 JUMP JUMPDEST PUSH1 0xE0 DUP1 DUP3 MSTORE DUP9 MLOAD SWAP1 DUP3 ADD DUP2 SWAP1 MSTORE PUSH0 SWAP1 PUSH1 0x20 SWAP1 PUSH2 0x100 DUP5 ADD SWAP1 DUP3 DUP13 ADD DUP5 JUMPDEST DUP3 DUP2 LT ISZERO PUSH2 0x2DBF JUMPI DUP2 MLOAD DUP5 MSTORE SWAP3 DUP5 ADD SWAP3 SWAP1 DUP5 ADD SWAP1 PUSH1 0x1 ADD PUSH2 0x2DA3 JUMP JUMPDEST POP POP POP SWAP1 DUP4 ADD SWAP9 SWAP1 SWAP9 MSTORE POP PUSH1 0x40 DUP2 ADD SWAP6 SWAP1 SWAP6 MSTORE PUSH1 0x60 DUP6 ADD SWAP4 SWAP1 SWAP4 MSTORE PUSH1 0x1 PUSH1 0x1 PUSH1 0xA0 SHL SUB SWAP2 DUP3 AND PUSH1 0x80 DUP6 ADD MSTORE AND PUSH1 0xA0 DUP4 ADD MSTORE PUSH1 0xC0 SWAP1 SWAP2 ADD MSTORE SWAP2 SWAP1 POP JUMP JUMPDEST PUSH1 0x20 DUP1 DUP3 MSTORE DUP3 MLOAD DUP3 DUP3 ADD DUP2 SWAP1 MSTORE PUSH0 SWAP2 SWAP1 PUSH1 0x40 SWAP1 DUP2 DUP6 ADD SWAP1 DUP7 DUP5 ADD DUP6 JUMPDEST DUP3 DUP2 LT ISZERO PUSH2 0x2E6D JUMPI DUP2 MLOAD DUP1 MLOAD PUSH1 0x1 PUSH1 0x1 PUSH1 0xA0 SHL SUB SWAP1 DUP2 AND DUP7 MSTORE DUP8 DUP3 ADD MLOAD DUP9 DUP8 ADD MSTORE DUP7 DUP3 ADD MLOAD ISZERO ISZERO DUP8 DUP8 ADD MSTORE PUSH1 0x60 DUP1 DUP4 ADD MLOAD SWAP1 SWAP2 AND SWAP1 DUP7 ADD MSTORE PUSH1 0x80 SWAP1 DUP2 ADD MLOAD ISZERO ISZERO SWAP1 DUP6 ADD MSTORE PUSH1 0xA0 SWAP1 SWAP4 ADD SWAP3 SWAP1 DUP6 ADD SWAP1 PUSH1 0x1 ADD PUSH2 0x2E17 JUMP JUMPDEST POP SWAP2 SWAP8 SWAP7 POP POP POP POP POP POP POP JUMP JUMPDEST DUP1 CALLDATALOAD PUSH1 0x1 PUSH1 0x1 PUSH1 0xA0 SHL SUB DUP2 AND DUP2 EQ PUSH2 0x26C2 JUMPI PUSH0 DUP1 REVERT JUMPDEST PUSH0 PUSH1 0x20 DUP3 DUP5 SUB SLT ISZERO PUSH2 0x2EA0 JUMPI PUSH0 DUP1 REVERT JUMPDEST PUSH2 0x1868 DUP3 PUSH2 0x2E7A JUMP JUMPDEST PUSH4 0x4E487B71 PUSH1 0xE0 SHL PUSH0 MSTORE PUSH1 0x41 PUSH1 0x4 MSTORE PUSH1 0x24 PUSH0 REVERT JUMPDEST PUSH0 DUP1 PUSH1 0x40 DUP4 DUP6 SUB SLT ISZERO PUSH2 0x2ECE JUMPI PUSH0 DUP1 REVERT JUMPDEST PUSH2 0x2ED7 DUP4 PUSH2 0x2E7A JUMP JUMPDEST SWAP2 POP PUSH1 0x20 DUP4 ADD CALLDATALOAD PUSH8 0xFFFFFFFFFFFFFFFF DUP1 DUP3 GT ISZERO PUSH2 0x2EF3 JUMPI PUSH0 DUP1 REVERT JUMPDEST DUP2 DUP6 ADD SWAP2 POP DUP6 PUSH1 0x1F DUP4 ADD SLT PUSH2 0x2F06 JUMPI PUSH0 DUP1 REVERT JUMPDEST DUP2 CALLDATALOAD DUP2 DUP2 GT ISZERO PUSH2 0x2F18 JUMPI PUSH2 0x2F18 PUSH2 0x2EA9 JUMP JUMPDEST PUSH1 0x40 MLOAD PUSH1 0x1F DUP3 ADD PUSH1 0x1F NOT SWAP1 DUP2 AND PUSH1 0x3F ADD AND DUP2 ADD SWAP1 DUP4 DUP3 GT DUP2 DUP4 LT OR ISZERO PUSH2 0x2F40 JUMPI PUSH2 0x2F40 PUSH2 0x2EA9 JUMP JUMPDEST DUP2 PUSH1 0x40 MSTORE DUP3 DUP2 MSTORE DUP9 PUSH1 0x20 DUP5 DUP8 ADD ADD GT ISZERO PUSH2 0x2F58 JUMPI PUSH0 DUP1 REVERT JUMPDEST DUP3 PUSH1 0x20 DUP7 ADD PUSH1 0x20 DUP4 ADD CALLDATACOPY PUSH0 PUSH1 0x20 DUP5 DUP4 ADD ADD MSTORE DUP1 SWAP6 POP POP POP POP POP POP SWAP3 POP SWAP3 SWAP1 POP JUMP JUMPDEST DUP1 ISZERO ISZERO DUP2 EQ PUSH2 0x5C8 JUMPI PUSH0 DUP1 REVERT JUMPDEST PUSH0 DUP1 PUSH1 0x40 DUP4 DUP6 SUB SLT ISZERO PUSH2 0x2F97 JUMPI PUSH0 DUP1 REVERT JUMPDEST PUSH2 0x2FA0 DUP4 PUSH2 0x2E7A JUMP JUMPDEST SWAP2 POP PUSH1 0x20 DUP4 ADD CALLDATALOAD PUSH2 0x2FB0 DUP2 PUSH2 0x2F79 JUMP JUMPDEST DUP1 SWAP2 POP POP SWAP3 POP SWAP3 SWAP1 POP JUMP JUMPDEST PUSH1 0xFF DUP2 AND DUP2 EQ PUSH2 0x5C8 JUMPI PUSH0 DUP1 REVERT JUMPDEST PUSH0 DUP1 PUSH0 PUSH1 0x60 DUP5 DUP7 SUB SLT ISZERO PUSH2 0x2FDB JUMPI PUSH0 DUP1 REVERT JUMPDEST DUP4 CALLDATALOAD PUSH2 0x2FE6 DUP2 PUSH2 0x2FBB JUMP JUMPDEST SWAP3 POP PUSH1 0x20 DUP5 ADD CALLDATALOAD SWAP2 POP PUSH1 0x40 DUP5 ADD CALLDATALOAD PUSH2 0x2FFD DUP2 PUSH2 0x2FBB JUMP JUMPDEST DUP1 SWAP2 POP POP SWAP3 POP SWAP3 POP SWAP3 JUMP JUMPDEST PUSH0 DUP1 PUSH0 PUSH1 0x60 DUP5 DUP7 SUB SLT ISZERO PUSH2 0x301A JUMPI PUSH0 DUP1 REVERT JUMPDEST DUP4 CALLDATALOAD SWAP3 POP PUSH2 0x302A PUSH1 0x20 DUP6 ADD PUSH2 0x2E7A JUMP JUMPDEST SWAP2 POP PUSH2 0x3038 PUSH1 0x40 DUP6 ADD PUSH2 0x2E7A JUMP JUMPDEST SWAP1 POP SWAP3 POP SWAP3 POP SWAP3 JUMP JUMPDEST PUSH0 PUSH1 0x20 DUP3 DUP5 SUB SLT ISZERO PUSH2 0x3051 JUMPI PUSH0 DUP1 REVERT JUMPDEST DUP2 CALLDATALOAD PUSH2 0x1868 DUP2 PUSH2 0x2FBB JUMP JUMPDEST PUSH0 DUP2 MLOAD DUP1 DUP5 MSTORE PUSH1 0x20 DUP1 DUP6 ADD SWAP5 POP DUP1 DUP5 ADD PUSH0 JUMPDEST DUP4 DUP2 LT ISZERO PUSH2 0x308A JUMPI DUP2 MLOAD DUP8 MSTORE SWAP6 DUP3 ADD SWAP6 SWAP1 DUP3 ADD SWAP1 PUSH1 0x1 ADD PUSH2 0x306E JUMP JUMPDEST POP SWAP5 SWAP6 SWAP5 POP POP POP POP POP JUMP JUMPDEST PUSH1 0x20 DUP2 MSTORE PUSH1 0xFF DUP3 MLOAD AND PUSH1 0x20 DUP3 ADD MSTORE PUSH1 0x20 DUP3 ADD MLOAD PUSH1 0x40 DUP3 ADD MSTORE PUSH1 0xFF PUSH1 0x40 DUP4 ADD MLOAD AND PUSH1 0x60 DUP3 ADD MSTORE PUSH1 0x60 DUP3 ADD MLOAD PUSH1 0x80 DUP3 ADD MSTORE PUSH1 0x80 DUP3 ADD MLOAD PUSH1 0xA0 DUP3 ADD MSTORE PUSH0 PUSH1 0xA0 DUP4 ADD MLOAD PUSH1 0xE0 PUSH1 0xC0 DUP5 ADD MSTORE PUSH2 0x30E9 PUSH2 0x100 DUP5 ADD DUP3 PUSH2 0x305C JUMP JUMPDEST SWAP1 POP PUSH1 0xC0 DUP5 ADD MLOAD PUSH1 0xE0 DUP5 ADD MSTORE DUP1 SWAP2 POP POP SWAP3 SWAP2 POP POP JUMP JUMPDEST PUSH0 DUP1 PUSH0 PUSH1 0x60 DUP5 DUP7 SUB SLT ISZERO PUSH2 0x3111 JUMPI PUSH0 DUP1 REVERT JUMPDEST PUSH2 0x311A DUP5 PUSH2 0x2E7A JUMP JUMPDEST SWAP3 POP PUSH1 0x20 DUP5 ADD CALLDATALOAD PUSH2 0x302A DUP2 PUSH2 0x2F79 JUMP JUMPDEST PUSH1 0x20 DUP1 DUP3 MSTORE DUP3 MLOAD PUSH1 0x1 PUSH1 0x1 PUSH1 0xA0 SHL SUB AND DUP3 DUP3 ADD MSTORE DUP3 ADD MLOAD PUSH1 0x40 DUP1 DUP4 ADD MSTORE PUSH0 SWAP1 PUSH2 0x3156 PUSH1 0x60 DUP5 ADD DUP3 PUSH2 0x305C JUMP JUMPDEST SWAP5 SWAP4 POP POP POP POP JUMP JUMPDEST PUSH0 PUSH1 0x20 DUP3 DUP5 SUB SLT ISZERO PUSH2 0x316E JUMPI PUSH0 DUP1 REVERT JUMPDEST POP CALLDATALOAD SWAP2 SWAP1 POP JUMP JUMPDEST PUSH0 DUP2 MLOAD DUP1 DUP5 MSTORE PUSH1 0x20 DUP1 DUP6 ADD SWAP5 POP DUP1 DUP5 ADD PUSH0 JUMPDEST DUP4 DUP2 LT ISZERO PUSH2 0x308A JUMPI DUP2 MLOAD DUP1 MLOAD DUP9 MSTORE DUP4 ADD MLOAD DUP4 DUP9 ADD MSTORE PUSH1 0x40 SWAP1 SWAP7 ADD SWAP6 SWAP1 DUP3 ADD SWAP1 PUSH1 0x1 ADD PUSH2 0x3187 JUMP JUMPDEST PUSH1 0x20 DUP2 MSTORE DUP2 MLOAD PUSH1 0x20 DUP3 ADD MSTORE PUSH0 PUSH1 0x20 DUP4 ADD MLOAD PUSH2 0x31D4 PUSH1 0x40 DUP5 ADD DUP3 PUSH1 0x1 PUSH1 0x1 PUSH1 0xA0 SHL SUB AND SWAP1 MSTORE JUMP JUMPDEST POP PUSH1 0x40 DUP4 ADD MLOAD PUSH1 0x60 DUP4 ADD MSTORE PUSH1 0x60 DUP4 ADD MLOAD PUSH1 0x80 DUP4 ADD MSTORE PUSH1 0x80 DUP4 ADD MLOAD PUSH2 0x1C0 DUP1 PUSH1 0xA0 DUP6 ADD MSTORE PUSH2 0x3205 PUSH2 0x1E0 DUP6 ADD DUP4 PUSH2 0x305C JUMP JUMPDEST SWAP2 POP PUSH1 0xA0 DUP6 ADD MLOAD PUSH1 0x1F NOT DUP1 DUP7 DUP6 SUB ADD PUSH1 0xC0 DUP8 ADD MSTORE PUSH2 0x3223 DUP5 DUP4 PUSH2 0x3175 JUMP JUMPDEST SWAP4 POP PUSH1 0xC0 DUP8 ADD MLOAD SWAP2 POP DUP1 DUP7 DUP6 SUB ADD PUSH1 0xE0 DUP8 ADD MSTORE POP PUSH2 0x3241 DUP4 DUP3 PUSH2 0x3175 JUMP JUMPDEST SWAP3 POP POP PUSH1 0xE0 DUP6 ADD MLOAD PUSH2 0x100 PUSH2 0x326C DUP2 DUP8 ADD DUP4 DUP1 MLOAD DUP3 MSTORE PUSH1 0x20 DUP1 DUP3 ADD MLOAD SWAP1 DUP4 ADD MSTORE PUSH1 0x40 SWAP1 DUP2 ADD MLOAD SWAP2 ADD MSTORE JUMP JUMPDEST DUP7 ADD MLOAD DUP1 MLOAD PUSH2 0x160 DUP8 ADD MSTORE PUSH1 0x20 DUP2 ADD MLOAD PUSH2 0x180 DUP8 ADD MSTORE PUSH1 0x40 ADD MLOAD PUSH2 0x1A0 DUP7 ADD MSTORE POP PUSH2 0x120 SWAP1 SWAP5 ADD MLOAD ISZERO ISZERO SWAP4 SWAP1 SWAP3 ADD SWAP3 SWAP1 SWAP3 MSTORE SWAP2 SWAP1 POP JUMP JUMPDEST PUSH1 0x20 DUP1 DUP3 MSTORE PUSH1 0x2C SWAP1 DUP3 ADD MSTORE PUSH32 0x46756E6374696F6E206D7573742062652063616C6C6564207468726F75676820 PUSH1 0x40 DUP3 ADD MSTORE PUSH12 0x19195B1959D85D1958D85B1B PUSH1 0xA2 SHL PUSH1 0x60 DUP3 ADD MSTORE PUSH1 0x80 ADD SWAP1 JUMP JUMPDEST PUSH1 0x20 DUP1 DUP3 MSTORE PUSH1 0x2C SWAP1 DUP3 ADD MSTORE PUSH32 0x46756E6374696F6E206D7573742062652063616C6C6564207468726F75676820 PUSH1 0x40 DUP3 ADD MSTORE PUSH12 0x6163746976652070726F7879 PUSH1 0xA0 SHL PUSH1 0x60 DUP3 ADD MSTORE PUSH1 0x80 ADD SWAP1 JUMP JUMPDEST PUSH4 0x4E487B71 PUSH1 0xE0 SHL PUSH0 MSTORE PUSH1 0x11 PUSH1 0x4 MSTORE PUSH1 0x24 PUSH0 REVERT JUMPDEST DUP1 DUP3 MUL DUP2 ISZERO DUP3 DUP3 DIV DUP5 EQ OR PUSH2 0x2C4B JUMPI PUSH2 0x2C4B PUSH2 0x333B JUMP JUMPDEST PUSH1 0x20 DUP1 DUP3 MSTORE PUSH1 0x2B SWAP1 DUP3 ADD MSTORE PUSH32 0x5265656E7472616E6379477561726428293A20436F6E7472616374205265656E PUSH1 0x40 DUP3 ADD MSTORE PUSH11 0x1D1C985B98DE51DD585C99 PUSH1 0xAA SHL PUSH1 0x60 DUP3 ADD MSTORE PUSH1 0x80 ADD SWAP1 JUMP JUMPDEST PUSH0 PUSH1 0x20 DUP3 DUP5 SUB SLT ISZERO PUSH2 0x33C1 JUMPI PUSH0 DUP1 REVERT JUMPDEST DUP2 MLOAD PUSH2 0x1868 DUP2 PUSH2 0x2F79 JUMP JUMPDEST DUP1 DUP3 ADD DUP1 DUP3 GT ISZERO PUSH2 0x2C4B JUMPI PUSH2 0x2C4B PUSH2 0x333B JUMP JUMPDEST PUSH0 PUSH1 0x20 DUP3 DUP5 SUB SLT ISZERO PUSH2 0x33EF JUMPI PUSH0 DUP1 REVERT JUMPDEST DUP2 MLOAD PUSH2 0x1868 DUP2 PUSH2 0x2FBB JUMP JUMPDEST PUSH0 PUSH1 0x20 DUP3 DUP5 SUB SLT ISZERO PUSH2 0x340A JUMPI PUSH0 DUP1 REVERT JUMPDEST POP MLOAD SWAP2 SWAP1 POP JUMP JUMPDEST PUSH1 0x20 DUP1 DUP3 MSTORE PUSH1 0x2B SWAP1 DUP3 ADD MSTORE PUSH32 0x496E697469616C697A61626C653A20636F6E7472616374206973206E6F742069 PUSH1 0x40 DUP3 ADD MSTORE PUSH11 0x6E697469616C697A696E67 PUSH1 0xA8 SHL PUSH1 0x60 DUP3 ADD MSTORE PUSH1 0x80 ADD SWAP1 JUMP JUMPDEST PUSH1 0x1 DUP2 DUP2 JUMPDEST DUP1 DUP6 GT ISZERO PUSH2 0x3496 JUMPI DUP2 PUSH0 NOT DIV DUP3 GT ISZERO PUSH2 0x347C JUMPI PUSH2 0x347C PUSH2 0x333B JUMP JUMPDEST DUP1 DUP6 AND ISZERO PUSH2 0x3489 JUMPI SWAP2 DUP2 MUL SWAP2 JUMPDEST SWAP4 DUP5 SHR SWAP4 SWAP1 DUP1 MUL SWAP1 PUSH2 0x3461 JUMP JUMPDEST POP SWAP3 POP SWAP3 SWAP1 POP JUMP JUMPDEST PUSH0 DUP3 PUSH2 0x34AC JUMPI POP PUSH1 0x1 PUSH2 0x2C4B JUMP JUMPDEST DUP2 PUSH2 0x34B8 JUMPI POP PUSH0 PUSH2 0x2C4B JUMP JUMPDEST DUP2 PUSH1 0x1 DUP2 EQ PUSH2 0x34CE JUMPI PUSH1 0x2 DUP2 EQ PUSH2 0x34D8 JUMPI PUSH2 0x34F4 JUMP JUMPDEST PUSH1 0x1 SWAP2 POP POP PUSH2 0x2C4B JUMP JUMPDEST PUSH1 0xFF DUP5 GT ISZERO PUSH2 0x34E9 JUMPI PUSH2 0x34E9 PUSH2 0x333B JUMP JUMPDEST POP POP PUSH1 0x1 DUP3 SHL PUSH2 0x2C4B JUMP JUMPDEST POP PUSH1 0x20 DUP4 LT PUSH2 0x133 DUP4 LT AND PUSH1 0x4E DUP5 LT PUSH1 0xB DUP5 LT AND OR ISZERO PUSH2 0x3517 JUMPI POP DUP2 DUP2 EXP PUSH2 0x2C4B JUMP JUMPDEST PUSH2 0x3521 DUP4 DUP4 PUSH2 0x345C JUMP JUMPDEST DUP1 PUSH0 NOT DIV DUP3 GT ISZERO PUSH2 0x3534 JUMPI PUSH2 0x3534 PUSH2 0x333B JUMP JUMPDEST MUL SWAP4 SWAP3 POP POP POP JUMP JUMPDEST PUSH0 PUSH2 0x1868 PUSH1 0xFF DUP5 AND DUP4 PUSH2 0x349E JUMP JUMPDEST PUSH0 DUP3 PUSH2 0x3564 JUMPI PUSH4 0x4E487B71 PUSH1 0xE0 SHL PUSH0 MSTORE PUSH1 0x12 PUSH1 0x4 MSTORE PUSH1 0x24 PUSH0 REVERT JUMPDEST POP DIV SWAP1 JUMP JUMPDEST PUSH0 PUSH1 0x1 DUP3 ADD PUSH2 0x357A JUMPI PUSH2 0x357A PUSH2 0x333B JUMP JUMPDEST POP PUSH1 0x1 ADD SWAP1 JUMP JUMPDEST PUSH4 0x4E487B71 PUSH1 0xE0 SHL PUSH0 MSTORE PUSH1 0x32 PUSH1 0x4 MSTORE PUSH1 0x24 PUSH0 REVERT JUMPDEST DUP2 DUP2 SUB DUP2 DUP2 GT ISZERO PUSH2 0x2C4B JUMPI PUSH2 0x2C4B PUSH2 0x333B JUMP JUMPDEST PUSH4 0x4E487B71 PUSH1 0xE0 SHL PUSH0 MSTORE PUSH1 0x31 PUSH1 0x4 MSTORE PUSH1 0x24 PUSH0 REVERT JUMPDEST PUSH1 0xFF DUP2 DUP2 AND DUP4 DUP3 AND ADD SWAP1 DUP2 GT ISZERO PUSH2 0x2C4B JUMPI PUSH2 0x2C4B PUSH2 0x333B JUMP JUMPDEST PUSH0 PUSH1 0xFF DUP3 AND PUSH1 0xFF DUP2 SUB PUSH2 0x35EA JUMPI PUSH2 0x35EA PUSH2 0x333B JUMP JUMPDEST PUSH1 0x1 ADD SWAP3 SWAP2 POP POP JUMP JUMPDEST PUSH0 JUMPDEST DUP4 DUP2 LT ISZERO PUSH2 0x360D JUMPI DUP2 DUP2 ADD MLOAD DUP4 DUP3 ADD MSTORE PUSH1 0x20 ADD PUSH2 0x35F5 JUMP JUMPDEST POP POP PUSH0 SWAP2 ADD MSTORE JUMP JUMPDEST PUSH0 DUP3 MLOAD PUSH2 0x3626 DUP2 DUP5 PUSH1 0x20 DUP8 ADD PUSH2 0x35F3 JUMP JUMPDEST SWAP2 SWAP1 SWAP2 ADD SWAP3 SWAP2 POP POP JUMP JUMPDEST PUSH1 0x20 DUP2 MSTORE PUSH0 DUP3 MLOAD DUP1 PUSH1 0x20 DUP5 ADD MSTORE PUSH2 0x364E DUP2 PUSH1 0x40 DUP6 ADD PUSH1 0x20 DUP8 ADD PUSH2 0x35F3 JUMP JUMPDEST PUSH1 0x1F ADD PUSH1 0x1F NOT AND SWAP2 SWAP1 SWAP2 ADD PUSH1 0x40 ADD SWAP3 SWAP2 POP POP JUMP INVALID CALLDATASIZE ADDMOD SWAP5 LOG1 EXTCODESIZE LOG1 LOG3 0x21 MOD PUSH8 0xC828492DB98DCA3E KECCAK256 PUSH23 0xCC3735A920A3CA505D382BBC416464726573733A206C6F PUSH24 0x2D6C6576656C2064656C65676174652063616C6C20666169 PUSH13 0x6564A26469706673582212204C 0xAE 0xE4 0x2E CALLER 0x49 SWAP7 PREVRANDAO JUMPI PUSH24 0xDE5AD009B2F8983DCF9A1BC58D1FD9385309038D63106473 PUSH16 0x6C634300081400330000000000000000 "},"methodIdentifiers":{"addBaseCurrency(address,bool,address)":"f782abc7","getContractAnalytics()":"83b41e66","getContractDefaults()":"1a746344","getIdAccount(uint256)":"ff43599c","getPools(uint8)":"c48d8e02","getSupportedCurrencies()":"2ce75863","getUserAccount(address)":"fb47e016","initialize()":"8129fc1c","owner()":"8da5cb5b","paused()":"5c975abb","proxiableUUID()":"52d1902d","register(uint256,address,address)":"a73c50fa","removeBaseCurrency(address,bool)":"54f132e8","renounceOwnership()":"715018a6","setPools(uint8,uint256,uint8)":"5bc62ff8","transferOwnership(address)":"f2fde38b","upgradeTo(address)":"3659cfe6","upgradeToAndCall(address,bytes)":"4f1ef286"}},"storageLayout":{"storage":[{"astId":527,"contract":"contracts/GlobalFIUpgradeable.sol:GlobalFiUpgradeable","label":"_initialized","offset":0,"slot":"0","type":"t_uint8"},{"astId":530,"contract":"contracts/GlobalFIUpgradeable.sol:GlobalFiUpgradeable","label":"_initializing","offset":1,"slot":"0","type":"t_bool"},{"astId":1992,"contract":"contracts/GlobalFIUpgradeable.sol:GlobalFiUpgradeable","label":"__gap","offset":0,"slot":"1","type":"t_array(t_uint256)50_storage"},{"astId":846,"contract":"contracts/GlobalFIUpgradeable.sol:GlobalFiUpgradeable","label":"_paused","offset":0,"slot":"51","type":"t_bool"},{"astId":951,"contract":"contracts/GlobalFIUpgradeable.sol:GlobalFiUpgradeable","label":"__gap","offset":0,"slot":"52","type":"t_array(t_uint256)49_storage"},{"astId":10,"contract":"contracts/GlobalFIUpgradeable.sol:GlobalFiUpgradeable","label":"_owner","offset":0,"slot":"101","type":"t_address"},{"astId":130,"contract":"contracts/GlobalFIUpgradeable.sol:GlobalFiUpgradeable","label":"__gap","offset":0,"slot":"102","type":"t_array(t_uint256)49_storage"},{"astId":509,"contract":"contracts/GlobalFIUpgradeable.sol:GlobalFiUpgradeable","label":"__gap","offset":0,"slot":"151","type":"t_array(t_uint256)50_storage"},{"astId":824,"contract":"contracts/GlobalFIUpgradeable.sol:GlobalFiUpgradeable","label":"__gap","offset":0,"slot":"201","type":"t_array(t_uint256)50_storage"},{"astId":2181,"contract":"contracts/GlobalFIUpgradeable.sol:GlobalFiUpgradeable","label":"_users","offset":0,"slot":"251","type":"t_array(t_address)dyn_storage"},{"astId":2183,"contract":"contracts/GlobalFIUpgradeable.sol:GlobalFiUpgradeable","label":"_ids","offset":0,"slot":"252","type":"t_uint256"},{"astId":2186,"contract":"contracts/GlobalFIUpgradeable.sol:GlobalFiUpgradeable","label":"_nonGlobalIds","offset":0,"slot":"253","type":"t_array(t_uint256)dyn_storage"},{"astId":2189,"contract":"contracts/GlobalFIUpgradeable.sol:GlobalFiUpgradeable","label":"_levelRates","offset":0,"slot":"254","type":"t_array(t_uint256)dyn_storage"},{"astId":2191,"contract":"contracts/GlobalFIUpgradeable.sol:GlobalFiUpgradeable","label":"_maxRefereeLimit","offset":0,"slot":"255","type":"t_uint256"},{"astId":2193,"contract":"contracts/GlobalFIUpgradeable.sol:GlobalFiUpgradeable","label":"_teamLevelsToCount","offset":0,"slot":"256","type":"t_uint8"},{"astId":2195,"contract":"contracts/GlobalFIUpgradeable.sol:GlobalFiUpgradeable","label":"_registrationAmountInUSD","offset":0,"slot":"257","type":"t_uint256"},{"astId":2197,"contract":"contracts/GlobalFIUpgradeable.sol:GlobalFiUpgradeable","label":"_adminAddress","offset":0,"slot":"258","type":"t_address"},{"astId":2199,"contract":"contracts/GlobalFIUpgradeable.sol:GlobalFiUpgradeable","label":"_taxBeneficiaryAddress","offset":0,"slot":"259","type":"t_address"},{"astId":2201,"contract":"contracts/GlobalFIUpgradeable.sol:GlobalFiUpgradeable","label":"_taxPer","offset":0,"slot":"260","type":"t_uint256"},{"astId":2203,"contract":"contracts/GlobalFIUpgradeable.sol:GlobalFiUpgradeable","label":"_totalReferralPaid","offset":0,"slot":"261","type":"t_uint256"},{"astId":2205,"contract":"contracts/GlobalFIUpgradeable.sol:GlobalFiUpgradeable","label":"_totalValueRegistered","offset":0,"slot":"262","type":"t_uint256"},{"astId":2209,"contract":"contracts/GlobalFIUpgradeable.sol:GlobalFiUpgradeable","label":"_supportedTokensList","offset":0,"slot":"263","type":"t_array(t_struct(SupportedTokensStruct)2096_storage)dyn_storage"},{"astId":2211,"contract":"contracts/GlobalFIUpgradeable.sol:GlobalFiUpgradeable","label":"_reentrancy","offset":0,"slot":"264","type":"t_bool"},{"astId":2216,"contract":"contracts/GlobalFIUpgradeable.sol:GlobalFiUpgradeable","label":"_mappingAccounts","offset":0,"slot":"265","type":"t_mapping(t_address,t_struct(AccountStruct)2126_storage)"},{"astId":2221,"contract":"contracts/GlobalFIUpgradeable.sol:GlobalFiUpgradeable","label":"_mappingIds","offset":0,"slot":"266","type":"t_mapping(t_uint256,t_struct(IdStruct)2154_storage)"},{"astId":2226,"contract":"contracts/GlobalFIUpgradeable.sol:GlobalFiUpgradeable","label":"_mappingSupportedToken","offset":0,"slot":"267","type":"t_mapping(t_address,t_struct(SupportedTokensStruct)2096_storage)"},{"astId":2231,"contract":"contracts/GlobalFIUpgradeable.sol:GlobalFiUpgradeable","label":"_mappingPools","offset":0,"slot":"268","type":"t_mapping(t_uint8,t_struct(PoolStruct)2170_storage)"}],"types":{"t_address":{"encoding":"inplace","label":"address","numberOfBytes":"20"},"t_array(t_address)dyn_storage":{"base":"t_address","encoding":"dynamic_array","label":"address[]","numberOfBytes":"32"},"t_array(t_struct(RefereeAssignedStruct)2120_storage)dyn_storage":{"base":"t_struct(RefereeAssignedStruct)2120_storage","encoding":"dynamic_array","label":"struct RefereeAssignedStruct[]","numberOfBytes":"32"},"t_array(t_struct(SupportedTokensStruct)2096_storage)dyn_storage":{"base":"t_struct(SupportedTokensStruct)2096_storage","encoding":"dynamic_array","label":"struct SupportedTokensStruct[]","numberOfBytes":"32"},"t_array(t_struct(TeamStruct)2101_storage)dyn_storage":{"base":"t_struct(TeamStruct)2101_storage","encoding":"dynamic_array","label":"struct TeamStruct[]","numberOfBytes":"32"},"t_array(t_uint256)49_storage":{"base":"t_uint256","encoding":"inplace","label":"uint256[49]","numberOfBytes":"1568"},"t_array(t_uint256)50_storage":{"base":"t_uint256","encoding":"inplace","label":"uint256[50]","numberOfBytes":"1600"},"t_array(t_uint256)dyn_storage":{"base":"t_uint256","encoding":"dynamic_array","label":"uint256[]","numberOfBytes":"32"},"t_bool":{"encoding":"inplace","label":"bool","numberOfBytes":"1"},"t_mapping(t_address,t_struct(AccountStruct)2126_storage)":{"encoding":"mapping","key":"t_address","label":"mapping(address => struct AccountStruct)","numberOfBytes":"32","value":"t_struct(AccountStruct)2126_storage"},"t_mapping(t_address,t_struct(SupportedTokensStruct)2096_storage)":{"encoding":"mapping","key":"t_address","label":"mapping(address => struct SupportedTokensStruct)","numberOfBytes":"32","value":"t_struct(SupportedTokensStruct)2096_storage"},"t_mapping(t_uint256,t_struct(IdStruct)2154_storage)":{"encoding":"mapping","key":"t_uint256","label":"mapping(uint256 => struct IdStruct)","numberOfBytes":"32","value":"t_struct(IdStruct)2154_storage"},"t_mapping(t_uint8,t_struct(PoolStruct)2170_storage)":{"encoding":"mapping","key":"t_uint8","label":"mapping(uint8 => struct PoolStruct)","numberOfBytes":"32","value":"t_struct(PoolStruct)2170_storage"},"t_struct(AccountStruct)2126_storage":{"encoding":"inplace","label":"struct AccountStruct","members":[{"astId":2122,"contract":"contracts/GlobalFIUpgradeable.sol:GlobalFiUpgradeable","label":"selfAddress","offset":0,"slot":"0","type":"t_address"},{"astId":2125,"contract":"contracts/GlobalFIUpgradeable.sol:GlobalFiUpgradeable","label":"ids","offset":0,"slot":"1","type":"t_array(t_uint256)dyn_storage"}],"numberOfBytes":"64"},"t_struct(BusinessStruct)2108_storage":{"encoding":"inplace","label":"struct BusinessStruct","members":[{"astId":2103,"contract":"contracts/GlobalFIUpgradeable.sol:GlobalFiUpgradeable","label":"selfBusiness","offset":0,"slot":"0","type":"t_uint256"},{"astId":2105,"contract":"contracts/GlobalFIUpgradeable.sol:GlobalFiUpgradeable","label":"directBusiness","offset":0,"slot":"1","type":"t_uint256"},{"astId":2107,"contract":"contracts/GlobalFIUpgradeable.sol:GlobalFiUpgradeable","label":"teamBusiness","offset":0,"slot":"2","type":"t_uint256"}],"numberOfBytes":"96"},"t_struct(IdStruct)2154_storage":{"encoding":"inplace","label":"struct IdStruct","members":[{"astId":2128,"contract":"contracts/GlobalFIUpgradeable.sol:GlobalFiUpgradeable","label":"id","offset":0,"slot":"0","type":"t_uint256"},{"astId":2130,"contract":"contracts/GlobalFIUpgradeable.sol:GlobalFiUpgradeable","label":"owner","offset":0,"slot":"1","type":"t_address"},{"astId":2132,"contract":"contracts/GlobalFIUpgradeable.sol:GlobalFiUpgradeable","label":"referrerId","offset":0,"slot":"2","type":"t_uint256"},{"astId":2134,"contract":"contracts/GlobalFIUpgradeable.sol:GlobalFiUpgradeable","label":"parentId","offset":0,"slot":"3","type":"t_uint256"},{"astId":2137,"contract":"contracts/GlobalFIUpgradeable.sol:GlobalFiUpgradeable","label":"refereeIds","offset":0,"slot":"4","type":"t_array(t_uint256)dyn_storage"},{"astId":2141,"contract":"contracts/GlobalFIUpgradeable.sol:GlobalFiUpgradeable","label":"refereesAssigned","offset":0,"slot":"5","type":"t_array(t_struct(RefereeAssignedStruct)2120_storage)dyn_storage"},{"astId":2145,"contract":"contracts/GlobalFIUpgradeable.sol:GlobalFiUpgradeable","label":"team","offset":0,"slot":"6","type":"t_array(t_struct(TeamStruct)2101_storage)dyn_storage"},{"astId":2148,"contract":"contracts/GlobalFIUpgradeable.sol:GlobalFiUpgradeable","label":"business","offset":0,"slot":"7","type":"t_struct(BusinessStruct)2108_storage"},{"astId":2151,"contract":"contracts/GlobalFIUpgradeable.sol:GlobalFiUpgradeable","label":"rewards","offset":0,"slot":"10","type":"t_struct(RewardsStruct)2115_storage"},{"astId":2153,"contract":"contracts/GlobalFIUpgradeable.sol:GlobalFiUpgradeable","label":"isInPool","offset":0,"slot":"13","type":"t_bool"}],"numberOfBytes":"448"},"t_struct(PoolStruct)2170_storage":{"encoding":"inplace","label":"struct PoolStruct","members":[{"astId":2156,"contract":"contracts/GlobalFIUpgradeable.sol:GlobalFiUpgradeable","label":"poolId","offset":0,"slot":"0","type":"t_uint8"},{"astId":2158,"contract":"contracts/GlobalFIUpgradeable.sol:GlobalFiUpgradeable","label":"rewardToDistribute","offset":0,"slot":"1","type":"t_uint256"},{"astId":2160,"contract":"contracts/GlobalFIUpgradeable.sol:GlobalFiUpgradeable","label":"minUserCounter","offset":0,"slot":"2","type":"t_uint8"},{"astId":2162,"contract":"contracts/GlobalFIUpgradeable.sol:GlobalFiUpgradeable","label":"userCountToUpgrade","offset":0,"slot":"3","type":"t_uint256"},{"astId":2164,"contract":"contracts/GlobalFIUpgradeable.sol:GlobalFiUpgradeable","label":"count","offset":0,"slot":"4","type":"t_uint256"},{"astId":2167,"contract":"contracts/GlobalFIUpgradeable.sol:GlobalFiUpgradeable","label":"userIds","offset":0,"slot":"5","type":"t_array(t_uint256)dyn_storage"},{"astId":2169,"contract":"contracts/GlobalFIUpgradeable.sol:GlobalFiUpgradeable","label":"totalRewardDistributed","offset":0,"slot":"6","type":"t_uint256"}],"numberOfBytes":"224"},"t_struct(RefereeAssignedStruct)2120_storage":{"encoding":"inplace","label":"struct RefereeAssignedStruct","members":[{"astId":2117,"contract":"contracts/GlobalFIUpgradeable.sol:GlobalFiUpgradeable","label":"refereeId","offset":0,"slot":"0","type":"t_uint256"},{"astId":2119,"contract":"contracts/GlobalFIUpgradeable.sol:GlobalFiUpgradeable","label":"assignedToid","offset":0,"slot":"1","type":"t_uint256"}],"numberOfBytes":"64"},"t_struct(RewardsStruct)2115_storage":{"encoding":"inplace","label":"struct RewardsStruct","members":[{"astId":2110,"contract":"contracts/GlobalFIUpgradeable.sol:GlobalFiUpgradeable","label":"referralRewards","offset":0,"slot":"0","type":"t_uint256"},{"astId":2112,"contract":"contracts/GlobalFIUpgradeable.sol:GlobalFiUpgradeable","label":"spillOverRewards","offset":0,"slot":"1","type":"t_uint256"},{"astId":2114,"contract":"contracts/GlobalFIUpgradeable.sol:GlobalFiUpgradeable","label":"globalRewards","offset":0,"slot":"2","type":"t_uint256"}],"numberOfBytes":"96"},"t_struct(SupportedTokensStruct)2096_storage":{"encoding":"inplace","label":"struct SupportedTokensStruct","members":[{"astId":2087,"contract":"contracts/GlobalFIUpgradeable.sol:GlobalFiUpgradeable","label":"contractAddress","offset":0,"slot":"0","type":"t_address"},{"astId":2089,"contract":"contracts/GlobalFIUpgradeable.sol:GlobalFiUpgradeable","label":"decimals","offset":0,"slot":"1","type":"t_uint256"},{"astId":2091,"contract":"contracts/GlobalFIUpgradeable.sol:GlobalFiUpgradeable","label":"isStable","offset":0,"slot":"2","type":"t_bool"},{"astId":2093,"contract":"contracts/GlobalFIUpgradeable.sol:GlobalFiUpgradeable","label":"aggregatorAddress","offset":1,"slot":"2","type":"t_address"},{"astId":2095,"contract":"contracts/GlobalFIUpgradeable.sol:GlobalFiUpgradeable","label":"isEnaled","offset":21,"slot":"2","type":"t_bool"}],"numberOfBytes":"96"},"t_struct(TeamStruct)2101_storage":{"encoding":"inplace","label":"struct TeamStruct","members":[{"astId":2098,"contract":"contracts/GlobalFIUpgradeable.sol:GlobalFiUpgradeable","label":"teamId","offset":0,"slot":"0","type":"t_uint256"},{"astId":2100,"contract":"contracts/GlobalFIUpgradeable.sol:GlobalFiUpgradeable","label":"teamLevel","offset":0,"slot":"1","type":"t_uint256"}],"numberOfBytes":"64"},"t_uint256":{"encoding":"inplace","label":"uint256","numberOfBytes":"32"},"t_uint8":{"encoding":"inplace","label":"uint8","numberOfBytes":"1"}}}}}}