{"contracts/GlobalFIUpgradeableNew.sol":{"GlobalFiUpgradeableNew":{"abi":[{"anonymous":false,"inputs":[{"indexed":false,"internalType":"address","name":"previousAdmin","type":"address"},{"indexed":false,"internalType":"address","name":"newAdmin","type":"address"}],"name":"AdminChanged","type":"event"},{"anonymous":false,"inputs":[{"indexed":true,"internalType":"address","name":"beacon","type":"address"}],"name":"BeaconUpgraded","type":"event"},{"anonymous":false,"inputs":[{"indexed":false,"internalType":"uint256","name":"referrerId","type":"uint256"},{"indexed":false,"internalType":"uint256","name":"userId","type":"uint256"},{"indexed":false,"internalType":"uint256","name":"valueInWei","type":"uint256"}],"name":"DirectBusinessUpdated","type":"event"},{"anonymous":false,"inputs":[{"indexed":false,"internalType":"uint256","name":"id","type":"uint256"},{"indexed":false,"internalType":"uint8","name":"poolId","type":"uint8"},{"indexed":false,"internalType":"uint256","name":"rewardInWei","type":"uint256"}],"name":"DistributedPoolReward","type":"event"},{"anonymous":false,"inputs":[{"indexed":false,"internalType":"address","name":"userAddress","type":"address"},{"indexed":false,"internalType":"uint256","name":"id","type":"uint256"}],"name":"IdOwnerUpdated","type":"event"},{"anonymous":false,"inputs":[{"indexed":false,"internalType":"address","name":"userAddress","type":"address"},{"indexed":false,"internalType":"uint256","name":"id","type":"uint256"}],"name":"IdUpdated","type":"event"},{"anonymous":false,"inputs":[{"indexed":false,"internalType":"uint256","name":"id","type":"uint256"},{"indexed":false,"internalType":"uint8","name":"poolId","type":"uint8"}],"name":"IdUpgradedInPool","type":"event"},{"anonymous":false,"inputs":[{"indexed":false,"internalType":"uint8","name":"version","type":"uint8"}],"name":"Initialized","type":"event"},{"anonymous":false,"inputs":[{"indexed":true,"internalType":"address","name":"previousOwner","type":"address"},{"indexed":true,"internalType":"address","name":"newOwner","type":"address"}],"name":"OwnershipTransferred","type":"event"},{"anonymous":false,"inputs":[{"indexed":false,"internalType":"address","name":"account","type":"address"}],"name":"Paused","type":"event"},{"anonymous":false,"inputs":[{"indexed":false,"internalType":"uint256","name":"parentId","type":"uint256"},{"indexed":false,"internalType":"uint256","name":"referrerId","type":"uint256"},{"indexed":false,"internalType":"uint256","name":"userId","type":"uint256"}],"name":"RefereeAssigned","type":"event"},{"anonymous":false,"inputs":[{"indexed":false,"internalType":"uint256","name":"referrerId","type":"uint256"},{"indexed":false,"internalType":"uint256","name":"userId","type":"uint256"},{"indexed":false,"internalType":"uint256","name":"referralValue","type":"uint256"},{"indexed":false,"internalType":"uint256","name":"level","type":"uint256"}],"name":"ReferralDistributed","type":"event"},{"anonymous":false,"inputs":[{"indexed":false,"internalType":"uint256","name":"referrerId","type":"uint256"},{"indexed":false,"internalType":"uint256","name":"userId","type":"uint256"}],"name":"ReferrerUpdated","type":"event"},{"anonymous":false,"inputs":[{"indexed":false,"internalType":"address","name":"newAddress","type":"address"}],"name":"SelfAddressUpdated","type":"event"},{"anonymous":false,"inputs":[{"indexed":false,"internalType":"uint256","name":"userId","type":"uint256"},{"indexed":false,"internalType":"uint256","name":"valueInWei","type":"uint256"}],"name":"SelfBusinessUpdated","type":"event"},{"anonymous":false,"inputs":[{"indexed":false,"internalType":"uint256","name":"referrerId","type":"uint256"},{"indexed":false,"internalType":"uint256","name":"userId","type":"uint256"},{"indexed":false,"internalType":"uint256","name":"valueInWei","type":"uint256"},{"indexed":false,"internalType":"uint256","name":"level","type":"uint256"}],"name":"TeamBusinessUpdated","type":"event"},{"anonymous":false,"inputs":[{"indexed":false,"internalType":"address","name":"parent","type":"address"},{"indexed":false,"internalType":"address","name":"user","type":"address"}],"name":"TeamNonGlobaRemoved","type":"event"},{"anonymous":false,"inputs":[{"indexed":false,"internalType":"address","name":"parent","type":"address"},{"indexed":false,"internalType":"address","name":"user","type":"address"}],"name":"TeamNonGlobalAdded","type":"event"},{"anonymous":false,"inputs":[{"indexed":false,"internalType":"uint256","name":"parent","type":"uint256"},{"indexed":false,"internalType":"uint256","name":"userId","type":"uint256"}],"name":"TeamUpdated","type":"event"},{"anonymous":false,"inputs":[{"indexed":false,"internalType":"address","name":"account","type":"address"}],"name":"Unpaused","type":"event"},{"anonymous":false,"inputs":[{"indexed":true,"internalType":"address","name":"implementation","type":"address"}],"name":"Upgraded","type":"event"},{"inputs":[{"internalType":"address","name":"_tokenContractAddress","type":"address"},{"internalType":"bool","name":"_isStable","type":"bool"},{"internalType":"address","name":"_aggregatorContractAddress","type":"address"}],"name":"addBaseCurrency","outputs":[],"stateMutability":"nonpayable","type":"function"},{"inputs":[{"internalType":"uint256","name":"_id","type":"uint256"}],"name":"getIdAccount","outputs":[{"components":[{"internalType":"uint256","name":"id","type":"uint256"},{"internalType":"address","name":"owner","type":"address"},{"internalType":"uint256","name":"referrerId","type":"uint256"},{"internalType":"uint256","name":"parentId","type":"uint256"},{"internalType":"uint256[]","name":"refereeIds","type":"uint256[]"},{"components":[{"internalType":"uint256","name":"refereeId","type":"uint256"},{"internalType":"uint256","name":"assignedToid","type":"uint256"}],"internalType":"struct RefereeAssignedStruct[]","name":"refereesAssigned","type":"tuple[]"},{"components":[{"internalType":"uint256","name":"teamId","type":"uint256"},{"internalType":"uint256","name":"teamLevel","type":"uint256"}],"internalType":"struct TeamStruct[]","name":"team","type":"tuple[]"},{"components":[{"internalType":"uint256","name":"selfBusiness","type":"uint256"},{"internalType":"uint256","name":"directBusiness","type":"uint256"},{"internalType":"uint256","name":"teamBusiness","type":"uint256"}],"internalType":"struct BusinessStruct","name":"business","type":"tuple"},{"components":[{"internalType":"uint256","name":"referralRewards","type":"uint256"},{"internalType":"uint256","name":"spillOverRewards","type":"uint256"},{"internalType":"uint256","name":"globalRewards","type":"uint256"}],"internalType":"struct RewardsStruct","name":"rewards","type":"tuple"},{"internalType":"bool","name":"isInPool","type":"bool"}],"internalType":"struct IdStruct","name":"","type":"tuple"}],"stateMutability":"view","type":"function"},{"inputs":[{"internalType":"uint8","name":"_poolId","type":"uint8"}],"name":"getPools","outputs":[{"components":[{"internalType":"uint8","name":"poolId","type":"uint8"},{"internalType":"uint256","name":"rewardToDistribute","type":"uint256"},{"internalType":"uint8","name":"minUserCounter","type":"uint8"},{"internalType":"uint256","name":"userCountToUpgrade","type":"uint256"},{"internalType":"uint256","name":"count","type":"uint256"},{"internalType":"uint256[]","name":"userIds","type":"uint256[]"},{"internalType":"uint256","name":"totalRewardDistributed","type":"uint256"}],"internalType":"struct PoolStruct","name":"","type":"tuple"}],"stateMutability":"view","type":"function"},{"inputs":[],"name":"getSupportedCurrencies","outputs":[{"components":[{"internalType":"address","name":"contractAddress","type":"address"},{"internalType":"uint256","name":"decimals","type":"uint256"},{"internalType":"bool","name":"isStable","type":"bool"},{"internalType":"address","name":"aggregatorAddress","type":"address"},{"internalType":"bool","name":"isEnaled","type":"bool"}],"internalType":"struct SupportedTokensStruct[]","name":"","type":"tuple[]"}],"stateMutability":"view","type":"function"},{"inputs":[{"internalType":"address","name":"_userAddress","type":"address"}],"name":"getUserAccount","outputs":[{"components":[{"internalType":"address","name":"selfAddress","type":"address"},{"internalType":"uint256[]","name":"ids","type":"uint256[]"}],"internalType":"struct AccountStruct","name":"","type":"tuple"}],"stateMutability":"view","type":"function"},{"inputs":[],"name":"initialize","outputs":[],"stateMutability":"nonpayable","type":"function"},{"inputs":[],"name":"owner","outputs":[{"internalType":"address","name":"","type":"address"}],"stateMutability":"view","type":"function"},{"inputs":[],"name":"paused","outputs":[{"internalType":"bool","name":"","type":"bool"}],"stateMutability":"view","type":"function"},{"inputs":[],"name":"proxiableUUID","outputs":[{"internalType":"bytes32","name":"","type":"bytes32"}],"stateMutability":"view","type":"function"},{"inputs":[{"internalType":"uint256","name":"_referrerId","type":"uint256"},{"internalType":"address","name":"_userAddress","type":"address"},{"internalType":"address","name":"_tokenAddress","type":"address"}],"name":"register","outputs":[],"stateMutability":"nonpayable","type":"function"},{"inputs":[{"internalType":"address","name":"_tokenContractAddress","type":"address"},{"internalType":"bool","name":"_status","type":"bool"}],"name":"removeBaseCurrency","outputs":[],"stateMutability":"nonpayable","type":"function"},{"inputs":[],"name":"renounceOwnership","outputs":[],"stateMutability":"nonpayable","type":"function"},{"inputs":[{"internalType":"uint8","name":"_poolId","type":"uint8"},{"internalType":"uint256","name":"_rewardToDistributeInDecimals","type":"uint256"},{"internalType":"uint8","name":"_minUserCounter","type":"uint8"}],"name":"setPools","outputs":[],"stateMutability":"nonpayable","type":"function"},{"inputs":[{"internalType":"address","name":"newOwner","type":"address"}],"name":"transferOwnership","outputs":[],"stateMutability":"nonpayable","type":"function"},{"inputs":[{"internalType":"address","name":"newImplementation","type":"address"}],"name":"upgradeTo","outputs":[],"stateMutability":"nonpayable","type":"function"},{"inputs":[{"internalType":"address","name":"newImplementation","type":"address"},{"internalType":"bytes","name":"data","type":"bytes"}],"name":"upgradeToAndCall","outputs":[],"stateMutability":"payable","type":"function"}],"evm":{"bytecode":{"linkReferences":{},"object":"60a06040523060805234801561001457600080fd5b5060805161350961004c600039600081816103cb01528181610414015281816104b3015281816104f3015261058601526135096000f3fe6080604052600436106100f35760003560e01c80638129fc1c1161008a578063f2fde38b11610059578063f2fde38b1461027d578063f782abc71461029d578063fb47e016146102bd578063ff43599c146102ea57600080fd5b80638129fc1c146101f35780638da5cb5b14610208578063a73c50fa14610230578063c48d8e021461025057600080fd5b806354f132e8116100c657806354f132e81461017b5780635bc62ff81461019b5780635c975abb146101bb578063715018a6146101de57600080fd5b80632ce75863146100f85780633659cfe6146101235780634f1ef2861461014557806352d1902d14610158575b600080fd5b34801561010457600080fd5b5061010d610317565b60405161011a9190612c32565b60405180910390f35b34801561012f57600080fd5b5061014361013e366004612cc9565b6103c1565b005b610143610153366004612cfa565b6104a9565b34801561016457600080fd5b5061016d610579565b60405190815260200161011a565b34801561018757600080fd5b50610143610196366004612dca565b61062c565b3480156101a757600080fd5b506101436101b6366004612e10565b6107a0565b3480156101c757600080fd5b5060335460ff16604051901515815260200161011a565b3480156101ea57600080fd5b506101436107f6565b3480156101ff57600080fd5b5061014361080a565b34801561021457600080fd5b506065546040516001600160a01b03909116815260200161011a565b34801561023c57600080fd5b5061014361024b366004612e52565b610981565b34801561025c57600080fd5b5061027061026b366004612e8e565b610d5e565b60405161011a9190612ee6565b34801561028957600080fd5b50610143610298366004612cc9565b610e5b565b3480156102a957600080fd5b506101436102b8366004612f51565b610ed1565b3480156102c957600080fd5b506102dd6102d8366004612cc9565b611164565b60405161011a9190612f7f565b3480156102f657600080fd5b5061030a610305366004612fb4565b611202565b60405161011a9190613008565b6060610107805480602002602001604051908101604052809291908181526020016000905b828210156103b85760008481526020908190206040805160a0810182526003860290920180546001600160a01b0390811684526001808301548587015260029092015460ff80821615159486019490945261010081049091166060850152600160a81b900490911615156080830152908352909201910161033c565b50505050905090565b6001600160a01b037f00000000000000000000000000000000000000000000000000000000000000001630036104125760405162461bcd60e51b8152600401610409906130fe565b60405180910390fd5b7f00000000000000000000000000000000000000000000000000000000000000006001600160a01b031661045b60008051602061348d833981519152546001600160a01b031690565b6001600160a01b0316146104815760405162461bcd60e51b81526004016104099061314a565b61048a816113f7565b604080516000808252602082019092526104a6918391906113ff565b50565b6001600160a01b037f00000000000000000000000000000000000000000000000000000000000000001630036104f15760405162461bcd60e51b8152600401610409906130fe565b7f00000000000000000000000000000000000000000000000000000000000000006001600160a01b031661053a60008051602061348d833981519152546001600160a01b031690565b6001600160a01b0316146105605760405162461bcd60e51b81526004016104099061314a565b610569826113f7565b610575828260016113ff565b5050565b6000306001600160a01b037f000000000000000000000000000000000000000000000000000000000000000016146106195760405162461bcd60e51b815260206004820152603860248201527f555550535570677261646561626c653a206d757374206e6f742062652063616c60448201527f6c6564207468726f7567682064656c656761746563616c6c00000000000000006064820152608401610409565b5060008051602061348d83398151915290565b61063461156f565b6001600160a01b03828116600090815261010a6020526040902054166106b95760405162461bcd60e51b815260206004820152603460248201527f736574537570706f72746564546f6b656e53746174757328293a20546f6b656e6044820152731034b9903737ba1030b23232b21030b23232b21760611b6064820152608401610409565b6001600160a01b038216600090815261010a6020526040902060020154811515600160a81b90910460ff161515036107675760405162461bcd60e51b815260206004820152604560248201527f736574537570706f72746564546f6b656e53746174757328293a20546f6b656e60448201527f2073746174757320697320616c72656164792073616d65206173206d656e746960648201526437b732b21760d91b608482015260a401610409565b6001600160a01b03909116600090815261010a602052604090206002018054911515600160a81b0260ff60a81b19909216919091179055565b6107a861156f565b60ff8316600081815261010b60205260409020805460ff191690911781556107d883670de0b6b3a76400006131ac565b6001820155600201805460ff191660ff929092169190911790555050565b6107fe61156f565b61080860006115c9565b565b600054610100900460ff161580801561082a5750600054600160ff909116105b806108445750303b158015610844575060005460ff166001145b6108a75760405162461bcd60e51b815260206004820152602e60248201527f496e697469616c697a61626c653a20636f6e747261637420697320616c72656160448201526d191e481a5b9a5d1a585b1a5e995960921b6064820152608401610409565b6000805460ff1916600117905580156108ca576000805461ff0019166101001790555b600260ff556040805160208101909152603281526108ec9060fe906001612b2d565b50610100805460ff1916601417905561010280546001600160a01b03191633179055678ac7230489e800006101015560056101045561092961161b565b61093161164a565b610939611679565b80156104a6576000805461ff0019169055604051600181527f7f26b83ff96e1f2b6a682f133852f6798a09c465da95921460cefb38474024989060200160405180910390a150565b610101546001600160a01b038216600090815261010a6020526040902060020154339190600160a81b900460ff1615610a4357826001600160a01b031663a9059cbb836109ce84876116a0565b6040516001600160e01b031960e085901b1681526001600160a01b03909216600483015260248201526044016020604051808303816000875af1158015610a19573d6000803e3d6000fd5b505050506040513d601f19601f82011682018060405250810190610a3d91906131c3565b50610aaa565b60405162461bcd60e51b815260206004820152603660248201527f726567697374657228293a20426173652043757272656e6379206973206e6f746044820152751039bab83837b93a32b21037b91032b730b13632b21760511b6064820152608401610409565b6000858152610109602090815260408083206001600160a01b0388168452610108909252909120610adb8187611733565b6000610ae56117ab565b600081815261010960205260409020909150610b0181846117c1565b5060408051610140810182528254815260018301546001600160a01b031660208083019190915260028401548284015260038401546060830152600484018054845181840281018401909552808552610d169486936080860193919290830182828015610b8d57602002820191906000526020600020905b815481526020019060010190808311610b79575b5050505050815260200160058201805480602002602001604051908101604052809291908181526020016000905b82821015610c0157838290600052602060002090600202016040518060400160405290816000820154815260200160018201548152505081526020019060010190610bbb565b50505050815260200160068201805480602002602001604051908101604052809291908181526020016000905b82821015610c7457838290600052602060002090600202016040518060400160405290816000820154815260200160018201548152505081526020019060010190610c2e565b5050509082525060408051606080820183526007850154825260088501546020838101919091526009860154838501528085019290925282518082018452600a8601548152600b86015492810192909252600c8501548284015291830152600d9092015460ff1615159101525160fd80546001810182556000919091527f9346ac6dd7de6b96975fec380d4d994c4c12e6a8897544f22915316cc6cca2800155565b6000610d228583611902565b9050610d2e82876120da565b610d3a8287838b61212e565b856101066000828254610d4d91906131e0565b909155505050505050505050505050565b610da46040518060e00160405280600060ff16815260200160008152602001600060ff168152602001600081526020016000815260200160608152602001600081525090565b60ff808316600090815261010b6020908152604091829020825160e0810184528154851681526001820154818401526002820154909416848401526003810154606085015260048101546080850152600581018054845181850281018501909552808552919360a0860193909290830182828015610e4157602002820191906000526020600020905b815481526020019060010190808311610e2d575b505050505081526020016006820154815250509050919050565b610e6361156f565b6001600160a01b038116610ec85760405162461bcd60e51b815260206004820152602660248201527f4f776e61626c653a206e6577206f776e657220697320746865207a65726f206160448201526564647265737360d01b6064820152608401610409565b6104a6816115c9565b610ed961156f565b6001600160a01b03838116600090815261010a60205260409020541615610f5e5760405162461bcd60e51b815260206004820152603360248201527f70757368537570706f72746564546f6b656e546f4c69737428293a20546f6b65604482015272371034b99030b63932b0b23c9030b23232b21760691b6064820152608401610409565b6040518060a00160405280846001600160a01b03168152602001846001600160a01b031663313ce5676040518163ffffffff1660e01b8152600401602060405180830381865afa158015610fb6573d6000803e3d6000fd5b505050506040513d601f19601f82011682018060405250810190610fda91906131f3565b60ff90811682529315156020808301919091526001600160a01b0393841660408084019190915260016060938401819052968516600090815261010a8352818120855181549088166001600160a01b031991821617825593860151818a0190815592860151600282018054968801516080909801511515600160a81b90810260ff60a81b19998b16610100908102610100600160a81b031995151586166001600160a81b03199b8c1617178b1691909117835561010780549d8e01815590955292546003909b027f47c4908e245f386bfc1825973249847f4053a761ddb4880ad63c323a7b5a2a25810180549097169b8a169b909b1790955592547f47c4908e245f386bfc1825973249847f4053a761ddb4880ad63c323a7b5a2a268a015583547f47c4908e245f386bfc1825973249847f4053a761ddb4880ad63c323a7b5a2a279099018054998916151560ff198b1681178255855484900490981690920296909216979093169690961793909317808255925485900490931615159093029216919091179055565b6040805180820190915260008152606060208201526001600160a01b038083166000908152610108602090815260409182902082518084018452815490941684526001810180548451818502810185019095528085529193858401939092908301828280156111f257602002820191906000526020600020905b8154815260200190600101908083116111de575b5050505050815250509050919050565b61120a612b7d565b600082815261010960209081526040918290208251610140810184528154815260018201546001600160a01b03168184015260028201548185015260038201546060820152600482018054855181860281018601909652808652919492936080860193929083018282801561129e57602002820191906000526020600020905b81548152602001906001019080831161128a575b5050505050815260200160058201805480602002602001604051908101604052809291908181526020016000905b82821015611312578382906000526020600020906002020160405180604001604052908160008201548152602001600182015481525050815260200190600101906112cc565b50505050815260200160068201805480602002602001604051908101604052809291908181526020016000905b828210156113855783829060005260206000209060020201604051806040016040529081600082015481526020016001820154815250508152602001906001019061133f565b5050509082525060408051606080820183526007850154825260088501546020838101919091526009860154838501528085019290925282518082018452600a8601548152600b86015492810192909252600c8501548284015291830152600d9092015460ff16151591015292915050565b6104a661156f565b7f4910fdfa16fed3260ed0e7147f7cc6da11a60208b5b9406d12a635614ffd91435460ff16156114375761143283612446565b505050565b826001600160a01b03166352d1902d6040518163ffffffff1660e01b8152600401602060405180830381865afa925050508015611491575060408051601f3d908101601f1916820190925261148e91810190613210565b60015b6114f45760405162461bcd60e51b815260206004820152602e60248201527f45524331393637557067726164653a206e657720696d706c656d656e7461746960448201526d6f6e206973206e6f74205555505360901b6064820152608401610409565b60008051602061348d83398151915281146115635760405162461bcd60e51b815260206004820152602960248201527f45524331393637557067726164653a20756e737570706f727465642070726f786044820152681a58589b195555525160ba1b6064820152608401610409565b506114328383836124e2565b6065546001600160a01b031633146108085760405162461bcd60e51b815260206004820181905260248201527f4f776e61626c653a2063616c6c6572206973206e6f7420746865206f776e65726044820152606401610409565b606580546001600160a01b038381166001600160a01b0319831681179093556040519116919082907f8be0079c531659141344cd1fd0a4f28419497f9722a3daafe3b4186f6b6457e090600090a35050565b600054610100900460ff166116425760405162461bcd60e51b815260040161040990613229565b61080861250d565b600054610100900460ff166116715760405162461bcd60e51b815260040161040990613229565b610808612540565b600054610100900460ff166108085760405162461bcd60e51b815260040161040990613229565b6000670de0b6b3a7640000826001600160a01b031663313ce5676040518163ffffffff1660e01b8152600401602060405180830381865afa1580156116e9573d6000803e3d6000fd5b505050506040513d601f19601f8201168201806040525081019061170d91906131f3565b61171890600a613358565b61172290856131ac565b61172c9190613367565b9392505050565b81546001600160a01b031615801561175357506001600160a01b03811615155b156105755781546001600160a01b0319166001600160a01b03821690811783556040519081527f3b819cfb39116b78a5d1267e92ab85058e96d63a7882322d296ab4135720b79a906020015b60405180910390a15050565b600060fc5460016117bc91906131e0565b905090565b81546000901561181f5760405162461bcd60e51b815260206004820152602360248201527f5f757064617465496428293a20496420697320616c726561647920637265617460448201526232b21760e91b6064820152608401610409565b60fc805490600061182f83613389565b909155505060fc5480845560018381018054918201815560009081526020908190209091018290558354604080516001600160a01b0390921682529181018390529192507f1edfaf20eb0251dd2ca45e125c8b9a615022667b9822cf6a8dc1d2ce7e91ea68910160405180910390a181546001840180546001600160a01b0319166001600160a01b03928316179055825460408051919092168152602081018390527f4f3673673d1e6f88f67f26845b9609a7707201984d7885988d35aedf43b9fe44910160405180910390a192915050565b80546000906119196065546001600160a01b031690565b6001600160a01b0316336001600160a01b0316146119975783546000036119975760405162461bcd60e51b815260206004820152602c60248201527f5f616464526566657272657228293a2052656665727265204964206973206e6f60448201526b3a1030b1ba34bb30ba32b21760a11b6064820152608401610409565b80846002015403611a055760405162461bcd60e51b815260206004820152603260248201527f5f616464526566657272657228293a20526566657265652063616e6e6f74206260448201527132903932b332b93932b9103ab83634b7329760711b6064820152608401610409565b8015611a665760405162461bcd60e51b815260206004820152602a60248201527f5f616464526566657272657228293a205573657220726566657272657220616c6044820152693932b0b23c9039b2ba1760b11b6064820152608401610409565b60408051610140810182528554815260018601546001600160a01b031660208083019190915260028701548284015260038701546060830152600487018054845181840281018401909552808552611c499489936080860193919290830182828015611af157602002820191906000526020600020905b815481526020019060010190808311611add575b5050505050815260200160058201805480602002602001604051908101604052809291908181526020016000905b82821015611b6557838290600052602060002090600202016040518060400160405290816000820154815260200160018201548152505081526020019060010190611b1f565b50505050815260200160068201805480602002602001604051908101604052809291908181526020016000905b82821015611bd857838290600052602060002090600202016040518060400160405290816000820154815260200160018201548152505081526020019060010190611b92565b5050509082525060408051606080820183526007850154825260088501546020838101919091526009860154838501528085019290925282518082018452600a8601548152600b86015492810192909252600c8501548284015291830152600d9092015460ff161515910152612570565b611cb55783546002840181905560038401556004840180546001810182556000918252602091829020018290558454604080519182529181018390527fe6b2c1ca4b33533eddccfdd2dd0fbe5ff44d75017001d4b2329b4daee1821436910160405180910390a1612018565b60fd54611d105760405162461bcd60e51b8152602060048201526024808201527f5f616464526566657272657228293a20476c6f62616c2069647320617265206f6044820152633b32b91760e11b6064820152608401610409565b6000610109600060fd600081548110611d2b57611d2b6133a2565b600091825260208083209190910154835282810193909352604091820181208054600289810191909155895460038a015583518085018552878152825481870190815260058c0180546001808201835591875295889020925195909302909101938455519201919091558754815483519182529381019390935290820184905291507f347a3b2fe969c7ab7c51c290dbcae965d7b5a6b03d2b9336a480169d79a5f51f9060600160405180910390a16004810180546001810182556000918252602091829020018390558154604080519182529181018490527fe6b2c1ca4b33533eddccfdd2dd0fbe5ff44d75017001d4b2329b4daee1821436910160405180910390a160408051610140810182528254815260018301546001600160a01b0316602080830191909152600284015482840152600384015460608301526004840180548451818402810184019095528085526120129486936080860193919290830182828015611eba57602002820191906000526020600020905b815481526020019060010190808311611ea6575b5050505050815260200160058201805480602002602001604051908101604052809291908181526020016000905b82821015611f2e57838290600052602060002090600202016040518060400160405290816000820154815260200160018201548152505081526020019060010190611ee8565b50505050815260200160068201805480602002602001604051908101604052809291908181526020016000905b82821015611fa157838290600052602060002090600202016040518060400160405290816000820154815260200160018201548152505081526020019060010190611f5b565b5050509082525060408051606080820183526007850154825260088501546020838101919091526009860154838501528085019290925282518082018452600a8601548152600b86015492810192909252600c8501548284015291830152600d9092015460ff161515910152612589565b60019250505b6101005460ff1660005b818110156120d1578454600090815261010960209081526040918290208251808401909352858352916006830191810161205d8560016131e0565b905281546001808201845560009384526020938490208351600290930201918255918301519101558154604080519182529181018690527f48e403ae2a509cd9336134c0899083ba110bf3a35566606add88a2066ccbaa1a910160405180910390a194506120ca81613389565b9050612022565b50505092915050565b808260070160000160008282546120f191906131e0565b9091555050815460408051918252602082018390527f7bc272836d15a231dbca2c8759d5bb751d4ecf39d918fef56f6cc2fc3c2386b0910161179f565b83546000831561215257506003850154600090815261010960205260409020612168565b5060028501546000908152610109602052604090205b8481600701600101600082825461217f91906131e0565b90915550508054865460408051928352602083019190915281018690527f57b50e0e70daa32ac46409245990bb5a21b96da6f9c1bcbba5424aa58723907a9060600160405180910390a1600060fe80548060200260200160405190810160405280929190818152602001828054801561221757602002820191906000526020600020905b815481526020019060010190808311612203575b505050505090506000805b825181101561241a5760028901546000908152610109602052604081209450819003612251576122518461260c565b60006064848381518110612267576122676133a2565b60200260200101518a61227a91906131ac565b6122849190613367565b60018601549091506001600160a01b038089169163a9059cbb91166122a9848b6116a0565b6040516001600160e01b031960e085901b1681526001600160a01b03909216600483015260248201526044016020604051808303816000875af11580156122f4573d6000803e3d6000fd5b505050506040513d601f19601f8201168201806040525081019061231891906131c3565b5084547ff4bff7ddf097f430e0163107b212ddccc7c9a80ff7d32462be0c6f30bbbad0df90878361234a8660016131e0565b60408051948552602085019390935291830152606082015260800160405180910390a161237781846131e0565b92508085600a01600001600082825461239091906131e0565b90915550506009850180548a91906000906123ac9084906131e0565b909155505084547fe586f9a83f2ffed00511a0a180ebbe02001f778fc773252bd05a65bf364f74db90878b6123e28660016131e0565b60408051948552602085019390935291830152606082015260800160405180910390a1849950508061241390613389565b9050612222565b5061242485612717565b80610105600082825461243791906131e0565b90915550505050505050505050565b6001600160a01b0381163b6124b35760405162461bcd60e51b815260206004820152602d60248201527f455243313936373a206e657720696d706c656d656e746174696f6e206973206e60448201526c1bdd08184818dbdb9d1c9858dd609a1b6064820152608401610409565b60008051602061348d83398151915280546001600160a01b0319166001600160a01b0392909216919091179055565b6124eb836129b9565b6000825111806124f85750805b156114325761250783836129f9565b50505050565b600054610100900460ff166125345760405162461bcd60e51b815260040161040990613229565b6033805460ff19169055565b600054610100900460ff166125675760405162461bcd60e51b815260040161040990613229565b610808336115c9565b600060ff5482608001515103612584575060015b919050565b61259281612570565b156104a65760fd80546125a7906001906133b8565b815481106125b7576125b76133a2565b906000526020600020015460fd6000815481106125d6576125d66133a2565b60009182526020909120015560fd8054806125f3576125f36133cb565b6001900381819060005260206000200160009055905550565b600d81015460ff166104a65761010b60205280547f6e52e526d0a430c19b585340217228bc17d6c1fa1e249cf1b148e60115ab6322805460018101825560009182527fcac8872e54ea00258b0d3696790d7823213af1134451fde9e6ae74c1f21f001f01919091557f6e52e526d0a430c19b585340217228bc17d6c1fa1e249cf1b148e60115ab632180547f6e52e526d0a430c19b585340217228bc17d6c1fa1e249cf1b148e60115ab631d929091906126c583613389565b9091555050600d8201805460ff1916600190811790915582546040517fdae0be714878398df4bce5e16513993cf11a07c4b626f7acf376a79f71f721f89261179f92825260ff16602082015260400190565b60015b60148160ff1610156105755760ff808216600090815261010b602052604081208054909216900361274a57505050565b6002810154600482015460ff909116116129a857600061010b8161276f8560016133e1565b60ff1660ff168152602001908152602001600020905080600501826005018360030154815481106127a2576127a26133a2565b6000918252602080832090910154835460018101855593835291209091015560038201546005830180547fdae0be714878398df4bce5e16513993cf11a07c4b626f7acf376a79f71f721f8929081106127fd576127fd6133a2565b906000526020600020015484600161281591906133e1565b6040805192835260ff90911660208301520160405180910390a1600061010960008460050185600301548154811061284f5761284f6133a2565b906000526020600020015481526020019081526020016000209050846001600160a01b031663a9059cbb8260010160009054906101000a90046001600160a01b031661289f8660010154896116a0565b6040516001600160e01b031960e085901b1681526001600160a01b03909216600483015260248201526044016020604051808303816000875af11580156128ea573d6000803e3d6000fd5b505050506040513d601f19601f8201168201806040525081019061290e91906131c3565b507f89b70f5f92b02d089769dea775c6dce9797ebfb25ae57bcfbab1d88a31a6721283600501846003015481548110612949576129496133a2565b60009182526020918290200154855460018701546040805193845260ff9092169383019390935281019190915260600160405180910390a1826001015483600601600082825461299991906131e0565b90915550506000600484015550505b506129b2816133fa565b905061271a565b6129c281612446565b6040516001600160a01b038216907fbc7cd75a20ee27fd9adebab32041f755214dbc6bffa90cc0225b39da2e5c2d3b90600090a250565b60606001600160a01b0383163b612a615760405162461bcd60e51b815260206004820152602660248201527f416464726573733a2064656c65676174652063616c6c20746f206e6f6e2d636f6044820152651b9d1c9858dd60d21b6064820152608401610409565b600080846001600160a01b031684604051612a7c919061343d565b600060405180830381855af49150503d8060008114612ab7576040519150601f19603f3d011682016040523d82523d6000602084013e612abc565b606091505b5091509150612ae482826040518060600160405280602781526020016134ad60279139612aef565b925050505b92915050565b60608315612afe57508161172c565b61172c8383815115612b135781518083602001fd5b8060405162461bcd60e51b81526004016104099190613459565b828054828255906000526020600020908101928215612b6d579160200282015b82811115612b6d578251829060ff16905591602001919060010190612b4d565b50612b79929150612c1d565b5090565b6040518061014001604052806000815260200160006001600160a01b031681526020016000815260200160008152602001606081526020016060815260200160608152602001612be760405180606001604052806000815260200160008152602001600081525090565b8152602001612c1060405180606001604052806000815260200160008152602001600081525090565b8152600060209091015290565b5b80821115612b795760008155600101612c1e565b602080825282518282018190526000919060409081850190868401855b82811015612ca557815180516001600160a01b0390811686528782015188870152868201511515878701526060808301519091169086015260809081015115159085015260a09093019290850190600101612c4f565b5091979650505050505050565b80356001600160a01b038116811461258457600080fd5b600060208284031215612cdb57600080fd5b61172c82612cb2565b634e487b7160e01b600052604160045260246000fd5b60008060408385031215612d0d57600080fd5b612d1683612cb2565b9150602083013567ffffffffffffffff80821115612d3357600080fd5b818501915085601f830112612d4757600080fd5b813581811115612d5957612d59612ce4565b604051601f8201601f19908116603f01168101908382118183101715612d8157612d81612ce4565b81604052828152886020848701011115612d9a57600080fd5b8260208601602083013760006020848301015280955050505050509250929050565b80151581146104a657600080fd5b60008060408385031215612ddd57600080fd5b612de683612cb2565b91506020830135612df681612dbc565b809150509250929050565b60ff811681146104a657600080fd5b600080600060608486031215612e2557600080fd5b8335612e3081612e01565b9250602084013591506040840135612e4781612e01565b809150509250925092565b600080600060608486031215612e6757600080fd5b83359250612e7760208501612cb2565b9150612e8560408501612cb2565b90509250925092565b600060208284031215612ea057600080fd5b813561172c81612e01565b600081518084526020808501945080840160005b83811015612edb57815187529582019590820190600101612ebf565b509495945050505050565b6020815260ff82511660208201526020820151604082015260ff604083015116606082015260608201516080820152608082015160a0820152600060a083015160e060c0840152612f3b610100840182612eab565b905060c084015160e08401528091505092915050565b600080600060608486031215612f6657600080fd5b612f6f84612cb2565b92506020840135612e7781612dbc565b602080825282516001600160a01b031682820152820151604080830152600090612fac6060840182612eab565b949350505050565b600060208284031215612fc657600080fd5b5035919050565b600081518084526020808501945080840160005b83811015612edb578151805188528301518388015260409096019590820190600101612fe1565b60208152815160208201526000602083015161302f60408401826001600160a01b03169052565b50604083015160608301526060830151608083015260808301516101c08060a08501526130606101e0850183612eab565b915060a0850151601f19808685030160c087015261307e8483612fcd565b935060c08701519150808685030160e08701525061309c8382612fcd565b92505060e08501516101006130c7818701838051825260208082015190830152604090810151910152565b86015180516101608701526020810151610180870152604001516101a0860152506101209094015115159390920192909252919050565b6020808252602c908201527f46756e6374696f6e206d7573742062652063616c6c6564207468726f7567682060408201526b19195b1959d85d1958d85b1b60a21b606082015260800190565b6020808252602c908201527f46756e6374696f6e206d7573742062652063616c6c6564207468726f7567682060408201526b6163746976652070726f787960a01b606082015260800190565b634e487b7160e01b600052601160045260246000fd5b8082028115828204841417612ae957612ae9613196565b6000602082840312156131d557600080fd5b815161172c81612dbc565b80820180821115612ae957612ae9613196565b60006020828403121561320557600080fd5b815161172c81612e01565b60006020828403121561322257600080fd5b5051919050565b6020808252602b908201527f496e697469616c697a61626c653a20636f6e7472616374206973206e6f74206960408201526a6e697469616c697a696e6760a81b606082015260800190565b600181815b808511156132af57816000190482111561329557613295613196565b808516156132a257918102915b93841c9390800290613279565b509250929050565b6000826132c657506001612ae9565b816132d357506000612ae9565b81600181146132e957600281146132f35761330f565b6001915050612ae9565b60ff84111561330457613304613196565b50506001821b612ae9565b5060208310610133831016604e8410600b8410161715613332575081810a612ae9565b61333c8383613274565b806000190482111561335057613350613196565b029392505050565b600061172c60ff8416836132b7565b60008261338457634e487b7160e01b600052601260045260246000fd5b500490565b60006001820161339b5761339b613196565b5060010190565b634e487b7160e01b600052603260045260246000fd5b81810381811115612ae957612ae9613196565b634e487b7160e01b600052603160045260246000fd5b60ff8181168382160190811115612ae957612ae9613196565b600060ff821660ff810361341057613410613196565b60010192915050565b60005b8381101561343457818101518382015260200161341c565b50506000910152565b6000825161344f818460208701613419565b9190910192915050565b6020815260008251806020840152613478816040850160208701613419565b601f01601f1916919091016040019291505056fe360894a13ba1a3210667c828492db98dca3e2076cc3735a920a3ca505d382bbc416464726573733a206c6f772d6c6576656c2064656c65676174652063616c6c206661696c6564a26469706673582212205dbf0c8514e7d19f7cea36d267d6640aa5f5226e5befabc8abd0399f4244e3e764736f6c63430008120033","opcodes":"PUSH1 0xA0 PUSH1 0x40 MSTORE ADDRESS PUSH1 0x80 MSTORE CALLVALUE DUP1 ISZERO PUSH2 0x14 JUMPI PUSH1 0x0 DUP1 REVERT JUMPDEST POP PUSH1 0x80 MLOAD PUSH2 0x3509 PUSH2 0x4C PUSH1 0x0 CODECOPY PUSH1 0x0 DUP2 DUP2 PUSH2 0x3CB ADD MSTORE DUP2 DUP2 PUSH2 0x414 ADD MSTORE DUP2 DUP2 PUSH2 0x4B3 ADD MSTORE DUP2 DUP2 PUSH2 0x4F3 ADD MSTORE PUSH2 0x586 ADD MSTORE PUSH2 0x3509 PUSH1 0x0 RETURN INVALID PUSH1 0x80 PUSH1 0x40 MSTORE PUSH1 0x4 CALLDATASIZE LT PUSH2 0xF3 JUMPI PUSH1 0x0 CALLDATALOAD PUSH1 0xE0 SHR DUP1 PUSH4 0x8129FC1C GT PUSH2 0x8A JUMPI DUP1 PUSH4 0xF2FDE38B GT PUSH2 0x59 JUMPI DUP1 PUSH4 0xF2FDE38B EQ PUSH2 0x27D JUMPI DUP1 PUSH4 0xF782ABC7 EQ PUSH2 0x29D JUMPI DUP1 PUSH4 0xFB47E016 EQ PUSH2 0x2BD JUMPI DUP1 PUSH4 0xFF43599C EQ PUSH2 0x2EA JUMPI PUSH1 0x0 DUP1 REVERT JUMPDEST DUP1 PUSH4 0x8129FC1C EQ PUSH2 0x1F3 JUMPI DUP1 PUSH4 0x8DA5CB5B EQ PUSH2 0x208 JUMPI DUP1 PUSH4 0xA73C50FA EQ PUSH2 0x230 JUMPI DUP1 PUSH4 0xC48D8E02 EQ PUSH2 0x250 JUMPI PUSH1 0x0 DUP1 REVERT JUMPDEST DUP1 PUSH4 0x54F132E8 GT PUSH2 0xC6 JUMPI DUP1 PUSH4 0x54F132E8 EQ PUSH2 0x17B JUMPI DUP1 PUSH4 0x5BC62FF8 EQ PUSH2 0x19B JUMPI DUP1 PUSH4 0x5C975ABB EQ PUSH2 0x1BB JUMPI DUP1 PUSH4 0x715018A6 EQ PUSH2 0x1DE JUMPI PUSH1 0x0 DUP1 REVERT JUMPDEST DUP1 PUSH4 0x2CE75863 EQ PUSH2 0xF8 JUMPI DUP1 PUSH4 0x3659CFE6 EQ PUSH2 0x123 JUMPI DUP1 PUSH4 0x4F1EF286 EQ PUSH2 0x145 JUMPI DUP1 PUSH4 0x52D1902D EQ PUSH2 0x158 JUMPI JUMPDEST PUSH1 0x0 DUP1 REVERT JUMPDEST CALLVALUE DUP1 ISZERO PUSH2 0x104 JUMPI PUSH1 0x0 DUP1 REVERT JUMPDEST POP PUSH2 0x10D PUSH2 0x317 JUMP JUMPDEST PUSH1 0x40 MLOAD PUSH2 0x11A SWAP2 SWAP1 PUSH2 0x2C32 JUMP JUMPDEST PUSH1 0x40 MLOAD DUP1 SWAP2 SUB SWAP1 RETURN JUMPDEST CALLVALUE DUP1 ISZERO PUSH2 0x12F JUMPI PUSH1 0x0 DUP1 REVERT JUMPDEST POP PUSH2 0x143 PUSH2 0x13E CALLDATASIZE PUSH1 0x4 PUSH2 0x2CC9 JUMP JUMPDEST PUSH2 0x3C1 JUMP JUMPDEST STOP JUMPDEST PUSH2 0x143 PUSH2 0x153 CALLDATASIZE PUSH1 0x4 PUSH2 0x2CFA JUMP JUMPDEST PUSH2 0x4A9 JUMP JUMPDEST CALLVALUE DUP1 ISZERO PUSH2 0x164 JUMPI PUSH1 0x0 DUP1 REVERT JUMPDEST POP PUSH2 0x16D PUSH2 0x579 JUMP JUMPDEST PUSH1 0x40 MLOAD SWAP1 DUP2 MSTORE PUSH1 0x20 ADD PUSH2 0x11A JUMP JUMPDEST CALLVALUE DUP1 ISZERO PUSH2 0x187 JUMPI PUSH1 0x0 DUP1 REVERT JUMPDEST POP PUSH2 0x143 PUSH2 0x196 CALLDATASIZE PUSH1 0x4 PUSH2 0x2DCA JUMP JUMPDEST PUSH2 0x62C JUMP JUMPDEST CALLVALUE DUP1 ISZERO PUSH2 0x1A7 JUMPI PUSH1 0x0 DUP1 REVERT JUMPDEST POP PUSH2 0x143 PUSH2 0x1B6 CALLDATASIZE PUSH1 0x4 PUSH2 0x2E10 JUMP JUMPDEST PUSH2 0x7A0 JUMP JUMPDEST CALLVALUE DUP1 ISZERO PUSH2 0x1C7 JUMPI PUSH1 0x0 DUP1 REVERT JUMPDEST POP PUSH1 0x33 SLOAD PUSH1 0xFF AND PUSH1 0x40 MLOAD SWAP1 ISZERO ISZERO DUP2 MSTORE PUSH1 0x20 ADD PUSH2 0x11A JUMP JUMPDEST CALLVALUE DUP1 ISZERO PUSH2 0x1EA JUMPI PUSH1 0x0 DUP1 REVERT JUMPDEST POP PUSH2 0x143 PUSH2 0x7F6 JUMP JUMPDEST CALLVALUE DUP1 ISZERO PUSH2 0x1FF JUMPI PUSH1 0x0 DUP1 REVERT JUMPDEST POP PUSH2 0x143 PUSH2 0x80A JUMP JUMPDEST CALLVALUE DUP1 ISZERO PUSH2 0x214 JUMPI PUSH1 0x0 DUP1 REVERT JUMPDEST POP PUSH1 0x65 SLOAD PUSH1 0x40 MLOAD PUSH1 0x1 PUSH1 0x1 PUSH1 0xA0 SHL SUB SWAP1 SWAP2 AND DUP2 MSTORE PUSH1 0x20 ADD PUSH2 0x11A JUMP JUMPDEST CALLVALUE DUP1 ISZERO PUSH2 0x23C JUMPI PUSH1 0x0 DUP1 REVERT JUMPDEST POP PUSH2 0x143 PUSH2 0x24B CALLDATASIZE PUSH1 0x4 PUSH2 0x2E52 JUMP JUMPDEST PUSH2 0x981 JUMP JUMPDEST CALLVALUE DUP1 ISZERO PUSH2 0x25C JUMPI PUSH1 0x0 DUP1 REVERT JUMPDEST POP PUSH2 0x270 PUSH2 0x26B CALLDATASIZE PUSH1 0x4 PUSH2 0x2E8E JUMP JUMPDEST PUSH2 0xD5E JUMP JUMPDEST PUSH1 0x40 MLOAD PUSH2 0x11A SWAP2 SWAP1 PUSH2 0x2EE6 JUMP JUMPDEST CALLVALUE DUP1 ISZERO PUSH2 0x289 JUMPI PUSH1 0x0 DUP1 REVERT JUMPDEST POP PUSH2 0x143 PUSH2 0x298 CALLDATASIZE PUSH1 0x4 PUSH2 0x2CC9 JUMP JUMPDEST PUSH2 0xE5B JUMP JUMPDEST CALLVALUE DUP1 ISZERO PUSH2 0x2A9 JUMPI PUSH1 0x0 DUP1 REVERT JUMPDEST POP PUSH2 0x143 PUSH2 0x2B8 CALLDATASIZE PUSH1 0x4 PUSH2 0x2F51 JUMP JUMPDEST PUSH2 0xED1 JUMP JUMPDEST CALLVALUE DUP1 ISZERO PUSH2 0x2C9 JUMPI PUSH1 0x0 DUP1 REVERT JUMPDEST POP PUSH2 0x2DD PUSH2 0x2D8 CALLDATASIZE PUSH1 0x4 PUSH2 0x2CC9 JUMP JUMPDEST PUSH2 0x1164 JUMP JUMPDEST PUSH1 0x40 MLOAD PUSH2 0x11A SWAP2 SWAP1 PUSH2 0x2F7F JUMP JUMPDEST CALLVALUE DUP1 ISZERO PUSH2 0x2F6 JUMPI PUSH1 0x0 DUP1 REVERT JUMPDEST POP PUSH2 0x30A PUSH2 0x305 CALLDATASIZE PUSH1 0x4 PUSH2 0x2FB4 JUMP JUMPDEST PUSH2 0x1202 JUMP JUMPDEST PUSH1 0x40 MLOAD PUSH2 0x11A SWAP2 SWAP1 PUSH2 0x3008 JUMP JUMPDEST PUSH1 0x60 PUSH2 0x107 DUP1 SLOAD DUP1 PUSH1 0x20 MUL PUSH1 0x20 ADD PUSH1 0x40 MLOAD SWAP1 DUP2 ADD PUSH1 0x40 MSTORE DUP1 SWAP3 SWAP2 SWAP1 DUP2 DUP2 MSTORE PUSH1 0x20 ADD PUSH1 0x0 SWAP1 JUMPDEST DUP3 DUP3 LT ISZERO PUSH2 0x3B8 JUMPI PUSH1 0x0 DUP5 DUP2 MSTORE PUSH1 0x20 SWAP1 DUP2 SWAP1 KECCAK256 PUSH1 0x40 DUP1 MLOAD PUSH1 0xA0 DUP2 ADD DUP3 MSTORE PUSH1 0x3 DUP7 MUL SWAP1 SWAP3 ADD DUP1 SLOAD PUSH1 0x1 PUSH1 0x1 PUSH1 0xA0 SHL SUB SWAP1 DUP2 AND DUP5 MSTORE PUSH1 0x1 DUP1 DUP4 ADD SLOAD DUP6 DUP8 ADD MSTORE PUSH1 0x2 SWAP1 SWAP3 ADD SLOAD PUSH1 0xFF DUP1 DUP3 AND ISZERO ISZERO SWAP5 DUP7 ADD SWAP5 SWAP1 SWAP5 MSTORE PUSH2 0x100 DUP2 DIV SWAP1 SWAP2 AND PUSH1 0x60 DUP6 ADD MSTORE PUSH1 0x1 PUSH1 0xA8 SHL SWAP1 DIV SWAP1 SWAP2 AND ISZERO ISZERO PUSH1 0x80 DUP4 ADD MSTORE SWAP1 DUP4 MSTORE SWAP1 SWAP3 ADD SWAP2 ADD PUSH2 0x33C JUMP JUMPDEST POP POP POP POP SWAP1 POP SWAP1 JUMP JUMPDEST PUSH1 0x1 PUSH1 0x1 PUSH1 0xA0 SHL SUB PUSH32 0x0 AND ADDRESS SUB PUSH2 0x412 JUMPI PUSH1 0x40 MLOAD PUSH3 0x461BCD PUSH1 0xE5 SHL DUP2 MSTORE PUSH1 0x4 ADD PUSH2 0x409 SWAP1 PUSH2 0x30FE JUMP JUMPDEST PUSH1 0x40 MLOAD DUP1 SWAP2 SUB SWAP1 REVERT JUMPDEST PUSH32 0x0 PUSH1 0x1 PUSH1 0x1 PUSH1 0xA0 SHL SUB AND PUSH2 0x45B PUSH1 0x0 DUP1 MLOAD PUSH1 0x20 PUSH2 0x348D DUP4 CODECOPY DUP2 MLOAD SWAP2 MSTORE SLOAD PUSH1 0x1 PUSH1 0x1 PUSH1 0xA0 SHL SUB AND SWAP1 JUMP JUMPDEST PUSH1 0x1 PUSH1 0x1 PUSH1 0xA0 SHL SUB AND EQ PUSH2 0x481 JUMPI PUSH1 0x40 MLOAD PUSH3 0x461BCD PUSH1 0xE5 SHL DUP2 MSTORE PUSH1 0x4 ADD PUSH2 0x409 SWAP1 PUSH2 0x314A JUMP JUMPDEST PUSH2 0x48A DUP2 PUSH2 0x13F7 JUMP JUMPDEST PUSH1 0x40 DUP1 MLOAD PUSH1 0x0 DUP1 DUP3 MSTORE PUSH1 0x20 DUP3 ADD SWAP1 SWAP3 MSTORE PUSH2 0x4A6 SWAP2 DUP4 SWAP2 SWAP1 PUSH2 0x13FF JUMP JUMPDEST POP JUMP JUMPDEST PUSH1 0x1 PUSH1 0x1 PUSH1 0xA0 SHL SUB PUSH32 0x0 AND ADDRESS SUB PUSH2 0x4F1 JUMPI PUSH1 0x40 MLOAD PUSH3 0x461BCD PUSH1 0xE5 SHL DUP2 MSTORE PUSH1 0x4 ADD PUSH2 0x409 SWAP1 PUSH2 0x30FE JUMP JUMPDEST PUSH32 0x0 PUSH1 0x1 PUSH1 0x1 PUSH1 0xA0 SHL SUB AND PUSH2 0x53A PUSH1 0x0 DUP1 MLOAD PUSH1 0x20 PUSH2 0x348D DUP4 CODECOPY DUP2 MLOAD SWAP2 MSTORE SLOAD PUSH1 0x1 PUSH1 0x1 PUSH1 0xA0 SHL SUB AND SWAP1 JUMP JUMPDEST PUSH1 0x1 PUSH1 0x1 PUSH1 0xA0 SHL SUB AND EQ PUSH2 0x560 JUMPI PUSH1 0x40 MLOAD PUSH3 0x461BCD PUSH1 0xE5 SHL DUP2 MSTORE PUSH1 0x4 ADD PUSH2 0x409 SWAP1 PUSH2 0x314A JUMP JUMPDEST PUSH2 0x569 DUP3 PUSH2 0x13F7 JUMP JUMPDEST PUSH2 0x575 DUP3 DUP3 PUSH1 0x1 PUSH2 0x13FF JUMP JUMPDEST POP POP JUMP JUMPDEST PUSH1 0x0 ADDRESS PUSH1 0x1 PUSH1 0x1 PUSH1 0xA0 SHL SUB PUSH32 0x0 AND EQ PUSH2 0x619 JUMPI PUSH1 0x40 MLOAD PUSH3 0x461BCD PUSH1 0xE5 SHL DUP2 MSTORE PUSH1 0x20 PUSH1 0x4 DUP3 ADD MSTORE PUSH1 0x38 PUSH1 0x24 DUP3 ADD MSTORE PUSH32 0x555550535570677261646561626C653A206D757374206E6F742062652063616C PUSH1 0x44 DUP3 ADD MSTORE PUSH32 0x6C6564207468726F7567682064656C656761746563616C6C0000000000000000 PUSH1 0x64 DUP3 ADD MSTORE PUSH1 0x84 ADD PUSH2 0x409 JUMP JUMPDEST POP PUSH1 0x0 DUP1 MLOAD PUSH1 0x20 PUSH2 0x348D DUP4 CODECOPY DUP2 MLOAD SWAP2 MSTORE SWAP1 JUMP JUMPDEST PUSH2 0x634 PUSH2 0x156F JUMP JUMPDEST PUSH1 0x1 PUSH1 0x1 PUSH1 0xA0 SHL SUB DUP3 DUP2 AND PUSH1 0x0 SWAP1 DUP2 MSTORE PUSH2 0x10A PUSH1 0x20 MSTORE PUSH1 0x40 SWAP1 KECCAK256 SLOAD AND PUSH2 0x6B9 JUMPI PUSH1 0x40 MLOAD PUSH3 0x461BCD PUSH1 0xE5 SHL DUP2 MSTORE PUSH1 0x20 PUSH1 0x4 DUP3 ADD MSTORE PUSH1 0x34 PUSH1 0x24 DUP3 ADD MSTORE PUSH32 0x736574537570706F72746564546F6B656E53746174757328293A20546F6B656E PUSH1 0x44 DUP3 ADD MSTORE PUSH20 0x1034B9903737BA1030B23232B21030B23232B217 PUSH1 0x61 SHL PUSH1 0x64 DUP3 ADD MSTORE PUSH1 0x84 ADD PUSH2 0x409 JUMP JUMPDEST PUSH1 0x1 PUSH1 0x1 PUSH1 0xA0 SHL SUB DUP3 AND PUSH1 0x0 SWAP1 DUP2 MSTORE PUSH2 0x10A PUSH1 0x20 MSTORE PUSH1 0x40 SWAP1 KECCAK256 PUSH1 0x2 ADD SLOAD DUP2 ISZERO ISZERO PUSH1 0x1 PUSH1 0xA8 SHL SWAP1 SWAP2 DIV PUSH1 0xFF AND ISZERO ISZERO SUB PUSH2 0x767 JUMPI PUSH1 0x40 MLOAD PUSH3 0x461BCD PUSH1 0xE5 SHL DUP2 MSTORE PUSH1 0x20 PUSH1 0x4 DUP3 ADD MSTORE PUSH1 0x45 PUSH1 0x24 DUP3 ADD MSTORE PUSH32 0x736574537570706F72746564546F6B656E53746174757328293A20546F6B656E PUSH1 0x44 DUP3 ADD MSTORE PUSH32 0x2073746174757320697320616C72656164792073616D65206173206D656E7469 PUSH1 0x64 DUP3 ADD MSTORE PUSH5 0x37B732B217 PUSH1 0xD9 SHL PUSH1 0x84 DUP3 ADD MSTORE PUSH1 0xA4 ADD PUSH2 0x409 JUMP JUMPDEST PUSH1 0x1 PUSH1 0x1 PUSH1 0xA0 SHL SUB SWAP1 SWAP2 AND PUSH1 0x0 SWAP1 DUP2 MSTORE PUSH2 0x10A PUSH1 0x20 MSTORE PUSH1 0x40 SWAP1 KECCAK256 PUSH1 0x2 ADD DUP1 SLOAD SWAP2 ISZERO ISZERO PUSH1 0x1 PUSH1 0xA8 SHL MUL PUSH1 0xFF PUSH1 0xA8 SHL NOT SWAP1 SWAP3 AND SWAP2 SWAP1 SWAP2 OR SWAP1 SSTORE JUMP JUMPDEST PUSH2 0x7A8 PUSH2 0x156F JUMP JUMPDEST PUSH1 0xFF DUP4 AND PUSH1 0x0 DUP2 DUP2 MSTORE PUSH2 0x10B PUSH1 0x20 MSTORE PUSH1 0x40 SWAP1 KECCAK256 DUP1 SLOAD PUSH1 0xFF NOT AND SWAP1 SWAP2 OR DUP2 SSTORE PUSH2 0x7D8 DUP4 PUSH8 0xDE0B6B3A7640000 PUSH2 0x31AC JUMP JUMPDEST PUSH1 0x1 DUP3 ADD SSTORE PUSH1 0x2 ADD DUP1 SLOAD PUSH1 0xFF NOT AND PUSH1 0xFF SWAP3 SWAP1 SWAP3 AND SWAP2 SWAP1 SWAP2 OR SWAP1 SSTORE POP POP JUMP JUMPDEST PUSH2 0x7FE PUSH2 0x156F JUMP JUMPDEST PUSH2 0x808 PUSH1 0x0 PUSH2 0x15C9 JUMP JUMPDEST JUMP JUMPDEST PUSH1 0x0 SLOAD PUSH2 0x100 SWAP1 DIV PUSH1 0xFF AND ISZERO DUP1 DUP1 ISZERO PUSH2 0x82A JUMPI POP PUSH1 0x0 SLOAD PUSH1 0x1 PUSH1 0xFF SWAP1 SWAP2 AND LT JUMPDEST DUP1 PUSH2 0x844 JUMPI POP ADDRESS EXTCODESIZE ISZERO DUP1 ISZERO PUSH2 0x844 JUMPI POP PUSH1 0x0 SLOAD PUSH1 0xFF AND PUSH1 0x1 EQ JUMPDEST PUSH2 0x8A7 JUMPI PUSH1 0x40 MLOAD PUSH3 0x461BCD PUSH1 0xE5 SHL DUP2 MSTORE PUSH1 0x20 PUSH1 0x4 DUP3 ADD MSTORE PUSH1 0x2E PUSH1 0x24 DUP3 ADD MSTORE PUSH32 0x496E697469616C697A61626C653A20636F6E747261637420697320616C726561 PUSH1 0x44 DUP3 ADD MSTORE PUSH14 0x191E481A5B9A5D1A585B1A5E9959 PUSH1 0x92 SHL PUSH1 0x64 DUP3 ADD MSTORE PUSH1 0x84 ADD PUSH2 0x409 JUMP JUMPDEST PUSH1 0x0 DUP1 SLOAD PUSH1 0xFF NOT AND PUSH1 0x1 OR SWAP1 SSTORE DUP1 ISZERO PUSH2 0x8CA JUMPI PUSH1 0x0 DUP1 SLOAD PUSH2 0xFF00 NOT AND PUSH2 0x100 OR SWAP1 SSTORE JUMPDEST PUSH1 0x2 PUSH1 0xFF SSTORE PUSH1 0x40 DUP1 MLOAD PUSH1 0x20 DUP2 ADD SWAP1 SWAP2 MSTORE PUSH1 0x32 DUP2 MSTORE PUSH2 0x8EC SWAP1 PUSH1 0xFE SWAP1 PUSH1 0x1 PUSH2 0x2B2D JUMP JUMPDEST POP PUSH2 0x100 DUP1 SLOAD PUSH1 0xFF NOT AND PUSH1 0x14 OR SWAP1 SSTORE PUSH2 0x102 DUP1 SLOAD PUSH1 0x1 PUSH1 0x1 PUSH1 0xA0 SHL SUB NOT AND CALLER OR SWAP1 SSTORE PUSH8 0x8AC7230489E80000 PUSH2 0x101 SSTORE PUSH1 0x5 PUSH2 0x104 SSTORE PUSH2 0x929 PUSH2 0x161B JUMP JUMPDEST PUSH2 0x931 PUSH2 0x164A JUMP JUMPDEST PUSH2 0x939 PUSH2 0x1679 JUMP JUMPDEST DUP1 ISZERO PUSH2 0x4A6 JUMPI PUSH1 0x0 DUP1 SLOAD PUSH2 0xFF00 NOT AND SWAP1 SSTORE PUSH1 0x40 MLOAD PUSH1 0x1 DUP2 MSTORE PUSH32 0x7F26B83FF96E1F2B6A682F133852F6798A09C465DA95921460CEFB3847402498 SWAP1 PUSH1 0x20 ADD PUSH1 0x40 MLOAD DUP1 SWAP2 SUB SWAP1 LOG1 POP JUMP JUMPDEST PUSH2 0x101 SLOAD PUSH1 0x1 PUSH1 0x1 PUSH1 0xA0 SHL SUB DUP3 AND PUSH1 0x0 SWAP1 DUP2 MSTORE PUSH2 0x10A PUSH1 0x20 MSTORE PUSH1 0x40 SWAP1 KECCAK256 PUSH1 0x2 ADD SLOAD CALLER SWAP2 SWAP1 PUSH1 0x1 PUSH1 0xA8 SHL SWAP1 DIV PUSH1 0xFF AND ISZERO PUSH2 0xA43 JUMPI DUP3 PUSH1 0x1 PUSH1 0x1 PUSH1 0xA0 SHL SUB AND PUSH4 0xA9059CBB DUP4 PUSH2 0x9CE DUP5 DUP8 PUSH2 0x16A0 JUMP JUMPDEST PUSH1 0x40 MLOAD PUSH1 0x1 PUSH1 0x1 PUSH1 0xE0 SHL SUB NOT PUSH1 0xE0 DUP6 SWAP1 SHL AND DUP2 MSTORE PUSH1 0x1 PUSH1 0x1 PUSH1 0xA0 SHL SUB SWAP1 SWAP3 AND PUSH1 0x4 DUP4 ADD MSTORE PUSH1 0x24 DUP3 ADD MSTORE PUSH1 0x44 ADD PUSH1 0x20 PUSH1 0x40 MLOAD DUP1 DUP4 SUB DUP2 PUSH1 0x0 DUP8 GAS CALL ISZERO DUP1 ISZERO PUSH2 0xA19 JUMPI RETURNDATASIZE PUSH1 0x0 DUP1 RETURNDATACOPY RETURNDATASIZE PUSH1 0x0 REVERT JUMPDEST POP POP POP POP PUSH1 0x40 MLOAD RETURNDATASIZE PUSH1 0x1F NOT PUSH1 0x1F DUP3 ADD AND DUP3 ADD DUP1 PUSH1 0x40 MSTORE POP DUP2 ADD SWAP1 PUSH2 0xA3D SWAP2 SWAP1 PUSH2 0x31C3 JUMP JUMPDEST POP PUSH2 0xAAA JUMP JUMPDEST PUSH1 0x40 MLOAD PUSH3 0x461BCD PUSH1 0xE5 SHL DUP2 MSTORE PUSH1 0x20 PUSH1 0x4 DUP3 ADD MSTORE PUSH1 0x36 PUSH1 0x24 DUP3 ADD MSTORE PUSH32 0x726567697374657228293A20426173652043757272656E6379206973206E6F74 PUSH1 0x44 DUP3 ADD MSTORE PUSH22 0x1039BAB83837B93A32B21037B91032B730B13632B217 PUSH1 0x51 SHL PUSH1 0x64 DUP3 ADD MSTORE PUSH1 0x84 ADD PUSH2 0x409 JUMP JUMPDEST PUSH1 0x0 DUP6 DUP2 MSTORE PUSH2 0x109 PUSH1 0x20 SWAP1 DUP2 MSTORE PUSH1 0x40 DUP1 DUP4 KECCAK256 PUSH1 0x1 PUSH1 0x1 PUSH1 0xA0 SHL SUB DUP9 AND DUP5 MSTORE PUSH2 0x108 SWAP1 SWAP3 MSTORE SWAP1 SWAP2 KECCAK256 PUSH2 0xADB DUP2 DUP8 PUSH2 0x1733 JUMP JUMPDEST PUSH1 0x0 PUSH2 0xAE5 PUSH2 0x17AB JUMP JUMPDEST PUSH1 0x0 DUP2 DUP2 MSTORE PUSH2 0x109 PUSH1 0x20 MSTORE PUSH1 0x40 SWAP1 KECCAK256 SWAP1 SWAP2 POP PUSH2 0xB01 DUP2 DUP5 PUSH2 0x17C1 JUMP JUMPDEST POP PUSH1 0x40 DUP1 MLOAD PUSH2 0x140 DUP2 ADD DUP3 MSTORE DUP3 SLOAD DUP2 MSTORE PUSH1 0x1 DUP4 ADD SLOAD PUSH1 0x1 PUSH1 0x1 PUSH1 0xA0 SHL SUB AND PUSH1 0x20 DUP1 DUP4 ADD SWAP2 SWAP1 SWAP2 MSTORE PUSH1 0x2 DUP5 ADD SLOAD DUP3 DUP5 ADD MSTORE PUSH1 0x3 DUP5 ADD SLOAD PUSH1 0x60 DUP4 ADD MSTORE PUSH1 0x4 DUP5 ADD DUP1 SLOAD DUP5 MLOAD DUP2 DUP5 MUL DUP2 ADD DUP5 ADD SWAP1 SWAP6 MSTORE DUP1 DUP6 MSTORE PUSH2 0xD16 SWAP5 DUP7 SWAP4 PUSH1 0x80 DUP7 ADD SWAP4 SWAP2 SWAP3 SWAP1 DUP4 ADD DUP3 DUP3 DUP1 ISZERO PUSH2 0xB8D JUMPI PUSH1 0x20 MUL DUP3 ADD SWAP2 SWAP1 PUSH1 0x0 MSTORE PUSH1 0x20 PUSH1 0x0 KECCAK256 SWAP1 JUMPDEST DUP2 SLOAD DUP2 MSTORE PUSH1 0x20 ADD SWAP1 PUSH1 0x1 ADD SWAP1 DUP1 DUP4 GT PUSH2 0xB79 JUMPI JUMPDEST POP POP POP POP POP DUP2 MSTORE PUSH1 0x20 ADD PUSH1 0x5 DUP3 ADD DUP1 SLOAD DUP1 PUSH1 0x20 MUL PUSH1 0x20 ADD PUSH1 0x40 MLOAD SWAP1 DUP2 ADD PUSH1 0x40 MSTORE DUP1 SWAP3 SWAP2 SWAP1 DUP2 DUP2 MSTORE PUSH1 0x20 ADD PUSH1 0x0 SWAP1 JUMPDEST DUP3 DUP3 LT ISZERO PUSH2 0xC01 JUMPI DUP4 DUP3 SWAP1 PUSH1 0x0 MSTORE PUSH1 0x20 PUSH1 0x0 KECCAK256 SWAP1 PUSH1 0x2 MUL ADD PUSH1 0x40 MLOAD DUP1 PUSH1 0x40 ADD PUSH1 0x40 MSTORE SWAP1 DUP2 PUSH1 0x0 DUP3 ADD SLOAD DUP2 MSTORE PUSH1 0x20 ADD PUSH1 0x1 DUP3 ADD SLOAD DUP2 MSTORE POP POP DUP2 MSTORE PUSH1 0x20 ADD SWAP1 PUSH1 0x1 ADD SWAP1 PUSH2 0xBBB JUMP JUMPDEST POP POP POP POP DUP2 MSTORE PUSH1 0x20 ADD PUSH1 0x6 DUP3 ADD DUP1 SLOAD DUP1 PUSH1 0x20 MUL PUSH1 0x20 ADD PUSH1 0x40 MLOAD SWAP1 DUP2 ADD PUSH1 0x40 MSTORE DUP1 SWAP3 SWAP2 SWAP1 DUP2 DUP2 MSTORE PUSH1 0x20 ADD PUSH1 0x0 SWAP1 JUMPDEST DUP3 DUP3 LT ISZERO PUSH2 0xC74 JUMPI DUP4 DUP3 SWAP1 PUSH1 0x0 MSTORE PUSH1 0x20 PUSH1 0x0 KECCAK256 SWAP1 PUSH1 0x2 MUL ADD PUSH1 0x40 MLOAD DUP1 PUSH1 0x40 ADD PUSH1 0x40 MSTORE SWAP1 DUP2 PUSH1 0x0 DUP3 ADD SLOAD DUP2 MSTORE PUSH1 0x20 ADD PUSH1 0x1 DUP3 ADD SLOAD DUP2 MSTORE POP POP DUP2 MSTORE PUSH1 0x20 ADD SWAP1 PUSH1 0x1 ADD SWAP1 PUSH2 0xC2E JUMP JUMPDEST POP POP POP SWAP1 DUP3 MSTORE POP PUSH1 0x40 DUP1 MLOAD PUSH1 0x60 DUP1 DUP3 ADD DUP4 MSTORE PUSH1 0x7 DUP6 ADD SLOAD DUP3 MSTORE PUSH1 0x8 DUP6 ADD SLOAD PUSH1 0x20 DUP4 DUP2 ADD SWAP2 SWAP1 SWAP2 MSTORE PUSH1 0x9 DUP7 ADD SLOAD DUP4 DUP6 ADD MSTORE DUP1 DUP6 ADD SWAP3 SWAP1 SWAP3 MSTORE DUP3 MLOAD DUP1 DUP3 ADD DUP5 MSTORE PUSH1 0xA DUP7 ADD SLOAD DUP2 MSTORE PUSH1 0xB DUP7 ADD SLOAD SWAP3 DUP2 ADD SWAP3 SWAP1 SWAP3 MSTORE PUSH1 0xC DUP6 ADD SLOAD DUP3 DUP5 ADD MSTORE SWAP2 DUP4 ADD MSTORE PUSH1 0xD SWAP1 SWAP3 ADD SLOAD PUSH1 0xFF AND ISZERO ISZERO SWAP2 ADD MSTORE MLOAD PUSH1 0xFD DUP1 SLOAD PUSH1 0x1 DUP2 ADD DUP3 SSTORE PUSH1 0x0 SWAP2 SWAP1 SWAP2 MSTORE PUSH32 0x9346AC6DD7DE6B96975FEC380D4D994C4C12E6A8897544F22915316CC6CCA280 ADD SSTORE JUMP JUMPDEST PUSH1 0x0 PUSH2 0xD22 DUP6 DUP4 PUSH2 0x1902 JUMP JUMPDEST SWAP1 POP PUSH2 0xD2E DUP3 DUP8 PUSH2 0x20DA JUMP JUMPDEST PUSH2 0xD3A DUP3 DUP8 DUP4 DUP12 PUSH2 0x212E JUMP JUMPDEST DUP6 PUSH2 0x106 PUSH1 0x0 DUP3 DUP3 SLOAD PUSH2 0xD4D SWAP2 SWAP1 PUSH2 0x31E0 JUMP JUMPDEST SWAP1 SWAP2 SSTORE POP POP POP POP POP POP POP POP POP POP POP POP JUMP JUMPDEST PUSH2 0xDA4 PUSH1 0x40 MLOAD DUP1 PUSH1 0xE0 ADD PUSH1 0x40 MSTORE DUP1 PUSH1 0x0 PUSH1 0xFF AND DUP2 MSTORE PUSH1 0x20 ADD PUSH1 0x0 DUP2 MSTORE PUSH1 0x20 ADD PUSH1 0x0 PUSH1 0xFF AND DUP2 MSTORE PUSH1 0x20 ADD PUSH1 0x0 DUP2 MSTORE PUSH1 0x20 ADD PUSH1 0x0 DUP2 MSTORE PUSH1 0x20 ADD PUSH1 0x60 DUP2 MSTORE PUSH1 0x20 ADD PUSH1 0x0 DUP2 MSTORE POP SWAP1 JUMP JUMPDEST PUSH1 0xFF DUP1 DUP4 AND PUSH1 0x0 SWAP1 DUP2 MSTORE PUSH2 0x10B PUSH1 0x20 SWAP1 DUP2 MSTORE PUSH1 0x40 SWAP2 DUP3 SWAP1 KECCAK256 DUP3 MLOAD PUSH1 0xE0 DUP2 ADD DUP5 MSTORE DUP2 SLOAD DUP6 AND DUP2 MSTORE PUSH1 0x1 DUP3 ADD SLOAD DUP2 DUP5 ADD MSTORE PUSH1 0x2 DUP3 ADD SLOAD SWAP1 SWAP5 AND DUP5 DUP5 ADD MSTORE PUSH1 0x3 DUP2 ADD SLOAD PUSH1 0x60 DUP6 ADD MSTORE PUSH1 0x4 DUP2 ADD SLOAD PUSH1 0x80 DUP6 ADD MSTORE PUSH1 0x5 DUP2 ADD DUP1 SLOAD DUP5 MLOAD DUP2 DUP6 MUL DUP2 ADD DUP6 ADD SWAP1 SWAP6 MSTORE DUP1 DUP6 MSTORE SWAP2 SWAP4 PUSH1 0xA0 DUP7 ADD SWAP4 SWAP1 SWAP3 SWAP1 DUP4 ADD DUP3 DUP3 DUP1 ISZERO PUSH2 0xE41 JUMPI PUSH1 0x20 MUL DUP3 ADD SWAP2 SWAP1 PUSH1 0x0 MSTORE PUSH1 0x20 PUSH1 0x0 KECCAK256 SWAP1 JUMPDEST DUP2 SLOAD DUP2 MSTORE PUSH1 0x20 ADD SWAP1 PUSH1 0x1 ADD SWAP1 DUP1 DUP4 GT PUSH2 0xE2D JUMPI JUMPDEST POP POP POP POP POP DUP2 MSTORE PUSH1 0x20 ADD PUSH1 0x6 DUP3 ADD SLOAD DUP2 MSTORE POP POP SWAP1 POP SWAP2 SWAP1 POP JUMP JUMPDEST PUSH2 0xE63 PUSH2 0x156F JUMP JUMPDEST PUSH1 0x1 PUSH1 0x1 PUSH1 0xA0 SHL SUB DUP2 AND PUSH2 0xEC8 JUMPI PUSH1 0x40 MLOAD PUSH3 0x461BCD PUSH1 0xE5 SHL DUP2 MSTORE PUSH1 0x20 PUSH1 0x4 DUP3 ADD MSTORE PUSH1 0x26 PUSH1 0x24 DUP3 ADD MSTORE PUSH32 0x4F776E61626C653A206E6577206F776E657220697320746865207A65726F2061 PUSH1 0x44 DUP3 ADD MSTORE PUSH6 0x646472657373 PUSH1 0xD0 SHL PUSH1 0x64 DUP3 ADD MSTORE PUSH1 0x84 ADD PUSH2 0x409 JUMP JUMPDEST PUSH2 0x4A6 DUP2 PUSH2 0x15C9 JUMP JUMPDEST PUSH2 0xED9 PUSH2 0x156F JUMP JUMPDEST PUSH1 0x1 PUSH1 0x1 PUSH1 0xA0 SHL SUB DUP4 DUP2 AND PUSH1 0x0 SWAP1 DUP2 MSTORE PUSH2 0x10A PUSH1 0x20 MSTORE PUSH1 0x40 SWAP1 KECCAK256 SLOAD AND ISZERO PUSH2 0xF5E JUMPI PUSH1 0x40 MLOAD PUSH3 0x461BCD PUSH1 0xE5 SHL DUP2 MSTORE PUSH1 0x20 PUSH1 0x4 DUP3 ADD MSTORE PUSH1 0x33 PUSH1 0x24 DUP3 ADD MSTORE PUSH32 0x70757368537570706F72746564546F6B656E546F4C69737428293A20546F6B65 PUSH1 0x44 DUP3 ADD MSTORE PUSH19 0x371034B99030B63932B0B23C9030B23232B217 PUSH1 0x69 SHL PUSH1 0x64 DUP3 ADD MSTORE PUSH1 0x84 ADD PUSH2 0x409 JUMP JUMPDEST PUSH1 0x40 MLOAD DUP1 PUSH1 0xA0 ADD PUSH1 0x40 MSTORE DUP1 DUP5 PUSH1 0x1 PUSH1 0x1 PUSH1 0xA0 SHL SUB AND DUP2 MSTORE PUSH1 0x20 ADD DUP5 PUSH1 0x1 PUSH1 0x1 PUSH1 0xA0 SHL SUB AND PUSH4 0x313CE567 PUSH1 0x40 MLOAD DUP2 PUSH4 0xFFFFFFFF AND PUSH1 0xE0 SHL DUP2 MSTORE PUSH1 0x4 ADD PUSH1 0x20 PUSH1 0x40 MLOAD DUP1 DUP4 SUB DUP2 DUP7 GAS STATICCALL ISZERO DUP1 ISZERO PUSH2 0xFB6 JUMPI RETURNDATASIZE PUSH1 0x0 DUP1 RETURNDATACOPY RETURNDATASIZE PUSH1 0x0 REVERT JUMPDEST POP POP POP POP PUSH1 0x40 MLOAD RETURNDATASIZE PUSH1 0x1F NOT PUSH1 0x1F DUP3 ADD AND DUP3 ADD DUP1 PUSH1 0x40 MSTORE POP DUP2 ADD SWAP1 PUSH2 0xFDA SWAP2 SWAP1 PUSH2 0x31F3 JUMP JUMPDEST PUSH1 0xFF SWAP1 DUP2 AND DUP3 MSTORE SWAP4 ISZERO ISZERO PUSH1 0x20 DUP1 DUP4 ADD SWAP2 SWAP1 SWAP2 MSTORE PUSH1 0x1 PUSH1 0x1 PUSH1 0xA0 SHL SUB SWAP4 DUP5 AND PUSH1 0x40 DUP1 DUP5 ADD SWAP2 SWAP1 SWAP2 MSTORE PUSH1 0x1 PUSH1 0x60 SWAP4 DUP5 ADD DUP2 SWAP1 MSTORE SWAP7 DUP6 AND PUSH1 0x0 SWAP1 DUP2 MSTORE PUSH2 0x10A DUP4 MSTORE DUP2 DUP2 KECCAK256 DUP6 MLOAD DUP2 SLOAD SWAP1 DUP9 AND PUSH1 0x1 PUSH1 0x1 PUSH1 0xA0 SHL SUB NOT SWAP2 DUP3 AND OR DUP3 SSTORE SWAP4 DUP7 ADD MLOAD DUP2 DUP11 ADD SWAP1 DUP2 SSTORE SWAP3 DUP7 ADD MLOAD PUSH1 0x2 DUP3 ADD DUP1 SLOAD SWAP7 DUP9 ADD MLOAD PUSH1 0x80 SWAP1 SWAP9 ADD MLOAD ISZERO ISZERO PUSH1 0x1 PUSH1 0xA8 SHL SWAP1 DUP2 MUL PUSH1 0xFF PUSH1 0xA8 SHL NOT SWAP10 DUP12 AND PUSH2 0x100 SWAP1 DUP2 MUL PUSH2 0x100 PUSH1 0x1 PUSH1 0xA8 SHL SUB NOT SWAP6 ISZERO ISZERO DUP7 AND PUSH1 0x1 PUSH1 0x1 PUSH1 0xA8 SHL SUB NOT SWAP12 DUP13 AND OR OR DUP12 AND SWAP2 SWAP1 SWAP2 OR DUP4 SSTORE PUSH2 0x107 DUP1 SLOAD SWAP14 DUP15 ADD DUP2 SSTORE SWAP1 SWAP6 MSTORE SWAP3 SLOAD PUSH1 0x3 SWAP1 SWAP12 MUL PUSH32 0x47C4908E245F386BFC1825973249847F4053A761DDB4880AD63C323A7B5A2A25 DUP2 ADD DUP1 SLOAD SWAP1 SWAP8 AND SWAP12 DUP11 AND SWAP12 SWAP1 SWAP12 OR SWAP1 SWAP6 SSTORE SWAP3 SLOAD PUSH32 0x47C4908E245F386BFC1825973249847F4053A761DDB4880AD63C323A7B5A2A26 DUP11 ADD SSTORE DUP4 SLOAD PUSH32 0x47C4908E245F386BFC1825973249847F4053A761DDB4880AD63C323A7B5A2A27 SWAP1 SWAP10 ADD DUP1 SLOAD SWAP10 DUP10 AND ISZERO ISZERO PUSH1 0xFF NOT DUP12 AND DUP2 OR DUP3 SSTORE DUP6 SLOAD DUP5 SWAP1 DIV SWAP1 SWAP9 AND SWAP1 SWAP3 MUL SWAP7 SWAP1 SWAP3 AND SWAP8 SWAP1 SWAP4 AND SWAP7 SWAP1 SWAP7 OR SWAP4 SWAP1 SWAP4 OR DUP1 DUP3 SSTORE SWAP3 SLOAD DUP6 SWAP1 DIV SWAP1 SWAP4 AND ISZERO ISZERO SWAP1 SWAP4 MUL SWAP3 AND SWAP2 SWAP1 SWAP2 OR SWAP1 SSTORE JUMP JUMPDEST PUSH1 0x40 DUP1 MLOAD DUP1 DUP3 ADD SWAP1 SWAP2 MSTORE PUSH1 0x0 DUP2 MSTORE PUSH1 0x60 PUSH1 0x20 DUP3 ADD MSTORE PUSH1 0x1 PUSH1 0x1 PUSH1 0xA0 SHL SUB DUP1 DUP4 AND PUSH1 0x0 SWAP1 DUP2 MSTORE PUSH2 0x108 PUSH1 0x20 SWAP1 DUP2 MSTORE PUSH1 0x40 SWAP2 DUP3 SWAP1 KECCAK256 DUP3 MLOAD DUP1 DUP5 ADD DUP5 MSTORE DUP2 SLOAD SWAP1 SWAP5 AND DUP5 MSTORE PUSH1 0x1 DUP2 ADD DUP1 SLOAD DUP5 MLOAD DUP2 DUP6 MUL DUP2 ADD DUP6 ADD SWAP1 SWAP6 MSTORE DUP1 DUP6 MSTORE SWAP2 SWAP4 DUP6 DUP5 ADD SWAP4 SWAP1 SWAP3 SWAP1 DUP4 ADD DUP3 DUP3 DUP1 ISZERO PUSH2 0x11F2 JUMPI PUSH1 0x20 MUL DUP3 ADD SWAP2 SWAP1 PUSH1 0x0 MSTORE PUSH1 0x20 PUSH1 0x0 KECCAK256 SWAP1 JUMPDEST DUP2 SLOAD DUP2 MSTORE PUSH1 0x20 ADD SWAP1 PUSH1 0x1 ADD SWAP1 DUP1 DUP4 GT PUSH2 0x11DE JUMPI JUMPDEST POP POP POP POP POP DUP2 MSTORE POP POP SWAP1 POP SWAP2 SWAP1 POP JUMP JUMPDEST PUSH2 0x120A PUSH2 0x2B7D JUMP JUMPDEST PUSH1 0x0 DUP3 DUP2 MSTORE PUSH2 0x109 PUSH1 0x20 SWAP1 DUP2 MSTORE PUSH1 0x40 SWAP2 DUP3 SWAP1 KECCAK256 DUP3 MLOAD PUSH2 0x140 DUP2 ADD DUP5 MSTORE DUP2 SLOAD DUP2 MSTORE PUSH1 0x1 DUP3 ADD SLOAD PUSH1 0x1 PUSH1 0x1 PUSH1 0xA0 SHL SUB AND DUP2 DUP5 ADD MSTORE PUSH1 0x2 DUP3 ADD SLOAD DUP2 DUP6 ADD MSTORE PUSH1 0x3 DUP3 ADD SLOAD PUSH1 0x60 DUP3 ADD MSTORE PUSH1 0x4 DUP3 ADD DUP1 SLOAD DUP6 MLOAD DUP2 DUP7 MUL DUP2 ADD DUP7 ADD SWAP1 SWAP7 MSTORE DUP1 DUP7 MSTORE SWAP2 SWAP5 SWAP3 SWAP4 PUSH1 0x80 DUP7 ADD SWAP4 SWAP3 SWAP1 DUP4 ADD DUP3 DUP3 DUP1 ISZERO PUSH2 0x129E JUMPI PUSH1 0x20 MUL DUP3 ADD SWAP2 SWAP1 PUSH1 0x0 MSTORE PUSH1 0x20 PUSH1 0x0 KECCAK256 SWAP1 JUMPDEST DUP2 SLOAD DUP2 MSTORE PUSH1 0x20 ADD SWAP1 PUSH1 0x1 ADD SWAP1 DUP1 DUP4 GT PUSH2 0x128A JUMPI JUMPDEST POP POP POP POP POP DUP2 MSTORE PUSH1 0x20 ADD PUSH1 0x5 DUP3 ADD DUP1 SLOAD DUP1 PUSH1 0x20 MUL PUSH1 0x20 ADD PUSH1 0x40 MLOAD SWAP1 DUP2 ADD PUSH1 0x40 MSTORE DUP1 SWAP3 SWAP2 SWAP1 DUP2 DUP2 MSTORE PUSH1 0x20 ADD PUSH1 0x0 SWAP1 JUMPDEST DUP3 DUP3 LT ISZERO PUSH2 0x1312 JUMPI DUP4 DUP3 SWAP1 PUSH1 0x0 MSTORE PUSH1 0x20 PUSH1 0x0 KECCAK256 SWAP1 PUSH1 0x2 MUL ADD PUSH1 0x40 MLOAD DUP1 PUSH1 0x40 ADD PUSH1 0x40 MSTORE SWAP1 DUP2 PUSH1 0x0 DUP3 ADD SLOAD DUP2 MSTORE PUSH1 0x20 ADD PUSH1 0x1 DUP3 ADD SLOAD DUP2 MSTORE POP POP DUP2 MSTORE PUSH1 0x20 ADD SWAP1 PUSH1 0x1 ADD SWAP1 PUSH2 0x12CC JUMP JUMPDEST POP POP POP POP DUP2 MSTORE PUSH1 0x20 ADD PUSH1 0x6 DUP3 ADD DUP1 SLOAD DUP1 PUSH1 0x20 MUL PUSH1 0x20 ADD PUSH1 0x40 MLOAD SWAP1 DUP2 ADD PUSH1 0x40 MSTORE DUP1 SWAP3 SWAP2 SWAP1 DUP2 DUP2 MSTORE PUSH1 0x20 ADD PUSH1 0x0 SWAP1 JUMPDEST DUP3 DUP3 LT ISZERO PUSH2 0x1385 JUMPI DUP4 DUP3 SWAP1 PUSH1 0x0 MSTORE PUSH1 0x20 PUSH1 0x0 KECCAK256 SWAP1 PUSH1 0x2 MUL ADD PUSH1 0x40 MLOAD DUP1 PUSH1 0x40 ADD PUSH1 0x40 MSTORE SWAP1 DUP2 PUSH1 0x0 DUP3 ADD SLOAD DUP2 MSTORE PUSH1 0x20 ADD PUSH1 0x1 DUP3 ADD SLOAD DUP2 MSTORE POP POP DUP2 MSTORE PUSH1 0x20 ADD SWAP1 PUSH1 0x1 ADD SWAP1 PUSH2 0x133F JUMP JUMPDEST POP POP POP SWAP1 DUP3 MSTORE POP PUSH1 0x40 DUP1 MLOAD PUSH1 0x60 DUP1 DUP3 ADD DUP4 MSTORE PUSH1 0x7 DUP6 ADD SLOAD DUP3 MSTORE PUSH1 0x8 DUP6 ADD SLOAD PUSH1 0x20 DUP4 DUP2 ADD SWAP2 SWAP1 SWAP2 MSTORE PUSH1 0x9 DUP7 ADD SLOAD DUP4 DUP6 ADD MSTORE DUP1 DUP6 ADD SWAP3 SWAP1 SWAP3 MSTORE DUP3 MLOAD DUP1 DUP3 ADD DUP5 MSTORE PUSH1 0xA DUP7 ADD SLOAD DUP2 MSTORE PUSH1 0xB DUP7 ADD SLOAD SWAP3 DUP2 ADD SWAP3 SWAP1 SWAP3 MSTORE PUSH1 0xC DUP6 ADD SLOAD DUP3 DUP5 ADD MSTORE SWAP2 DUP4 ADD MSTORE PUSH1 0xD SWAP1 SWAP3 ADD SLOAD PUSH1 0xFF AND ISZERO ISZERO SWAP2 ADD MSTORE SWAP3 SWAP2 POP POP JUMP JUMPDEST PUSH2 0x4A6 PUSH2 0x156F JUMP JUMPDEST PUSH32 0x4910FDFA16FED3260ED0E7147F7CC6DA11A60208B5B9406D12A635614FFD9143 SLOAD PUSH1 0xFF AND ISZERO PUSH2 0x1437 JUMPI PUSH2 0x1432 DUP4 PUSH2 0x2446 JUMP JUMPDEST POP POP POP JUMP JUMPDEST DUP3 PUSH1 0x1 PUSH1 0x1 PUSH1 0xA0 SHL SUB AND PUSH4 0x52D1902D PUSH1 0x40 MLOAD DUP2 PUSH4 0xFFFFFFFF AND PUSH1 0xE0 SHL DUP2 MSTORE PUSH1 0x4 ADD PUSH1 0x20 PUSH1 0x40 MLOAD DUP1 DUP4 SUB DUP2 DUP7 GAS STATICCALL SWAP3 POP POP POP DUP1 ISZERO PUSH2 0x1491 JUMPI POP PUSH1 0x40 DUP1 MLOAD PUSH1 0x1F RETURNDATASIZE SWAP1 DUP2 ADD PUSH1 0x1F NOT AND DUP3 ADD SWAP1 SWAP3 MSTORE PUSH2 0x148E SWAP2 DUP2 ADD SWAP1 PUSH2 0x3210 JUMP JUMPDEST PUSH1 0x1 JUMPDEST PUSH2 0x14F4 JUMPI PUSH1 0x40 MLOAD PUSH3 0x461BCD PUSH1 0xE5 SHL DUP2 MSTORE PUSH1 0x20 PUSH1 0x4 DUP3 ADD MSTORE PUSH1 0x2E PUSH1 0x24 DUP3 ADD MSTORE PUSH32 0x45524331393637557067726164653A206E657720696D706C656D656E74617469 PUSH1 0x44 DUP3 ADD MSTORE PUSH14 0x6F6E206973206E6F742055555053 PUSH1 0x90 SHL PUSH1 0x64 DUP3 ADD MSTORE PUSH1 0x84 ADD PUSH2 0x409 JUMP JUMPDEST PUSH1 0x0 DUP1 MLOAD PUSH1 0x20 PUSH2 0x348D DUP4 CODECOPY DUP2 MLOAD SWAP2 MSTORE DUP2 EQ PUSH2 0x1563 JUMPI PUSH1 0x40 MLOAD PUSH3 0x461BCD PUSH1 0xE5 SHL DUP2 MSTORE PUSH1 0x20 PUSH1 0x4 DUP3 ADD MSTORE PUSH1 0x29 PUSH1 0x24 DUP3 ADD MSTORE PUSH32 0x45524331393637557067726164653A20756E737570706F727465642070726F78 PUSH1 0x44 DUP3 ADD MSTORE PUSH9 0x1A58589B1955555251 PUSH1 0xBA SHL PUSH1 0x64 DUP3 ADD MSTORE PUSH1 0x84 ADD PUSH2 0x409 JUMP JUMPDEST POP PUSH2 0x1432 DUP4 DUP4 DUP4 PUSH2 0x24E2 JUMP JUMPDEST PUSH1 0x65 SLOAD PUSH1 0x1 PUSH1 0x1 PUSH1 0xA0 SHL SUB AND CALLER EQ PUSH2 0x808 JUMPI PUSH1 0x40 MLOAD PUSH3 0x461BCD PUSH1 0xE5 SHL DUP2 MSTORE PUSH1 0x20 PUSH1 0x4 DUP3 ADD DUP2 SWAP1 MSTORE PUSH1 0x24 DUP3 ADD MSTORE PUSH32 0x4F776E61626C653A2063616C6C6572206973206E6F7420746865206F776E6572 PUSH1 0x44 DUP3 ADD MSTORE PUSH1 0x64 ADD PUSH2 0x409 JUMP JUMPDEST PUSH1 0x65 DUP1 SLOAD PUSH1 0x1 PUSH1 0x1 PUSH1 0xA0 SHL SUB DUP4 DUP2 AND PUSH1 0x1 PUSH1 0x1 PUSH1 0xA0 SHL SUB NOT DUP4 AND DUP2 OR SWAP1 SWAP4 SSTORE PUSH1 0x40 MLOAD SWAP2 AND SWAP2 SWAP1 DUP3 SWAP1 PUSH32 0x8BE0079C531659141344CD1FD0A4F28419497F9722A3DAAFE3B4186F6B6457E0 SWAP1 PUSH1 0x0 SWAP1 LOG3 POP POP JUMP JUMPDEST PUSH1 0x0 SLOAD PUSH2 0x100 SWAP1 DIV PUSH1 0xFF AND PUSH2 0x1642 JUMPI PUSH1 0x40 MLOAD PUSH3 0x461BCD PUSH1 0xE5 SHL DUP2 MSTORE PUSH1 0x4 ADD PUSH2 0x409 SWAP1 PUSH2 0x3229 JUMP JUMPDEST PUSH2 0x808 PUSH2 0x250D JUMP JUMPDEST PUSH1 0x0 SLOAD PUSH2 0x100 SWAP1 DIV PUSH1 0xFF AND PUSH2 0x1671 JUMPI PUSH1 0x40 MLOAD PUSH3 0x461BCD PUSH1 0xE5 SHL DUP2 MSTORE PUSH1 0x4 ADD PUSH2 0x409 SWAP1 PUSH2 0x3229 JUMP JUMPDEST PUSH2 0x808 PUSH2 0x2540 JUMP JUMPDEST PUSH1 0x0 SLOAD PUSH2 0x100 SWAP1 DIV PUSH1 0xFF AND PUSH2 0x808 JUMPI PUSH1 0x40 MLOAD PUSH3 0x461BCD PUSH1 0xE5 SHL DUP2 MSTORE PUSH1 0x4 ADD PUSH2 0x409 SWAP1 PUSH2 0x3229 JUMP JUMPDEST PUSH1 0x0 PUSH8 0xDE0B6B3A7640000 DUP3 PUSH1 0x1 PUSH1 0x1 PUSH1 0xA0 SHL SUB AND PUSH4 0x313CE567 PUSH1 0x40 MLOAD DUP2 PUSH4 0xFFFFFFFF AND PUSH1 0xE0 SHL DUP2 MSTORE PUSH1 0x4 ADD PUSH1 0x20 PUSH1 0x40 MLOAD DUP1 DUP4 SUB DUP2 DUP7 GAS STATICCALL ISZERO DUP1 ISZERO PUSH2 0x16E9 JUMPI RETURNDATASIZE PUSH1 0x0 DUP1 RETURNDATACOPY RETURNDATASIZE PUSH1 0x0 REVERT JUMPDEST POP POP POP POP PUSH1 0x40 MLOAD RETURNDATASIZE PUSH1 0x1F NOT PUSH1 0x1F DUP3 ADD AND DUP3 ADD DUP1 PUSH1 0x40 MSTORE POP DUP2 ADD SWAP1 PUSH2 0x170D SWAP2 SWAP1 PUSH2 0x31F3 JUMP JUMPDEST PUSH2 0x1718 SWAP1 PUSH1 0xA PUSH2 0x3358 JUMP JUMPDEST PUSH2 0x1722 SWAP1 DUP6 PUSH2 0x31AC JUMP JUMPDEST PUSH2 0x172C SWAP2 SWAP1 PUSH2 0x3367 JUMP JUMPDEST SWAP4 SWAP3 POP POP POP JUMP JUMPDEST DUP2 SLOAD PUSH1 0x1 PUSH1 0x1 PUSH1 0xA0 SHL SUB AND ISZERO DUP1 ISZERO PUSH2 0x1753 JUMPI POP PUSH1 0x1 PUSH1 0x1 PUSH1 0xA0 SHL SUB DUP2 AND ISZERO ISZERO JUMPDEST ISZERO PUSH2 0x575 JUMPI DUP2 SLOAD PUSH1 0x1 PUSH1 0x1 PUSH1 0xA0 SHL SUB NOT AND PUSH1 0x1 PUSH1 0x1 PUSH1 0xA0 SHL SUB DUP3 AND SWAP1 DUP2 OR DUP4 SSTORE PUSH1 0x40 MLOAD SWAP1 DUP2 MSTORE PUSH32 0x3B819CFB39116B78A5D1267E92AB85058E96D63A7882322D296AB4135720B79A SWAP1 PUSH1 0x20 ADD JUMPDEST PUSH1 0x40 MLOAD DUP1 SWAP2 SUB SWAP1 LOG1 POP POP JUMP JUMPDEST PUSH1 0x0 PUSH1 0xFC SLOAD PUSH1 0x1 PUSH2 0x17BC SWAP2 SWAP1 PUSH2 0x31E0 JUMP JUMPDEST SWAP1 POP SWAP1 JUMP JUMPDEST DUP2 SLOAD PUSH1 0x0 SWAP1 ISZERO PUSH2 0x181F JUMPI PUSH1 0x40 MLOAD PUSH3 0x461BCD PUSH1 0xE5 SHL DUP2 MSTORE PUSH1 0x20 PUSH1 0x4 DUP3 ADD MSTORE PUSH1 0x23 PUSH1 0x24 DUP3 ADD MSTORE PUSH32 0x5F757064617465496428293A20496420697320616C7265616479206372656174 PUSH1 0x44 DUP3 ADD MSTORE PUSH3 0x32B217 PUSH1 0xE9 SHL PUSH1 0x64 DUP3 ADD MSTORE PUSH1 0x84 ADD PUSH2 0x409 JUMP JUMPDEST PUSH1 0xFC DUP1 SLOAD SWAP1 PUSH1 0x0 PUSH2 0x182F DUP4 PUSH2 0x3389 JUMP JUMPDEST SWAP1 SWAP2 SSTORE POP POP PUSH1 0xFC SLOAD DUP1 DUP5 SSTORE PUSH1 0x1 DUP4 DUP2 ADD DUP1 SLOAD SWAP2 DUP3 ADD DUP2 SSTORE PUSH1 0x0 SWAP1 DUP2 MSTORE PUSH1 0x20 SWAP1 DUP2 SWAP1 KECCAK256 SWAP1 SWAP2 ADD DUP3 SWAP1 SSTORE DUP4 SLOAD PUSH1 0x40 DUP1 MLOAD PUSH1 0x1 PUSH1 0x1 PUSH1 0xA0 SHL SUB SWAP1 SWAP3 AND DUP3 MSTORE SWAP2 DUP2 ADD DUP4 SWAP1 MSTORE SWAP2 SWAP3 POP PUSH32 0x1EDFAF20EB0251DD2CA45E125C8B9A615022667B9822CF6A8DC1D2CE7E91EA68 SWAP2 ADD PUSH1 0x40 MLOAD DUP1 SWAP2 SUB SWAP1 LOG1 DUP2 SLOAD PUSH1 0x1 DUP5 ADD DUP1 SLOAD PUSH1 0x1 PUSH1 0x1 PUSH1 0xA0 SHL SUB NOT AND PUSH1 0x1 PUSH1 0x1 PUSH1 0xA0 SHL SUB SWAP3 DUP4 AND OR SWAP1 SSTORE DUP3 SLOAD PUSH1 0x40 DUP1 MLOAD SWAP2 SWAP1 SWAP3 AND DUP2 MSTORE PUSH1 0x20 DUP2 ADD DUP4 SWAP1 MSTORE PUSH32 0x4F3673673D1E6F88F67F26845B9609A7707201984D7885988D35AEDF43B9FE44 SWAP2 ADD PUSH1 0x40 MLOAD DUP1 SWAP2 SUB SWAP1 LOG1 SWAP3 SWAP2 POP POP JUMP JUMPDEST DUP1 SLOAD PUSH1 0x0 SWAP1 PUSH2 0x1919 PUSH1 0x65 SLOAD PUSH1 0x1 PUSH1 0x1 PUSH1 0xA0 SHL SUB AND SWAP1 JUMP JUMPDEST PUSH1 0x1 PUSH1 0x1 PUSH1 0xA0 SHL SUB AND CALLER PUSH1 0x1 PUSH1 0x1 PUSH1 0xA0 SHL SUB AND EQ PUSH2 0x1997 JUMPI DUP4 SLOAD PUSH1 0x0 SUB PUSH2 0x1997 JUMPI PUSH1 0x40 MLOAD PUSH3 0x461BCD PUSH1 0xE5 SHL DUP2 MSTORE PUSH1 0x20 PUSH1 0x4 DUP3 ADD MSTORE PUSH1 0x2C PUSH1 0x24 DUP3 ADD MSTORE PUSH32 0x5F616464526566657272657228293A2052656665727265204964206973206E6F PUSH1 0x44 DUP3 ADD MSTORE PUSH12 0x3A1030B1BA34BB30BA32B217 PUSH1 0xA1 SHL PUSH1 0x64 DUP3 ADD MSTORE PUSH1 0x84 ADD PUSH2 0x409 JUMP JUMPDEST DUP1 DUP5 PUSH1 0x2 ADD SLOAD SUB PUSH2 0x1A05 JUMPI PUSH1 0x40 MLOAD PUSH3 0x461BCD PUSH1 0xE5 SHL DUP2 MSTORE PUSH1 0x20 PUSH1 0x4 DUP3 ADD MSTORE PUSH1 0x32 PUSH1 0x24 DUP3 ADD MSTORE PUSH32 0x5F616464526566657272657228293A20526566657265652063616E6E6F742062 PUSH1 0x44 DUP3 ADD MSTORE PUSH18 0x32903932B332B93932B9103AB83634B73297 PUSH1 0x71 SHL PUSH1 0x64 DUP3 ADD MSTORE PUSH1 0x84 ADD PUSH2 0x409 JUMP JUMPDEST DUP1 ISZERO PUSH2 0x1A66 JUMPI PUSH1 0x40 MLOAD PUSH3 0x461BCD PUSH1 0xE5 SHL DUP2 MSTORE PUSH1 0x20 PUSH1 0x4 DUP3 ADD MSTORE PUSH1 0x2A PUSH1 0x24 DUP3 ADD MSTORE PUSH32 0x5F616464526566657272657228293A205573657220726566657272657220616C PUSH1 0x44 DUP3 ADD MSTORE PUSH10 0x3932B0B23C9039B2BA17 PUSH1 0xB1 SHL PUSH1 0x64 DUP3 ADD MSTORE PUSH1 0x84 ADD PUSH2 0x409 JUMP JUMPDEST PUSH1 0x40 DUP1 MLOAD PUSH2 0x140 DUP2 ADD DUP3 MSTORE DUP6 SLOAD DUP2 MSTORE PUSH1 0x1 DUP7 ADD SLOAD PUSH1 0x1 PUSH1 0x1 PUSH1 0xA0 SHL SUB AND PUSH1 0x20 DUP1 DUP4 ADD SWAP2 SWAP1 SWAP2 MSTORE PUSH1 0x2 DUP8 ADD SLOAD DUP3 DUP5 ADD MSTORE PUSH1 0x3 DUP8 ADD SLOAD PUSH1 0x60 DUP4 ADD MSTORE PUSH1 0x4 DUP8 ADD DUP1 SLOAD DUP5 MLOAD DUP2 DUP5 MUL DUP2 ADD DUP5 ADD SWAP1 SWAP6 MSTORE DUP1 DUP6 MSTORE PUSH2 0x1C49 SWAP5 DUP10 SWAP4 PUSH1 0x80 DUP7 ADD SWAP4 SWAP2 SWAP3 SWAP1 DUP4 ADD DUP3 DUP3 DUP1 ISZERO PUSH2 0x1AF1 JUMPI PUSH1 0x20 MUL DUP3 ADD SWAP2 SWAP1 PUSH1 0x0 MSTORE PUSH1 0x20 PUSH1 0x0 KECCAK256 SWAP1 JUMPDEST DUP2 SLOAD DUP2 MSTORE PUSH1 0x20 ADD SWAP1 PUSH1 0x1 ADD SWAP1 DUP1 DUP4 GT PUSH2 0x1ADD JUMPI JUMPDEST POP POP POP POP POP DUP2 MSTORE PUSH1 0x20 ADD PUSH1 0x5 DUP3 ADD DUP1 SLOAD DUP1 PUSH1 0x20 MUL PUSH1 0x20 ADD PUSH1 0x40 MLOAD SWAP1 DUP2 ADD PUSH1 0x40 MSTORE DUP1 SWAP3 SWAP2 SWAP1 DUP2 DUP2 MSTORE PUSH1 0x20 ADD PUSH1 0x0 SWAP1 JUMPDEST DUP3 DUP3 LT ISZERO PUSH2 0x1B65 JUMPI DUP4 DUP3 SWAP1 PUSH1 0x0 MSTORE PUSH1 0x20 PUSH1 0x0 KECCAK256 SWAP1 PUSH1 0x2 MUL ADD PUSH1 0x40 MLOAD DUP1 PUSH1 0x40 ADD PUSH1 0x40 MSTORE SWAP1 DUP2 PUSH1 0x0 DUP3 ADD SLOAD DUP2 MSTORE PUSH1 0x20 ADD PUSH1 0x1 DUP3 ADD SLOAD DUP2 MSTORE POP POP DUP2 MSTORE PUSH1 0x20 ADD SWAP1 PUSH1 0x1 ADD SWAP1 PUSH2 0x1B1F JUMP JUMPDEST POP POP POP POP DUP2 MSTORE PUSH1 0x20 ADD PUSH1 0x6 DUP3 ADD DUP1 SLOAD DUP1 PUSH1 0x20 MUL PUSH1 0x20 ADD PUSH1 0x40 MLOAD SWAP1 DUP2 ADD PUSH1 0x40 MSTORE DUP1 SWAP3 SWAP2 SWAP1 DUP2 DUP2 MSTORE PUSH1 0x20 ADD PUSH1 0x0 SWAP1 JUMPDEST DUP3 DUP3 LT ISZERO PUSH2 0x1BD8 JUMPI DUP4 DUP3 SWAP1 PUSH1 0x0 MSTORE PUSH1 0x20 PUSH1 0x0 KECCAK256 SWAP1 PUSH1 0x2 MUL ADD PUSH1 0x40 MLOAD DUP1 PUSH1 0x40 ADD PUSH1 0x40 MSTORE SWAP1 DUP2 PUSH1 0x0 DUP3 ADD SLOAD DUP2 MSTORE PUSH1 0x20 ADD PUSH1 0x1 DUP3 ADD SLOAD DUP2 MSTORE POP POP DUP2 MSTORE PUSH1 0x20 ADD SWAP1 PUSH1 0x1 ADD SWAP1 PUSH2 0x1B92 JUMP JUMPDEST POP POP POP SWAP1 DUP3 MSTORE POP PUSH1 0x40 DUP1 MLOAD PUSH1 0x60 DUP1 DUP3 ADD DUP4 MSTORE PUSH1 0x7 DUP6 ADD SLOAD DUP3 MSTORE PUSH1 0x8 DUP6 ADD SLOAD PUSH1 0x20 DUP4 DUP2 ADD SWAP2 SWAP1 SWAP2 MSTORE PUSH1 0x9 DUP7 ADD SLOAD DUP4 DUP6 ADD MSTORE DUP1 DUP6 ADD SWAP3 SWAP1 SWAP3 MSTORE DUP3 MLOAD DUP1 DUP3 ADD DUP5 MSTORE PUSH1 0xA DUP7 ADD SLOAD DUP2 MSTORE PUSH1 0xB DUP7 ADD SLOAD SWAP3 DUP2 ADD SWAP3 SWAP1 SWAP3 MSTORE PUSH1 0xC DUP6 ADD SLOAD DUP3 DUP5 ADD MSTORE SWAP2 DUP4 ADD MSTORE PUSH1 0xD SWAP1 SWAP3 ADD SLOAD PUSH1 0xFF AND ISZERO ISZERO SWAP2 ADD MSTORE PUSH2 0x2570 JUMP JUMPDEST PUSH2 0x1CB5 JUMPI DUP4 SLOAD PUSH1 0x2 DUP5 ADD DUP2 SWAP1 SSTORE PUSH1 0x3 DUP5 ADD SSTORE PUSH1 0x4 DUP5 ADD DUP1 SLOAD PUSH1 0x1 DUP2 ADD DUP3 SSTORE PUSH1 0x0 SWAP2 DUP3 MSTORE PUSH1 0x20 SWAP2 DUP3 SWAP1 KECCAK256 ADD DUP3 SWAP1 SSTORE DUP5 SLOAD PUSH1 0x40 DUP1 MLOAD SWAP2 DUP3 MSTORE SWAP2 DUP2 ADD DUP4 SWAP1 MSTORE PUSH32 0xE6B2C1CA4B33533EDDCCFDD2DD0FBE5FF44D75017001D4B2329B4DAEE1821436 SWAP2 ADD PUSH1 0x40 MLOAD DUP1 SWAP2 SUB SWAP1 LOG1 PUSH2 0x2018 JUMP JUMPDEST PUSH1 0xFD SLOAD PUSH2 0x1D10 JUMPI PUSH1 0x40 MLOAD PUSH3 0x461BCD PUSH1 0xE5 SHL DUP2 MSTORE PUSH1 0x20 PUSH1 0x4 DUP3 ADD MSTORE PUSH1 0x24 DUP1 DUP3 ADD MSTORE PUSH32 0x5F616464526566657272657228293A20476C6F62616C2069647320617265206F PUSH1 0x44 DUP3 ADD MSTORE PUSH4 0x3B32B917 PUSH1 0xE1 SHL PUSH1 0x64 DUP3 ADD MSTORE PUSH1 0x84 ADD PUSH2 0x409 JUMP JUMPDEST PUSH1 0x0 PUSH2 0x109 PUSH1 0x0 PUSH1 0xFD PUSH1 0x0 DUP2 SLOAD DUP2 LT PUSH2 0x1D2B JUMPI PUSH2 0x1D2B PUSH2 0x33A2 JUMP JUMPDEST PUSH1 0x0 SWAP2 DUP3 MSTORE PUSH1 0x20 DUP1 DUP4 KECCAK256 SWAP2 SWAP1 SWAP2 ADD SLOAD DUP4 MSTORE DUP3 DUP2 ADD SWAP4 SWAP1 SWAP4 MSTORE PUSH1 0x40 SWAP2 DUP3 ADD DUP2 KECCAK256 DUP1 SLOAD PUSH1 0x2 DUP10 DUP2 ADD SWAP2 SWAP1 SWAP2 SSTORE DUP10 SLOAD PUSH1 0x3 DUP11 ADD SSTORE DUP4 MLOAD DUP1 DUP6 ADD DUP6 MSTORE DUP8 DUP2 MSTORE DUP3 SLOAD DUP2 DUP8 ADD SWAP1 DUP2 MSTORE PUSH1 0x5 DUP13 ADD DUP1 SLOAD PUSH1 0x1 DUP1 DUP3 ADD DUP4 SSTORE SWAP2 DUP8 MSTORE SWAP6 DUP9 SWAP1 KECCAK256 SWAP3 MLOAD SWAP6 SWAP1 SWAP4 MUL SWAP1 SWAP2 ADD SWAP4 DUP5 SSTORE MLOAD SWAP3 ADD SWAP2 SWAP1 SWAP2 SSTORE DUP8 SLOAD DUP2 SLOAD DUP4 MLOAD SWAP2 DUP3 MSTORE SWAP4 DUP2 ADD SWAP4 SWAP1 SWAP4 MSTORE SWAP1 DUP3 ADD DUP5 SWAP1 MSTORE SWAP2 POP PUSH32 0x347A3B2FE969C7AB7C51C290DBCAE965D7B5A6B03D2B9336A480169D79A5F51F SWAP1 PUSH1 0x60 ADD PUSH1 0x40 MLOAD DUP1 SWAP2 SUB SWAP1 LOG1 PUSH1 0x4 DUP2 ADD DUP1 SLOAD PUSH1 0x1 DUP2 ADD DUP3 SSTORE PUSH1 0x0 SWAP2 DUP3 MSTORE PUSH1 0x20 SWAP2 DUP3 SWAP1 KECCAK256 ADD DUP4 SWAP1 SSTORE DUP2 SLOAD PUSH1 0x40 DUP1 MLOAD SWAP2 DUP3 MSTORE SWAP2 DUP2 ADD DUP5 SWAP1 MSTORE PUSH32 0xE6B2C1CA4B33533EDDCCFDD2DD0FBE5FF44D75017001D4B2329B4DAEE1821436 SWAP2 ADD PUSH1 0x40 MLOAD DUP1 SWAP2 SUB SWAP1 LOG1 PUSH1 0x40 DUP1 MLOAD PUSH2 0x140 DUP2 ADD DUP3 MSTORE DUP3 SLOAD DUP2 MSTORE PUSH1 0x1 DUP4 ADD SLOAD PUSH1 0x1 PUSH1 0x1 PUSH1 0xA0 SHL SUB AND PUSH1 0x20 DUP1 DUP4 ADD SWAP2 SWAP1 SWAP2 MSTORE PUSH1 0x2 DUP5 ADD SLOAD DUP3 DUP5 ADD MSTORE PUSH1 0x3 DUP5 ADD SLOAD PUSH1 0x60 DUP4 ADD MSTORE PUSH1 0x4 DUP5 ADD DUP1 SLOAD DUP5 MLOAD DUP2 DUP5 MUL DUP2 ADD DUP5 ADD SWAP1 SWAP6 MSTORE DUP1 DUP6 MSTORE PUSH2 0x2012 SWAP5 DUP7 SWAP4 PUSH1 0x80 DUP7 ADD SWAP4 SWAP2 SWAP3 SWAP1 DUP4 ADD DUP3 DUP3 DUP1 ISZERO PUSH2 0x1EBA JUMPI PUSH1 0x20 MUL DUP3 ADD SWAP2 SWAP1 PUSH1 0x0 MSTORE PUSH1 0x20 PUSH1 0x0 KECCAK256 SWAP1 JUMPDEST DUP2 SLOAD DUP2 MSTORE PUSH1 0x20 ADD SWAP1 PUSH1 0x1 ADD SWAP1 DUP1 DUP4 GT PUSH2 0x1EA6 JUMPI JUMPDEST POP POP POP POP POP DUP2 MSTORE PUSH1 0x20 ADD PUSH1 0x5 DUP3 ADD DUP1 SLOAD DUP1 PUSH1 0x20 MUL PUSH1 0x20 ADD PUSH1 0x40 MLOAD SWAP1 DUP2 ADD PUSH1 0x40 MSTORE DUP1 SWAP3 SWAP2 SWAP1 DUP2 DUP2 MSTORE PUSH1 0x20 ADD PUSH1 0x0 SWAP1 JUMPDEST DUP3 DUP3 LT ISZERO PUSH2 0x1F2E JUMPI DUP4 DUP3 SWAP1 PUSH1 0x0 MSTORE PUSH1 0x20 PUSH1 0x0 KECCAK256 SWAP1 PUSH1 0x2 MUL ADD PUSH1 0x40 MLOAD DUP1 PUSH1 0x40 ADD PUSH1 0x40 MSTORE SWAP1 DUP2 PUSH1 0x0 DUP3 ADD SLOAD DUP2 MSTORE PUSH1 0x20 ADD PUSH1 0x1 DUP3 ADD SLOAD DUP2 MSTORE POP POP DUP2 MSTORE PUSH1 0x20 ADD SWAP1 PUSH1 0x1 ADD SWAP1 PUSH2 0x1EE8 JUMP JUMPDEST POP POP POP POP DUP2 MSTORE PUSH1 0x20 ADD PUSH1 0x6 DUP3 ADD DUP1 SLOAD DUP1 PUSH1 0x20 MUL PUSH1 0x20 ADD PUSH1 0x40 MLOAD SWAP1 DUP2 ADD PUSH1 0x40 MSTORE DUP1 SWAP3 SWAP2 SWAP1 DUP2 DUP2 MSTORE PUSH1 0x20 ADD PUSH1 0x0 SWAP1 JUMPDEST DUP3 DUP3 LT ISZERO PUSH2 0x1FA1 JUMPI DUP4 DUP3 SWAP1 PUSH1 0x0 MSTORE PUSH1 0x20 PUSH1 0x0 KECCAK256 SWAP1 PUSH1 0x2 MUL ADD PUSH1 0x40 MLOAD DUP1 PUSH1 0x40 ADD PUSH1 0x40 MSTORE SWAP1 DUP2 PUSH1 0x0 DUP3 ADD SLOAD DUP2 MSTORE PUSH1 0x20 ADD PUSH1 0x1 DUP3 ADD SLOAD DUP2 MSTORE POP POP DUP2 MSTORE PUSH1 0x20 ADD SWAP1 PUSH1 0x1 ADD SWAP1 PUSH2 0x1F5B JUMP JUMPDEST POP POP POP SWAP1 DUP3 MSTORE POP PUSH1 0x40 DUP1 MLOAD PUSH1 0x60 DUP1 DUP3 ADD DUP4 MSTORE PUSH1 0x7 DUP6 ADD SLOAD DUP3 MSTORE PUSH1 0x8 DUP6 ADD SLOAD PUSH1 0x20 DUP4 DUP2 ADD SWAP2 SWAP1 SWAP2 MSTORE PUSH1 0x9 DUP7 ADD SLOAD DUP4 DUP6 ADD MSTORE DUP1 DUP6 ADD SWAP3 SWAP1 SWAP3 MSTORE DUP3 MLOAD DUP1 DUP3 ADD DUP5 MSTORE PUSH1 0xA DUP7 ADD SLOAD DUP2 MSTORE PUSH1 0xB DUP7 ADD SLOAD SWAP3 DUP2 ADD SWAP3 SWAP1 SWAP3 MSTORE PUSH1 0xC DUP6 ADD SLOAD DUP3 DUP5 ADD MSTORE SWAP2 DUP4 ADD MSTORE PUSH1 0xD SWAP1 SWAP3 ADD SLOAD PUSH1 0xFF AND ISZERO ISZERO SWAP2 ADD MSTORE PUSH2 0x2589 JUMP JUMPDEST PUSH1 0x1 SWAP3 POP POP JUMPDEST PUSH2 0x100 SLOAD PUSH1 0xFF AND PUSH1 0x0 JUMPDEST DUP2 DUP2 LT ISZERO PUSH2 0x20D1 JUMPI DUP5 SLOAD PUSH1 0x0 SWAP1 DUP2 MSTORE PUSH2 0x109 PUSH1 0x20 SWAP1 DUP2 MSTORE PUSH1 0x40 SWAP2 DUP3 SWAP1 KECCAK256 DUP3 MLOAD DUP1 DUP5 ADD SWAP1 SWAP4 MSTORE DUP6 DUP4 MSTORE SWAP2 PUSH1 0x6 DUP4 ADD SWAP2 DUP2 ADD PUSH2 0x205D DUP6 PUSH1 0x1 PUSH2 0x31E0 JUMP JUMPDEST SWAP1 MSTORE DUP2 SLOAD PUSH1 0x1 DUP1 DUP3 ADD DUP5 SSTORE PUSH1 0x0 SWAP4 DUP5 MSTORE PUSH1 0x20 SWAP4 DUP5 SWAP1 KECCAK256 DUP4 MLOAD PUSH1 0x2 SWAP1 SWAP4 MUL ADD SWAP2 DUP3 SSTORE SWAP2 DUP4 ADD MLOAD SWAP2 ADD SSTORE DUP2 SLOAD PUSH1 0x40 DUP1 MLOAD SWAP2 DUP3 MSTORE SWAP2 DUP2 ADD DUP7 SWAP1 MSTORE PUSH32 0x48E403AE2A509CD9336134C0899083BA110BF3A35566606ADD88A2066CCBAA1A SWAP2 ADD PUSH1 0x40 MLOAD DUP1 SWAP2 SUB SWAP1 LOG1 SWAP5 POP PUSH2 0x20CA DUP2 PUSH2 0x3389 JUMP JUMPDEST SWAP1 POP PUSH2 0x2022 JUMP JUMPDEST POP POP POP SWAP3 SWAP2 POP POP JUMP JUMPDEST DUP1 DUP3 PUSH1 0x7 ADD PUSH1 0x0 ADD PUSH1 0x0 DUP3 DUP3 SLOAD PUSH2 0x20F1 SWAP2 SWAP1 PUSH2 0x31E0 JUMP JUMPDEST SWAP1 SWAP2 SSTORE POP POP DUP2 SLOAD PUSH1 0x40 DUP1 MLOAD SWAP2 DUP3 MSTORE PUSH1 0x20 DUP3 ADD DUP4 SWAP1 MSTORE PUSH32 0x7BC272836D15A231DBCA2C8759D5BB751D4ECF39D918FEF56F6CC2FC3C2386B0 SWAP2 ADD PUSH2 0x179F JUMP JUMPDEST DUP4 SLOAD PUSH1 0x0 DUP4 ISZERO PUSH2 0x2152 JUMPI POP PUSH1 0x3 DUP6 ADD SLOAD PUSH1 0x0 SWAP1 DUP2 MSTORE PUSH2 0x109 PUSH1 0x20 MSTORE PUSH1 0x40 SWAP1 KECCAK256 PUSH2 0x2168 JUMP JUMPDEST POP PUSH1 0x2 DUP6 ADD SLOAD PUSH1 0x0 SWAP1 DUP2 MSTORE PUSH2 0x109 PUSH1 0x20 MSTORE PUSH1 0x40 SWAP1 KECCAK256 JUMPDEST DUP5 DUP2 PUSH1 0x7 ADD PUSH1 0x1 ADD PUSH1 0x0 DUP3 DUP3 SLOAD PUSH2 0x217F SWAP2 SWAP1 PUSH2 0x31E0 JUMP JUMPDEST SWAP1 SWAP2 SSTORE POP POP DUP1 SLOAD DUP7 SLOAD PUSH1 0x40 DUP1 MLOAD SWAP3 DUP4 MSTORE PUSH1 0x20 DUP4 ADD SWAP2 SWAP1 SWAP2 MSTORE DUP2 ADD DUP7 SWAP1 MSTORE PUSH32 0x57B50E0E70DAA32AC46409245990BB5A21B96DA6F9C1BCBBA5424AA58723907A SWAP1 PUSH1 0x60 ADD PUSH1 0x40 MLOAD DUP1 SWAP2 SUB SWAP1 LOG1 PUSH1 0x0 PUSH1 0xFE DUP1 SLOAD DUP1 PUSH1 0x20 MUL PUSH1 0x20 ADD PUSH1 0x40 MLOAD SWAP1 DUP2 ADD PUSH1 0x40 MSTORE DUP1 SWAP3 SWAP2 SWAP1 DUP2 DUP2 MSTORE PUSH1 0x20 ADD DUP3 DUP1 SLOAD DUP1 ISZERO PUSH2 0x2217 JUMPI PUSH1 0x20 MUL DUP3 ADD SWAP2 SWAP1 PUSH1 0x0 MSTORE PUSH1 0x20 PUSH1 0x0 KECCAK256 SWAP1 JUMPDEST DUP2 SLOAD DUP2 MSTORE PUSH1 0x20 ADD SWAP1 PUSH1 0x1 ADD SWAP1 DUP1 DUP4 GT PUSH2 0x2203 JUMPI JUMPDEST POP POP POP POP POP SWAP1 POP PUSH1 0x0 DUP1 JUMPDEST DUP3 MLOAD DUP2 LT ISZERO PUSH2 0x241A JUMPI PUSH1 0x2 DUP10 ADD SLOAD PUSH1 0x0 SWAP1 DUP2 MSTORE PUSH2 0x109 PUSH1 0x20 MSTORE PUSH1 0x40 DUP2 KECCAK256 SWAP5 POP DUP2 SWAP1 SUB PUSH2 0x2251 JUMPI PUSH2 0x2251 DUP5 PUSH2 0x260C JUMP JUMPDEST PUSH1 0x0 PUSH1 0x64 DUP5 DUP4 DUP2 MLOAD DUP2 LT PUSH2 0x2267 JUMPI PUSH2 0x2267 PUSH2 0x33A2 JUMP JUMPDEST PUSH1 0x20 MUL PUSH1 0x20 ADD ADD MLOAD DUP11 PUSH2 0x227A SWAP2 SWAP1 PUSH2 0x31AC JUMP JUMPDEST PUSH2 0x2284 SWAP2 SWAP1 PUSH2 0x3367 JUMP JUMPDEST PUSH1 0x1 DUP7 ADD SLOAD SWAP1 SWAP2 POP PUSH1 0x1 PUSH1 0x1 PUSH1 0xA0 SHL SUB DUP1 DUP10 AND SWAP2 PUSH4 0xA9059CBB SWAP2 AND PUSH2 0x22A9 DUP5 DUP12 PUSH2 0x16A0 JUMP JUMPDEST PUSH1 0x40 MLOAD PUSH1 0x1 PUSH1 0x1 PUSH1 0xE0 SHL SUB NOT PUSH1 0xE0 DUP6 SWAP1 SHL AND DUP2 MSTORE PUSH1 0x1 PUSH1 0x1 PUSH1 0xA0 SHL SUB SWAP1 SWAP3 AND PUSH1 0x4 DUP4 ADD MSTORE PUSH1 0x24 DUP3 ADD MSTORE PUSH1 0x44 ADD PUSH1 0x20 PUSH1 0x40 MLOAD DUP1 DUP4 SUB DUP2 PUSH1 0x0 DUP8 GAS CALL ISZERO DUP1 ISZERO PUSH2 0x22F4 JUMPI RETURNDATASIZE PUSH1 0x0 DUP1 RETURNDATACOPY RETURNDATASIZE PUSH1 0x0 REVERT JUMPDEST POP POP POP POP PUSH1 0x40 MLOAD RETURNDATASIZE PUSH1 0x1F NOT PUSH1 0x1F DUP3 ADD AND DUP3 ADD DUP1 PUSH1 0x40 MSTORE POP DUP2 ADD SWAP1 PUSH2 0x2318 SWAP2 SWAP1 PUSH2 0x31C3 JUMP JUMPDEST POP DUP5 SLOAD PUSH32 0xF4BFF7DDF097F430E0163107B212DDCCC7C9A80FF7D32462BE0C6F30BBBAD0DF SWAP1 DUP8 DUP4 PUSH2 0x234A DUP7 PUSH1 0x1 PUSH2 0x31E0 JUMP JUMPDEST PUSH1 0x40 DUP1 MLOAD SWAP5 DUP6 MSTORE PUSH1 0x20 DUP6 ADD SWAP4 SWAP1 SWAP4 MSTORE SWAP2 DUP4 ADD MSTORE PUSH1 0x60 DUP3 ADD MSTORE PUSH1 0x80 ADD PUSH1 0x40 MLOAD DUP1 SWAP2 SUB SWAP1 LOG1 PUSH2 0x2377 DUP2 DUP5 PUSH2 0x31E0 JUMP JUMPDEST SWAP3 POP DUP1 DUP6 PUSH1 0xA ADD PUSH1 0x0 ADD PUSH1 0x0 DUP3 DUP3 SLOAD PUSH2 0x2390 SWAP2 SWAP1 PUSH2 0x31E0 JUMP JUMPDEST SWAP1 SWAP2 SSTORE POP POP PUSH1 0x9 DUP6 ADD DUP1 SLOAD DUP11 SWAP2 SWAP1 PUSH1 0x0 SWAP1 PUSH2 0x23AC SWAP1 DUP5 SWAP1 PUSH2 0x31E0 JUMP JUMPDEST SWAP1 SWAP2 SSTORE POP POP DUP5 SLOAD PUSH32 0xE586F9A83F2FFED00511A0A180EBBE02001F778FC773252BD05A65BF364F74DB SWAP1 DUP8 DUP12 PUSH2 0x23E2 DUP7 PUSH1 0x1 PUSH2 0x31E0 JUMP JUMPDEST PUSH1 0x40 DUP1 MLOAD SWAP5 DUP6 MSTORE PUSH1 0x20 DUP6 ADD SWAP4 SWAP1 SWAP4 MSTORE SWAP2 DUP4 ADD MSTORE PUSH1 0x60 DUP3 ADD MSTORE PUSH1 0x80 ADD PUSH1 0x40 MLOAD DUP1 SWAP2 SUB SWAP1 LOG1 DUP5 SWAP10 POP POP DUP1 PUSH2 0x2413 SWAP1 PUSH2 0x3389 JUMP JUMPDEST SWAP1 POP PUSH2 0x2222 JUMP JUMPDEST POP PUSH2 0x2424 DUP6 PUSH2 0x2717 JUMP JUMPDEST DUP1 PUSH2 0x105 PUSH1 0x0 DUP3 DUP3 SLOAD PUSH2 0x2437 SWAP2 SWAP1 PUSH2 0x31E0 JUMP JUMPDEST SWAP1 SWAP2 SSTORE POP POP POP POP POP POP POP POP POP POP JUMP JUMPDEST PUSH1 0x1 PUSH1 0x1 PUSH1 0xA0 SHL SUB DUP2 AND EXTCODESIZE PUSH2 0x24B3 JUMPI PUSH1 0x40 MLOAD PUSH3 0x461BCD PUSH1 0xE5 SHL DUP2 MSTORE PUSH1 0x20 PUSH1 0x4 DUP3 ADD MSTORE PUSH1 0x2D PUSH1 0x24 DUP3 ADD MSTORE PUSH32 0x455243313936373A206E657720696D706C656D656E746174696F6E206973206E PUSH1 0x44 DUP3 ADD MSTORE PUSH13 0x1BDD08184818DBDB9D1C9858DD PUSH1 0x9A SHL PUSH1 0x64 DUP3 ADD MSTORE PUSH1 0x84 ADD PUSH2 0x409 JUMP JUMPDEST PUSH1 0x0 DUP1 MLOAD PUSH1 0x20 PUSH2 0x348D DUP4 CODECOPY DUP2 MLOAD SWAP2 MSTORE DUP1 SLOAD PUSH1 0x1 PUSH1 0x1 PUSH1 0xA0 SHL SUB NOT AND PUSH1 0x1 PUSH1 0x1 PUSH1 0xA0 SHL SUB SWAP3 SWAP1 SWAP3 AND SWAP2 SWAP1 SWAP2 OR SWAP1 SSTORE JUMP JUMPDEST PUSH2 0x24EB DUP4 PUSH2 0x29B9 JUMP JUMPDEST PUSH1 0x0 DUP3 MLOAD GT DUP1 PUSH2 0x24F8 JUMPI POP DUP1 JUMPDEST ISZERO PUSH2 0x1432 JUMPI PUSH2 0x2507 DUP4 DUP4 PUSH2 0x29F9 JUMP JUMPDEST POP POP POP POP JUMP JUMPDEST PUSH1 0x0 SLOAD PUSH2 0x100 SWAP1 DIV PUSH1 0xFF AND PUSH2 0x2534 JUMPI PUSH1 0x40 MLOAD PUSH3 0x461BCD PUSH1 0xE5 SHL DUP2 MSTORE PUSH1 0x4 ADD PUSH2 0x409 SWAP1 PUSH2 0x3229 JUMP JUMPDEST PUSH1 0x33 DUP1 SLOAD PUSH1 0xFF NOT AND SWAP1 SSTORE JUMP JUMPDEST PUSH1 0x0 SLOAD PUSH2 0x100 SWAP1 DIV PUSH1 0xFF AND PUSH2 0x2567 JUMPI PUSH1 0x40 MLOAD PUSH3 0x461BCD PUSH1 0xE5 SHL DUP2 MSTORE PUSH1 0x4 ADD PUSH2 0x409 SWAP1 PUSH2 0x3229 JUMP JUMPDEST PUSH2 0x808 CALLER PUSH2 0x15C9 JUMP JUMPDEST PUSH1 0x0 PUSH1 0xFF SLOAD DUP3 PUSH1 0x80 ADD MLOAD MLOAD SUB PUSH2 0x2584 JUMPI POP PUSH1 0x1 JUMPDEST SWAP2 SWAP1 POP JUMP JUMPDEST PUSH2 0x2592 DUP2 PUSH2 0x2570 JUMP JUMPDEST ISZERO PUSH2 0x4A6 JUMPI PUSH1 0xFD DUP1 SLOAD PUSH2 0x25A7 SWAP1 PUSH1 0x1 SWAP1 PUSH2 0x33B8 JUMP JUMPDEST DUP2 SLOAD DUP2 LT PUSH2 0x25B7 JUMPI PUSH2 0x25B7 PUSH2 0x33A2 JUMP JUMPDEST SWAP1 PUSH1 0x0 MSTORE PUSH1 0x20 PUSH1 0x0 KECCAK256 ADD SLOAD PUSH1 0xFD PUSH1 0x0 DUP2 SLOAD DUP2 LT PUSH2 0x25D6 JUMPI PUSH2 0x25D6 PUSH2 0x33A2 JUMP JUMPDEST PUSH1 0x0 SWAP2 DUP3 MSTORE PUSH1 0x20 SWAP1 SWAP2 KECCAK256 ADD SSTORE PUSH1 0xFD DUP1 SLOAD DUP1 PUSH2 0x25F3 JUMPI PUSH2 0x25F3 PUSH2 0x33CB JUMP JUMPDEST PUSH1 0x1 SWAP1 SUB DUP2 DUP2 SWAP1 PUSH1 0x0 MSTORE PUSH1 0x20 PUSH1 0x0 KECCAK256 ADD PUSH1 0x0 SWAP1 SSTORE SWAP1 SSTORE POP JUMP JUMPDEST PUSH1 0xD DUP2 ADD SLOAD PUSH1 0xFF AND PUSH2 0x4A6 JUMPI PUSH2 0x10B PUSH1 0x20 MSTORE DUP1 SLOAD PUSH32 0x6E52E526D0A430C19B585340217228BC17D6C1FA1E249CF1B148E60115AB6322 DUP1 SLOAD PUSH1 0x1 DUP2 ADD DUP3 SSTORE PUSH1 0x0 SWAP2 DUP3 MSTORE PUSH32 0xCAC8872E54EA00258B0D3696790D7823213AF1134451FDE9E6AE74C1F21F001F ADD SWAP2 SWAP1 SWAP2 SSTORE PUSH32 0x6E52E526D0A430C19B585340217228BC17D6C1FA1E249CF1B148E60115AB6321 DUP1 SLOAD PUSH32 0x6E52E526D0A430C19B585340217228BC17D6C1FA1E249CF1B148E60115AB631D SWAP3 SWAP1 SWAP2 SWAP1 PUSH2 0x26C5 DUP4 PUSH2 0x3389 JUMP JUMPDEST SWAP1 SWAP2 SSTORE POP POP PUSH1 0xD DUP3 ADD DUP1 SLOAD PUSH1 0xFF NOT AND PUSH1 0x1 SWAP1 DUP2 OR SWAP1 SWAP2 SSTORE DUP3 SLOAD PUSH1 0x40 MLOAD PUSH32 0xDAE0BE714878398DF4BCE5E16513993CF11A07C4B626F7ACF376A79F71F721F8 SWAP3 PUSH2 0x179F SWAP3 DUP3 MSTORE PUSH1 0xFF AND PUSH1 0x20 DUP3 ADD MSTORE PUSH1 0x40 ADD SWAP1 JUMP JUMPDEST PUSH1 0x1 JUMPDEST PUSH1 0x14 DUP2 PUSH1 0xFF AND LT ISZERO PUSH2 0x575 JUMPI PUSH1 0xFF DUP1 DUP3 AND PUSH1 0x0 SWAP1 DUP2 MSTORE PUSH2 0x10B PUSH1 0x20 MSTORE PUSH1 0x40 DUP2 KECCAK256 DUP1 SLOAD SWAP1 SWAP3 AND SWAP1 SUB PUSH2 0x274A JUMPI POP POP POP JUMP JUMPDEST PUSH1 0x2 DUP2 ADD SLOAD PUSH1 0x4 DUP3 ADD SLOAD PUSH1 0xFF SWAP1 SWAP2 AND GT PUSH2 0x29A8 JUMPI PUSH1 0x0 PUSH2 0x10B DUP2 PUSH2 0x276F DUP6 PUSH1 0x1 PUSH2 0x33E1 JUMP JUMPDEST PUSH1 0xFF AND PUSH1 0xFF AND DUP2 MSTORE PUSH1 0x20 ADD SWAP1 DUP2 MSTORE PUSH1 0x20 ADD PUSH1 0x0 KECCAK256 SWAP1 POP DUP1 PUSH1 0x5 ADD DUP3 PUSH1 0x5 ADD DUP4 PUSH1 0x3 ADD SLOAD DUP2 SLOAD DUP2 LT PUSH2 0x27A2 JUMPI PUSH2 0x27A2 PUSH2 0x33A2 JUMP JUMPDEST PUSH1 0x0 SWAP2 DUP3 MSTORE PUSH1 0x20 DUP1 DUP4 KECCAK256 SWAP1 SWAP2 ADD SLOAD DUP4 SLOAD PUSH1 0x1 DUP2 ADD DUP6 SSTORE SWAP4 DUP4 MSTORE SWAP2 KECCAK256 SWAP1 SWAP2 ADD SSTORE PUSH1 0x3 DUP3 ADD SLOAD PUSH1 0x5 DUP4 ADD DUP1 SLOAD PUSH32 0xDAE0BE714878398DF4BCE5E16513993CF11A07C4B626F7ACF376A79F71F721F8 SWAP3 SWAP1 DUP2 LT PUSH2 0x27FD JUMPI PUSH2 0x27FD PUSH2 0x33A2 JUMP JUMPDEST SWAP1 PUSH1 0x0 MSTORE PUSH1 0x20 PUSH1 0x0 KECCAK256 ADD SLOAD DUP5 PUSH1 0x1 PUSH2 0x2815 SWAP2 SWAP1 PUSH2 0x33E1 JUMP JUMPDEST PUSH1 0x40 DUP1 MLOAD SWAP3 DUP4 MSTORE PUSH1 0xFF SWAP1 SWAP2 AND PUSH1 0x20 DUP4 ADD MSTORE ADD PUSH1 0x40 MLOAD DUP1 SWAP2 SUB SWAP1 LOG1 PUSH1 0x0 PUSH2 0x109 PUSH1 0x0 DUP5 PUSH1 0x5 ADD DUP6 PUSH1 0x3 ADD SLOAD DUP2 SLOAD DUP2 LT PUSH2 0x284F JUMPI PUSH2 0x284F PUSH2 0x33A2 JUMP JUMPDEST SWAP1 PUSH1 0x0 MSTORE PUSH1 0x20 PUSH1 0x0 KECCAK256 ADD SLOAD DUP2 MSTORE PUSH1 0x20 ADD SWAP1 DUP2 MSTORE PUSH1 0x20 ADD PUSH1 0x0 KECCAK256 SWAP1 POP DUP5 PUSH1 0x1 PUSH1 0x1 PUSH1 0xA0 SHL SUB AND PUSH4 0xA9059CBB DUP3 PUSH1 0x1 ADD PUSH1 0x0 SWAP1 SLOAD SWAP1 PUSH2 0x100 EXP SWAP1 DIV PUSH1 0x1 PUSH1 0x1 PUSH1 0xA0 SHL SUB AND PUSH2 0x289F DUP7 PUSH1 0x1 ADD SLOAD DUP10 PUSH2 0x16A0 JUMP JUMPDEST PUSH1 0x40 MLOAD PUSH1 0x1 PUSH1 0x1 PUSH1 0xE0 SHL SUB NOT PUSH1 0xE0 DUP6 SWAP1 SHL AND DUP2 MSTORE PUSH1 0x1 PUSH1 0x1 PUSH1 0xA0 SHL SUB SWAP1 SWAP3 AND PUSH1 0x4 DUP4 ADD MSTORE PUSH1 0x24 DUP3 ADD MSTORE PUSH1 0x44 ADD PUSH1 0x20 PUSH1 0x40 MLOAD DUP1 DUP4 SUB DUP2 PUSH1 0x0 DUP8 GAS CALL ISZERO DUP1 ISZERO PUSH2 0x28EA JUMPI RETURNDATASIZE PUSH1 0x0 DUP1 RETURNDATACOPY RETURNDATASIZE PUSH1 0x0 REVERT JUMPDEST POP POP POP POP PUSH1 0x40 MLOAD RETURNDATASIZE PUSH1 0x1F NOT PUSH1 0x1F DUP3 ADD AND DUP3 ADD DUP1 PUSH1 0x40 MSTORE POP DUP2 ADD SWAP1 PUSH2 0x290E SWAP2 SWAP1 PUSH2 0x31C3 JUMP JUMPDEST POP PUSH32 0x89B70F5F92B02D089769DEA775C6DCE9797EBFB25AE57BCFBAB1D88A31A67212 DUP4 PUSH1 0x5 ADD DUP5 PUSH1 0x3 ADD SLOAD DUP2 SLOAD DUP2 LT PUSH2 0x2949 JUMPI PUSH2 0x2949 PUSH2 0x33A2 JUMP JUMPDEST PUSH1 0x0 SWAP2 DUP3 MSTORE PUSH1 0x20 SWAP2 DUP3 SWAP1 KECCAK256 ADD SLOAD DUP6 SLOAD PUSH1 0x1 DUP8 ADD SLOAD PUSH1 0x40 DUP1 MLOAD SWAP4 DUP5 MSTORE PUSH1 0xFF SWAP1 SWAP3 AND SWAP4 DUP4 ADD SWAP4 SWAP1 SWAP4 MSTORE DUP2 ADD SWAP2 SWAP1 SWAP2 MSTORE PUSH1 0x60 ADD PUSH1 0x40 MLOAD DUP1 SWAP2 SUB SWAP1 LOG1 DUP3 PUSH1 0x1 ADD SLOAD DUP4 PUSH1 0x6 ADD PUSH1 0x0 DUP3 DUP3 SLOAD PUSH2 0x2999 SWAP2 SWAP1 PUSH2 0x31E0 JUMP JUMPDEST SWAP1 SWAP2 SSTORE POP POP PUSH1 0x0 PUSH1 0x4 DUP5 ADD SSTORE POP POP JUMPDEST POP PUSH2 0x29B2 DUP2 PUSH2 0x33FA JUMP JUMPDEST SWAP1 POP PUSH2 0x271A JUMP JUMPDEST PUSH2 0x29C2 DUP2 PUSH2 0x2446 JUMP JUMPDEST PUSH1 0x40 MLOAD PUSH1 0x1 PUSH1 0x1 PUSH1 0xA0 SHL SUB DUP3 AND SWAP1 PUSH32 0xBC7CD75A20EE27FD9ADEBAB32041F755214DBC6BFFA90CC0225B39DA2E5C2D3B SWAP1 PUSH1 0x0 SWAP1 LOG2 POP JUMP JUMPDEST PUSH1 0x60 PUSH1 0x1 PUSH1 0x1 PUSH1 0xA0 SHL SUB DUP4 AND EXTCODESIZE PUSH2 0x2A61 JUMPI PUSH1 0x40 MLOAD PUSH3 0x461BCD PUSH1 0xE5 SHL DUP2 MSTORE PUSH1 0x20 PUSH1 0x4 DUP3 ADD MSTORE PUSH1 0x26 PUSH1 0x24 DUP3 ADD MSTORE PUSH32 0x416464726573733A2064656C65676174652063616C6C20746F206E6F6E2D636F PUSH1 0x44 DUP3 ADD MSTORE PUSH6 0x1B9D1C9858DD PUSH1 0xD2 SHL PUSH1 0x64 DUP3 ADD MSTORE PUSH1 0x84 ADD PUSH2 0x409 JUMP JUMPDEST PUSH1 0x0 DUP1 DUP5 PUSH1 0x1 PUSH1 0x1 PUSH1 0xA0 SHL SUB AND DUP5 PUSH1 0x40 MLOAD PUSH2 0x2A7C SWAP2 SWAP1 PUSH2 0x343D JUMP JUMPDEST PUSH1 0x0 PUSH1 0x40 MLOAD DUP1 DUP4 SUB DUP2 DUP6 GAS DELEGATECALL SWAP2 POP POP RETURNDATASIZE DUP1 PUSH1 0x0 DUP2 EQ PUSH2 0x2AB7 JUMPI PUSH1 0x40 MLOAD SWAP2 POP PUSH1 0x1F NOT PUSH1 0x3F RETURNDATASIZE ADD AND DUP3 ADD PUSH1 0x40 MSTORE RETURNDATASIZE DUP3 MSTORE RETURNDATASIZE PUSH1 0x0 PUSH1 0x20 DUP5 ADD RETURNDATACOPY PUSH2 0x2ABC JUMP JUMPDEST PUSH1 0x60 SWAP2 POP JUMPDEST POP SWAP2 POP SWAP2 POP PUSH2 0x2AE4 DUP3 DUP3 PUSH1 0x40 MLOAD DUP1 PUSH1 0x60 ADD PUSH1 0x40 MSTORE DUP1 PUSH1 0x27 DUP2 MSTORE PUSH1 0x20 ADD PUSH2 0x34AD PUSH1 0x27 SWAP2 CODECOPY PUSH2 0x2AEF JUMP JUMPDEST SWAP3 POP POP POP JUMPDEST SWAP3 SWAP2 POP POP JUMP JUMPDEST PUSH1 0x60 DUP4 ISZERO PUSH2 0x2AFE JUMPI POP DUP2 PUSH2 0x172C JUMP JUMPDEST PUSH2 0x172C DUP4 DUP4 DUP2 MLOAD ISZERO PUSH2 0x2B13 JUMPI DUP2 MLOAD DUP1 DUP4 PUSH1 0x20 ADD REVERT JUMPDEST DUP1 PUSH1 0x40 MLOAD PUSH3 0x461BCD PUSH1 0xE5 SHL DUP2 MSTORE PUSH1 0x4 ADD PUSH2 0x409 SWAP2 SWAP1 PUSH2 0x3459 JUMP JUMPDEST DUP3 DUP1 SLOAD DUP3 DUP3 SSTORE SWAP1 PUSH1 0x0 MSTORE PUSH1 0x20 PUSH1 0x0 KECCAK256 SWAP1 DUP2 ADD SWAP3 DUP3 ISZERO PUSH2 0x2B6D JUMPI SWAP2 PUSH1 0x20 MUL DUP3 ADD JUMPDEST DUP3 DUP2 GT ISZERO PUSH2 0x2B6D JUMPI DUP3 MLOAD DUP3 SWAP1 PUSH1 0xFF AND SWAP1 SSTORE SWAP2 PUSH1 0x20 ADD SWAP2 SWAP1 PUSH1 0x1 ADD SWAP1 PUSH2 0x2B4D JUMP JUMPDEST POP PUSH2 0x2B79 SWAP3 SWAP2 POP PUSH2 0x2C1D JUMP JUMPDEST POP SWAP1 JUMP JUMPDEST PUSH1 0x40 MLOAD DUP1 PUSH2 0x140 ADD PUSH1 0x40 MSTORE DUP1 PUSH1 0x0 DUP2 MSTORE PUSH1 0x20 ADD PUSH1 0x0 PUSH1 0x1 PUSH1 0x1 PUSH1 0xA0 SHL SUB AND DUP2 MSTORE PUSH1 0x20 ADD PUSH1 0x0 DUP2 MSTORE PUSH1 0x20 ADD PUSH1 0x0 DUP2 MSTORE PUSH1 0x20 ADD PUSH1 0x60 DUP2 MSTORE PUSH1 0x20 ADD PUSH1 0x60 DUP2 MSTORE PUSH1 0x20 ADD PUSH1 0x60 DUP2 MSTORE PUSH1 0x20 ADD PUSH2 0x2BE7 PUSH1 0x40 MLOAD DUP1 PUSH1 0x60 ADD PUSH1 0x40 MSTORE DUP1 PUSH1 0x0 DUP2 MSTORE PUSH1 0x20 ADD PUSH1 0x0 DUP2 MSTORE PUSH1 0x20 ADD PUSH1 0x0 DUP2 MSTORE POP SWAP1 JUMP JUMPDEST DUP2 MSTORE PUSH1 0x20 ADD PUSH2 0x2C10 PUSH1 0x40 MLOAD DUP1 PUSH1 0x60 ADD PUSH1 0x40 MSTORE DUP1 PUSH1 0x0 DUP2 MSTORE PUSH1 0x20 ADD PUSH1 0x0 DUP2 MSTORE PUSH1 0x20 ADD PUSH1 0x0 DUP2 MSTORE POP SWAP1 JUMP JUMPDEST DUP2 MSTORE PUSH1 0x0 PUSH1 0x20 SWAP1 SWAP2 ADD MSTORE SWAP1 JUMP JUMPDEST JUMPDEST DUP1 DUP3 GT ISZERO PUSH2 0x2B79 JUMPI PUSH1 0x0 DUP2 SSTORE PUSH1 0x1 ADD PUSH2 0x2C1E JUMP JUMPDEST PUSH1 0x20 DUP1 DUP3 MSTORE DUP3 MLOAD DUP3 DUP3 ADD DUP2 SWAP1 MSTORE PUSH1 0x0 SWAP2 SWAP1 PUSH1 0x40 SWAP1 DUP2 DUP6 ADD SWAP1 DUP7 DUP5 ADD DUP6 JUMPDEST DUP3 DUP2 LT ISZERO PUSH2 0x2CA5 JUMPI DUP2 MLOAD DUP1 MLOAD PUSH1 0x1 PUSH1 0x1 PUSH1 0xA0 SHL SUB SWAP1 DUP2 AND DUP7 MSTORE DUP8 DUP3 ADD MLOAD DUP9 DUP8 ADD MSTORE DUP7 DUP3 ADD MLOAD ISZERO ISZERO DUP8 DUP8 ADD MSTORE PUSH1 0x60 DUP1 DUP4 ADD MLOAD SWAP1 SWAP2 AND SWAP1 DUP7 ADD MSTORE PUSH1 0x80 SWAP1 DUP2 ADD MLOAD ISZERO ISZERO SWAP1 DUP6 ADD MSTORE PUSH1 0xA0 SWAP1 SWAP4 ADD SWAP3 SWAP1 DUP6 ADD SWAP1 PUSH1 0x1 ADD PUSH2 0x2C4F JUMP JUMPDEST POP SWAP2 SWAP8 SWAP7 POP POP POP POP POP POP POP JUMP JUMPDEST DUP1 CALLDATALOAD PUSH1 0x1 PUSH1 0x1 PUSH1 0xA0 SHL SUB DUP2 AND DUP2 EQ PUSH2 0x2584 JUMPI PUSH1 0x0 DUP1 REVERT JUMPDEST PUSH1 0x0 PUSH1 0x20 DUP3 DUP5 SUB SLT ISZERO PUSH2 0x2CDB JUMPI PUSH1 0x0 DUP1 REVERT JUMPDEST PUSH2 0x172C DUP3 PUSH2 0x2CB2 JUMP JUMPDEST PUSH4 0x4E487B71 PUSH1 0xE0 SHL PUSH1 0x0 MSTORE PUSH1 0x41 PUSH1 0x4 MSTORE PUSH1 0x24 PUSH1 0x0 REVERT JUMPDEST PUSH1 0x0 DUP1 PUSH1 0x40 DUP4 DUP6 SUB SLT ISZERO PUSH2 0x2D0D JUMPI PUSH1 0x0 DUP1 REVERT JUMPDEST PUSH2 0x2D16 DUP4 PUSH2 0x2CB2 JUMP JUMPDEST SWAP2 POP PUSH1 0x20 DUP4 ADD CALLDATALOAD PUSH8 0xFFFFFFFFFFFFFFFF DUP1 DUP3 GT ISZERO PUSH2 0x2D33 JUMPI PUSH1 0x0 DUP1 REVERT JUMPDEST DUP2 DUP6 ADD SWAP2 POP DUP6 PUSH1 0x1F DUP4 ADD SLT PUSH2 0x2D47 JUMPI PUSH1 0x0 DUP1 REVERT JUMPDEST DUP2 CALLDATALOAD DUP2 DUP2 GT ISZERO PUSH2 0x2D59 JUMPI PUSH2 0x2D59 PUSH2 0x2CE4 JUMP JUMPDEST PUSH1 0x40 MLOAD PUSH1 0x1F DUP3 ADD PUSH1 0x1F NOT SWAP1 DUP2 AND PUSH1 0x3F ADD AND DUP2 ADD SWAP1 DUP4 DUP3 GT DUP2 DUP4 LT OR ISZERO PUSH2 0x2D81 JUMPI PUSH2 0x2D81 PUSH2 0x2CE4 JUMP JUMPDEST DUP2 PUSH1 0x40 MSTORE DUP3 DUP2 MSTORE DUP9 PUSH1 0x20 DUP5 DUP8 ADD ADD GT ISZERO PUSH2 0x2D9A JUMPI PUSH1 0x0 DUP1 REVERT JUMPDEST DUP3 PUSH1 0x20 DUP7 ADD PUSH1 0x20 DUP4 ADD CALLDATACOPY PUSH1 0x0 PUSH1 0x20 DUP5 DUP4 ADD ADD MSTORE DUP1 SWAP6 POP POP POP POP POP POP SWAP3 POP SWAP3 SWAP1 POP JUMP JUMPDEST DUP1 ISZERO ISZERO DUP2 EQ PUSH2 0x4A6 JUMPI PUSH1 0x0 DUP1 REVERT JUMPDEST PUSH1 0x0 DUP1 PUSH1 0x40 DUP4 DUP6 SUB SLT ISZERO PUSH2 0x2DDD JUMPI PUSH1 0x0 DUP1 REVERT JUMPDEST PUSH2 0x2DE6 DUP4 PUSH2 0x2CB2 JUMP JUMPDEST SWAP2 POP PUSH1 0x20 DUP4 ADD CALLDATALOAD PUSH2 0x2DF6 DUP2 PUSH2 0x2DBC JUMP JUMPDEST DUP1 SWAP2 POP POP SWAP3 POP SWAP3 SWAP1 POP JUMP JUMPDEST PUSH1 0xFF DUP2 AND DUP2 EQ PUSH2 0x4A6 JUMPI PUSH1 0x0 DUP1 REVERT JUMPDEST PUSH1 0x0 DUP1 PUSH1 0x0 PUSH1 0x60 DUP5 DUP7 SUB SLT ISZERO PUSH2 0x2E25 JUMPI PUSH1 0x0 DUP1 REVERT JUMPDEST DUP4 CALLDATALOAD PUSH2 0x2E30 DUP2 PUSH2 0x2E01 JUMP JUMPDEST SWAP3 POP PUSH1 0x20 DUP5 ADD CALLDATALOAD SWAP2 POP PUSH1 0x40 DUP5 ADD CALLDATALOAD PUSH2 0x2E47 DUP2 PUSH2 0x2E01 JUMP JUMPDEST DUP1 SWAP2 POP POP SWAP3 POP SWAP3 POP SWAP3 JUMP JUMPDEST PUSH1 0x0 DUP1 PUSH1 0x0 PUSH1 0x60 DUP5 DUP7 SUB SLT ISZERO PUSH2 0x2E67 JUMPI PUSH1 0x0 DUP1 REVERT JUMPDEST DUP4 CALLDATALOAD SWAP3 POP PUSH2 0x2E77 PUSH1 0x20 DUP6 ADD PUSH2 0x2CB2 JUMP JUMPDEST SWAP2 POP PUSH2 0x2E85 PUSH1 0x40 DUP6 ADD PUSH2 0x2CB2 JUMP JUMPDEST SWAP1 POP SWAP3 POP SWAP3 POP SWAP3 JUMP JUMPDEST PUSH1 0x0 PUSH1 0x20 DUP3 DUP5 SUB SLT ISZERO PUSH2 0x2EA0 JUMPI PUSH1 0x0 DUP1 REVERT JUMPDEST DUP2 CALLDATALOAD PUSH2 0x172C DUP2 PUSH2 0x2E01 JUMP JUMPDEST PUSH1 0x0 DUP2 MLOAD DUP1 DUP5 MSTORE PUSH1 0x20 DUP1 DUP6 ADD SWAP5 POP DUP1 DUP5 ADD PUSH1 0x0 JUMPDEST DUP4 DUP2 LT ISZERO PUSH2 0x2EDB JUMPI DUP2 MLOAD DUP8 MSTORE SWAP6 DUP3 ADD SWAP6 SWAP1 DUP3 ADD SWAP1 PUSH1 0x1 ADD PUSH2 0x2EBF JUMP JUMPDEST POP SWAP5 SWAP6 SWAP5 POP POP POP POP POP JUMP JUMPDEST PUSH1 0x20 DUP2 MSTORE PUSH1 0xFF DUP3 MLOAD AND PUSH1 0x20 DUP3 ADD MSTORE PUSH1 0x20 DUP3 ADD MLOAD PUSH1 0x40 DUP3 ADD MSTORE PUSH1 0xFF PUSH1 0x40 DUP4 ADD MLOAD AND PUSH1 0x60 DUP3 ADD MSTORE PUSH1 0x60 DUP3 ADD MLOAD PUSH1 0x80 DUP3 ADD MSTORE PUSH1 0x80 DUP3 ADD MLOAD PUSH1 0xA0 DUP3 ADD MSTORE PUSH1 0x0 PUSH1 0xA0 DUP4 ADD MLOAD PUSH1 0xE0 PUSH1 0xC0 DUP5 ADD MSTORE PUSH2 0x2F3B PUSH2 0x100 DUP5 ADD DUP3 PUSH2 0x2EAB JUMP JUMPDEST SWAP1 POP PUSH1 0xC0 DUP5 ADD MLOAD PUSH1 0xE0 DUP5 ADD MSTORE DUP1 SWAP2 POP POP SWAP3 SWAP2 POP POP JUMP JUMPDEST PUSH1 0x0 DUP1 PUSH1 0x0 PUSH1 0x60 DUP5 DUP7 SUB SLT ISZERO PUSH2 0x2F66 JUMPI PUSH1 0x0 DUP1 REVERT JUMPDEST PUSH2 0x2F6F DUP5 PUSH2 0x2CB2 JUMP JUMPDEST SWAP3 POP PUSH1 0x20 DUP5 ADD CALLDATALOAD PUSH2 0x2E77 DUP2 PUSH2 0x2DBC JUMP JUMPDEST PUSH1 0x20 DUP1 DUP3 MSTORE DUP3 MLOAD PUSH1 0x1 PUSH1 0x1 PUSH1 0xA0 SHL SUB AND DUP3 DUP3 ADD MSTORE DUP3 ADD MLOAD PUSH1 0x40 DUP1 DUP4 ADD MSTORE PUSH1 0x0 SWAP1 PUSH2 0x2FAC PUSH1 0x60 DUP5 ADD DUP3 PUSH2 0x2EAB JUMP JUMPDEST SWAP5 SWAP4 POP POP POP POP JUMP JUMPDEST PUSH1 0x0 PUSH1 0x20 DUP3 DUP5 SUB SLT ISZERO PUSH2 0x2FC6 JUMPI PUSH1 0x0 DUP1 REVERT JUMPDEST POP CALLDATALOAD SWAP2 SWAP1 POP JUMP JUMPDEST PUSH1 0x0 DUP2 MLOAD DUP1 DUP5 MSTORE PUSH1 0x20 DUP1 DUP6 ADD SWAP5 POP DUP1 DUP5 ADD PUSH1 0x0 JUMPDEST DUP4 DUP2 LT ISZERO PUSH2 0x2EDB JUMPI DUP2 MLOAD DUP1 MLOAD DUP9 MSTORE DUP4 ADD MLOAD DUP4 DUP9 ADD MSTORE PUSH1 0x40 SWAP1 SWAP7 ADD SWAP6 SWAP1 DUP3 ADD SWAP1 PUSH1 0x1 ADD PUSH2 0x2FE1 JUMP JUMPDEST PUSH1 0x20 DUP2 MSTORE DUP2 MLOAD PUSH1 0x20 DUP3 ADD MSTORE PUSH1 0x0 PUSH1 0x20 DUP4 ADD MLOAD PUSH2 0x302F PUSH1 0x40 DUP5 ADD DUP3 PUSH1 0x1 PUSH1 0x1 PUSH1 0xA0 SHL SUB AND SWAP1 MSTORE JUMP JUMPDEST POP PUSH1 0x40 DUP4 ADD MLOAD PUSH1 0x60 DUP4 ADD MSTORE PUSH1 0x60 DUP4 ADD MLOAD PUSH1 0x80 DUP4 ADD MSTORE PUSH1 0x80 DUP4 ADD MLOAD PUSH2 0x1C0 DUP1 PUSH1 0xA0 DUP6 ADD MSTORE PUSH2 0x3060 PUSH2 0x1E0 DUP6 ADD DUP4 PUSH2 0x2EAB JUMP JUMPDEST SWAP2 POP PUSH1 0xA0 DUP6 ADD MLOAD PUSH1 0x1F NOT DUP1 DUP7 DUP6 SUB ADD PUSH1 0xC0 DUP8 ADD MSTORE PUSH2 0x307E DUP5 DUP4 PUSH2 0x2FCD JUMP JUMPDEST SWAP4 POP PUSH1 0xC0 DUP8 ADD MLOAD SWAP2 POP DUP1 DUP7 DUP6 SUB ADD PUSH1 0xE0 DUP8 ADD MSTORE POP PUSH2 0x309C DUP4 DUP3 PUSH2 0x2FCD JUMP JUMPDEST SWAP3 POP POP PUSH1 0xE0 DUP6 ADD MLOAD PUSH2 0x100 PUSH2 0x30C7 DUP2 DUP8 ADD DUP4 DUP1 MLOAD DUP3 MSTORE PUSH1 0x20 DUP1 DUP3 ADD MLOAD SWAP1 DUP4 ADD MSTORE PUSH1 0x40 SWAP1 DUP2 ADD MLOAD SWAP2 ADD MSTORE JUMP JUMPDEST DUP7 ADD MLOAD DUP1 MLOAD PUSH2 0x160 DUP8 ADD MSTORE PUSH1 0x20 DUP2 ADD MLOAD PUSH2 0x180 DUP8 ADD MSTORE PUSH1 0x40 ADD MLOAD PUSH2 0x1A0 DUP7 ADD MSTORE POP PUSH2 0x120 SWAP1 SWAP5 ADD MLOAD ISZERO ISZERO SWAP4 SWAP1 SWAP3 ADD SWAP3 SWAP1 SWAP3 MSTORE SWAP2 SWAP1 POP JUMP JUMPDEST PUSH1 0x20 DUP1 DUP3 MSTORE PUSH1 0x2C SWAP1 DUP3 ADD MSTORE PUSH32 0x46756E6374696F6E206D7573742062652063616C6C6564207468726F75676820 PUSH1 0x40 DUP3 ADD MSTORE PUSH12 0x19195B1959D85D1958D85B1B PUSH1 0xA2 SHL PUSH1 0x60 DUP3 ADD MSTORE PUSH1 0x80 ADD SWAP1 JUMP JUMPDEST PUSH1 0x20 DUP1 DUP3 MSTORE PUSH1 0x2C SWAP1 DUP3 ADD MSTORE PUSH32 0x46756E6374696F6E206D7573742062652063616C6C6564207468726F75676820 PUSH1 0x40 DUP3 ADD MSTORE PUSH12 0x6163746976652070726F7879 PUSH1 0xA0 SHL PUSH1 0x60 DUP3 ADD MSTORE PUSH1 0x80 ADD SWAP1 JUMP JUMPDEST PUSH4 0x4E487B71 PUSH1 0xE0 SHL PUSH1 0x0 MSTORE PUSH1 0x11 PUSH1 0x4 MSTORE PUSH1 0x24 PUSH1 0x0 REVERT JUMPDEST DUP1 DUP3 MUL DUP2 ISZERO DUP3 DUP3 DIV DUP5 EQ OR PUSH2 0x2AE9 JUMPI PUSH2 0x2AE9 PUSH2 0x3196 JUMP JUMPDEST PUSH1 0x0 PUSH1 0x20 DUP3 DUP5 SUB SLT ISZERO PUSH2 0x31D5 JUMPI PUSH1 0x0 DUP1 REVERT JUMPDEST DUP2 MLOAD PUSH2 0x172C DUP2 PUSH2 0x2DBC JUMP JUMPDEST DUP1 DUP3 ADD DUP1 DUP3 GT ISZERO PUSH2 0x2AE9 JUMPI PUSH2 0x2AE9 PUSH2 0x3196 JUMP JUMPDEST PUSH1 0x0 PUSH1 0x20 DUP3 DUP5 SUB SLT ISZERO PUSH2 0x3205 JUMPI PUSH1 0x0 DUP1 REVERT JUMPDEST DUP2 MLOAD PUSH2 0x172C DUP2 PUSH2 0x2E01 JUMP JUMPDEST PUSH1 0x0 PUSH1 0x20 DUP3 DUP5 SUB SLT ISZERO PUSH2 0x3222 JUMPI PUSH1 0x0 DUP1 REVERT JUMPDEST POP MLOAD SWAP2 SWAP1 POP JUMP JUMPDEST PUSH1 0x20 DUP1 DUP3 MSTORE PUSH1 0x2B SWAP1 DUP3 ADD MSTORE PUSH32 0x496E697469616C697A61626C653A20636F6E7472616374206973206E6F742069 PUSH1 0x40 DUP3 ADD MSTORE PUSH11 0x6E697469616C697A696E67 PUSH1 0xA8 SHL PUSH1 0x60 DUP3 ADD MSTORE PUSH1 0x80 ADD SWAP1 JUMP JUMPDEST PUSH1 0x1 DUP2 DUP2 JUMPDEST DUP1 DUP6 GT ISZERO PUSH2 0x32AF JUMPI DUP2 PUSH1 0x0 NOT DIV DUP3 GT ISZERO PUSH2 0x3295 JUMPI PUSH2 0x3295 PUSH2 0x3196 JUMP JUMPDEST DUP1 DUP6 AND ISZERO PUSH2 0x32A2 JUMPI SWAP2 DUP2 MUL SWAP2 JUMPDEST SWAP4 DUP5 SHR SWAP4 SWAP1 DUP1 MUL SWAP1 PUSH2 0x3279 JUMP JUMPDEST POP SWAP3 POP SWAP3 SWAP1 POP JUMP JUMPDEST PUSH1 0x0 DUP3 PUSH2 0x32C6 JUMPI POP PUSH1 0x1 PUSH2 0x2AE9 JUMP JUMPDEST DUP2 PUSH2 0x32D3 JUMPI POP PUSH1 0x0 PUSH2 0x2AE9 JUMP JUMPDEST DUP2 PUSH1 0x1 DUP2 EQ PUSH2 0x32E9 JUMPI PUSH1 0x2 DUP2 EQ PUSH2 0x32F3 JUMPI PUSH2 0x330F JUMP JUMPDEST PUSH1 0x1 SWAP2 POP POP PUSH2 0x2AE9 JUMP JUMPDEST PUSH1 0xFF DUP5 GT ISZERO PUSH2 0x3304 JUMPI PUSH2 0x3304 PUSH2 0x3196 JUMP JUMPDEST POP POP PUSH1 0x1 DUP3 SHL PUSH2 0x2AE9 JUMP JUMPDEST POP PUSH1 0x20 DUP4 LT PUSH2 0x133 DUP4 LT AND PUSH1 0x4E DUP5 LT PUSH1 0xB DUP5 LT AND OR ISZERO PUSH2 0x3332 JUMPI POP DUP2 DUP2 EXP PUSH2 0x2AE9 JUMP JUMPDEST PUSH2 0x333C DUP4 DUP4 PUSH2 0x3274 JUMP JUMPDEST DUP1 PUSH1 0x0 NOT DIV DUP3 GT ISZERO PUSH2 0x3350 JUMPI PUSH2 0x3350 PUSH2 0x3196 JUMP JUMPDEST MUL SWAP4 SWAP3 POP POP POP JUMP JUMPDEST PUSH1 0x0 PUSH2 0x172C PUSH1 0xFF DUP5 AND DUP4 PUSH2 0x32B7 JUMP JUMPDEST PUSH1 0x0 DUP3 PUSH2 0x3384 JUMPI PUSH4 0x4E487B71 PUSH1 0xE0 SHL PUSH1 0x0 MSTORE PUSH1 0x12 PUSH1 0x4 MSTORE PUSH1 0x24 PUSH1 0x0 REVERT JUMPDEST POP DIV SWAP1 JUMP JUMPDEST PUSH1 0x0 PUSH1 0x1 DUP3 ADD PUSH2 0x339B JUMPI PUSH2 0x339B PUSH2 0x3196 JUMP JUMPDEST POP PUSH1 0x1 ADD SWAP1 JUMP JUMPDEST PUSH4 0x4E487B71 PUSH1 0xE0 SHL PUSH1 0x0 MSTORE PUSH1 0x32 PUSH1 0x4 MSTORE PUSH1 0x24 PUSH1 0x0 REVERT JUMPDEST DUP2 DUP2 SUB DUP2 DUP2 GT ISZERO PUSH2 0x2AE9 JUMPI PUSH2 0x2AE9 PUSH2 0x3196 JUMP JUMPDEST PUSH4 0x4E487B71 PUSH1 0xE0 SHL PUSH1 0x0 MSTORE PUSH1 0x31 PUSH1 0x4 MSTORE PUSH1 0x24 PUSH1 0x0 REVERT JUMPDEST PUSH1 0xFF DUP2 DUP2 AND DUP4 DUP3 AND ADD SWAP1 DUP2 GT ISZERO PUSH2 0x2AE9 JUMPI PUSH2 0x2AE9 PUSH2 0x3196 JUMP JUMPDEST PUSH1 0x0 PUSH1 0xFF DUP3 AND PUSH1 0xFF DUP2 SUB PUSH2 0x3410 JUMPI PUSH2 0x3410 PUSH2 0x3196 JUMP JUMPDEST PUSH1 0x1 ADD SWAP3 SWAP2 POP POP JUMP JUMPDEST PUSH1 0x0 JUMPDEST DUP4 DUP2 LT ISZERO PUSH2 0x3434 JUMPI DUP2 DUP2 ADD MLOAD DUP4 DUP3 ADD MSTORE PUSH1 0x20 ADD PUSH2 0x341C JUMP JUMPDEST POP POP PUSH1 0x0 SWAP2 ADD MSTORE JUMP JUMPDEST PUSH1 0x0 DUP3 MLOAD PUSH2 0x344F DUP2 DUP5 PUSH1 0x20 DUP8 ADD PUSH2 0x3419 JUMP JUMPDEST SWAP2 SWAP1 SWAP2 ADD SWAP3 SWAP2 POP POP JUMP JUMPDEST PUSH1 0x20 DUP2 MSTORE PUSH1 0x0 DUP3 MLOAD DUP1 PUSH1 0x20 DUP5 ADD MSTORE PUSH2 0x3478 DUP2 PUSH1 0x40 DUP6 ADD PUSH1 0x20 DUP8 ADD PUSH2 0x3419 JUMP JUMPDEST PUSH1 0x1F ADD PUSH1 0x1F NOT AND SWAP2 SWAP1 SWAP2 ADD PUSH1 0x40 ADD SWAP3 SWAP2 POP POP JUMP INVALID CALLDATASIZE ADDMOD SWAP5 LOG1 EXTCODESIZE LOG1 LOG3 0x21 MOD PUSH8 0xC828492DB98DCA3E KECCAK256 PUSH23 0xCC3735A920A3CA505D382BBC416464726573733A206C6F PUSH24 0x2D6C6576656C2064656C65676174652063616C6C20666169 PUSH13 0x6564A26469706673582212205D 0xBF 0xC DUP6 EQ 0xE7 0xD1 SWAP16 PUSH29 0xEA36D267D6640AA5F5226E5BEFABC8ABD0399F4244E3E764736F6C6343 STOP ADDMOD SLT STOP CALLER "},"methodIdentifiers":{"addBaseCurrency(address,bool,address)":"f782abc7","getIdAccount(uint256)":"ff43599c","getPools(uint8)":"c48d8e02","getSupportedCurrencies()":"2ce75863","getUserAccount(address)":"fb47e016","initialize()":"8129fc1c","owner()":"8da5cb5b","paused()":"5c975abb","proxiableUUID()":"52d1902d","register(uint256,address,address)":"a73c50fa","removeBaseCurrency(address,bool)":"54f132e8","renounceOwnership()":"715018a6","setPools(uint8,uint256,uint8)":"5bc62ff8","transferOwnership(address)":"f2fde38b","upgradeTo(address)":"3659cfe6","upgradeToAndCall(address,bytes)":"4f1ef286"}},"storageLayout":{"storage":[{"astId":527,"contract":"contracts/GlobalFIUpgradeableNew.sol:GlobalFiUpgradeableNew","label":"_initialized","offset":0,"slot":"0","type":"t_uint8"},{"astId":530,"contract":"contracts/GlobalFIUpgradeableNew.sol:GlobalFiUpgradeableNew","label":"_initializing","offset":1,"slot":"0","type":"t_bool"},{"astId":1355,"contract":"contracts/GlobalFIUpgradeableNew.sol:GlobalFiUpgradeableNew","label":"__gap","offset":0,"slot":"1","type":"t_array(t_uint256)50_storage"},{"astId":846,"contract":"contracts/GlobalFIUpgradeableNew.sol:GlobalFiUpgradeableNew","label":"_paused","offset":0,"slot":"51","type":"t_bool"},{"astId":951,"contract":"contracts/GlobalFIUpgradeableNew.sol:GlobalFiUpgradeableNew","label":"__gap","offset":0,"slot":"52","type":"t_array(t_uint256)49_storage"},{"astId":10,"contract":"contracts/GlobalFIUpgradeableNew.sol:GlobalFiUpgradeableNew","label":"_owner","offset":0,"slot":"101","type":"t_address"},{"astId":130,"contract":"contracts/GlobalFIUpgradeableNew.sol:GlobalFiUpgradeableNew","label":"__gap","offset":0,"slot":"102","type":"t_array(t_uint256)49_storage"},{"astId":509,"contract":"contracts/GlobalFIUpgradeableNew.sol:GlobalFiUpgradeableNew","label":"__gap","offset":0,"slot":"151","type":"t_array(t_uint256)50_storage"},{"astId":824,"contract":"contracts/GlobalFIUpgradeableNew.sol:GlobalFiUpgradeableNew","label":"__gap","offset":0,"slot":"201","type":"t_array(t_uint256)50_storage"},{"astId":1544,"contract":"contracts/GlobalFIUpgradeableNew.sol:GlobalFiUpgradeableNew","label":"_users","offset":0,"slot":"251","type":"t_array(t_address)dyn_storage"},{"astId":1546,"contract":"contracts/GlobalFIUpgradeableNew.sol:GlobalFiUpgradeableNew","label":"_ids","offset":0,"slot":"252","type":"t_uint256"},{"astId":1549,"contract":"contracts/GlobalFIUpgradeableNew.sol:GlobalFiUpgradeableNew","label":"_nonGlobalIds","offset":0,"slot":"253","type":"t_array(t_uint256)dyn_storage"},{"astId":1552,"contract":"contracts/GlobalFIUpgradeableNew.sol:GlobalFiUpgradeableNew","label":"_levelRates","offset":0,"slot":"254","type":"t_array(t_uint256)dyn_storage"},{"astId":1554,"contract":"contracts/GlobalFIUpgradeableNew.sol:GlobalFiUpgradeableNew","label":"_maxRefereeLimit","offset":0,"slot":"255","type":"t_uint256"},{"astId":1556,"contract":"contracts/GlobalFIUpgradeableNew.sol:GlobalFiUpgradeableNew","label":"_teamLevelsToCount","offset":0,"slot":"256","type":"t_uint8"},{"astId":1558,"contract":"contracts/GlobalFIUpgradeableNew.sol:GlobalFiUpgradeableNew","label":"_registrationAmountInUSD","offset":0,"slot":"257","type":"t_uint256"},{"astId":1560,"contract":"contracts/GlobalFIUpgradeableNew.sol:GlobalFiUpgradeableNew","label":"_adminAddress","offset":0,"slot":"258","type":"t_address"},{"astId":1562,"contract":"contracts/GlobalFIUpgradeableNew.sol:GlobalFiUpgradeableNew","label":"_taxBeneficiaryAddress","offset":0,"slot":"259","type":"t_address"},{"astId":1564,"contract":"contracts/GlobalFIUpgradeableNew.sol:GlobalFiUpgradeableNew","label":"_taxPer","offset":0,"slot":"260","type":"t_uint256"},{"astId":1566,"contract":"contracts/GlobalFIUpgradeableNew.sol:GlobalFiUpgradeableNew","label":"_totalReferralPaid","offset":0,"slot":"261","type":"t_uint256"},{"astId":1568,"contract":"contracts/GlobalFIUpgradeableNew.sol:GlobalFiUpgradeableNew","label":"_totalValueRegistered","offset":0,"slot":"262","type":"t_uint256"},{"astId":1572,"contract":"contracts/GlobalFIUpgradeableNew.sol:GlobalFiUpgradeableNew","label":"_supportedTokensList","offset":0,"slot":"263","type":"t_array(t_struct(SupportedTokensStruct)1459_storage)dyn_storage"},{"astId":1577,"contract":"contracts/GlobalFIUpgradeableNew.sol:GlobalFiUpgradeableNew","label":"_mappingAccounts","offset":0,"slot":"264","type":"t_mapping(t_address,t_struct(AccountStruct)1489_storage)"},{"astId":1582,"contract":"contracts/GlobalFIUpgradeableNew.sol:GlobalFiUpgradeableNew","label":"_mappingIds","offset":0,"slot":"265","type":"t_mapping(t_uint256,t_struct(IdStruct)1517_storage)"},{"astId":1587,"contract":"contracts/GlobalFIUpgradeableNew.sol:GlobalFiUpgradeableNew","label":"_mappingSupportedToken","offset":0,"slot":"266","type":"t_mapping(t_address,t_struct(SupportedTokensStruct)1459_storage)"},{"astId":1592,"contract":"contracts/GlobalFIUpgradeableNew.sol:GlobalFiUpgradeableNew","label":"_mappingPools","offset":0,"slot":"267","type":"t_mapping(t_uint8,t_struct(PoolStruct)1533_storage)"}],"types":{"t_address":{"encoding":"inplace","label":"address","numberOfBytes":"20"},"t_array(t_address)dyn_storage":{"base":"t_address","encoding":"dynamic_array","label":"address[]","numberOfBytes":"32"},"t_array(t_struct(RefereeAssignedStruct)1483_storage)dyn_storage":{"base":"t_struct(RefereeAssignedStruct)1483_storage","encoding":"dynamic_array","label":"struct RefereeAssignedStruct[]","numberOfBytes":"32"},"t_array(t_struct(SupportedTokensStruct)1459_storage)dyn_storage":{"base":"t_struct(SupportedTokensStruct)1459_storage","encoding":"dynamic_array","label":"struct SupportedTokensStruct[]","numberOfBytes":"32"},"t_array(t_struct(TeamStruct)1464_storage)dyn_storage":{"base":"t_struct(TeamStruct)1464_storage","encoding":"dynamic_array","label":"struct TeamStruct[]","numberOfBytes":"32"},"t_array(t_uint256)49_storage":{"base":"t_uint256","encoding":"inplace","label":"uint256[49]","numberOfBytes":"1568"},"t_array(t_uint256)50_storage":{"base":"t_uint256","encoding":"inplace","label":"uint256[50]","numberOfBytes":"1600"},"t_array(t_uint256)dyn_storage":{"base":"t_uint256","encoding":"dynamic_array","label":"uint256[]","numberOfBytes":"32"},"t_bool":{"encoding":"inplace","label":"bool","numberOfBytes":"1"},"t_mapping(t_address,t_struct(AccountStruct)1489_storage)":{"encoding":"mapping","key":"t_address","label":"mapping(address => struct AccountStruct)","numberOfBytes":"32","value":"t_struct(AccountStruct)1489_storage"},"t_mapping(t_address,t_struct(SupportedTokensStruct)1459_storage)":{"encoding":"mapping","key":"t_address","label":"mapping(address => struct SupportedTokensStruct)","numberOfBytes":"32","value":"t_struct(SupportedTokensStruct)1459_storage"},"t_mapping(t_uint256,t_struct(IdStruct)1517_storage)":{"encoding":"mapping","key":"t_uint256","label":"mapping(uint256 => struct IdStruct)","numberOfBytes":"32","value":"t_struct(IdStruct)1517_storage"},"t_mapping(t_uint8,t_struct(PoolStruct)1533_storage)":{"encoding":"mapping","key":"t_uint8","label":"mapping(uint8 => struct PoolStruct)","numberOfBytes":"32","value":"t_struct(PoolStruct)1533_storage"},"t_struct(AccountStruct)1489_storage":{"encoding":"inplace","label":"struct AccountStruct","members":[{"astId":1485,"contract":"contracts/GlobalFIUpgradeableNew.sol:GlobalFiUpgradeableNew","label":"selfAddress","offset":0,"slot":"0","type":"t_address"},{"astId":1488,"contract":"contracts/GlobalFIUpgradeableNew.sol:GlobalFiUpgradeableNew","label":"ids","offset":0,"slot":"1","type":"t_array(t_uint256)dyn_storage"}],"numberOfBytes":"64"},"t_struct(BusinessStruct)1471_storage":{"encoding":"inplace","label":"struct BusinessStruct","members":[{"astId":1466,"contract":"contracts/GlobalFIUpgradeableNew.sol:GlobalFiUpgradeableNew","label":"selfBusiness","offset":0,"slot":"0","type":"t_uint256"},{"astId":1468,"contract":"contracts/GlobalFIUpgradeableNew.sol:GlobalFiUpgradeableNew","label":"directBusiness","offset":0,"slot":"1","type":"t_uint256"},{"astId":1470,"contract":"contracts/GlobalFIUpgradeableNew.sol:GlobalFiUpgradeableNew","label":"teamBusiness","offset":0,"slot":"2","type":"t_uint256"}],"numberOfBytes":"96"},"t_struct(IdStruct)1517_storage":{"encoding":"inplace","label":"struct IdStruct","members":[{"astId":1491,"contract":"contracts/GlobalFIUpgradeableNew.sol:GlobalFiUpgradeableNew","label":"id","offset":0,"slot":"0","type":"t_uint256"},{"astId":1493,"contract":"contracts/GlobalFIUpgradeableNew.sol:GlobalFiUpgradeableNew","label":"owner","offset":0,"slot":"1","type":"t_address"},{"astId":1495,"contract":"contracts/GlobalFIUpgradeableNew.sol:GlobalFiUpgradeableNew","label":"referrerId","offset":0,"slot":"2","type":"t_uint256"},{"astId":1497,"contract":"contracts/GlobalFIUpgradeableNew.sol:GlobalFiUpgradeableNew","label":"parentId","offset":0,"slot":"3","type":"t_uint256"},{"astId":1500,"contract":"contracts/GlobalFIUpgradeableNew.sol:GlobalFiUpgradeableNew","label":"refereeIds","offset":0,"slot":"4","type":"t_array(t_uint256)dyn_storage"},{"astId":1504,"contract":"contracts/GlobalFIUpgradeableNew.sol:GlobalFiUpgradeableNew","label":"refereesAssigned","offset":0,"slot":"5","type":"t_array(t_struct(RefereeAssignedStruct)1483_storage)dyn_storage"},{"astId":1508,"contract":"contracts/GlobalFIUpgradeableNew.sol:GlobalFiUpgradeableNew","label":"team","offset":0,"slot":"6","type":"t_array(t_struct(TeamStruct)1464_storage)dyn_storage"},{"astId":1511,"contract":"contracts/GlobalFIUpgradeableNew.sol:GlobalFiUpgradeableNew","label":"business","offset":0,"slot":"7","type":"t_struct(BusinessStruct)1471_storage"},{"astId":1514,"contract":"contracts/GlobalFIUpgradeableNew.sol:GlobalFiUpgradeableNew","label":"rewards","offset":0,"slot":"10","type":"t_struct(RewardsStruct)1478_storage"},{"astId":1516,"contract":"contracts/GlobalFIUpgradeableNew.sol:GlobalFiUpgradeableNew","label":"isInPool","offset":0,"slot":"13","type":"t_bool"}],"numberOfBytes":"448"},"t_struct(PoolStruct)1533_storage":{"encoding":"inplace","label":"struct PoolStruct","members":[{"astId":1519,"contract":"contracts/GlobalFIUpgradeableNew.sol:GlobalFiUpgradeableNew","label":"poolId","offset":0,"slot":"0","type":"t_uint8"},{"astId":1521,"contract":"contracts/GlobalFIUpgradeableNew.sol:GlobalFiUpgradeableNew","label":"rewardToDistribute","offset":0,"slot":"1","type":"t_uint256"},{"astId":1523,"contract":"contracts/GlobalFIUpgradeableNew.sol:GlobalFiUpgradeableNew","label":"minUserCounter","offset":0,"slot":"2","type":"t_uint8"},{"astId":1525,"contract":"contracts/GlobalFIUpgradeableNew.sol:GlobalFiUpgradeableNew","label":"userCountToUpgrade","offset":0,"slot":"3","type":"t_uint256"},{"astId":1527,"contract":"contracts/GlobalFIUpgradeableNew.sol:GlobalFiUpgradeableNew","label":"count","offset":0,"slot":"4","type":"t_uint256"},{"astId":1530,"contract":"contracts/GlobalFIUpgradeableNew.sol:GlobalFiUpgradeableNew","label":"userIds","offset":0,"slot":"5","type":"t_array(t_uint256)dyn_storage"},{"astId":1532,"contract":"contracts/GlobalFIUpgradeableNew.sol:GlobalFiUpgradeableNew","label":"totalRewardDistributed","offset":0,"slot":"6","type":"t_uint256"}],"numberOfBytes":"224"},"t_struct(RefereeAssignedStruct)1483_storage":{"encoding":"inplace","label":"struct RefereeAssignedStruct","members":[{"astId":1480,"contract":"contracts/GlobalFIUpgradeableNew.sol:GlobalFiUpgradeableNew","label":"refereeId","offset":0,"slot":"0","type":"t_uint256"},{"astId":1482,"contract":"contracts/GlobalFIUpgradeableNew.sol:GlobalFiUpgradeableNew","label":"assignedToid","offset":0,"slot":"1","type":"t_uint256"}],"numberOfBytes":"64"},"t_struct(RewardsStruct)1478_storage":{"encoding":"inplace","label":"struct RewardsStruct","members":[{"astId":1473,"contract":"contracts/GlobalFIUpgradeableNew.sol:GlobalFiUpgradeableNew","label":"referralRewards","offset":0,"slot":"0","type":"t_uint256"},{"astId":1475,"contract":"contracts/GlobalFIUpgradeableNew.sol:GlobalFiUpgradeableNew","label":"spillOverRewards","offset":0,"slot":"1","type":"t_uint256"},{"astId":1477,"contract":"contracts/GlobalFIUpgradeableNew.sol:GlobalFiUpgradeableNew","label":"globalRewards","offset":0,"slot":"2","type":"t_uint256"}],"numberOfBytes":"96"},"t_struct(SupportedTokensStruct)1459_storage":{"encoding":"inplace","label":"struct SupportedTokensStruct","members":[{"astId":1450,"contract":"contracts/GlobalFIUpgradeableNew.sol:GlobalFiUpgradeableNew","label":"contractAddress","offset":0,"slot":"0","type":"t_address"},{"astId":1452,"contract":"contracts/GlobalFIUpgradeableNew.sol:GlobalFiUpgradeableNew","label":"decimals","offset":0,"slot":"1","type":"t_uint256"},{"astId":1454,"contract":"contracts/GlobalFIUpgradeableNew.sol:GlobalFiUpgradeableNew","label":"isStable","offset":0,"slot":"2","type":"t_bool"},{"astId":1456,"contract":"contracts/GlobalFIUpgradeableNew.sol:GlobalFiUpgradeableNew","label":"aggregatorAddress","offset":1,"slot":"2","type":"t_address"},{"astId":1458,"contract":"contracts/GlobalFIUpgradeableNew.sol:GlobalFiUpgradeableNew","label":"isEnaled","offset":21,"slot":"2","type":"t_bool"}],"numberOfBytes":"96"},"t_struct(TeamStruct)1464_storage":{"encoding":"inplace","label":"struct TeamStruct","members":[{"astId":1461,"contract":"contracts/GlobalFIUpgradeableNew.sol:GlobalFiUpgradeableNew","label":"teamId","offset":0,"slot":"0","type":"t_uint256"},{"astId":1463,"contract":"contracts/GlobalFIUpgradeableNew.sol:GlobalFiUpgradeableNew","label":"teamLevel","offset":0,"slot":"1","type":"t_uint256"}],"numberOfBytes":"64"},"t_uint256":{"encoding":"inplace","label":"uint256","numberOfBytes":"32"},"t_uint8":{"encoding":"inplace","label":"uint8","numberOfBytes":"1"}}}}}}