{"contracts/GlobalFIUpgradeableNew.sol":{"GlobalFiUpgradeableNew":{"abi":[{"anonymous":false,"inputs":[{"indexed":false,"internalType":"address","name":"previousAdmin","type":"address"},{"indexed":false,"internalType":"address","name":"newAdmin","type":"address"}],"name":"AdminChanged","type":"event"},{"anonymous":false,"inputs":[{"indexed":true,"internalType":"address","name":"beacon","type":"address"}],"name":"BeaconUpgraded","type":"event"},{"anonymous":false,"inputs":[{"indexed":false,"internalType":"address","name":"userAddress","type":"address"},{"indexed":false,"internalType":"uint256","name":"id","type":"uint256"}],"name":"IdOwnerUpdated","type":"event"},{"anonymous":false,"inputs":[{"indexed":false,"internalType":"address","name":"userAddress","type":"address"},{"indexed":false,"internalType":"uint256","name":"id","type":"uint256"}],"name":"IdUpdated","type":"event"},{"anonymous":false,"inputs":[{"indexed":false,"internalType":"uint8","name":"version","type":"uint8"}],"name":"Initialized","type":"event"},{"anonymous":false,"inputs":[{"indexed":true,"internalType":"address","name":"previousOwner","type":"address"},{"indexed":true,"internalType":"address","name":"newOwner","type":"address"}],"name":"OwnershipTransferred","type":"event"},{"anonymous":false,"inputs":[{"indexed":false,"internalType":"address","name":"account","type":"address"}],"name":"Paused","type":"event"},{"anonymous":false,"inputs":[{"indexed":false,"internalType":"uint256","name":"parentId","type":"uint256"},{"indexed":false,"internalType":"uint256","name":"referrerId","type":"uint256"},{"indexed":false,"internalType":"uint256","name":"userId","type":"uint256"}],"name":"RefereeAssigned","type":"event"},{"anonymous":false,"inputs":[{"indexed":false,"internalType":"uint256","name":"referrerId","type":"uint256"},{"indexed":false,"internalType":"uint256","name":"userId","type":"uint256"}],"name":"ReferrerUpdated","type":"event"},{"anonymous":false,"inputs":[{"indexed":false,"internalType":"address","name":"newAddress","type":"address"}],"name":"SelfAddressUpdated","type":"event"},{"anonymous":false,"inputs":[{"indexed":false,"internalType":"address","name":"parent","type":"address"},{"indexed":false,"internalType":"address","name":"user","type":"address"}],"name":"TeamNonGlobaRemoved","type":"event"},{"anonymous":false,"inputs":[{"indexed":false,"internalType":"address","name":"parent","type":"address"},{"indexed":false,"internalType":"address","name":"user","type":"address"}],"name":"TeamNonGlobalAdded","type":"event"},{"anonymous":false,"inputs":[{"indexed":false,"internalType":"address","name":"parent","type":"address"},{"indexed":false,"internalType":"address","name":"user","type":"address"}],"name":"TeamUpdated","type":"event"},{"anonymous":false,"inputs":[{"indexed":false,"internalType":"address","name":"account","type":"address"}],"name":"Unpaused","type":"event"},{"anonymous":false,"inputs":[{"indexed":true,"internalType":"address","name":"implementation","type":"address"}],"name":"Upgraded","type":"event"},{"inputs":[{"internalType":"address","name":"_tokenContractAddress","type":"address"},{"internalType":"bool","name":"_isStable","type":"bool"},{"internalType":"address","name":"_aggregatorContractAddress","type":"address"}],"name":"addBaseCurrency","outputs":[],"stateMutability":"nonpayable","type":"function"},{"inputs":[{"internalType":"uint256","name":"_id","type":"uint256"}],"name":"getIdAccount","outputs":[{"components":[{"internalType":"uint256","name":"id","type":"uint256"},{"internalType":"address","name":"owner","type":"address"},{"internalType":"uint256","name":"referrerId","type":"uint256"},{"internalType":"uint256","name":"parentId","type":"uint256"},{"internalType":"uint256[]","name":"refereeIds","type":"uint256[]"},{"components":[{"internalType":"uint256","name":"refereeId","type":"uint256"},{"internalType":"uint256","name":"assignedToid","type":"uint256"}],"internalType":"struct RefereeAssignedStruct[]","name":"refereesAssigned","type":"tuple[]"},{"components":[{"internalType":"uint256","name":"teamId","type":"uint256"},{"internalType":"uint256","name":"teamLevel","type":"uint256"}],"internalType":"struct TeamStruct[]","name":"team","type":"tuple[]"},{"components":[{"internalType":"uint256","name":"selfBusiness","type":"uint256"},{"internalType":"uint256","name":"directBusiness","type":"uint256"},{"internalType":"uint256","name":"teamBusiness","type":"uint256"},{"internalType":"uint256","name":"spillOverBusiness","type":"uint256"}],"internalType":"struct BusinessStruct","name":"business","type":"tuple"},{"components":[{"internalType":"uint256","name":"referralRewards","type":"uint256"},{"internalType":"uint256","name":"spillOverRewards","type":"uint256"},{"internalType":"uint256","name":"globalRewards","type":"uint256"}],"internalType":"struct RewardsStruct","name":"rewards","type":"tuple"}],"internalType":"struct IdStruct","name":"","type":"tuple"}],"stateMutability":"view","type":"function"},{"inputs":[{"internalType":"address","name":"_userAddress","type":"address"}],"name":"getUserAccount","outputs":[{"components":[{"internalType":"address","name":"selfAddress","type":"address"},{"internalType":"uint256[]","name":"ids","type":"uint256[]"}],"internalType":"struct AccountStruct","name":"","type":"tuple"}],"stateMutability":"view","type":"function"},{"inputs":[],"name":"initialize","outputs":[],"stateMutability":"nonpayable","type":"function"},{"inputs":[],"name":"owner","outputs":[{"internalType":"address","name":"","type":"address"}],"stateMutability":"view","type":"function"},{"inputs":[],"name":"paused","outputs":[{"internalType":"bool","name":"","type":"bool"}],"stateMutability":"view","type":"function"},{"inputs":[],"name":"proxiableUUID","outputs":[{"internalType":"bytes32","name":"","type":"bytes32"}],"stateMutability":"view","type":"function"},{"inputs":[{"internalType":"uint256","name":"_referrerId","type":"uint256"},{"internalType":"address","name":"_userAddress","type":"address"},{"internalType":"address","name":"_tokenAddress","type":"address"}],"name":"register","outputs":[],"stateMutability":"nonpayable","type":"function"},{"inputs":[{"internalType":"address","name":"_tokenContractAddress","type":"address"},{"internalType":"bool","name":"_status","type":"bool"}],"name":"removeBaseCurrency","outputs":[],"stateMutability":"nonpayable","type":"function"},{"inputs":[],"name":"renounceOwnership","outputs":[],"stateMutability":"nonpayable","type":"function"},{"inputs":[{"internalType":"address","name":"newOwner","type":"address"}],"name":"transferOwnership","outputs":[],"stateMutability":"nonpayable","type":"function"},{"inputs":[{"internalType":"address","name":"newImplementation","type":"address"}],"name":"upgradeTo","outputs":[],"stateMutability":"nonpayable","type":"function"},{"inputs":[{"internalType":"address","name":"newImplementation","type":"address"},{"internalType":"bytes","name":"data","type":"bytes"}],"name":"upgradeToAndCall","outputs":[],"stateMutability":"payable","type":"function"}],"evm":{"bytecode":{"linkReferences":{},"object":"60a06040523060805234801561001457600080fd5b5060805161289b61004c6000396000818161027d015281816102c601528181610365015281816103a50152610438015261289b6000f3fe6080604052600436106100c25760003560e01c80638129fc1c1161007f578063f2fde38b11610059578063f2fde38b146101d9578063f782abc7146101f9578063fb47e01614610219578063ff43599c1461024657600080fd5b80638129fc1c1461017c5780638da5cb5b14610191578063a73c50fa146101b957600080fd5b80633659cfe6146100c75780634f1ef286146100e957806352d1902d146100fc57806354f132e8146101245780635c975abb14610144578063715018a614610167575b600080fd5b3480156100d357600080fd5b506100e76100e2366004612166565b610273565b005b6100e76100f7366004612197565b61035b565b34801561010857600080fd5b5061011161042b565b6040519081526020015b60405180910390f35b34801561013057600080fd5b506100e761013f366004612267565b6104de565b34801561015057600080fd5b5060335460ff16604051901515815260200161011b565b34801561017357600080fd5b506100e7610652565b34801561018857600080fd5b506100e7610666565b34801561019d57600080fd5b506065546040516001600160a01b03909116815260200161011b565b3480156101c557600080fd5b506100e76101d436600461229e565b6107dd565b3480156101e557600080fd5b506100e76101f4366004612166565b610b7f565b34801561020557600080fd5b506100e76102143660046122da565b610bf5565b34801561022557600080fd5b50610239610234366004612166565b610e88565b60405161011b9190612343565b34801561025257600080fd5b50610266610261366004612378565b610f26565b60405161011b91906123cc565b6001600160a01b037f00000000000000000000000000000000000000000000000000000000000000001630036102c45760405162461bcd60e51b81526004016102bb906124c2565b60405180910390fd5b7f00000000000000000000000000000000000000000000000000000000000000006001600160a01b031661030d60008051602061281f833981519152546001600160a01b031690565b6001600160a01b0316146103335760405162461bcd60e51b81526004016102bb9061250e565b61033c81611116565b604080516000808252602082019092526103589183919061111e565b50565b6001600160a01b037f00000000000000000000000000000000000000000000000000000000000000001630036103a35760405162461bcd60e51b81526004016102bb906124c2565b7f00000000000000000000000000000000000000000000000000000000000000006001600160a01b03166103ec60008051602061281f833981519152546001600160a01b031690565b6001600160a01b0316146104125760405162461bcd60e51b81526004016102bb9061250e565b61041b82611116565b6104278282600161111e565b5050565b6000306001600160a01b037f000000000000000000000000000000000000000000000000000000000000000016146104cb5760405162461bcd60e51b815260206004820152603860248201527f555550535570677261646561626c653a206d757374206e6f742062652063616c60448201527f6c6564207468726f7567682064656c656761746563616c6c000000000000000060648201526084016102bb565b5060008051602061281f83398151915290565b6104e661128e565b6001600160a01b03828116600090815261010860205260409020541661056b5760405162461bcd60e51b815260206004820152603460248201527f736574537570706f72746564546f6b656e53746174757328293a20546f6b656e6044820152731034b9903737ba1030b23232b21030b23232b21760611b60648201526084016102bb565b6001600160a01b03821660009081526101086020526040902060020154811515600160a81b90910460ff161515036106195760405162461bcd60e51b815260206004820152604560248201527f736574537570706f72746564546f6b656e53746174757328293a20546f6b656e60448201527f2073746174757320697320616c72656164792073616d65206173206d656e746960648201526437b732b21760d91b608482015260a4016102bb565b6001600160a01b039091166000908152610108602052604090206002018054911515600160a81b0260ff60a81b19909216919091179055565b61065a61128e565b61066460006112e8565b565b600054610100900460ff16158080156106865750600054600160ff909116105b806106a05750303b1580156106a0575060005460ff166001145b6107035760405162461bcd60e51b815260206004820152602e60248201527f496e697469616c697a61626c653a20636f6e747261637420697320616c72656160448201526d191e481a5b9a5d1a585b1a5e995960921b60648201526084016102bb565b6000805460ff191660011790558015610726576000805461ff0019166101001790555b600260ff556040805160208101909152603281526107489060fe90600161204b565b50610100805460ff1916601417905561010280546001600160a01b03191633179055678ac7230489e800006101015560056101045561078561133a565b61078d611369565b610795611398565b8015610358576000805461ff0019169055604051600181527f7f26b83ff96e1f2b6a682f133852f6798a09c465da95921460cefb38474024989060200160405180910390a150565b6001600160a01b038116600090815261010860205260409020600201543390600160a81b900460ff161561089d57816001600160a01b031663a9059cbb8261082861010154866113bf565b6040516001600160e01b031960e085901b1681526001600160a01b03909216600483015260248201526044016020604051808303816000875af1158015610873573d6000803e3d6000fd5b505050506040513d601f19601f82011682018060405250810190610897919061255a565b50610904565b60405162461bcd60e51b815260206004820152603660248201527f726567697374657228293a20426173652043757272656e6379206973206e6f746044820152751039bab83837b93a32b21037b91032b730b13632b21760511b60648201526084016102bb565b6000848152610107602090815260408083206001600160a01b03871684526101069092529091206109358186611452565b600061093f6114ca565b60008181526101076020526040902090915061095b81846114e0565b5060408051610120810182528254815260018301546001600160a01b031660208083019190915260028401548284015260038401546060830152600484018054845181840281018401909552808552610b6b94869360808601939192908301828280156109e757602002820191906000526020600020905b8154815260200190600101908083116109d3575b5050505050815260200160058201805480602002602001604051908101604052809291908181526020016000905b82821015610a5b57838290600052602060002090600202016040518060400160405290816000820154815260200160018201548152505081526020019060010190610a15565b50505050815260200160068201805480602002602001604051908101604052809291908181526020016000905b82821015610ace57838290600052602060002090600202016040518060400160405290816000820154815260200160018201548152505081526020019060010190610a88565b5050509082525060408051608081018252600784015481526008840154602082810191909152600985015482840152600a8501546060808401919091528185019290925282519182018352600b8501548252600c85015490820152600d909301548382015201525160fd80546001810182556000919091527f9346ac6dd7de6b96975fec380d4d994c4c12e6a8897544f22915316cc6cca2800155565b610b758482611621565b5050505050505050565b610b8761128e565b6001600160a01b038116610bec5760405162461bcd60e51b815260206004820152602660248201527f4f776e61626c653a206e6577206f776e657220697320746865207a65726f206160448201526564647265737360d01b60648201526084016102bb565b610358816112e8565b610bfd61128e565b6001600160a01b03838116600090815261010860205260409020541615610c825760405162461bcd60e51b815260206004820152603360248201527f70757368537570706f72746564546f6b656e546f4c69737428293a20546f6b65604482015272371034b99030b63932b0b23c9030b23232b21760691b60648201526084016102bb565b6040518060a00160405280846001600160a01b03168152602001846001600160a01b031663313ce5676040518163ffffffff1660e01b8152600401602060405180830381865afa158015610cda573d6000803e3d6000fd5b505050506040513d601f19601f82011682018060405250810190610cfe9190612577565b60ff90811682529315156020808301919091526001600160a01b039384166040808401919091526001606093840181905296851660009081526101088352818120855181549088166001600160a01b031991821617825593860151818a0190815592860151600282018054968801516080909801511515600160a81b90810260ff60a81b19998b16610100908102610100600160a81b031995151586166001600160a81b03199b8c1617178b1691909117835561010580549d8e01815590955292546003909b027ffc62abc8c0fc47c2d92f5aec99bf8b60f375828e14394d89345cae11a9867371810180549097169b8a169b909b1790955592547ffc62abc8c0fc47c2d92f5aec99bf8b60f375828e14394d89345cae11a98673728a015583547ffc62abc8c0fc47c2d92f5aec99bf8b60f375828e14394d89345cae11a98673739099018054998916151560ff198b1681178255855484900490981690920296909216979093169690961793909317808255925485900490931615159093029216919091179055565b6040805180820190915260008152606060208201526001600160a01b03808316600090815261010660209081526040918290208251808401845281549094168452600181018054845181850281018501909552808552919385840193909290830182828015610f1657602002820191906000526020600020905b815481526020019060010190808311610f02575b5050505050815250509050919050565b610f2e61209b565b600082815261010760209081526040918290208251610120810184528154815260018201546001600160a01b031681840152600282015481850152600382015460608201526004820180548551818602810186019096528086529194929360808601939290830182828015610fc257602002820191906000526020600020905b815481526020019060010190808311610fae575b5050505050815260200160058201805480602002602001604051908101604052809291908181526020016000905b8282101561103657838290600052602060002090600202016040518060400160405290816000820154815260200160018201548152505081526020019060010190610ff0565b50505050815260200160068201805480602002602001604051908101604052809291908181526020016000905b828210156110a957838290600052602060002090600202016040518060400160405290816000820154815260200160018201548152505081526020019060010190611063565b5050509082525060408051608081018252600784015481526008840154602082810191909152600985015482840152600a8501546060808401919091528185019290925282519182018352600b8501548252600c85015490820152600d9093015483820152015292915050565b61035861128e565b7f4910fdfa16fed3260ed0e7147f7cc6da11a60208b5b9406d12a635614ffd91435460ff16156111565761115183611d11565b505050565b826001600160a01b03166352d1902d6040518163ffffffff1660e01b8152600401602060405180830381865afa9250505080156111b0575060408051601f3d908101601f191682019092526111ad9181019061259a565b60015b6112135760405162461bcd60e51b815260206004820152602e60248201527f45524331393637557067726164653a206e657720696d706c656d656e7461746960448201526d6f6e206973206e6f74205555505360901b60648201526084016102bb565b60008051602061281f83398151915281146112825760405162461bcd60e51b815260206004820152602960248201527f45524331393637557067726164653a20756e737570706f727465642070726f786044820152681a58589b195555525160ba1b60648201526084016102bb565b50611151838383611dad565b6065546001600160a01b031633146106645760405162461bcd60e51b815260206004820181905260248201527f4f776e61626c653a2063616c6c6572206973206e6f7420746865206f776e657260448201526064016102bb565b606580546001600160a01b038381166001600160a01b0319831681179093556040519116919082907f8be0079c531659141344cd1fd0a4f28419497f9722a3daafe3b4186f6b6457e090600090a35050565b600054610100900460ff166113615760405162461bcd60e51b81526004016102bb906125b3565b610664611dd8565b600054610100900460ff166113905760405162461bcd60e51b81526004016102bb906125b3565b610664611e0b565b600054610100900460ff166106645760405162461bcd60e51b81526004016102bb906125b3565b6000670de0b6b3a7640000826001600160a01b031663313ce5676040518163ffffffff1660e01b8152600401602060405180830381865afa158015611408573d6000803e3d6000fd5b505050506040513d601f19601f8201168201806040525081019061142c9190612577565b61143790600a6126f8565b6114419085612707565b61144b919061271e565b9392505050565b81546001600160a01b031615801561147257506001600160a01b03811615155b156104275781546001600160a01b0319166001600160a01b03821690811783556040519081527f3b819cfb39116b78a5d1267e92ab85058e96d63a7882322d296ab4135720b79a906020015b60405180910390a15050565b600060fc5460016114db9190612740565b905090565b81546000901561153e5760405162461bcd60e51b815260206004820152602360248201527f5f757064617465496428293a20496420697320616c726561647920637265617460448201526232b21760e91b60648201526084016102bb565b60fc805490600061154e83612753565b909155505060fc5480845560018381018054918201815560009081526020908190209091018290558354604080516001600160a01b0390921682529181018390529192507f1edfaf20eb0251dd2ca45e125c8b9a615022667b9822cf6a8dc1d2ce7e91ea68910160405180910390a181546001840180546001600160a01b0319166001600160a01b03928316179055825460408051919092168152602081018390527f4f3673673d1e6f88f67f26845b9609a7707201984d7885988d35aedf43b9fe44910160405180910390a192915050565b6065546001600160a01b031633146116995781546000036116995760405162461bcd60e51b815260206004820152602c60248201527f5f616464526566657272657228293a2052656665727265204964206973206e6f60448201526b3a1030b1ba34bb30ba32b21760a11b60648201526084016102bb565b80546002830154036117085760405162461bcd60e51b815260206004820152603260248201527f5f616464526566657272657228293a20526566657265652063616e6e6f74206260448201527132903932b332b93932b9103ab83634b7329760711b60648201526084016102bb565b80541561176a5760405162461bcd60e51b815260206004820152602a60248201527f5f616464526566657272657228293a205573657220726566657272657220616c6044820152693932b0b23c9039b2ba1760b11b60648201526084016102bb565b60408051610120810182528354815260018401546001600160a01b03166020808301919091526002850154828401526003850154606083015260048501805484518184028101840190955280855261194894879360808601939192908301828280156117f557602002820191906000526020600020905b8154815260200190600101908083116117e1575b5050505050815260200160058201805480602002602001604051908101604052809291908181526020016000905b8282101561186957838290600052602060002090600202016040518060400160405290816000820154815260200160018201548152505081526020019060010190611823565b50505050815260200160068201805480602002602001604051908101604052809291908181526020016000905b828210156118dc57838290600052602060002090600202016040518060400160405290816000820154815260200160018201548152505081526020019060010190611896565b5050509082525060408051608081018252600784015481526008840154602082810191909152600985015482840152600a8501546060808401919091528185019290925282519182018352600b8501548252600c85015490820152600d90930154838201520152611e3b565b6119af5781546002820181905560038201558054600483018054600181018255600091825260209091200155815481546040517fe6b2c1ca4b33533eddccfdd2dd0fbe5ff44d75017001d4b2329b4daee1821436926114be92908252602082015260400190565b60fd54611a0a5760405162461bcd60e51b8152602060048201526024808201527f5f616464526566657272657228293a20476c6f62616c2069647320617265206f6044820152633b32b91760e11b60648201526084016102bb565b6000610107600060fd600081548110611a2557611a2561276c565b600091825260208083209190910154835282810193909352604091820181208054600287810191909155875460038801558351808501855287548152825481870190815260058a018054600180820183559187529588902092519590930290910193845551920191909155855481548654845192835294820152918201929092529091507f347a3b2fe969c7ab7c51c290dbcae965d7b5a6b03d2b9336a480169d79a5f51f9060600160405180910390a18154600482018054600181018255600091825260209091200155805482546040517fe6b2c1ca4b33533eddccfdd2dd0fbe5ff44d75017001d4b2329b4daee182143692611b2b92908252602082015260400190565b60405180910390a160408051610120810182528254815260018301546001600160a01b0316602080830191909152600284015482840152600384015460608301526004840180548451818402810184019095528085526111519486936080860193919290830182828015611bbe57602002820191906000526020600020905b815481526020019060010190808311611baa575b5050505050815260200160058201805480602002602001604051908101604052809291908181526020016000905b82821015611c3257838290600052602060002090600202016040518060400160405290816000820154815260200160018201548152505081526020019060010190611bec565b50505050815260200160068201805480602002602001604051908101604052809291908181526020016000905b82821015611ca557838290600052602060002090600202016040518060400160405290816000820154815260200160018201548152505081526020019060010190611c5f565b5050509082525060408051608081018252600784015481526008840154602082810191909152600985015482840152600a8501546060808401919091528185019290925282519182018352600b8501548252600c85015490820152600d90930154838201520152611e54565b6001600160a01b0381163b611d7e5760405162461bcd60e51b815260206004820152602d60248201527f455243313936373a206e657720696d706c656d656e746174696f6e206973206e60448201526c1bdd08184818dbdb9d1c9858dd609a1b60648201526084016102bb565b60008051602061281f83398151915280546001600160a01b0319166001600160a01b0392909216919091179055565b611db683611ed7565b600082511180611dc35750805b1561115157611dd28383611f17565b50505050565b600054610100900460ff16611dff5760405162461bcd60e51b81526004016102bb906125b3565b6033805460ff19169055565b600054610100900460ff16611e325760405162461bcd60e51b81526004016102bb906125b3565b610664336112e8565b600060ff5482608001515103611e4f575060015b919050565b611e5d81611e3b565b156103585760fd8054611e7290600190612782565b81548110611e8257611e8261276c565b906000526020600020015460fd600081548110611ea157611ea161276c565b60009182526020909120015560fd805480611ebe57611ebe612795565b6001900381819060005260206000200160009055905550565b611ee081611d11565b6040516001600160a01b038216907fbc7cd75a20ee27fd9adebab32041f755214dbc6bffa90cc0225b39da2e5c2d3b90600090a250565b60606001600160a01b0383163b611f7f5760405162461bcd60e51b815260206004820152602660248201527f416464726573733a2064656c65676174652063616c6c20746f206e6f6e2d636f6044820152651b9d1c9858dd60d21b60648201526084016102bb565b600080846001600160a01b031684604051611f9a91906127cf565b600060405180830381855af49150503d8060008114611fd5576040519150601f19603f3d011682016040523d82523d6000602084013e611fda565b606091505b5091509150612002828260405180606001604052806027815260200161283f6027913961200d565b925050505b92915050565b6060831561201c57508161144b565b61144b83838151156120315781518083602001fd5b8060405162461bcd60e51b81526004016102bb91906127eb565b82805482825590600052602060002090810192821561208b579160200282015b8281111561208b578251829060ff1690559160200191906001019061206b565b5061209792915061213a565b5090565b6040518061012001604052806000815260200160006001600160a01b03168152602001600081526020016000815260200160608152602001606081526020016060815260200161210c6040518060800160405280600081526020016000815260200160008152602001600081525090565b815260200161213560405180606001604052806000815260200160008152602001600081525090565b905290565b5b80821115612097576000815560010161213b565b80356001600160a01b0381168114611e4f57600080fd5b60006020828403121561217857600080fd5b61144b8261214f565b634e487b7160e01b600052604160045260246000fd5b600080604083850312156121aa57600080fd5b6121b38361214f565b9150602083013567ffffffffffffffff808211156121d057600080fd5b818501915085601f8301126121e457600080fd5b8135818111156121f6576121f6612181565b604051601f8201601f19908116603f0116810190838211818310171561221e5761221e612181565b8160405282815288602084870101111561223757600080fd5b8260208601602083013760006020848301015280955050505050509250929050565b801515811461035857600080fd5b6000806040838503121561227a57600080fd5b6122838361214f565b9150602083013561229381612259565b809150509250929050565b6000806000606084860312156122b357600080fd5b833592506122c36020850161214f565b91506122d16040850161214f565b90509250925092565b6000806000606084860312156122ef57600080fd5b6122f88461214f565b925060208401356122c381612259565b600081518084526020808501945080840160005b838110156123385781518752958201959082019060010161231c565b509495945050505050565b602080825282516001600160a01b0316828201528201516040808301526000906123706060840182612308565b949350505050565b60006020828403121561238a57600080fd5b5035919050565b600081518084526020808501945080840160005b838110156123385781518051885283015183880152604090960195908201906001016123a5565b6020815281516020820152600060208301516123f360408401826001600160a01b03169052565b50604083015160608301526060830151608083015260808301516101c060a08401526124236101e0840182612308565b905060a0840151601f19808584030160c08601526124418383612391565b925060c08601519150808584030160e08601525061245f8282612391565b91505060e084015161010061249781860183805182526020810151602083015260408101516040830152606081015160608301525050565b850151805161018086015260208101516101a086015260408101516101c08601529050509392505050565b6020808252602c908201527f46756e6374696f6e206d7573742062652063616c6c6564207468726f7567682060408201526b19195b1959d85d1958d85b1b60a21b606082015260800190565b6020808252602c908201527f46756e6374696f6e206d7573742062652063616c6c6564207468726f7567682060408201526b6163746976652070726f787960a01b606082015260800190565b60006020828403121561256c57600080fd5b815161144b81612259565b60006020828403121561258957600080fd5b815160ff8116811461144b57600080fd5b6000602082840312156125ac57600080fd5b5051919050565b6020808252602b908201527f496e697469616c697a61626c653a20636f6e7472616374206973206e6f74206960408201526a6e697469616c697a696e6760a81b606082015260800190565b634e487b7160e01b600052601160045260246000fd5b600181815b8085111561264f578160001904821115612635576126356125fe565b8085161561264257918102915b93841c9390800290612619565b509250929050565b60008261266657506001612007565b8161267357506000612007565b81600181146126895760028114612693576126af565b6001915050612007565b60ff8411156126a4576126a46125fe565b50506001821b612007565b5060208310610133831016604e8410600b84101617156126d2575081810a612007565b6126dc8383612614565b80600019048211156126f0576126f06125fe565b029392505050565b600061144b60ff841683612657565b8082028115828204841417612007576120076125fe565b60008261273b57634e487b7160e01b600052601260045260246000fd5b500490565b80820180821115612007576120076125fe565b600060018201612765576127656125fe565b5060010190565b634e487b7160e01b600052603260045260246000fd5b81810381811115612007576120076125fe565b634e487b7160e01b600052603160045260246000fd5b60005b838110156127c65781810151838201526020016127ae565b50506000910152565b600082516127e18184602087016127ab565b9190910192915050565b602081526000825180602084015261280a8160408501602087016127ab565b601f01601f1916919091016040019291505056fe360894a13ba1a3210667c828492db98dca3e2076cc3735a920a3ca505d382bbc416464726573733a206c6f772d6c6576656c2064656c65676174652063616c6c206661696c6564a2646970667358221220afd3d4a89a94d99b8140fb1a8633e75b06c9aaa86611618d3744be45771ec25b64736f6c63430008120033","opcodes":"PUSH1 0xA0 PUSH1 0x40 MSTORE ADDRESS PUSH1 0x80 MSTORE CALLVALUE DUP1 ISZERO PUSH2 0x14 JUMPI PUSH1 0x0 DUP1 REVERT JUMPDEST POP PUSH1 0x80 MLOAD PUSH2 0x289B PUSH2 0x4C PUSH1 0x0 CODECOPY PUSH1 0x0 DUP2 DUP2 PUSH2 0x27D ADD MSTORE DUP2 DUP2 PUSH2 0x2C6 ADD MSTORE DUP2 DUP2 PUSH2 0x365 ADD MSTORE DUP2 DUP2 PUSH2 0x3A5 ADD MSTORE PUSH2 0x438 ADD MSTORE PUSH2 0x289B PUSH1 0x0 RETURN INVALID PUSH1 0x80 PUSH1 0x40 MSTORE PUSH1 0x4 CALLDATASIZE LT PUSH2 0xC2 JUMPI PUSH1 0x0 CALLDATALOAD PUSH1 0xE0 SHR DUP1 PUSH4 0x8129FC1C GT PUSH2 0x7F JUMPI DUP1 PUSH4 0xF2FDE38B GT PUSH2 0x59 JUMPI DUP1 PUSH4 0xF2FDE38B EQ PUSH2 0x1D9 JUMPI DUP1 PUSH4 0xF782ABC7 EQ PUSH2 0x1F9 JUMPI DUP1 PUSH4 0xFB47E016 EQ PUSH2 0x219 JUMPI DUP1 PUSH4 0xFF43599C EQ PUSH2 0x246 JUMPI PUSH1 0x0 DUP1 REVERT JUMPDEST DUP1 PUSH4 0x8129FC1C EQ PUSH2 0x17C JUMPI DUP1 PUSH4 0x8DA5CB5B EQ PUSH2 0x191 JUMPI DUP1 PUSH4 0xA73C50FA EQ PUSH2 0x1B9 JUMPI PUSH1 0x0 DUP1 REVERT JUMPDEST DUP1 PUSH4 0x3659CFE6 EQ PUSH2 0xC7 JUMPI DUP1 PUSH4 0x4F1EF286 EQ PUSH2 0xE9 JUMPI DUP1 PUSH4 0x52D1902D EQ PUSH2 0xFC JUMPI DUP1 PUSH4 0x54F132E8 EQ PUSH2 0x124 JUMPI DUP1 PUSH4 0x5C975ABB EQ PUSH2 0x144 JUMPI DUP1 PUSH4 0x715018A6 EQ PUSH2 0x167 JUMPI JUMPDEST PUSH1 0x0 DUP1 REVERT JUMPDEST CALLVALUE DUP1 ISZERO PUSH2 0xD3 JUMPI PUSH1 0x0 DUP1 REVERT JUMPDEST POP PUSH2 0xE7 PUSH2 0xE2 CALLDATASIZE PUSH1 0x4 PUSH2 0x2166 JUMP JUMPDEST PUSH2 0x273 JUMP JUMPDEST STOP JUMPDEST PUSH2 0xE7 PUSH2 0xF7 CALLDATASIZE PUSH1 0x4 PUSH2 0x2197 JUMP JUMPDEST PUSH2 0x35B JUMP JUMPDEST CALLVALUE DUP1 ISZERO PUSH2 0x108 JUMPI PUSH1 0x0 DUP1 REVERT JUMPDEST POP PUSH2 0x111 PUSH2 0x42B JUMP JUMPDEST PUSH1 0x40 MLOAD SWAP1 DUP2 MSTORE PUSH1 0x20 ADD JUMPDEST PUSH1 0x40 MLOAD DUP1 SWAP2 SUB SWAP1 RETURN JUMPDEST CALLVALUE DUP1 ISZERO PUSH2 0x130 JUMPI PUSH1 0x0 DUP1 REVERT JUMPDEST POP PUSH2 0xE7 PUSH2 0x13F CALLDATASIZE PUSH1 0x4 PUSH2 0x2267 JUMP JUMPDEST PUSH2 0x4DE JUMP JUMPDEST CALLVALUE DUP1 ISZERO PUSH2 0x150 JUMPI PUSH1 0x0 DUP1 REVERT JUMPDEST POP PUSH1 0x33 SLOAD PUSH1 0xFF AND PUSH1 0x40 MLOAD SWAP1 ISZERO ISZERO DUP2 MSTORE PUSH1 0x20 ADD PUSH2 0x11B JUMP JUMPDEST CALLVALUE DUP1 ISZERO PUSH2 0x173 JUMPI PUSH1 0x0 DUP1 REVERT JUMPDEST POP PUSH2 0xE7 PUSH2 0x652 JUMP JUMPDEST CALLVALUE DUP1 ISZERO PUSH2 0x188 JUMPI PUSH1 0x0 DUP1 REVERT JUMPDEST POP PUSH2 0xE7 PUSH2 0x666 JUMP JUMPDEST CALLVALUE DUP1 ISZERO PUSH2 0x19D JUMPI PUSH1 0x0 DUP1 REVERT JUMPDEST POP PUSH1 0x65 SLOAD PUSH1 0x40 MLOAD PUSH1 0x1 PUSH1 0x1 PUSH1 0xA0 SHL SUB SWAP1 SWAP2 AND DUP2 MSTORE PUSH1 0x20 ADD PUSH2 0x11B JUMP JUMPDEST CALLVALUE DUP1 ISZERO PUSH2 0x1C5 JUMPI PUSH1 0x0 DUP1 REVERT JUMPDEST POP PUSH2 0xE7 PUSH2 0x1D4 CALLDATASIZE PUSH1 0x4 PUSH2 0x229E JUMP JUMPDEST PUSH2 0x7DD JUMP JUMPDEST CALLVALUE DUP1 ISZERO PUSH2 0x1E5 JUMPI PUSH1 0x0 DUP1 REVERT JUMPDEST POP PUSH2 0xE7 PUSH2 0x1F4 CALLDATASIZE PUSH1 0x4 PUSH2 0x2166 JUMP JUMPDEST PUSH2 0xB7F JUMP JUMPDEST CALLVALUE DUP1 ISZERO PUSH2 0x205 JUMPI PUSH1 0x0 DUP1 REVERT JUMPDEST POP PUSH2 0xE7 PUSH2 0x214 CALLDATASIZE PUSH1 0x4 PUSH2 0x22DA JUMP JUMPDEST PUSH2 0xBF5 JUMP JUMPDEST CALLVALUE DUP1 ISZERO PUSH2 0x225 JUMPI PUSH1 0x0 DUP1 REVERT JUMPDEST POP PUSH2 0x239 PUSH2 0x234 CALLDATASIZE PUSH1 0x4 PUSH2 0x2166 JUMP JUMPDEST PUSH2 0xE88 JUMP JUMPDEST PUSH1 0x40 MLOAD PUSH2 0x11B SWAP2 SWAP1 PUSH2 0x2343 JUMP JUMPDEST CALLVALUE DUP1 ISZERO PUSH2 0x252 JUMPI PUSH1 0x0 DUP1 REVERT JUMPDEST POP PUSH2 0x266 PUSH2 0x261 CALLDATASIZE PUSH1 0x4 PUSH2 0x2378 JUMP JUMPDEST PUSH2 0xF26 JUMP JUMPDEST PUSH1 0x40 MLOAD PUSH2 0x11B SWAP2 SWAP1 PUSH2 0x23CC JUMP JUMPDEST PUSH1 0x1 PUSH1 0x1 PUSH1 0xA0 SHL SUB PUSH32 0x0 AND ADDRESS SUB PUSH2 0x2C4 JUMPI PUSH1 0x40 MLOAD PUSH3 0x461BCD PUSH1 0xE5 SHL DUP2 MSTORE PUSH1 0x4 ADD PUSH2 0x2BB SWAP1 PUSH2 0x24C2 JUMP JUMPDEST PUSH1 0x40 MLOAD DUP1 SWAP2 SUB SWAP1 REVERT JUMPDEST PUSH32 0x0 PUSH1 0x1 PUSH1 0x1 PUSH1 0xA0 SHL SUB AND PUSH2 0x30D PUSH1 0x0 DUP1 MLOAD PUSH1 0x20 PUSH2 0x281F DUP4 CODECOPY DUP2 MLOAD SWAP2 MSTORE SLOAD PUSH1 0x1 PUSH1 0x1 PUSH1 0xA0 SHL SUB AND SWAP1 JUMP JUMPDEST PUSH1 0x1 PUSH1 0x1 PUSH1 0xA0 SHL SUB AND EQ PUSH2 0x333 JUMPI PUSH1 0x40 MLOAD PUSH3 0x461BCD PUSH1 0xE5 SHL DUP2 MSTORE PUSH1 0x4 ADD PUSH2 0x2BB SWAP1 PUSH2 0x250E JUMP JUMPDEST PUSH2 0x33C DUP2 PUSH2 0x1116 JUMP JUMPDEST PUSH1 0x40 DUP1 MLOAD PUSH1 0x0 DUP1 DUP3 MSTORE PUSH1 0x20 DUP3 ADD SWAP1 SWAP3 MSTORE PUSH2 0x358 SWAP2 DUP4 SWAP2 SWAP1 PUSH2 0x111E JUMP JUMPDEST POP JUMP JUMPDEST PUSH1 0x1 PUSH1 0x1 PUSH1 0xA0 SHL SUB PUSH32 0x0 AND ADDRESS SUB PUSH2 0x3A3 JUMPI PUSH1 0x40 MLOAD PUSH3 0x461BCD PUSH1 0xE5 SHL DUP2 MSTORE PUSH1 0x4 ADD PUSH2 0x2BB SWAP1 PUSH2 0x24C2 JUMP JUMPDEST PUSH32 0x0 PUSH1 0x1 PUSH1 0x1 PUSH1 0xA0 SHL SUB AND PUSH2 0x3EC PUSH1 0x0 DUP1 MLOAD PUSH1 0x20 PUSH2 0x281F DUP4 CODECOPY DUP2 MLOAD SWAP2 MSTORE SLOAD PUSH1 0x1 PUSH1 0x1 PUSH1 0xA0 SHL SUB AND SWAP1 JUMP JUMPDEST PUSH1 0x1 PUSH1 0x1 PUSH1 0xA0 SHL SUB AND EQ PUSH2 0x412 JUMPI PUSH1 0x40 MLOAD PUSH3 0x461BCD PUSH1 0xE5 SHL DUP2 MSTORE PUSH1 0x4 ADD PUSH2 0x2BB SWAP1 PUSH2 0x250E JUMP JUMPDEST PUSH2 0x41B DUP3 PUSH2 0x1116 JUMP JUMPDEST PUSH2 0x427 DUP3 DUP3 PUSH1 0x1 PUSH2 0x111E JUMP JUMPDEST POP POP JUMP JUMPDEST PUSH1 0x0 ADDRESS PUSH1 0x1 PUSH1 0x1 PUSH1 0xA0 SHL SUB PUSH32 0x0 AND EQ PUSH2 0x4CB JUMPI PUSH1 0x40 MLOAD PUSH3 0x461BCD PUSH1 0xE5 SHL DUP2 MSTORE PUSH1 0x20 PUSH1 0x4 DUP3 ADD MSTORE PUSH1 0x38 PUSH1 0x24 DUP3 ADD MSTORE PUSH32 0x555550535570677261646561626C653A206D757374206E6F742062652063616C PUSH1 0x44 DUP3 ADD MSTORE PUSH32 0x6C6564207468726F7567682064656C656761746563616C6C0000000000000000 PUSH1 0x64 DUP3 ADD MSTORE PUSH1 0x84 ADD PUSH2 0x2BB JUMP JUMPDEST POP PUSH1 0x0 DUP1 MLOAD PUSH1 0x20 PUSH2 0x281F DUP4 CODECOPY DUP2 MLOAD SWAP2 MSTORE SWAP1 JUMP JUMPDEST PUSH2 0x4E6 PUSH2 0x128E JUMP JUMPDEST PUSH1 0x1 PUSH1 0x1 PUSH1 0xA0 SHL SUB DUP3 DUP2 AND PUSH1 0x0 SWAP1 DUP2 MSTORE PUSH2 0x108 PUSH1 0x20 MSTORE PUSH1 0x40 SWAP1 KECCAK256 SLOAD AND PUSH2 0x56B JUMPI PUSH1 0x40 MLOAD PUSH3 0x461BCD PUSH1 0xE5 SHL DUP2 MSTORE PUSH1 0x20 PUSH1 0x4 DUP3 ADD MSTORE PUSH1 0x34 PUSH1 0x24 DUP3 ADD MSTORE PUSH32 0x736574537570706F72746564546F6B656E53746174757328293A20546F6B656E PUSH1 0x44 DUP3 ADD MSTORE PUSH20 0x1034B9903737BA1030B23232B21030B23232B217 PUSH1 0x61 SHL PUSH1 0x64 DUP3 ADD MSTORE PUSH1 0x84 ADD PUSH2 0x2BB JUMP JUMPDEST PUSH1 0x1 PUSH1 0x1 PUSH1 0xA0 SHL SUB DUP3 AND PUSH1 0x0 SWAP1 DUP2 MSTORE PUSH2 0x108 PUSH1 0x20 MSTORE PUSH1 0x40 SWAP1 KECCAK256 PUSH1 0x2 ADD SLOAD DUP2 ISZERO ISZERO PUSH1 0x1 PUSH1 0xA8 SHL SWAP1 SWAP2 DIV PUSH1 0xFF AND ISZERO ISZERO SUB PUSH2 0x619 JUMPI PUSH1 0x40 MLOAD PUSH3 0x461BCD PUSH1 0xE5 SHL DUP2 MSTORE PUSH1 0x20 PUSH1 0x4 DUP3 ADD MSTORE PUSH1 0x45 PUSH1 0x24 DUP3 ADD MSTORE PUSH32 0x736574537570706F72746564546F6B656E53746174757328293A20546F6B656E PUSH1 0x44 DUP3 ADD MSTORE PUSH32 0x2073746174757320697320616C72656164792073616D65206173206D656E7469 PUSH1 0x64 DUP3 ADD MSTORE PUSH5 0x37B732B217 PUSH1 0xD9 SHL PUSH1 0x84 DUP3 ADD MSTORE PUSH1 0xA4 ADD PUSH2 0x2BB JUMP JUMPDEST PUSH1 0x1 PUSH1 0x1 PUSH1 0xA0 SHL SUB SWAP1 SWAP2 AND PUSH1 0x0 SWAP1 DUP2 MSTORE PUSH2 0x108 PUSH1 0x20 MSTORE PUSH1 0x40 SWAP1 KECCAK256 PUSH1 0x2 ADD DUP1 SLOAD SWAP2 ISZERO ISZERO PUSH1 0x1 PUSH1 0xA8 SHL MUL PUSH1 0xFF PUSH1 0xA8 SHL NOT SWAP1 SWAP3 AND SWAP2 SWAP1 SWAP2 OR SWAP1 SSTORE JUMP JUMPDEST PUSH2 0x65A PUSH2 0x128E JUMP JUMPDEST PUSH2 0x664 PUSH1 0x0 PUSH2 0x12E8 JUMP JUMPDEST JUMP JUMPDEST PUSH1 0x0 SLOAD PUSH2 0x100 SWAP1 DIV PUSH1 0xFF AND ISZERO DUP1 DUP1 ISZERO PUSH2 0x686 JUMPI POP PUSH1 0x0 SLOAD PUSH1 0x1 PUSH1 0xFF SWAP1 SWAP2 AND LT JUMPDEST DUP1 PUSH2 0x6A0 JUMPI POP ADDRESS EXTCODESIZE ISZERO DUP1 ISZERO PUSH2 0x6A0 JUMPI POP PUSH1 0x0 SLOAD PUSH1 0xFF AND PUSH1 0x1 EQ JUMPDEST PUSH2 0x703 JUMPI PUSH1 0x40 MLOAD PUSH3 0x461BCD PUSH1 0xE5 SHL DUP2 MSTORE PUSH1 0x20 PUSH1 0x4 DUP3 ADD MSTORE PUSH1 0x2E PUSH1 0x24 DUP3 ADD MSTORE PUSH32 0x496E697469616C697A61626C653A20636F6E747261637420697320616C726561 PUSH1 0x44 DUP3 ADD MSTORE PUSH14 0x191E481A5B9A5D1A585B1A5E9959 PUSH1 0x92 SHL PUSH1 0x64 DUP3 ADD MSTORE PUSH1 0x84 ADD PUSH2 0x2BB JUMP JUMPDEST PUSH1 0x0 DUP1 SLOAD PUSH1 0xFF NOT AND PUSH1 0x1 OR SWAP1 SSTORE DUP1 ISZERO PUSH2 0x726 JUMPI PUSH1 0x0 DUP1 SLOAD PUSH2 0xFF00 NOT AND PUSH2 0x100 OR SWAP1 SSTORE JUMPDEST PUSH1 0x2 PUSH1 0xFF SSTORE PUSH1 0x40 DUP1 MLOAD PUSH1 0x20 DUP2 ADD SWAP1 SWAP2 MSTORE PUSH1 0x32 DUP2 MSTORE PUSH2 0x748 SWAP1 PUSH1 0xFE SWAP1 PUSH1 0x1 PUSH2 0x204B JUMP JUMPDEST POP PUSH2 0x100 DUP1 SLOAD PUSH1 0xFF NOT AND PUSH1 0x14 OR SWAP1 SSTORE PUSH2 0x102 DUP1 SLOAD PUSH1 0x1 PUSH1 0x1 PUSH1 0xA0 SHL SUB NOT AND CALLER OR SWAP1 SSTORE PUSH8 0x8AC7230489E80000 PUSH2 0x101 SSTORE PUSH1 0x5 PUSH2 0x104 SSTORE PUSH2 0x785 PUSH2 0x133A JUMP JUMPDEST PUSH2 0x78D PUSH2 0x1369 JUMP JUMPDEST PUSH2 0x795 PUSH2 0x1398 JUMP JUMPDEST DUP1 ISZERO PUSH2 0x358 JUMPI PUSH1 0x0 DUP1 SLOAD PUSH2 0xFF00 NOT AND SWAP1 SSTORE PUSH1 0x40 MLOAD PUSH1 0x1 DUP2 MSTORE PUSH32 0x7F26B83FF96E1F2B6A682F133852F6798A09C465DA95921460CEFB3847402498 SWAP1 PUSH1 0x20 ADD PUSH1 0x40 MLOAD DUP1 SWAP2 SUB SWAP1 LOG1 POP JUMP JUMPDEST PUSH1 0x1 PUSH1 0x1 PUSH1 0xA0 SHL SUB DUP2 AND PUSH1 0x0 SWAP1 DUP2 MSTORE PUSH2 0x108 PUSH1 0x20 MSTORE PUSH1 0x40 SWAP1 KECCAK256 PUSH1 0x2 ADD SLOAD CALLER SWAP1 PUSH1 0x1 PUSH1 0xA8 SHL SWAP1 DIV PUSH1 0xFF AND ISZERO PUSH2 0x89D JUMPI DUP2 PUSH1 0x1 PUSH1 0x1 PUSH1 0xA0 SHL SUB AND PUSH4 0xA9059CBB DUP3 PUSH2 0x828 PUSH2 0x101 SLOAD DUP7 PUSH2 0x13BF JUMP JUMPDEST PUSH1 0x40 MLOAD PUSH1 0x1 PUSH1 0x1 PUSH1 0xE0 SHL SUB NOT PUSH1 0xE0 DUP6 SWAP1 SHL AND DUP2 MSTORE PUSH1 0x1 PUSH1 0x1 PUSH1 0xA0 SHL SUB SWAP1 SWAP3 AND PUSH1 0x4 DUP4 ADD MSTORE PUSH1 0x24 DUP3 ADD MSTORE PUSH1 0x44 ADD PUSH1 0x20 PUSH1 0x40 MLOAD DUP1 DUP4 SUB DUP2 PUSH1 0x0 DUP8 GAS CALL ISZERO DUP1 ISZERO PUSH2 0x873 JUMPI RETURNDATASIZE PUSH1 0x0 DUP1 RETURNDATACOPY RETURNDATASIZE PUSH1 0x0 REVERT JUMPDEST POP POP POP POP PUSH1 0x40 MLOAD RETURNDATASIZE PUSH1 0x1F NOT PUSH1 0x1F DUP3 ADD AND DUP3 ADD DUP1 PUSH1 0x40 MSTORE POP DUP2 ADD SWAP1 PUSH2 0x897 SWAP2 SWAP1 PUSH2 0x255A JUMP JUMPDEST POP PUSH2 0x904 JUMP JUMPDEST PUSH1 0x40 MLOAD PUSH3 0x461BCD PUSH1 0xE5 SHL DUP2 MSTORE PUSH1 0x20 PUSH1 0x4 DUP3 ADD MSTORE PUSH1 0x36 PUSH1 0x24 DUP3 ADD MSTORE PUSH32 0x726567697374657228293A20426173652043757272656E6379206973206E6F74 PUSH1 0x44 DUP3 ADD MSTORE PUSH22 0x1039BAB83837B93A32B21037B91032B730B13632B217 PUSH1 0x51 SHL PUSH1 0x64 DUP3 ADD MSTORE PUSH1 0x84 ADD PUSH2 0x2BB JUMP JUMPDEST PUSH1 0x0 DUP5 DUP2 MSTORE PUSH2 0x107 PUSH1 0x20 SWAP1 DUP2 MSTORE PUSH1 0x40 DUP1 DUP4 KECCAK256 PUSH1 0x1 PUSH1 0x1 PUSH1 0xA0 SHL SUB DUP8 AND DUP5 MSTORE PUSH2 0x106 SWAP1 SWAP3 MSTORE SWAP1 SWAP2 KECCAK256 PUSH2 0x935 DUP2 DUP7 PUSH2 0x1452 JUMP JUMPDEST PUSH1 0x0 PUSH2 0x93F PUSH2 0x14CA JUMP JUMPDEST PUSH1 0x0 DUP2 DUP2 MSTORE PUSH2 0x107 PUSH1 0x20 MSTORE PUSH1 0x40 SWAP1 KECCAK256 SWAP1 SWAP2 POP PUSH2 0x95B DUP2 DUP5 PUSH2 0x14E0 JUMP JUMPDEST POP PUSH1 0x40 DUP1 MLOAD PUSH2 0x120 DUP2 ADD DUP3 MSTORE DUP3 SLOAD DUP2 MSTORE PUSH1 0x1 DUP4 ADD SLOAD PUSH1 0x1 PUSH1 0x1 PUSH1 0xA0 SHL SUB AND PUSH1 0x20 DUP1 DUP4 ADD SWAP2 SWAP1 SWAP2 MSTORE PUSH1 0x2 DUP5 ADD SLOAD DUP3 DUP5 ADD MSTORE PUSH1 0x3 DUP5 ADD SLOAD PUSH1 0x60 DUP4 ADD MSTORE PUSH1 0x4 DUP5 ADD DUP1 SLOAD DUP5 MLOAD DUP2 DUP5 MUL DUP2 ADD DUP5 ADD SWAP1 SWAP6 MSTORE DUP1 DUP6 MSTORE PUSH2 0xB6B SWAP5 DUP7 SWAP4 PUSH1 0x80 DUP7 ADD SWAP4 SWAP2 SWAP3 SWAP1 DUP4 ADD DUP3 DUP3 DUP1 ISZERO PUSH2 0x9E7 JUMPI PUSH1 0x20 MUL DUP3 ADD SWAP2 SWAP1 PUSH1 0x0 MSTORE PUSH1 0x20 PUSH1 0x0 KECCAK256 SWAP1 JUMPDEST DUP2 SLOAD DUP2 MSTORE PUSH1 0x20 ADD SWAP1 PUSH1 0x1 ADD SWAP1 DUP1 DUP4 GT PUSH2 0x9D3 JUMPI JUMPDEST POP POP POP POP POP DUP2 MSTORE PUSH1 0x20 ADD PUSH1 0x5 DUP3 ADD DUP1 SLOAD DUP1 PUSH1 0x20 MUL PUSH1 0x20 ADD PUSH1 0x40 MLOAD SWAP1 DUP2 ADD PUSH1 0x40 MSTORE DUP1 SWAP3 SWAP2 SWAP1 DUP2 DUP2 MSTORE PUSH1 0x20 ADD PUSH1 0x0 SWAP1 JUMPDEST DUP3 DUP3 LT ISZERO PUSH2 0xA5B JUMPI DUP4 DUP3 SWAP1 PUSH1 0x0 MSTORE PUSH1 0x20 PUSH1 0x0 KECCAK256 SWAP1 PUSH1 0x2 MUL ADD PUSH1 0x40 MLOAD DUP1 PUSH1 0x40 ADD PUSH1 0x40 MSTORE SWAP1 DUP2 PUSH1 0x0 DUP3 ADD SLOAD DUP2 MSTORE PUSH1 0x20 ADD PUSH1 0x1 DUP3 ADD SLOAD DUP2 MSTORE POP POP DUP2 MSTORE PUSH1 0x20 ADD SWAP1 PUSH1 0x1 ADD SWAP1 PUSH2 0xA15 JUMP JUMPDEST POP POP POP POP DUP2 MSTORE PUSH1 0x20 ADD PUSH1 0x6 DUP3 ADD DUP1 SLOAD DUP1 PUSH1 0x20 MUL PUSH1 0x20 ADD PUSH1 0x40 MLOAD SWAP1 DUP2 ADD PUSH1 0x40 MSTORE DUP1 SWAP3 SWAP2 SWAP1 DUP2 DUP2 MSTORE PUSH1 0x20 ADD PUSH1 0x0 SWAP1 JUMPDEST DUP3 DUP3 LT ISZERO PUSH2 0xACE JUMPI DUP4 DUP3 SWAP1 PUSH1 0x0 MSTORE PUSH1 0x20 PUSH1 0x0 KECCAK256 SWAP1 PUSH1 0x2 MUL ADD PUSH1 0x40 MLOAD DUP1 PUSH1 0x40 ADD PUSH1 0x40 MSTORE SWAP1 DUP2 PUSH1 0x0 DUP3 ADD SLOAD DUP2 MSTORE PUSH1 0x20 ADD PUSH1 0x1 DUP3 ADD SLOAD DUP2 MSTORE POP POP DUP2 MSTORE PUSH1 0x20 ADD SWAP1 PUSH1 0x1 ADD SWAP1 PUSH2 0xA88 JUMP JUMPDEST POP POP POP SWAP1 DUP3 MSTORE POP PUSH1 0x40 DUP1 MLOAD PUSH1 0x80 DUP2 ADD DUP3 MSTORE PUSH1 0x7 DUP5 ADD SLOAD DUP2 MSTORE PUSH1 0x8 DUP5 ADD SLOAD PUSH1 0x20 DUP3 DUP2 ADD SWAP2 SWAP1 SWAP2 MSTORE PUSH1 0x9 DUP6 ADD SLOAD DUP3 DUP5 ADD MSTORE PUSH1 0xA DUP6 ADD SLOAD PUSH1 0x60 DUP1 DUP5 ADD SWAP2 SWAP1 SWAP2 MSTORE DUP2 DUP6 ADD SWAP3 SWAP1 SWAP3 MSTORE DUP3 MLOAD SWAP2 DUP3 ADD DUP4 MSTORE PUSH1 0xB DUP6 ADD SLOAD DUP3 MSTORE PUSH1 0xC DUP6 ADD SLOAD SWAP1 DUP3 ADD MSTORE PUSH1 0xD SWAP1 SWAP4 ADD SLOAD DUP4 DUP3 ADD MSTORE ADD MSTORE MLOAD PUSH1 0xFD DUP1 SLOAD PUSH1 0x1 DUP2 ADD DUP3 SSTORE PUSH1 0x0 SWAP2 SWAP1 SWAP2 MSTORE PUSH32 0x9346AC6DD7DE6B96975FEC380D4D994C4C12E6A8897544F22915316CC6CCA280 ADD SSTORE JUMP JUMPDEST PUSH2 0xB75 DUP5 DUP3 PUSH2 0x1621 JUMP JUMPDEST POP POP POP POP POP POP POP POP JUMP JUMPDEST PUSH2 0xB87 PUSH2 0x128E JUMP JUMPDEST PUSH1 0x1 PUSH1 0x1 PUSH1 0xA0 SHL SUB DUP2 AND PUSH2 0xBEC JUMPI PUSH1 0x40 MLOAD PUSH3 0x461BCD PUSH1 0xE5 SHL DUP2 MSTORE PUSH1 0x20 PUSH1 0x4 DUP3 ADD MSTORE PUSH1 0x26 PUSH1 0x24 DUP3 ADD MSTORE PUSH32 0x4F776E61626C653A206E6577206F776E657220697320746865207A65726F2061 PUSH1 0x44 DUP3 ADD MSTORE PUSH6 0x646472657373 PUSH1 0xD0 SHL PUSH1 0x64 DUP3 ADD MSTORE PUSH1 0x84 ADD PUSH2 0x2BB JUMP JUMPDEST PUSH2 0x358 DUP2 PUSH2 0x12E8 JUMP JUMPDEST PUSH2 0xBFD PUSH2 0x128E JUMP JUMPDEST PUSH1 0x1 PUSH1 0x1 PUSH1 0xA0 SHL SUB DUP4 DUP2 AND PUSH1 0x0 SWAP1 DUP2 MSTORE PUSH2 0x108 PUSH1 0x20 MSTORE PUSH1 0x40 SWAP1 KECCAK256 SLOAD AND ISZERO PUSH2 0xC82 JUMPI PUSH1 0x40 MLOAD PUSH3 0x461BCD PUSH1 0xE5 SHL DUP2 MSTORE PUSH1 0x20 PUSH1 0x4 DUP3 ADD MSTORE PUSH1 0x33 PUSH1 0x24 DUP3 ADD MSTORE PUSH32 0x70757368537570706F72746564546F6B656E546F4C69737428293A20546F6B65 PUSH1 0x44 DUP3 ADD MSTORE PUSH19 0x371034B99030B63932B0B23C9030B23232B217 PUSH1 0x69 SHL PUSH1 0x64 DUP3 ADD MSTORE PUSH1 0x84 ADD PUSH2 0x2BB JUMP JUMPDEST PUSH1 0x40 MLOAD DUP1 PUSH1 0xA0 ADD PUSH1 0x40 MSTORE DUP1 DUP5 PUSH1 0x1 PUSH1 0x1 PUSH1 0xA0 SHL SUB AND DUP2 MSTORE PUSH1 0x20 ADD DUP5 PUSH1 0x1 PUSH1 0x1 PUSH1 0xA0 SHL SUB AND PUSH4 0x313CE567 PUSH1 0x40 MLOAD DUP2 PUSH4 0xFFFFFFFF AND PUSH1 0xE0 SHL DUP2 MSTORE PUSH1 0x4 ADD PUSH1 0x20 PUSH1 0x40 MLOAD DUP1 DUP4 SUB DUP2 DUP7 GAS STATICCALL ISZERO DUP1 ISZERO PUSH2 0xCDA JUMPI RETURNDATASIZE PUSH1 0x0 DUP1 RETURNDATACOPY RETURNDATASIZE PUSH1 0x0 REVERT JUMPDEST POP POP POP POP PUSH1 0x40 MLOAD RETURNDATASIZE PUSH1 0x1F NOT PUSH1 0x1F DUP3 ADD AND DUP3 ADD DUP1 PUSH1 0x40 MSTORE POP DUP2 ADD SWAP1 PUSH2 0xCFE SWAP2 SWAP1 PUSH2 0x2577 JUMP JUMPDEST PUSH1 0xFF SWAP1 DUP2 AND DUP3 MSTORE SWAP4 ISZERO ISZERO PUSH1 0x20 DUP1 DUP4 ADD SWAP2 SWAP1 SWAP2 MSTORE PUSH1 0x1 PUSH1 0x1 PUSH1 0xA0 SHL SUB SWAP4 DUP5 AND PUSH1 0x40 DUP1 DUP5 ADD SWAP2 SWAP1 SWAP2 MSTORE PUSH1 0x1 PUSH1 0x60 SWAP4 DUP5 ADD DUP2 SWAP1 MSTORE SWAP7 DUP6 AND PUSH1 0x0 SWAP1 DUP2 MSTORE PUSH2 0x108 DUP4 MSTORE DUP2 DUP2 KECCAK256 DUP6 MLOAD DUP2 SLOAD SWAP1 DUP9 AND PUSH1 0x1 PUSH1 0x1 PUSH1 0xA0 SHL SUB NOT SWAP2 DUP3 AND OR DUP3 SSTORE SWAP4 DUP7 ADD MLOAD DUP2 DUP11 ADD SWAP1 DUP2 SSTORE SWAP3 DUP7 ADD MLOAD PUSH1 0x2 DUP3 ADD DUP1 SLOAD SWAP7 DUP9 ADD MLOAD PUSH1 0x80 SWAP1 SWAP9 ADD MLOAD ISZERO ISZERO PUSH1 0x1 PUSH1 0xA8 SHL SWAP1 DUP2 MUL PUSH1 0xFF PUSH1 0xA8 SHL NOT SWAP10 DUP12 AND PUSH2 0x100 SWAP1 DUP2 MUL PUSH2 0x100 PUSH1 0x1 PUSH1 0xA8 SHL SUB NOT SWAP6 ISZERO ISZERO DUP7 AND PUSH1 0x1 PUSH1 0x1 PUSH1 0xA8 SHL SUB NOT SWAP12 DUP13 AND OR OR DUP12 AND SWAP2 SWAP1 SWAP2 OR DUP4 SSTORE PUSH2 0x105 DUP1 SLOAD SWAP14 DUP15 ADD DUP2 SSTORE SWAP1 SWAP6 MSTORE SWAP3 SLOAD PUSH1 0x3 SWAP1 SWAP12 MUL PUSH32 0xFC62ABC8C0FC47C2D92F5AEC99BF8B60F375828E14394D89345CAE11A9867371 DUP2 ADD DUP1 SLOAD SWAP1 SWAP8 AND SWAP12 DUP11 AND SWAP12 SWAP1 SWAP12 OR SWAP1 SWAP6 SSTORE SWAP3 SLOAD PUSH32 0xFC62ABC8C0FC47C2D92F5AEC99BF8B60F375828E14394D89345CAE11A9867372 DUP11 ADD SSTORE DUP4 SLOAD PUSH32 0xFC62ABC8C0FC47C2D92F5AEC99BF8B60F375828E14394D89345CAE11A9867373 SWAP1 SWAP10 ADD DUP1 SLOAD SWAP10 DUP10 AND ISZERO ISZERO PUSH1 0xFF NOT DUP12 AND DUP2 OR DUP3 SSTORE DUP6 SLOAD DUP5 SWAP1 DIV SWAP1 SWAP9 AND SWAP1 SWAP3 MUL SWAP7 SWAP1 SWAP3 AND SWAP8 SWAP1 SWAP4 AND SWAP7 SWAP1 SWAP7 OR SWAP4 SWAP1 SWAP4 OR DUP1 DUP3 SSTORE SWAP3 SLOAD DUP6 SWAP1 DIV SWAP1 SWAP4 AND ISZERO ISZERO SWAP1 SWAP4 MUL SWAP3 AND SWAP2 SWAP1 SWAP2 OR SWAP1 SSTORE JUMP JUMPDEST PUSH1 0x40 DUP1 MLOAD DUP1 DUP3 ADD SWAP1 SWAP2 MSTORE PUSH1 0x0 DUP2 MSTORE PUSH1 0x60 PUSH1 0x20 DUP3 ADD MSTORE PUSH1 0x1 PUSH1 0x1 PUSH1 0xA0 SHL SUB DUP1 DUP4 AND PUSH1 0x0 SWAP1 DUP2 MSTORE PUSH2 0x106 PUSH1 0x20 SWAP1 DUP2 MSTORE PUSH1 0x40 SWAP2 DUP3 SWAP1 KECCAK256 DUP3 MLOAD DUP1 DUP5 ADD DUP5 MSTORE DUP2 SLOAD SWAP1 SWAP5 AND DUP5 MSTORE PUSH1 0x1 DUP2 ADD DUP1 SLOAD DUP5 MLOAD DUP2 DUP6 MUL DUP2 ADD DUP6 ADD SWAP1 SWAP6 MSTORE DUP1 DUP6 MSTORE SWAP2 SWAP4 DUP6 DUP5 ADD SWAP4 SWAP1 SWAP3 SWAP1 DUP4 ADD DUP3 DUP3 DUP1 ISZERO PUSH2 0xF16 JUMPI PUSH1 0x20 MUL DUP3 ADD SWAP2 SWAP1 PUSH1 0x0 MSTORE PUSH1 0x20 PUSH1 0x0 KECCAK256 SWAP1 JUMPDEST DUP2 SLOAD DUP2 MSTORE PUSH1 0x20 ADD SWAP1 PUSH1 0x1 ADD SWAP1 DUP1 DUP4 GT PUSH2 0xF02 JUMPI JUMPDEST POP POP POP POP POP DUP2 MSTORE POP POP SWAP1 POP SWAP2 SWAP1 POP JUMP JUMPDEST PUSH2 0xF2E PUSH2 0x209B JUMP JUMPDEST PUSH1 0x0 DUP3 DUP2 MSTORE PUSH2 0x107 PUSH1 0x20 SWAP1 DUP2 MSTORE PUSH1 0x40 SWAP2 DUP3 SWAP1 KECCAK256 DUP3 MLOAD PUSH2 0x120 DUP2 ADD DUP5 MSTORE DUP2 SLOAD DUP2 MSTORE PUSH1 0x1 DUP3 ADD SLOAD PUSH1 0x1 PUSH1 0x1 PUSH1 0xA0 SHL SUB AND DUP2 DUP5 ADD MSTORE PUSH1 0x2 DUP3 ADD SLOAD DUP2 DUP6 ADD MSTORE PUSH1 0x3 DUP3 ADD SLOAD PUSH1 0x60 DUP3 ADD MSTORE PUSH1 0x4 DUP3 ADD DUP1 SLOAD DUP6 MLOAD DUP2 DUP7 MUL DUP2 ADD DUP7 ADD SWAP1 SWAP7 MSTORE DUP1 DUP7 MSTORE SWAP2 SWAP5 SWAP3 SWAP4 PUSH1 0x80 DUP7 ADD SWAP4 SWAP3 SWAP1 DUP4 ADD DUP3 DUP3 DUP1 ISZERO PUSH2 0xFC2 JUMPI PUSH1 0x20 MUL DUP3 ADD SWAP2 SWAP1 PUSH1 0x0 MSTORE PUSH1 0x20 PUSH1 0x0 KECCAK256 SWAP1 JUMPDEST DUP2 SLOAD DUP2 MSTORE PUSH1 0x20 ADD SWAP1 PUSH1 0x1 ADD SWAP1 DUP1 DUP4 GT PUSH2 0xFAE JUMPI JUMPDEST POP POP POP POP POP DUP2 MSTORE PUSH1 0x20 ADD PUSH1 0x5 DUP3 ADD DUP1 SLOAD DUP1 PUSH1 0x20 MUL PUSH1 0x20 ADD PUSH1 0x40 MLOAD SWAP1 DUP2 ADD PUSH1 0x40 MSTORE DUP1 SWAP3 SWAP2 SWAP1 DUP2 DUP2 MSTORE PUSH1 0x20 ADD PUSH1 0x0 SWAP1 JUMPDEST DUP3 DUP3 LT ISZERO PUSH2 0x1036 JUMPI DUP4 DUP3 SWAP1 PUSH1 0x0 MSTORE PUSH1 0x20 PUSH1 0x0 KECCAK256 SWAP1 PUSH1 0x2 MUL ADD PUSH1 0x40 MLOAD DUP1 PUSH1 0x40 ADD PUSH1 0x40 MSTORE SWAP1 DUP2 PUSH1 0x0 DUP3 ADD SLOAD DUP2 MSTORE PUSH1 0x20 ADD PUSH1 0x1 DUP3 ADD SLOAD DUP2 MSTORE POP POP DUP2 MSTORE PUSH1 0x20 ADD SWAP1 PUSH1 0x1 ADD SWAP1 PUSH2 0xFF0 JUMP JUMPDEST POP POP POP POP DUP2 MSTORE PUSH1 0x20 ADD PUSH1 0x6 DUP3 ADD DUP1 SLOAD DUP1 PUSH1 0x20 MUL PUSH1 0x20 ADD PUSH1 0x40 MLOAD SWAP1 DUP2 ADD PUSH1 0x40 MSTORE DUP1 SWAP3 SWAP2 SWAP1 DUP2 DUP2 MSTORE PUSH1 0x20 ADD PUSH1 0x0 SWAP1 JUMPDEST DUP3 DUP3 LT ISZERO PUSH2 0x10A9 JUMPI DUP4 DUP3 SWAP1 PUSH1 0x0 MSTORE PUSH1 0x20 PUSH1 0x0 KECCAK256 SWAP1 PUSH1 0x2 MUL ADD PUSH1 0x40 MLOAD DUP1 PUSH1 0x40 ADD PUSH1 0x40 MSTORE SWAP1 DUP2 PUSH1 0x0 DUP3 ADD SLOAD DUP2 MSTORE PUSH1 0x20 ADD PUSH1 0x1 DUP3 ADD SLOAD DUP2 MSTORE POP POP DUP2 MSTORE PUSH1 0x20 ADD SWAP1 PUSH1 0x1 ADD SWAP1 PUSH2 0x1063 JUMP JUMPDEST POP POP POP SWAP1 DUP3 MSTORE POP PUSH1 0x40 DUP1 MLOAD PUSH1 0x80 DUP2 ADD DUP3 MSTORE PUSH1 0x7 DUP5 ADD SLOAD DUP2 MSTORE PUSH1 0x8 DUP5 ADD SLOAD PUSH1 0x20 DUP3 DUP2 ADD SWAP2 SWAP1 SWAP2 MSTORE PUSH1 0x9 DUP6 ADD SLOAD DUP3 DUP5 ADD MSTORE PUSH1 0xA DUP6 ADD SLOAD PUSH1 0x60 DUP1 DUP5 ADD SWAP2 SWAP1 SWAP2 MSTORE DUP2 DUP6 ADD SWAP3 SWAP1 SWAP3 MSTORE DUP3 MLOAD SWAP2 DUP3 ADD DUP4 MSTORE PUSH1 0xB DUP6 ADD SLOAD DUP3 MSTORE PUSH1 0xC DUP6 ADD SLOAD SWAP1 DUP3 ADD MSTORE PUSH1 0xD SWAP1 SWAP4 ADD SLOAD DUP4 DUP3 ADD MSTORE ADD MSTORE SWAP3 SWAP2 POP POP JUMP JUMPDEST PUSH2 0x358 PUSH2 0x128E JUMP JUMPDEST PUSH32 0x4910FDFA16FED3260ED0E7147F7CC6DA11A60208B5B9406D12A635614FFD9143 SLOAD PUSH1 0xFF AND ISZERO PUSH2 0x1156 JUMPI PUSH2 0x1151 DUP4 PUSH2 0x1D11 JUMP JUMPDEST POP POP POP JUMP JUMPDEST DUP3 PUSH1 0x1 PUSH1 0x1 PUSH1 0xA0 SHL SUB AND PUSH4 0x52D1902D PUSH1 0x40 MLOAD DUP2 PUSH4 0xFFFFFFFF AND PUSH1 0xE0 SHL DUP2 MSTORE PUSH1 0x4 ADD PUSH1 0x20 PUSH1 0x40 MLOAD DUP1 DUP4 SUB DUP2 DUP7 GAS STATICCALL SWAP3 POP POP POP DUP1 ISZERO PUSH2 0x11B0 JUMPI POP PUSH1 0x40 DUP1 MLOAD PUSH1 0x1F RETURNDATASIZE SWAP1 DUP2 ADD PUSH1 0x1F NOT AND DUP3 ADD SWAP1 SWAP3 MSTORE PUSH2 0x11AD SWAP2 DUP2 ADD SWAP1 PUSH2 0x259A JUMP JUMPDEST PUSH1 0x1 JUMPDEST PUSH2 0x1213 JUMPI PUSH1 0x40 MLOAD PUSH3 0x461BCD PUSH1 0xE5 SHL DUP2 MSTORE PUSH1 0x20 PUSH1 0x4 DUP3 ADD MSTORE PUSH1 0x2E PUSH1 0x24 DUP3 ADD MSTORE PUSH32 0x45524331393637557067726164653A206E657720696D706C656D656E74617469 PUSH1 0x44 DUP3 ADD MSTORE PUSH14 0x6F6E206973206E6F742055555053 PUSH1 0x90 SHL PUSH1 0x64 DUP3 ADD MSTORE PUSH1 0x84 ADD PUSH2 0x2BB JUMP JUMPDEST PUSH1 0x0 DUP1 MLOAD PUSH1 0x20 PUSH2 0x281F DUP4 CODECOPY DUP2 MLOAD SWAP2 MSTORE DUP2 EQ PUSH2 0x1282 JUMPI PUSH1 0x40 MLOAD PUSH3 0x461BCD PUSH1 0xE5 SHL DUP2 MSTORE PUSH1 0x20 PUSH1 0x4 DUP3 ADD MSTORE PUSH1 0x29 PUSH1 0x24 DUP3 ADD MSTORE PUSH32 0x45524331393637557067726164653A20756E737570706F727465642070726F78 PUSH1 0x44 DUP3 ADD MSTORE PUSH9 0x1A58589B1955555251 PUSH1 0xBA SHL PUSH1 0x64 DUP3 ADD MSTORE PUSH1 0x84 ADD PUSH2 0x2BB JUMP JUMPDEST POP PUSH2 0x1151 DUP4 DUP4 DUP4 PUSH2 0x1DAD JUMP JUMPDEST PUSH1 0x65 SLOAD PUSH1 0x1 PUSH1 0x1 PUSH1 0xA0 SHL SUB AND CALLER EQ PUSH2 0x664 JUMPI PUSH1 0x40 MLOAD PUSH3 0x461BCD PUSH1 0xE5 SHL DUP2 MSTORE PUSH1 0x20 PUSH1 0x4 DUP3 ADD DUP2 SWAP1 MSTORE PUSH1 0x24 DUP3 ADD MSTORE PUSH32 0x4F776E61626C653A2063616C6C6572206973206E6F7420746865206F776E6572 PUSH1 0x44 DUP3 ADD MSTORE PUSH1 0x64 ADD PUSH2 0x2BB JUMP JUMPDEST PUSH1 0x65 DUP1 SLOAD PUSH1 0x1 PUSH1 0x1 PUSH1 0xA0 SHL SUB DUP4 DUP2 AND PUSH1 0x1 PUSH1 0x1 PUSH1 0xA0 SHL SUB NOT DUP4 AND DUP2 OR SWAP1 SWAP4 SSTORE PUSH1 0x40 MLOAD SWAP2 AND SWAP2 SWAP1 DUP3 SWAP1 PUSH32 0x8BE0079C531659141344CD1FD0A4F28419497F9722A3DAAFE3B4186F6B6457E0 SWAP1 PUSH1 0x0 SWAP1 LOG3 POP POP JUMP JUMPDEST PUSH1 0x0 SLOAD PUSH2 0x100 SWAP1 DIV PUSH1 0xFF AND PUSH2 0x1361 JUMPI PUSH1 0x40 MLOAD PUSH3 0x461BCD PUSH1 0xE5 SHL DUP2 MSTORE PUSH1 0x4 ADD PUSH2 0x2BB SWAP1 PUSH2 0x25B3 JUMP JUMPDEST PUSH2 0x664 PUSH2 0x1DD8 JUMP JUMPDEST PUSH1 0x0 SLOAD PUSH2 0x100 SWAP1 DIV PUSH1 0xFF AND PUSH2 0x1390 JUMPI PUSH1 0x40 MLOAD PUSH3 0x461BCD PUSH1 0xE5 SHL DUP2 MSTORE PUSH1 0x4 ADD PUSH2 0x2BB SWAP1 PUSH2 0x25B3 JUMP JUMPDEST PUSH2 0x664 PUSH2 0x1E0B JUMP JUMPDEST PUSH1 0x0 SLOAD PUSH2 0x100 SWAP1 DIV PUSH1 0xFF AND PUSH2 0x664 JUMPI PUSH1 0x40 MLOAD PUSH3 0x461BCD PUSH1 0xE5 SHL DUP2 MSTORE PUSH1 0x4 ADD PUSH2 0x2BB SWAP1 PUSH2 0x25B3 JUMP JUMPDEST PUSH1 0x0 PUSH8 0xDE0B6B3A7640000 DUP3 PUSH1 0x1 PUSH1 0x1 PUSH1 0xA0 SHL SUB AND PUSH4 0x313CE567 PUSH1 0x40 MLOAD DUP2 PUSH4 0xFFFFFFFF AND PUSH1 0xE0 SHL DUP2 MSTORE PUSH1 0x4 ADD PUSH1 0x20 PUSH1 0x40 MLOAD DUP1 DUP4 SUB DUP2 DUP7 GAS STATICCALL ISZERO DUP1 ISZERO PUSH2 0x1408 JUMPI RETURNDATASIZE PUSH1 0x0 DUP1 RETURNDATACOPY RETURNDATASIZE PUSH1 0x0 REVERT JUMPDEST POP POP POP POP PUSH1 0x40 MLOAD RETURNDATASIZE PUSH1 0x1F NOT PUSH1 0x1F DUP3 ADD AND DUP3 ADD DUP1 PUSH1 0x40 MSTORE POP DUP2 ADD SWAP1 PUSH2 0x142C SWAP2 SWAP1 PUSH2 0x2577 JUMP JUMPDEST PUSH2 0x1437 SWAP1 PUSH1 0xA PUSH2 0x26F8 JUMP JUMPDEST PUSH2 0x1441 SWAP1 DUP6 PUSH2 0x2707 JUMP JUMPDEST PUSH2 0x144B SWAP2 SWAP1 PUSH2 0x271E JUMP JUMPDEST SWAP4 SWAP3 POP POP POP JUMP JUMPDEST DUP2 SLOAD PUSH1 0x1 PUSH1 0x1 PUSH1 0xA0 SHL SUB AND ISZERO DUP1 ISZERO PUSH2 0x1472 JUMPI POP PUSH1 0x1 PUSH1 0x1 PUSH1 0xA0 SHL SUB DUP2 AND ISZERO ISZERO JUMPDEST ISZERO PUSH2 0x427 JUMPI DUP2 SLOAD PUSH1 0x1 PUSH1 0x1 PUSH1 0xA0 SHL SUB NOT AND PUSH1 0x1 PUSH1 0x1 PUSH1 0xA0 SHL SUB DUP3 AND SWAP1 DUP2 OR DUP4 SSTORE PUSH1 0x40 MLOAD SWAP1 DUP2 MSTORE PUSH32 0x3B819CFB39116B78A5D1267E92AB85058E96D63A7882322D296AB4135720B79A SWAP1 PUSH1 0x20 ADD JUMPDEST PUSH1 0x40 MLOAD DUP1 SWAP2 SUB SWAP1 LOG1 POP POP JUMP JUMPDEST PUSH1 0x0 PUSH1 0xFC SLOAD PUSH1 0x1 PUSH2 0x14DB SWAP2 SWAP1 PUSH2 0x2740 JUMP JUMPDEST SWAP1 POP SWAP1 JUMP JUMPDEST DUP2 SLOAD PUSH1 0x0 SWAP1 ISZERO PUSH2 0x153E JUMPI PUSH1 0x40 MLOAD PUSH3 0x461BCD PUSH1 0xE5 SHL DUP2 MSTORE PUSH1 0x20 PUSH1 0x4 DUP3 ADD MSTORE PUSH1 0x23 PUSH1 0x24 DUP3 ADD MSTORE PUSH32 0x5F757064617465496428293A20496420697320616C7265616479206372656174 PUSH1 0x44 DUP3 ADD MSTORE PUSH3 0x32B217 PUSH1 0xE9 SHL PUSH1 0x64 DUP3 ADD MSTORE PUSH1 0x84 ADD PUSH2 0x2BB JUMP JUMPDEST PUSH1 0xFC DUP1 SLOAD SWAP1 PUSH1 0x0 PUSH2 0x154E DUP4 PUSH2 0x2753 JUMP JUMPDEST SWAP1 SWAP2 SSTORE POP POP PUSH1 0xFC SLOAD DUP1 DUP5 SSTORE PUSH1 0x1 DUP4 DUP2 ADD DUP1 SLOAD SWAP2 DUP3 ADD DUP2 SSTORE PUSH1 0x0 SWAP1 DUP2 MSTORE PUSH1 0x20 SWAP1 DUP2 SWAP1 KECCAK256 SWAP1 SWAP2 ADD DUP3 SWAP1 SSTORE DUP4 SLOAD PUSH1 0x40 DUP1 MLOAD PUSH1 0x1 PUSH1 0x1 PUSH1 0xA0 SHL SUB SWAP1 SWAP3 AND DUP3 MSTORE SWAP2 DUP2 ADD DUP4 SWAP1 MSTORE SWAP2 SWAP3 POP PUSH32 0x1EDFAF20EB0251DD2CA45E125C8B9A615022667B9822CF6A8DC1D2CE7E91EA68 SWAP2 ADD PUSH1 0x40 MLOAD DUP1 SWAP2 SUB SWAP1 LOG1 DUP2 SLOAD PUSH1 0x1 DUP5 ADD DUP1 SLOAD PUSH1 0x1 PUSH1 0x1 PUSH1 0xA0 SHL SUB NOT AND PUSH1 0x1 PUSH1 0x1 PUSH1 0xA0 SHL SUB SWAP3 DUP4 AND OR SWAP1 SSTORE DUP3 SLOAD PUSH1 0x40 DUP1 MLOAD SWAP2 SWAP1 SWAP3 AND DUP2 MSTORE PUSH1 0x20 DUP2 ADD DUP4 SWAP1 MSTORE PUSH32 0x4F3673673D1E6F88F67F26845B9609A7707201984D7885988D35AEDF43B9FE44 SWAP2 ADD PUSH1 0x40 MLOAD DUP1 SWAP2 SUB SWAP1 LOG1 SWAP3 SWAP2 POP POP JUMP JUMPDEST PUSH1 0x65 SLOAD PUSH1 0x1 PUSH1 0x1 PUSH1 0xA0 SHL SUB AND CALLER EQ PUSH2 0x1699 JUMPI DUP2 SLOAD PUSH1 0x0 SUB PUSH2 0x1699 JUMPI PUSH1 0x40 MLOAD PUSH3 0x461BCD PUSH1 0xE5 SHL DUP2 MSTORE PUSH1 0x20 PUSH1 0x4 DUP3 ADD MSTORE PUSH1 0x2C PUSH1 0x24 DUP3 ADD MSTORE PUSH32 0x5F616464526566657272657228293A2052656665727265204964206973206E6F PUSH1 0x44 DUP3 ADD MSTORE PUSH12 0x3A1030B1BA34BB30BA32B217 PUSH1 0xA1 SHL PUSH1 0x64 DUP3 ADD MSTORE PUSH1 0x84 ADD PUSH2 0x2BB JUMP JUMPDEST DUP1 SLOAD PUSH1 0x2 DUP4 ADD SLOAD SUB PUSH2 0x1708 JUMPI PUSH1 0x40 MLOAD PUSH3 0x461BCD PUSH1 0xE5 SHL DUP2 MSTORE PUSH1 0x20 PUSH1 0x4 DUP3 ADD MSTORE PUSH1 0x32 PUSH1 0x24 DUP3 ADD MSTORE PUSH32 0x5F616464526566657272657228293A20526566657265652063616E6E6F742062 PUSH1 0x44 DUP3 ADD MSTORE PUSH18 0x32903932B332B93932B9103AB83634B73297 PUSH1 0x71 SHL PUSH1 0x64 DUP3 ADD MSTORE PUSH1 0x84 ADD PUSH2 0x2BB JUMP JUMPDEST DUP1 SLOAD ISZERO PUSH2 0x176A JUMPI PUSH1 0x40 MLOAD PUSH3 0x461BCD PUSH1 0xE5 SHL DUP2 MSTORE PUSH1 0x20 PUSH1 0x4 DUP3 ADD MSTORE PUSH1 0x2A PUSH1 0x24 DUP3 ADD MSTORE PUSH32 0x5F616464526566657272657228293A205573657220726566657272657220616C PUSH1 0x44 DUP3 ADD MSTORE PUSH10 0x3932B0B23C9039B2BA17 PUSH1 0xB1 SHL PUSH1 0x64 DUP3 ADD MSTORE PUSH1 0x84 ADD PUSH2 0x2BB JUMP JUMPDEST PUSH1 0x40 DUP1 MLOAD PUSH2 0x120 DUP2 ADD DUP3 MSTORE DUP4 SLOAD DUP2 MSTORE PUSH1 0x1 DUP5 ADD SLOAD PUSH1 0x1 PUSH1 0x1 PUSH1 0xA0 SHL SUB AND PUSH1 0x20 DUP1 DUP4 ADD SWAP2 SWAP1 SWAP2 MSTORE PUSH1 0x2 DUP6 ADD SLOAD DUP3 DUP5 ADD MSTORE PUSH1 0x3 DUP6 ADD SLOAD PUSH1 0x60 DUP4 ADD MSTORE PUSH1 0x4 DUP6 ADD DUP1 SLOAD DUP5 MLOAD DUP2 DUP5 MUL DUP2 ADD DUP5 ADD SWAP1 SWAP6 MSTORE DUP1 DUP6 MSTORE PUSH2 0x1948 SWAP5 DUP8 SWAP4 PUSH1 0x80 DUP7 ADD SWAP4 SWAP2 SWAP3 SWAP1 DUP4 ADD DUP3 DUP3 DUP1 ISZERO PUSH2 0x17F5 JUMPI PUSH1 0x20 MUL DUP3 ADD SWAP2 SWAP1 PUSH1 0x0 MSTORE PUSH1 0x20 PUSH1 0x0 KECCAK256 SWAP1 JUMPDEST DUP2 SLOAD DUP2 MSTORE PUSH1 0x20 ADD SWAP1 PUSH1 0x1 ADD SWAP1 DUP1 DUP4 GT PUSH2 0x17E1 JUMPI JUMPDEST POP POP POP POP POP DUP2 MSTORE PUSH1 0x20 ADD PUSH1 0x5 DUP3 ADD DUP1 SLOAD DUP1 PUSH1 0x20 MUL PUSH1 0x20 ADD PUSH1 0x40 MLOAD SWAP1 DUP2 ADD PUSH1 0x40 MSTORE DUP1 SWAP3 SWAP2 SWAP1 DUP2 DUP2 MSTORE PUSH1 0x20 ADD PUSH1 0x0 SWAP1 JUMPDEST DUP3 DUP3 LT ISZERO PUSH2 0x1869 JUMPI DUP4 DUP3 SWAP1 PUSH1 0x0 MSTORE PUSH1 0x20 PUSH1 0x0 KECCAK256 SWAP1 PUSH1 0x2 MUL ADD PUSH1 0x40 MLOAD DUP1 PUSH1 0x40 ADD PUSH1 0x40 MSTORE SWAP1 DUP2 PUSH1 0x0 DUP3 ADD SLOAD DUP2 MSTORE PUSH1 0x20 ADD PUSH1 0x1 DUP3 ADD SLOAD DUP2 MSTORE POP POP DUP2 MSTORE PUSH1 0x20 ADD SWAP1 PUSH1 0x1 ADD SWAP1 PUSH2 0x1823 JUMP JUMPDEST POP POP POP POP DUP2 MSTORE PUSH1 0x20 ADD PUSH1 0x6 DUP3 ADD DUP1 SLOAD DUP1 PUSH1 0x20 MUL PUSH1 0x20 ADD PUSH1 0x40 MLOAD SWAP1 DUP2 ADD PUSH1 0x40 MSTORE DUP1 SWAP3 SWAP2 SWAP1 DUP2 DUP2 MSTORE PUSH1 0x20 ADD PUSH1 0x0 SWAP1 JUMPDEST DUP3 DUP3 LT ISZERO PUSH2 0x18DC JUMPI DUP4 DUP3 SWAP1 PUSH1 0x0 MSTORE PUSH1 0x20 PUSH1 0x0 KECCAK256 SWAP1 PUSH1 0x2 MUL ADD PUSH1 0x40 MLOAD DUP1 PUSH1 0x40 ADD PUSH1 0x40 MSTORE SWAP1 DUP2 PUSH1 0x0 DUP3 ADD SLOAD DUP2 MSTORE PUSH1 0x20 ADD PUSH1 0x1 DUP3 ADD SLOAD DUP2 MSTORE POP POP DUP2 MSTORE PUSH1 0x20 ADD SWAP1 PUSH1 0x1 ADD SWAP1 PUSH2 0x1896 JUMP JUMPDEST POP POP POP SWAP1 DUP3 MSTORE POP PUSH1 0x40 DUP1 MLOAD PUSH1 0x80 DUP2 ADD DUP3 MSTORE PUSH1 0x7 DUP5 ADD SLOAD DUP2 MSTORE PUSH1 0x8 DUP5 ADD SLOAD PUSH1 0x20 DUP3 DUP2 ADD SWAP2 SWAP1 SWAP2 MSTORE PUSH1 0x9 DUP6 ADD SLOAD DUP3 DUP5 ADD MSTORE PUSH1 0xA DUP6 ADD SLOAD PUSH1 0x60 DUP1 DUP5 ADD SWAP2 SWAP1 SWAP2 MSTORE DUP2 DUP6 ADD SWAP3 SWAP1 SWAP3 MSTORE DUP3 MLOAD SWAP2 DUP3 ADD DUP4 MSTORE PUSH1 0xB DUP6 ADD SLOAD DUP3 MSTORE PUSH1 0xC DUP6 ADD SLOAD SWAP1 DUP3 ADD MSTORE PUSH1 0xD SWAP1 SWAP4 ADD SLOAD DUP4 DUP3 ADD MSTORE ADD MSTORE PUSH2 0x1E3B JUMP JUMPDEST PUSH2 0x19AF JUMPI DUP2 SLOAD PUSH1 0x2 DUP3 ADD DUP2 SWAP1 SSTORE PUSH1 0x3 DUP3 ADD SSTORE DUP1 SLOAD PUSH1 0x4 DUP4 ADD DUP1 SLOAD PUSH1 0x1 DUP2 ADD DUP3 SSTORE PUSH1 0x0 SWAP2 DUP3 MSTORE PUSH1 0x20 SWAP1 SWAP2 KECCAK256 ADD SSTORE DUP2 SLOAD DUP2 SLOAD PUSH1 0x40 MLOAD PUSH32 0xE6B2C1CA4B33533EDDCCFDD2DD0FBE5FF44D75017001D4B2329B4DAEE1821436 SWAP3 PUSH2 0x14BE SWAP3 SWAP1 DUP3 MSTORE PUSH1 0x20 DUP3 ADD MSTORE PUSH1 0x40 ADD SWAP1 JUMP JUMPDEST PUSH1 0xFD SLOAD PUSH2 0x1A0A JUMPI PUSH1 0x40 MLOAD PUSH3 0x461BCD PUSH1 0xE5 SHL DUP2 MSTORE PUSH1 0x20 PUSH1 0x4 DUP3 ADD MSTORE PUSH1 0x24 DUP1 DUP3 ADD MSTORE PUSH32 0x5F616464526566657272657228293A20476C6F62616C2069647320617265206F PUSH1 0x44 DUP3 ADD MSTORE PUSH4 0x3B32B917 PUSH1 0xE1 SHL PUSH1 0x64 DUP3 ADD MSTORE PUSH1 0x84 ADD PUSH2 0x2BB JUMP JUMPDEST PUSH1 0x0 PUSH2 0x107 PUSH1 0x0 PUSH1 0xFD PUSH1 0x0 DUP2 SLOAD DUP2 LT PUSH2 0x1A25 JUMPI PUSH2 0x1A25 PUSH2 0x276C JUMP JUMPDEST PUSH1 0x0 SWAP2 DUP3 MSTORE PUSH1 0x20 DUP1 DUP4 KECCAK256 SWAP2 SWAP1 SWAP2 ADD SLOAD DUP4 MSTORE DUP3 DUP2 ADD SWAP4 SWAP1 SWAP4 MSTORE PUSH1 0x40 SWAP2 DUP3 ADD DUP2 KECCAK256 DUP1 SLOAD PUSH1 0x2 DUP8 DUP2 ADD SWAP2 SWAP1 SWAP2 SSTORE DUP8 SLOAD PUSH1 0x3 DUP9 ADD SSTORE DUP4 MLOAD DUP1 DUP6 ADD DUP6 MSTORE DUP8 SLOAD DUP2 MSTORE DUP3 SLOAD DUP2 DUP8 ADD SWAP1 DUP2 MSTORE PUSH1 0x5 DUP11 ADD DUP1 SLOAD PUSH1 0x1 DUP1 DUP3 ADD DUP4 SSTORE SWAP2 DUP8 MSTORE SWAP6 DUP9 SWAP1 KECCAK256 SWAP3 MLOAD SWAP6 SWAP1 SWAP4 MUL SWAP1 SWAP2 ADD SWAP4 DUP5 SSTORE MLOAD SWAP3 ADD SWAP2 SWAP1 SWAP2 SSTORE DUP6 SLOAD DUP2 SLOAD DUP7 SLOAD DUP5 MLOAD SWAP3 DUP4 MSTORE SWAP5 DUP3 ADD MSTORE SWAP2 DUP3 ADD SWAP3 SWAP1 SWAP3 MSTORE SWAP1 SWAP2 POP PUSH32 0x347A3B2FE969C7AB7C51C290DBCAE965D7B5A6B03D2B9336A480169D79A5F51F SWAP1 PUSH1 0x60 ADD PUSH1 0x40 MLOAD DUP1 SWAP2 SUB SWAP1 LOG1 DUP2 SLOAD PUSH1 0x4 DUP3 ADD DUP1 SLOAD PUSH1 0x1 DUP2 ADD DUP3 SSTORE PUSH1 0x0 SWAP2 DUP3 MSTORE PUSH1 0x20 SWAP1 SWAP2 KECCAK256 ADD SSTORE DUP1 SLOAD DUP3 SLOAD PUSH1 0x40 MLOAD PUSH32 0xE6B2C1CA4B33533EDDCCFDD2DD0FBE5FF44D75017001D4B2329B4DAEE1821436 SWAP3 PUSH2 0x1B2B SWAP3 SWAP1 DUP3 MSTORE PUSH1 0x20 DUP3 ADD MSTORE PUSH1 0x40 ADD SWAP1 JUMP JUMPDEST PUSH1 0x40 MLOAD DUP1 SWAP2 SUB SWAP1 LOG1 PUSH1 0x40 DUP1 MLOAD PUSH2 0x120 DUP2 ADD DUP3 MSTORE DUP3 SLOAD DUP2 MSTORE PUSH1 0x1 DUP4 ADD SLOAD PUSH1 0x1 PUSH1 0x1 PUSH1 0xA0 SHL SUB AND PUSH1 0x20 DUP1 DUP4 ADD SWAP2 SWAP1 SWAP2 MSTORE PUSH1 0x2 DUP5 ADD SLOAD DUP3 DUP5 ADD MSTORE PUSH1 0x3 DUP5 ADD SLOAD PUSH1 0x60 DUP4 ADD MSTORE PUSH1 0x4 DUP5 ADD DUP1 SLOAD DUP5 MLOAD DUP2 DUP5 MUL DUP2 ADD DUP5 ADD SWAP1 SWAP6 MSTORE DUP1 DUP6 MSTORE PUSH2 0x1151 SWAP5 DUP7 SWAP4 PUSH1 0x80 DUP7 ADD SWAP4 SWAP2 SWAP3 SWAP1 DUP4 ADD DUP3 DUP3 DUP1 ISZERO PUSH2 0x1BBE JUMPI PUSH1 0x20 MUL DUP3 ADD SWAP2 SWAP1 PUSH1 0x0 MSTORE PUSH1 0x20 PUSH1 0x0 KECCAK256 SWAP1 JUMPDEST DUP2 SLOAD DUP2 MSTORE PUSH1 0x20 ADD SWAP1 PUSH1 0x1 ADD SWAP1 DUP1 DUP4 GT PUSH2 0x1BAA JUMPI JUMPDEST POP POP POP POP POP DUP2 MSTORE PUSH1 0x20 ADD PUSH1 0x5 DUP3 ADD DUP1 SLOAD DUP1 PUSH1 0x20 MUL PUSH1 0x20 ADD PUSH1 0x40 MLOAD SWAP1 DUP2 ADD PUSH1 0x40 MSTORE DUP1 SWAP3 SWAP2 SWAP1 DUP2 DUP2 MSTORE PUSH1 0x20 ADD PUSH1 0x0 SWAP1 JUMPDEST DUP3 DUP3 LT ISZERO PUSH2 0x1C32 JUMPI DUP4 DUP3 SWAP1 PUSH1 0x0 MSTORE PUSH1 0x20 PUSH1 0x0 KECCAK256 SWAP1 PUSH1 0x2 MUL ADD PUSH1 0x40 MLOAD DUP1 PUSH1 0x40 ADD PUSH1 0x40 MSTORE SWAP1 DUP2 PUSH1 0x0 DUP3 ADD SLOAD DUP2 MSTORE PUSH1 0x20 ADD PUSH1 0x1 DUP3 ADD SLOAD DUP2 MSTORE POP POP DUP2 MSTORE PUSH1 0x20 ADD SWAP1 PUSH1 0x1 ADD SWAP1 PUSH2 0x1BEC JUMP JUMPDEST POP POP POP POP DUP2 MSTORE PUSH1 0x20 ADD PUSH1 0x6 DUP3 ADD DUP1 SLOAD DUP1 PUSH1 0x20 MUL PUSH1 0x20 ADD PUSH1 0x40 MLOAD SWAP1 DUP2 ADD PUSH1 0x40 MSTORE DUP1 SWAP3 SWAP2 SWAP1 DUP2 DUP2 MSTORE PUSH1 0x20 ADD PUSH1 0x0 SWAP1 JUMPDEST DUP3 DUP3 LT ISZERO PUSH2 0x1CA5 JUMPI DUP4 DUP3 SWAP1 PUSH1 0x0 MSTORE PUSH1 0x20 PUSH1 0x0 KECCAK256 SWAP1 PUSH1 0x2 MUL ADD PUSH1 0x40 MLOAD DUP1 PUSH1 0x40 ADD PUSH1 0x40 MSTORE SWAP1 DUP2 PUSH1 0x0 DUP3 ADD SLOAD DUP2 MSTORE PUSH1 0x20 ADD PUSH1 0x1 DUP3 ADD SLOAD DUP2 MSTORE POP POP DUP2 MSTORE PUSH1 0x20 ADD SWAP1 PUSH1 0x1 ADD SWAP1 PUSH2 0x1C5F JUMP JUMPDEST POP POP POP SWAP1 DUP3 MSTORE POP PUSH1 0x40 DUP1 MLOAD PUSH1 0x80 DUP2 ADD DUP3 MSTORE PUSH1 0x7 DUP5 ADD SLOAD DUP2 MSTORE PUSH1 0x8 DUP5 ADD SLOAD PUSH1 0x20 DUP3 DUP2 ADD SWAP2 SWAP1 SWAP2 MSTORE PUSH1 0x9 DUP6 ADD SLOAD DUP3 DUP5 ADD MSTORE PUSH1 0xA DUP6 ADD SLOAD PUSH1 0x60 DUP1 DUP5 ADD SWAP2 SWAP1 SWAP2 MSTORE DUP2 DUP6 ADD SWAP3 SWAP1 SWAP3 MSTORE DUP3 MLOAD SWAP2 DUP3 ADD DUP4 MSTORE PUSH1 0xB DUP6 ADD SLOAD DUP3 MSTORE PUSH1 0xC DUP6 ADD SLOAD SWAP1 DUP3 ADD MSTORE PUSH1 0xD SWAP1 SWAP4 ADD SLOAD DUP4 DUP3 ADD MSTORE ADD MSTORE PUSH2 0x1E54 JUMP JUMPDEST PUSH1 0x1 PUSH1 0x1 PUSH1 0xA0 SHL SUB DUP2 AND EXTCODESIZE PUSH2 0x1D7E JUMPI PUSH1 0x40 MLOAD PUSH3 0x461BCD PUSH1 0xE5 SHL DUP2 MSTORE PUSH1 0x20 PUSH1 0x4 DUP3 ADD MSTORE PUSH1 0x2D PUSH1 0x24 DUP3 ADD MSTORE PUSH32 0x455243313936373A206E657720696D706C656D656E746174696F6E206973206E PUSH1 0x44 DUP3 ADD MSTORE PUSH13 0x1BDD08184818DBDB9D1C9858DD PUSH1 0x9A SHL PUSH1 0x64 DUP3 ADD MSTORE PUSH1 0x84 ADD PUSH2 0x2BB JUMP JUMPDEST PUSH1 0x0 DUP1 MLOAD PUSH1 0x20 PUSH2 0x281F DUP4 CODECOPY DUP2 MLOAD SWAP2 MSTORE DUP1 SLOAD PUSH1 0x1 PUSH1 0x1 PUSH1 0xA0 SHL SUB NOT AND PUSH1 0x1 PUSH1 0x1 PUSH1 0xA0 SHL SUB SWAP3 SWAP1 SWAP3 AND SWAP2 SWAP1 SWAP2 OR SWAP1 SSTORE JUMP JUMPDEST PUSH2 0x1DB6 DUP4 PUSH2 0x1ED7 JUMP JUMPDEST PUSH1 0x0 DUP3 MLOAD GT DUP1 PUSH2 0x1DC3 JUMPI POP DUP1 JUMPDEST ISZERO PUSH2 0x1151 JUMPI PUSH2 0x1DD2 DUP4 DUP4 PUSH2 0x1F17 JUMP JUMPDEST POP POP POP POP JUMP JUMPDEST PUSH1 0x0 SLOAD PUSH2 0x100 SWAP1 DIV PUSH1 0xFF AND PUSH2 0x1DFF JUMPI PUSH1 0x40 MLOAD PUSH3 0x461BCD PUSH1 0xE5 SHL DUP2 MSTORE PUSH1 0x4 ADD PUSH2 0x2BB SWAP1 PUSH2 0x25B3 JUMP JUMPDEST PUSH1 0x33 DUP1 SLOAD PUSH1 0xFF NOT AND SWAP1 SSTORE JUMP JUMPDEST PUSH1 0x0 SLOAD PUSH2 0x100 SWAP1 DIV PUSH1 0xFF AND PUSH2 0x1E32 JUMPI PUSH1 0x40 MLOAD PUSH3 0x461BCD PUSH1 0xE5 SHL DUP2 MSTORE PUSH1 0x4 ADD PUSH2 0x2BB SWAP1 PUSH2 0x25B3 JUMP JUMPDEST PUSH2 0x664 CALLER PUSH2 0x12E8 JUMP JUMPDEST PUSH1 0x0 PUSH1 0xFF SLOAD DUP3 PUSH1 0x80 ADD MLOAD MLOAD SUB PUSH2 0x1E4F JUMPI POP PUSH1 0x1 JUMPDEST SWAP2 SWAP1 POP JUMP JUMPDEST PUSH2 0x1E5D DUP2 PUSH2 0x1E3B JUMP JUMPDEST ISZERO PUSH2 0x358 JUMPI PUSH1 0xFD DUP1 SLOAD PUSH2 0x1E72 SWAP1 PUSH1 0x1 SWAP1 PUSH2 0x2782 JUMP JUMPDEST DUP2 SLOAD DUP2 LT PUSH2 0x1E82 JUMPI PUSH2 0x1E82 PUSH2 0x276C JUMP JUMPDEST SWAP1 PUSH1 0x0 MSTORE PUSH1 0x20 PUSH1 0x0 KECCAK256 ADD SLOAD PUSH1 0xFD PUSH1 0x0 DUP2 SLOAD DUP2 LT PUSH2 0x1EA1 JUMPI PUSH2 0x1EA1 PUSH2 0x276C JUMP JUMPDEST PUSH1 0x0 SWAP2 DUP3 MSTORE PUSH1 0x20 SWAP1 SWAP2 KECCAK256 ADD SSTORE PUSH1 0xFD DUP1 SLOAD DUP1 PUSH2 0x1EBE JUMPI PUSH2 0x1EBE PUSH2 0x2795 JUMP JUMPDEST PUSH1 0x1 SWAP1 SUB DUP2 DUP2 SWAP1 PUSH1 0x0 MSTORE PUSH1 0x20 PUSH1 0x0 KECCAK256 ADD PUSH1 0x0 SWAP1 SSTORE SWAP1 SSTORE POP JUMP JUMPDEST PUSH2 0x1EE0 DUP2 PUSH2 0x1D11 JUMP JUMPDEST PUSH1 0x40 MLOAD PUSH1 0x1 PUSH1 0x1 PUSH1 0xA0 SHL SUB DUP3 AND SWAP1 PUSH32 0xBC7CD75A20EE27FD9ADEBAB32041F755214DBC6BFFA90CC0225B39DA2E5C2D3B SWAP1 PUSH1 0x0 SWAP1 LOG2 POP JUMP JUMPDEST PUSH1 0x60 PUSH1 0x1 PUSH1 0x1 PUSH1 0xA0 SHL SUB DUP4 AND EXTCODESIZE PUSH2 0x1F7F JUMPI PUSH1 0x40 MLOAD PUSH3 0x461BCD PUSH1 0xE5 SHL DUP2 MSTORE PUSH1 0x20 PUSH1 0x4 DUP3 ADD MSTORE PUSH1 0x26 PUSH1 0x24 DUP3 ADD MSTORE PUSH32 0x416464726573733A2064656C65676174652063616C6C20746F206E6F6E2D636F PUSH1 0x44 DUP3 ADD MSTORE PUSH6 0x1B9D1C9858DD PUSH1 0xD2 SHL PUSH1 0x64 DUP3 ADD MSTORE PUSH1 0x84 ADD PUSH2 0x2BB JUMP JUMPDEST PUSH1 0x0 DUP1 DUP5 PUSH1 0x1 PUSH1 0x1 PUSH1 0xA0 SHL SUB AND DUP5 PUSH1 0x40 MLOAD PUSH2 0x1F9A SWAP2 SWAP1 PUSH2 0x27CF JUMP JUMPDEST PUSH1 0x0 PUSH1 0x40 MLOAD DUP1 DUP4 SUB DUP2 DUP6 GAS DELEGATECALL SWAP2 POP POP RETURNDATASIZE DUP1 PUSH1 0x0 DUP2 EQ PUSH2 0x1FD5 JUMPI PUSH1 0x40 MLOAD SWAP2 POP PUSH1 0x1F NOT PUSH1 0x3F RETURNDATASIZE ADD AND DUP3 ADD PUSH1 0x40 MSTORE RETURNDATASIZE DUP3 MSTORE RETURNDATASIZE PUSH1 0x0 PUSH1 0x20 DUP5 ADD RETURNDATACOPY PUSH2 0x1FDA JUMP JUMPDEST PUSH1 0x60 SWAP2 POP JUMPDEST POP SWAP2 POP SWAP2 POP PUSH2 0x2002 DUP3 DUP3 PUSH1 0x40 MLOAD DUP1 PUSH1 0x60 ADD PUSH1 0x40 MSTORE DUP1 PUSH1 0x27 DUP2 MSTORE PUSH1 0x20 ADD PUSH2 0x283F PUSH1 0x27 SWAP2 CODECOPY PUSH2 0x200D JUMP JUMPDEST SWAP3 POP POP POP JUMPDEST SWAP3 SWAP2 POP POP JUMP JUMPDEST PUSH1 0x60 DUP4 ISZERO PUSH2 0x201C JUMPI POP DUP2 PUSH2 0x144B JUMP JUMPDEST PUSH2 0x144B DUP4 DUP4 DUP2 MLOAD ISZERO PUSH2 0x2031 JUMPI DUP2 MLOAD DUP1 DUP4 PUSH1 0x20 ADD REVERT JUMPDEST DUP1 PUSH1 0x40 MLOAD PUSH3 0x461BCD PUSH1 0xE5 SHL DUP2 MSTORE PUSH1 0x4 ADD PUSH2 0x2BB SWAP2 SWAP1 PUSH2 0x27EB JUMP JUMPDEST DUP3 DUP1 SLOAD DUP3 DUP3 SSTORE SWAP1 PUSH1 0x0 MSTORE PUSH1 0x20 PUSH1 0x0 KECCAK256 SWAP1 DUP2 ADD SWAP3 DUP3 ISZERO PUSH2 0x208B JUMPI SWAP2 PUSH1 0x20 MUL DUP3 ADD JUMPDEST DUP3 DUP2 GT ISZERO PUSH2 0x208B JUMPI DUP3 MLOAD DUP3 SWAP1 PUSH1 0xFF AND SWAP1 SSTORE SWAP2 PUSH1 0x20 ADD SWAP2 SWAP1 PUSH1 0x1 ADD SWAP1 PUSH2 0x206B JUMP JUMPDEST POP PUSH2 0x2097 SWAP3 SWAP2 POP PUSH2 0x213A JUMP JUMPDEST POP SWAP1 JUMP JUMPDEST PUSH1 0x40 MLOAD DUP1 PUSH2 0x120 ADD PUSH1 0x40 MSTORE DUP1 PUSH1 0x0 DUP2 MSTORE PUSH1 0x20 ADD PUSH1 0x0 PUSH1 0x1 PUSH1 0x1 PUSH1 0xA0 SHL SUB AND DUP2 MSTORE PUSH1 0x20 ADD PUSH1 0x0 DUP2 MSTORE PUSH1 0x20 ADD PUSH1 0x0 DUP2 MSTORE PUSH1 0x20 ADD PUSH1 0x60 DUP2 MSTORE PUSH1 0x20 ADD PUSH1 0x60 DUP2 MSTORE PUSH1 0x20 ADD PUSH1 0x60 DUP2 MSTORE PUSH1 0x20 ADD PUSH2 0x210C PUSH1 0x40 MLOAD DUP1 PUSH1 0x80 ADD PUSH1 0x40 MSTORE DUP1 PUSH1 0x0 DUP2 MSTORE PUSH1 0x20 ADD PUSH1 0x0 DUP2 MSTORE PUSH1 0x20 ADD PUSH1 0x0 DUP2 MSTORE PUSH1 0x20 ADD PUSH1 0x0 DUP2 MSTORE POP SWAP1 JUMP JUMPDEST DUP2 MSTORE PUSH1 0x20 ADD PUSH2 0x2135 PUSH1 0x40 MLOAD DUP1 PUSH1 0x60 ADD PUSH1 0x40 MSTORE DUP1 PUSH1 0x0 DUP2 MSTORE PUSH1 0x20 ADD PUSH1 0x0 DUP2 MSTORE PUSH1 0x20 ADD PUSH1 0x0 DUP2 MSTORE POP SWAP1 JUMP JUMPDEST SWAP1 MSTORE SWAP1 JUMP JUMPDEST JUMPDEST DUP1 DUP3 GT ISZERO PUSH2 0x2097 JUMPI PUSH1 0x0 DUP2 SSTORE PUSH1 0x1 ADD PUSH2 0x213B JUMP JUMPDEST DUP1 CALLDATALOAD PUSH1 0x1 PUSH1 0x1 PUSH1 0xA0 SHL SUB DUP2 AND DUP2 EQ PUSH2 0x1E4F JUMPI PUSH1 0x0 DUP1 REVERT JUMPDEST PUSH1 0x0 PUSH1 0x20 DUP3 DUP5 SUB SLT ISZERO PUSH2 0x2178 JUMPI PUSH1 0x0 DUP1 REVERT JUMPDEST PUSH2 0x144B DUP3 PUSH2 0x214F JUMP JUMPDEST PUSH4 0x4E487B71 PUSH1 0xE0 SHL PUSH1 0x0 MSTORE PUSH1 0x41 PUSH1 0x4 MSTORE PUSH1 0x24 PUSH1 0x0 REVERT JUMPDEST PUSH1 0x0 DUP1 PUSH1 0x40 DUP4 DUP6 SUB SLT ISZERO PUSH2 0x21AA JUMPI PUSH1 0x0 DUP1 REVERT JUMPDEST PUSH2 0x21B3 DUP4 PUSH2 0x214F JUMP JUMPDEST SWAP2 POP PUSH1 0x20 DUP4 ADD CALLDATALOAD PUSH8 0xFFFFFFFFFFFFFFFF DUP1 DUP3 GT ISZERO PUSH2 0x21D0 JUMPI PUSH1 0x0 DUP1 REVERT JUMPDEST DUP2 DUP6 ADD SWAP2 POP DUP6 PUSH1 0x1F DUP4 ADD SLT PUSH2 0x21E4 JUMPI PUSH1 0x0 DUP1 REVERT JUMPDEST DUP2 CALLDATALOAD DUP2 DUP2 GT ISZERO PUSH2 0x21F6 JUMPI PUSH2 0x21F6 PUSH2 0x2181 JUMP JUMPDEST PUSH1 0x40 MLOAD PUSH1 0x1F DUP3 ADD PUSH1 0x1F NOT SWAP1 DUP2 AND PUSH1 0x3F ADD AND DUP2 ADD SWAP1 DUP4 DUP3 GT DUP2 DUP4 LT OR ISZERO PUSH2 0x221E JUMPI PUSH2 0x221E PUSH2 0x2181 JUMP JUMPDEST DUP2 PUSH1 0x40 MSTORE DUP3 DUP2 MSTORE DUP9 PUSH1 0x20 DUP5 DUP8 ADD ADD GT ISZERO PUSH2 0x2237 JUMPI PUSH1 0x0 DUP1 REVERT JUMPDEST DUP3 PUSH1 0x20 DUP7 ADD PUSH1 0x20 DUP4 ADD CALLDATACOPY PUSH1 0x0 PUSH1 0x20 DUP5 DUP4 ADD ADD MSTORE DUP1 SWAP6 POP POP POP POP POP POP SWAP3 POP SWAP3 SWAP1 POP JUMP JUMPDEST DUP1 ISZERO ISZERO DUP2 EQ PUSH2 0x358 JUMPI PUSH1 0x0 DUP1 REVERT JUMPDEST PUSH1 0x0 DUP1 PUSH1 0x40 DUP4 DUP6 SUB SLT ISZERO PUSH2 0x227A JUMPI PUSH1 0x0 DUP1 REVERT JUMPDEST PUSH2 0x2283 DUP4 PUSH2 0x214F JUMP JUMPDEST SWAP2 POP PUSH1 0x20 DUP4 ADD CALLDATALOAD PUSH2 0x2293 DUP2 PUSH2 0x2259 JUMP JUMPDEST DUP1 SWAP2 POP POP SWAP3 POP SWAP3 SWAP1 POP JUMP JUMPDEST PUSH1 0x0 DUP1 PUSH1 0x0 PUSH1 0x60 DUP5 DUP7 SUB SLT ISZERO PUSH2 0x22B3 JUMPI PUSH1 0x0 DUP1 REVERT JUMPDEST DUP4 CALLDATALOAD SWAP3 POP PUSH2 0x22C3 PUSH1 0x20 DUP6 ADD PUSH2 0x214F JUMP JUMPDEST SWAP2 POP PUSH2 0x22D1 PUSH1 0x40 DUP6 ADD PUSH2 0x214F JUMP JUMPDEST SWAP1 POP SWAP3 POP SWAP3 POP SWAP3 JUMP JUMPDEST PUSH1 0x0 DUP1 PUSH1 0x0 PUSH1 0x60 DUP5 DUP7 SUB SLT ISZERO PUSH2 0x22EF JUMPI PUSH1 0x0 DUP1 REVERT JUMPDEST PUSH2 0x22F8 DUP5 PUSH2 0x214F JUMP JUMPDEST SWAP3 POP PUSH1 0x20 DUP5 ADD CALLDATALOAD PUSH2 0x22C3 DUP2 PUSH2 0x2259 JUMP JUMPDEST PUSH1 0x0 DUP2 MLOAD DUP1 DUP5 MSTORE PUSH1 0x20 DUP1 DUP6 ADD SWAP5 POP DUP1 DUP5 ADD PUSH1 0x0 JUMPDEST DUP4 DUP2 LT ISZERO PUSH2 0x2338 JUMPI DUP2 MLOAD DUP8 MSTORE SWAP6 DUP3 ADD SWAP6 SWAP1 DUP3 ADD SWAP1 PUSH1 0x1 ADD PUSH2 0x231C JUMP JUMPDEST POP SWAP5 SWAP6 SWAP5 POP POP POP POP POP JUMP JUMPDEST PUSH1 0x20 DUP1 DUP3 MSTORE DUP3 MLOAD PUSH1 0x1 PUSH1 0x1 PUSH1 0xA0 SHL SUB AND DUP3 DUP3 ADD MSTORE DUP3 ADD MLOAD PUSH1 0x40 DUP1 DUP4 ADD MSTORE PUSH1 0x0 SWAP1 PUSH2 0x2370 PUSH1 0x60 DUP5 ADD DUP3 PUSH2 0x2308 JUMP JUMPDEST SWAP5 SWAP4 POP POP POP POP JUMP JUMPDEST PUSH1 0x0 PUSH1 0x20 DUP3 DUP5 SUB SLT ISZERO PUSH2 0x238A JUMPI PUSH1 0x0 DUP1 REVERT JUMPDEST POP CALLDATALOAD SWAP2 SWAP1 POP JUMP JUMPDEST PUSH1 0x0 DUP2 MLOAD DUP1 DUP5 MSTORE PUSH1 0x20 DUP1 DUP6 ADD SWAP5 POP DUP1 DUP5 ADD PUSH1 0x0 JUMPDEST DUP4 DUP2 LT ISZERO PUSH2 0x2338 JUMPI DUP2 MLOAD DUP1 MLOAD DUP9 MSTORE DUP4 ADD MLOAD DUP4 DUP9 ADD MSTORE PUSH1 0x40 SWAP1 SWAP7 ADD SWAP6 SWAP1 DUP3 ADD SWAP1 PUSH1 0x1 ADD PUSH2 0x23A5 JUMP JUMPDEST PUSH1 0x20 DUP2 MSTORE DUP2 MLOAD PUSH1 0x20 DUP3 ADD MSTORE PUSH1 0x0 PUSH1 0x20 DUP4 ADD MLOAD PUSH2 0x23F3 PUSH1 0x40 DUP5 ADD DUP3 PUSH1 0x1 PUSH1 0x1 PUSH1 0xA0 SHL SUB AND SWAP1 MSTORE JUMP JUMPDEST POP PUSH1 0x40 DUP4 ADD MLOAD PUSH1 0x60 DUP4 ADD MSTORE PUSH1 0x60 DUP4 ADD MLOAD PUSH1 0x80 DUP4 ADD MSTORE PUSH1 0x80 DUP4 ADD MLOAD PUSH2 0x1C0 PUSH1 0xA0 DUP5 ADD MSTORE PUSH2 0x2423 PUSH2 0x1E0 DUP5 ADD DUP3 PUSH2 0x2308 JUMP JUMPDEST SWAP1 POP PUSH1 0xA0 DUP5 ADD MLOAD PUSH1 0x1F NOT DUP1 DUP6 DUP5 SUB ADD PUSH1 0xC0 DUP7 ADD MSTORE PUSH2 0x2441 DUP4 DUP4 PUSH2 0x2391 JUMP JUMPDEST SWAP3 POP PUSH1 0xC0 DUP7 ADD MLOAD SWAP2 POP DUP1 DUP6 DUP5 SUB ADD PUSH1 0xE0 DUP7 ADD MSTORE POP PUSH2 0x245F DUP3 DUP3 PUSH2 0x2391 JUMP JUMPDEST SWAP2 POP POP PUSH1 0xE0 DUP5 ADD MLOAD PUSH2 0x100 PUSH2 0x2497 DUP2 DUP7 ADD DUP4 DUP1 MLOAD DUP3 MSTORE PUSH1 0x20 DUP2 ADD MLOAD PUSH1 0x20 DUP4 ADD MSTORE PUSH1 0x40 DUP2 ADD MLOAD PUSH1 0x40 DUP4 ADD MSTORE PUSH1 0x60 DUP2 ADD MLOAD PUSH1 0x60 DUP4 ADD MSTORE POP POP JUMP JUMPDEST DUP6 ADD MLOAD DUP1 MLOAD PUSH2 0x180 DUP7 ADD MSTORE PUSH1 0x20 DUP2 ADD MLOAD PUSH2 0x1A0 DUP7 ADD MSTORE PUSH1 0x40 DUP2 ADD MLOAD PUSH2 0x1C0 DUP7 ADD MSTORE SWAP1 POP POP SWAP4 SWAP3 POP POP POP JUMP JUMPDEST PUSH1 0x20 DUP1 DUP3 MSTORE PUSH1 0x2C SWAP1 DUP3 ADD MSTORE PUSH32 0x46756E6374696F6E206D7573742062652063616C6C6564207468726F75676820 PUSH1 0x40 DUP3 ADD MSTORE PUSH12 0x19195B1959D85D1958D85B1B PUSH1 0xA2 SHL PUSH1 0x60 DUP3 ADD MSTORE PUSH1 0x80 ADD SWAP1 JUMP JUMPDEST PUSH1 0x20 DUP1 DUP3 MSTORE PUSH1 0x2C SWAP1 DUP3 ADD MSTORE PUSH32 0x46756E6374696F6E206D7573742062652063616C6C6564207468726F75676820 PUSH1 0x40 DUP3 ADD MSTORE PUSH12 0x6163746976652070726F7879 PUSH1 0xA0 SHL PUSH1 0x60 DUP3 ADD MSTORE PUSH1 0x80 ADD SWAP1 JUMP JUMPDEST PUSH1 0x0 PUSH1 0x20 DUP3 DUP5 SUB SLT ISZERO PUSH2 0x256C JUMPI PUSH1 0x0 DUP1 REVERT JUMPDEST DUP2 MLOAD PUSH2 0x144B DUP2 PUSH2 0x2259 JUMP JUMPDEST PUSH1 0x0 PUSH1 0x20 DUP3 DUP5 SUB SLT ISZERO PUSH2 0x2589 JUMPI PUSH1 0x0 DUP1 REVERT JUMPDEST DUP2 MLOAD PUSH1 0xFF DUP2 AND DUP2 EQ PUSH2 0x144B JUMPI PUSH1 0x0 DUP1 REVERT JUMPDEST PUSH1 0x0 PUSH1 0x20 DUP3 DUP5 SUB SLT ISZERO PUSH2 0x25AC JUMPI PUSH1 0x0 DUP1 REVERT JUMPDEST POP MLOAD SWAP2 SWAP1 POP JUMP JUMPDEST PUSH1 0x20 DUP1 DUP3 MSTORE PUSH1 0x2B SWAP1 DUP3 ADD MSTORE PUSH32 0x496E697469616C697A61626C653A20636F6E7472616374206973206E6F742069 PUSH1 0x40 DUP3 ADD MSTORE PUSH11 0x6E697469616C697A696E67 PUSH1 0xA8 SHL PUSH1 0x60 DUP3 ADD MSTORE PUSH1 0x80 ADD SWAP1 JUMP JUMPDEST PUSH4 0x4E487B71 PUSH1 0xE0 SHL PUSH1 0x0 MSTORE PUSH1 0x11 PUSH1 0x4 MSTORE PUSH1 0x24 PUSH1 0x0 REVERT JUMPDEST PUSH1 0x1 DUP2 DUP2 JUMPDEST DUP1 DUP6 GT ISZERO PUSH2 0x264F JUMPI DUP2 PUSH1 0x0 NOT DIV DUP3 GT ISZERO PUSH2 0x2635 JUMPI PUSH2 0x2635 PUSH2 0x25FE JUMP JUMPDEST DUP1 DUP6 AND ISZERO PUSH2 0x2642 JUMPI SWAP2 DUP2 MUL SWAP2 JUMPDEST SWAP4 DUP5 SHR SWAP4 SWAP1 DUP1 MUL SWAP1 PUSH2 0x2619 JUMP JUMPDEST POP SWAP3 POP SWAP3 SWAP1 POP JUMP JUMPDEST PUSH1 0x0 DUP3 PUSH2 0x2666 JUMPI POP PUSH1 0x1 PUSH2 0x2007 JUMP JUMPDEST DUP2 PUSH2 0x2673 JUMPI POP PUSH1 0x0 PUSH2 0x2007 JUMP JUMPDEST DUP2 PUSH1 0x1 DUP2 EQ PUSH2 0x2689 JUMPI PUSH1 0x2 DUP2 EQ PUSH2 0x2693 JUMPI PUSH2 0x26AF JUMP JUMPDEST PUSH1 0x1 SWAP2 POP POP PUSH2 0x2007 JUMP JUMPDEST PUSH1 0xFF DUP5 GT ISZERO PUSH2 0x26A4 JUMPI PUSH2 0x26A4 PUSH2 0x25FE JUMP JUMPDEST POP POP PUSH1 0x1 DUP3 SHL PUSH2 0x2007 JUMP JUMPDEST POP PUSH1 0x20 DUP4 LT PUSH2 0x133 DUP4 LT AND PUSH1 0x4E DUP5 LT PUSH1 0xB DUP5 LT AND OR ISZERO PUSH2 0x26D2 JUMPI POP DUP2 DUP2 EXP PUSH2 0x2007 JUMP JUMPDEST PUSH2 0x26DC DUP4 DUP4 PUSH2 0x2614 JUMP JUMPDEST DUP1 PUSH1 0x0 NOT DIV DUP3 GT ISZERO PUSH2 0x26F0 JUMPI PUSH2 0x26F0 PUSH2 0x25FE JUMP JUMPDEST MUL SWAP4 SWAP3 POP POP POP JUMP JUMPDEST PUSH1 0x0 PUSH2 0x144B PUSH1 0xFF DUP5 AND DUP4 PUSH2 0x2657 JUMP JUMPDEST DUP1 DUP3 MUL DUP2 ISZERO DUP3 DUP3 DIV DUP5 EQ OR PUSH2 0x2007 JUMPI PUSH2 0x2007 PUSH2 0x25FE JUMP JUMPDEST PUSH1 0x0 DUP3 PUSH2 0x273B JUMPI PUSH4 0x4E487B71 PUSH1 0xE0 SHL PUSH1 0x0 MSTORE PUSH1 0x12 PUSH1 0x4 MSTORE PUSH1 0x24 PUSH1 0x0 REVERT JUMPDEST POP DIV SWAP1 JUMP JUMPDEST DUP1 DUP3 ADD DUP1 DUP3 GT ISZERO PUSH2 0x2007 JUMPI PUSH2 0x2007 PUSH2 0x25FE JUMP JUMPDEST PUSH1 0x0 PUSH1 0x1 DUP3 ADD PUSH2 0x2765 JUMPI PUSH2 0x2765 PUSH2 0x25FE JUMP JUMPDEST POP PUSH1 0x1 ADD SWAP1 JUMP JUMPDEST PUSH4 0x4E487B71 PUSH1 0xE0 SHL PUSH1 0x0 MSTORE PUSH1 0x32 PUSH1 0x4 MSTORE PUSH1 0x24 PUSH1 0x0 REVERT JUMPDEST DUP2 DUP2 SUB DUP2 DUP2 GT ISZERO PUSH2 0x2007 JUMPI PUSH2 0x2007 PUSH2 0x25FE JUMP JUMPDEST PUSH4 0x4E487B71 PUSH1 0xE0 SHL PUSH1 0x0 MSTORE PUSH1 0x31 PUSH1 0x4 MSTORE PUSH1 0x24 PUSH1 0x0 REVERT JUMPDEST PUSH1 0x0 JUMPDEST DUP4 DUP2 LT ISZERO PUSH2 0x27C6 JUMPI DUP2 DUP2 ADD MLOAD DUP4 DUP3 ADD MSTORE PUSH1 0x20 ADD PUSH2 0x27AE JUMP JUMPDEST POP POP PUSH1 0x0 SWAP2 ADD MSTORE JUMP JUMPDEST PUSH1 0x0 DUP3 MLOAD PUSH2 0x27E1 DUP2 DUP5 PUSH1 0x20 DUP8 ADD PUSH2 0x27AB JUMP JUMPDEST SWAP2 SWAP1 SWAP2 ADD SWAP3 SWAP2 POP POP JUMP JUMPDEST PUSH1 0x20 DUP2 MSTORE PUSH1 0x0 DUP3 MLOAD DUP1 PUSH1 0x20 DUP5 ADD MSTORE PUSH2 0x280A DUP2 PUSH1 0x40 DUP6 ADD PUSH1 0x20 DUP8 ADD PUSH2 0x27AB JUMP JUMPDEST PUSH1 0x1F ADD PUSH1 0x1F NOT AND SWAP2 SWAP1 SWAP2 ADD PUSH1 0x40 ADD SWAP3 SWAP2 POP POP JUMP INVALID CALLDATASIZE ADDMOD SWAP5 LOG1 EXTCODESIZE LOG1 LOG3 0x21 MOD PUSH8 0xC828492DB98DCA3E KECCAK256 PUSH23 0xCC3735A920A3CA505D382BBC416464726573733A206C6F PUSH24 0x2D6C6576656C2064656C65676174652063616C6C20666169 PUSH13 0x6564A2646970667358221220AF 0xD3 0xD4 0xA8 SWAP11 SWAP5 0xD9 SWAP12 DUP2 BLOCKHASH 0xFB BYTE DUP7 CALLER 0xE7 JUMPDEST MOD 0xC9 0xAA 0xA8 PUSH7 0x11618D3744BE45 PUSH24 0x1EC25B64736F6C6343000812003300000000000000000000 "},"methodIdentifiers":{"addBaseCurrency(address,bool,address)":"f782abc7","getIdAccount(uint256)":"ff43599c","getUserAccount(address)":"fb47e016","initialize()":"8129fc1c","owner()":"8da5cb5b","paused()":"5c975abb","proxiableUUID()":"52d1902d","register(uint256,address,address)":"a73c50fa","removeBaseCurrency(address,bool)":"54f132e8","renounceOwnership()":"715018a6","transferOwnership(address)":"f2fde38b","upgradeTo(address)":"3659cfe6","upgradeToAndCall(address,bytes)":"4f1ef286"}},"storageLayout":{"storage":[{"astId":527,"contract":"contracts/GlobalFIUpgradeableNew.sol:GlobalFiUpgradeableNew","label":"_initialized","offset":0,"slot":"0","type":"t_uint8"},{"astId":530,"contract":"contracts/GlobalFIUpgradeableNew.sol:GlobalFiUpgradeableNew","label":"_initializing","offset":1,"slot":"0","type":"t_bool"},{"astId":1355,"contract":"contracts/GlobalFIUpgradeableNew.sol:GlobalFiUpgradeableNew","label":"__gap","offset":0,"slot":"1","type":"t_array(t_uint256)50_storage"},{"astId":846,"contract":"contracts/GlobalFIUpgradeableNew.sol:GlobalFiUpgradeableNew","label":"_paused","offset":0,"slot":"51","type":"t_bool"},{"astId":951,"contract":"contracts/GlobalFIUpgradeableNew.sol:GlobalFiUpgradeableNew","label":"__gap","offset":0,"slot":"52","type":"t_array(t_uint256)49_storage"},{"astId":10,"contract":"contracts/GlobalFIUpgradeableNew.sol:GlobalFiUpgradeableNew","label":"_owner","offset":0,"slot":"101","type":"t_address"},{"astId":130,"contract":"contracts/GlobalFIUpgradeableNew.sol:GlobalFiUpgradeableNew","label":"__gap","offset":0,"slot":"102","type":"t_array(t_uint256)49_storage"},{"astId":509,"contract":"contracts/GlobalFIUpgradeableNew.sol:GlobalFiUpgradeableNew","label":"__gap","offset":0,"slot":"151","type":"t_array(t_uint256)50_storage"},{"astId":824,"contract":"contracts/GlobalFIUpgradeableNew.sol:GlobalFiUpgradeableNew","label":"__gap","offset":0,"slot":"201","type":"t_array(t_uint256)50_storage"},{"astId":1528,"contract":"contracts/GlobalFIUpgradeableNew.sol:GlobalFiUpgradeableNew","label":"_users","offset":0,"slot":"251","type":"t_array(t_address)dyn_storage"},{"astId":1530,"contract":"contracts/GlobalFIUpgradeableNew.sol:GlobalFiUpgradeableNew","label":"_ids","offset":0,"slot":"252","type":"t_uint256"},{"astId":1533,"contract":"contracts/GlobalFIUpgradeableNew.sol:GlobalFiUpgradeableNew","label":"_nonGlobalIds","offset":0,"slot":"253","type":"t_array(t_uint256)dyn_storage"},{"astId":1536,"contract":"contracts/GlobalFIUpgradeableNew.sol:GlobalFiUpgradeableNew","label":"_levelRates","offset":0,"slot":"254","type":"t_array(t_uint256)dyn_storage"},{"astId":1538,"contract":"contracts/GlobalFIUpgradeableNew.sol:GlobalFiUpgradeableNew","label":"_maxRefereeLimit","offset":0,"slot":"255","type":"t_uint256"},{"astId":1540,"contract":"contracts/GlobalFIUpgradeableNew.sol:GlobalFiUpgradeableNew","label":"_teamLevelsToCount","offset":0,"slot":"256","type":"t_uint8"},{"astId":1542,"contract":"contracts/GlobalFIUpgradeableNew.sol:GlobalFiUpgradeableNew","label":"_registrationAmountInUSD","offset":0,"slot":"257","type":"t_uint256"},{"astId":1544,"contract":"contracts/GlobalFIUpgradeableNew.sol:GlobalFiUpgradeableNew","label":"_adminAddress","offset":0,"slot":"258","type":"t_address"},{"astId":1546,"contract":"contracts/GlobalFIUpgradeableNew.sol:GlobalFiUpgradeableNew","label":"_taxBeneficiaryAddress","offset":0,"slot":"259","type":"t_address"},{"astId":1548,"contract":"contracts/GlobalFIUpgradeableNew.sol:GlobalFiUpgradeableNew","label":"_taxPer","offset":0,"slot":"260","type":"t_uint256"},{"astId":1552,"contract":"contracts/GlobalFIUpgradeableNew.sol:GlobalFiUpgradeableNew","label":"_supportedTokensList","offset":0,"slot":"261","type":"t_array(t_struct(SupportedTokensStruct)1459_storage)dyn_storage"},{"astId":1557,"contract":"contracts/GlobalFIUpgradeableNew.sol:GlobalFiUpgradeableNew","label":"_mappingAccounts","offset":0,"slot":"262","type":"t_mapping(t_address,t_struct(AccountStruct)1491_storage)"},{"astId":1562,"contract":"contracts/GlobalFIUpgradeableNew.sol:GlobalFiUpgradeableNew","label":"_mappingIds","offset":0,"slot":"263","type":"t_mapping(t_uint256,t_struct(IdStruct)1517_storage)"},{"astId":1567,"contract":"contracts/GlobalFIUpgradeableNew.sol:GlobalFiUpgradeableNew","label":"_mappingSupportedToken","offset":0,"slot":"264","type":"t_mapping(t_address,t_struct(SupportedTokensStruct)1459_storage)"}],"types":{"t_address":{"encoding":"inplace","label":"address","numberOfBytes":"20"},"t_array(t_address)dyn_storage":{"base":"t_address","encoding":"dynamic_array","label":"address[]","numberOfBytes":"32"},"t_array(t_struct(RefereeAssignedStruct)1485_storage)dyn_storage":{"base":"t_struct(RefereeAssignedStruct)1485_storage","encoding":"dynamic_array","label":"struct RefereeAssignedStruct[]","numberOfBytes":"32"},"t_array(t_struct(SupportedTokensStruct)1459_storage)dyn_storage":{"base":"t_struct(SupportedTokensStruct)1459_storage","encoding":"dynamic_array","label":"struct SupportedTokensStruct[]","numberOfBytes":"32"},"t_array(t_struct(TeamStruct)1464_storage)dyn_storage":{"base":"t_struct(TeamStruct)1464_storage","encoding":"dynamic_array","label":"struct TeamStruct[]","numberOfBytes":"32"},"t_array(t_uint256)49_storage":{"base":"t_uint256","encoding":"inplace","label":"uint256[49]","numberOfBytes":"1568"},"t_array(t_uint256)50_storage":{"base":"t_uint256","encoding":"inplace","label":"uint256[50]","numberOfBytes":"1600"},"t_array(t_uint256)dyn_storage":{"base":"t_uint256","encoding":"dynamic_array","label":"uint256[]","numberOfBytes":"32"},"t_bool":{"encoding":"inplace","label":"bool","numberOfBytes":"1"},"t_mapping(t_address,t_struct(AccountStruct)1491_storage)":{"encoding":"mapping","key":"t_address","label":"mapping(address => struct AccountStruct)","numberOfBytes":"32","value":"t_struct(AccountStruct)1491_storage"},"t_mapping(t_address,t_struct(SupportedTokensStruct)1459_storage)":{"encoding":"mapping","key":"t_address","label":"mapping(address => struct SupportedTokensStruct)","numberOfBytes":"32","value":"t_struct(SupportedTokensStruct)1459_storage"},"t_mapping(t_uint256,t_struct(IdStruct)1517_storage)":{"encoding":"mapping","key":"t_uint256","label":"mapping(uint256 => struct IdStruct)","numberOfBytes":"32","value":"t_struct(IdStruct)1517_storage"},"t_struct(AccountStruct)1491_storage":{"encoding":"inplace","label":"struct AccountStruct","members":[{"astId":1487,"contract":"contracts/GlobalFIUpgradeableNew.sol:GlobalFiUpgradeableNew","label":"selfAddress","offset":0,"slot":"0","type":"t_address"},{"astId":1490,"contract":"contracts/GlobalFIUpgradeableNew.sol:GlobalFiUpgradeableNew","label":"ids","offset":0,"slot":"1","type":"t_array(t_uint256)dyn_storage"}],"numberOfBytes":"64"},"t_struct(BusinessStruct)1473_storage":{"encoding":"inplace","label":"struct BusinessStruct","members":[{"astId":1466,"contract":"contracts/GlobalFIUpgradeableNew.sol:GlobalFiUpgradeableNew","label":"selfBusiness","offset":0,"slot":"0","type":"t_uint256"},{"astId":1468,"contract":"contracts/GlobalFIUpgradeableNew.sol:GlobalFiUpgradeableNew","label":"directBusiness","offset":0,"slot":"1","type":"t_uint256"},{"astId":1470,"contract":"contracts/GlobalFIUpgradeableNew.sol:GlobalFiUpgradeableNew","label":"teamBusiness","offset":0,"slot":"2","type":"t_uint256"},{"astId":1472,"contract":"contracts/GlobalFIUpgradeableNew.sol:GlobalFiUpgradeableNew","label":"spillOverBusiness","offset":0,"slot":"3","type":"t_uint256"}],"numberOfBytes":"128"},"t_struct(IdStruct)1517_storage":{"encoding":"inplace","label":"struct IdStruct","members":[{"astId":1493,"contract":"contracts/GlobalFIUpgradeableNew.sol:GlobalFiUpgradeableNew","label":"id","offset":0,"slot":"0","type":"t_uint256"},{"astId":1495,"contract":"contracts/GlobalFIUpgradeableNew.sol:GlobalFiUpgradeableNew","label":"owner","offset":0,"slot":"1","type":"t_address"},{"astId":1497,"contract":"contracts/GlobalFIUpgradeableNew.sol:GlobalFiUpgradeableNew","label":"referrerId","offset":0,"slot":"2","type":"t_uint256"},{"astId":1499,"contract":"contracts/GlobalFIUpgradeableNew.sol:GlobalFiUpgradeableNew","label":"parentId","offset":0,"slot":"3","type":"t_uint256"},{"astId":1502,"contract":"contracts/GlobalFIUpgradeableNew.sol:GlobalFiUpgradeableNew","label":"refereeIds","offset":0,"slot":"4","type":"t_array(t_uint256)dyn_storage"},{"astId":1506,"contract":"contracts/GlobalFIUpgradeableNew.sol:GlobalFiUpgradeableNew","label":"refereesAssigned","offset":0,"slot":"5","type":"t_array(t_struct(RefereeAssignedStruct)1485_storage)dyn_storage"},{"astId":1510,"contract":"contracts/GlobalFIUpgradeableNew.sol:GlobalFiUpgradeableNew","label":"team","offset":0,"slot":"6","type":"t_array(t_struct(TeamStruct)1464_storage)dyn_storage"},{"astId":1513,"contract":"contracts/GlobalFIUpgradeableNew.sol:GlobalFiUpgradeableNew","label":"business","offset":0,"slot":"7","type":"t_struct(BusinessStruct)1473_storage"},{"astId":1516,"contract":"contracts/GlobalFIUpgradeableNew.sol:GlobalFiUpgradeableNew","label":"rewards","offset":0,"slot":"11","type":"t_struct(RewardsStruct)1480_storage"}],"numberOfBytes":"448"},"t_struct(RefereeAssignedStruct)1485_storage":{"encoding":"inplace","label":"struct RefereeAssignedStruct","members":[{"astId":1482,"contract":"contracts/GlobalFIUpgradeableNew.sol:GlobalFiUpgradeableNew","label":"refereeId","offset":0,"slot":"0","type":"t_uint256"},{"astId":1484,"contract":"contracts/GlobalFIUpgradeableNew.sol:GlobalFiUpgradeableNew","label":"assignedToid","offset":0,"slot":"1","type":"t_uint256"}],"numberOfBytes":"64"},"t_struct(RewardsStruct)1480_storage":{"encoding":"inplace","label":"struct RewardsStruct","members":[{"astId":1475,"contract":"contracts/GlobalFIUpgradeableNew.sol:GlobalFiUpgradeableNew","label":"referralRewards","offset":0,"slot":"0","type":"t_uint256"},{"astId":1477,"contract":"contracts/GlobalFIUpgradeableNew.sol:GlobalFiUpgradeableNew","label":"spillOverRewards","offset":0,"slot":"1","type":"t_uint256"},{"astId":1479,"contract":"contracts/GlobalFIUpgradeableNew.sol:GlobalFiUpgradeableNew","label":"globalRewards","offset":0,"slot":"2","type":"t_uint256"}],"numberOfBytes":"96"},"t_struct(SupportedTokensStruct)1459_storage":{"encoding":"inplace","label":"struct SupportedTokensStruct","members":[{"astId":1450,"contract":"contracts/GlobalFIUpgradeableNew.sol:GlobalFiUpgradeableNew","label":"contractAddress","offset":0,"slot":"0","type":"t_address"},{"astId":1452,"contract":"contracts/GlobalFIUpgradeableNew.sol:GlobalFiUpgradeableNew","label":"decimals","offset":0,"slot":"1","type":"t_uint256"},{"astId":1454,"contract":"contracts/GlobalFIUpgradeableNew.sol:GlobalFiUpgradeableNew","label":"isStable","offset":0,"slot":"2","type":"t_bool"},{"astId":1456,"contract":"contracts/GlobalFIUpgradeableNew.sol:GlobalFiUpgradeableNew","label":"aggregatorAddress","offset":1,"slot":"2","type":"t_address"},{"astId":1458,"contract":"contracts/GlobalFIUpgradeableNew.sol:GlobalFiUpgradeableNew","label":"isEnaled","offset":21,"slot":"2","type":"t_bool"}],"numberOfBytes":"96"},"t_struct(TeamStruct)1464_storage":{"encoding":"inplace","label":"struct TeamStruct","members":[{"astId":1461,"contract":"contracts/GlobalFIUpgradeableNew.sol:GlobalFiUpgradeableNew","label":"teamId","offset":0,"slot":"0","type":"t_uint256"},{"astId":1463,"contract":"contracts/GlobalFIUpgradeableNew.sol:GlobalFiUpgradeableNew","label":"teamLevel","offset":0,"slot":"1","type":"t_uint256"}],"numberOfBytes":"64"},"t_uint256":{"encoding":"inplace","label":"uint256","numberOfBytes":"32"},"t_uint8":{"encoding":"inplace","label":"uint8","numberOfBytes":"1"}}}}}}