{
  "_format": "hh-sol-artifact-1",
  "contractName": "TTether",
  "sourceName": "contracts/tUSDT.sol",
  "abi": [
    {
      "inputs": [],
      "stateMutability": "nonpayable",
      "type": "constructor"
    },
    {
      "anonymous": false,
      "inputs": [
        {
          "indexed": false,
          "internalType": "address",
          "name": "previousAdmin",
          "type": "address"
        },
        {
          "indexed": false,
          "internalType": "address",
          "name": "newAdmin",
          "type": "address"
        }
      ],
      "name": "AdminChanged",
      "type": "event"
    },
    {
      "anonymous": false,
      "inputs": [
        {
          "indexed": true,
          "internalType": "address",
          "name": "owner",
          "type": "address"
        },
        {
          "indexed": true,
          "internalType": "address",
          "name": "spender",
          "type": "address"
        },
        {
          "indexed": false,
          "internalType": "uint256",
          "name": "value",
          "type": "uint256"
        }
      ],
      "name": "Approval",
      "type": "event"
    },
    {
      "anonymous": false,
      "inputs": [
        {
          "indexed": true,
          "internalType": "address",
          "name": "beacon",
          "type": "address"
        }
      ],
      "name": "BeaconUpgraded",
      "type": "event"
    },
    {
      "anonymous": false,
      "inputs": [
        {
          "indexed": false,
          "internalType": "uint8",
          "name": "version",
          "type": "uint8"
        }
      ],
      "name": "Initialized",
      "type": "event"
    },
    {
      "anonymous": false,
      "inputs": [
        {
          "indexed": true,
          "internalType": "address",
          "name": "previousOwner",
          "type": "address"
        },
        {
          "indexed": true,
          "internalType": "address",
          "name": "newOwner",
          "type": "address"
        }
      ],
      "name": "OwnershipTransferred",
      "type": "event"
    },
    {
      "anonymous": false,
      "inputs": [
        {
          "indexed": true,
          "internalType": "address",
          "name": "from",
          "type": "address"
        },
        {
          "indexed": true,
          "internalType": "address",
          "name": "to",
          "type": "address"
        },
        {
          "indexed": false,
          "internalType": "uint256",
          "name": "value",
          "type": "uint256"
        }
      ],
      "name": "Transfer",
      "type": "event"
    },
    {
      "anonymous": false,
      "inputs": [
        {
          "indexed": true,
          "internalType": "address",
          "name": "implementation",
          "type": "address"
        }
      ],
      "name": "Upgraded",
      "type": "event"
    },
    {
      "inputs": [
        {
          "internalType": "address",
          "name": "owner",
          "type": "address"
        },
        {
          "internalType": "address",
          "name": "spender",
          "type": "address"
        }
      ],
      "name": "allowance",
      "outputs": [
        {
          "internalType": "uint256",
          "name": "",
          "type": "uint256"
        }
      ],
      "stateMutability": "view",
      "type": "function"
    },
    {
      "inputs": [
        {
          "internalType": "address",
          "name": "spender",
          "type": "address"
        },
        {
          "internalType": "uint256",
          "name": "amount",
          "type": "uint256"
        }
      ],
      "name": "approve",
      "outputs": [
        {
          "internalType": "bool",
          "name": "",
          "type": "bool"
        }
      ],
      "stateMutability": "nonpayable",
      "type": "function"
    },
    {
      "inputs": [
        {
          "internalType": "address",
          "name": "account",
          "type": "address"
        }
      ],
      "name": "balanceOf",
      "outputs": [
        {
          "internalType": "uint256",
          "name": "",
          "type": "uint256"
        }
      ],
      "stateMutability": "view",
      "type": "function"
    },
    {
      "inputs": [],
      "name": "decimals",
      "outputs": [
        {
          "internalType": "uint8",
          "name": "",
          "type": "uint8"
        }
      ],
      "stateMutability": "view",
      "type": "function"
    },
    {
      "inputs": [
        {
          "internalType": "address",
          "name": "spender",
          "type": "address"
        },
        {
          "internalType": "uint256",
          "name": "subtractedValue",
          "type": "uint256"
        }
      ],
      "name": "decreaseAllowance",
      "outputs": [
        {
          "internalType": "bool",
          "name": "",
          "type": "bool"
        }
      ],
      "stateMutability": "nonpayable",
      "type": "function"
    },
    {
      "inputs": [
        {
          "internalType": "address",
          "name": "spender",
          "type": "address"
        },
        {
          "internalType": "uint256",
          "name": "addedValue",
          "type": "uint256"
        }
      ],
      "name": "increaseAllowance",
      "outputs": [
        {
          "internalType": "bool",
          "name": "",
          "type": "bool"
        }
      ],
      "stateMutability": "nonpayable",
      "type": "function"
    },
    {
      "inputs": [],
      "name": "initialize",
      "outputs": [],
      "stateMutability": "nonpayable",
      "type": "function"
    },
    {
      "inputs": [
        {
          "internalType": "address",
          "name": "to",
          "type": "address"
        },
        {
          "internalType": "uint256",
          "name": "amount",
          "type": "uint256"
        }
      ],
      "name": "mint",
      "outputs": [],
      "stateMutability": "nonpayable",
      "type": "function"
    },
    {
      "inputs": [],
      "name": "name",
      "outputs": [
        {
          "internalType": "string",
          "name": "",
          "type": "string"
        }
      ],
      "stateMutability": "view",
      "type": "function"
    },
    {
      "inputs": [],
      "name": "owner",
      "outputs": [
        {
          "internalType": "address",
          "name": "",
          "type": "address"
        }
      ],
      "stateMutability": "view",
      "type": "function"
    },
    {
      "inputs": [],
      "name": "proxiableUUID",
      "outputs": [
        {
          "internalType": "bytes32",
          "name": "",
          "type": "bytes32"
        }
      ],
      "stateMutability": "view",
      "type": "function"
    },
    {
      "inputs": [],
      "name": "renounceOwnership",
      "outputs": [],
      "stateMutability": "nonpayable",
      "type": "function"
    },
    {
      "inputs": [],
      "name": "symbol",
      "outputs": [
        {
          "internalType": "string",
          "name": "",
          "type": "string"
        }
      ],
      "stateMutability": "view",
      "type": "function"
    },
    {
      "inputs": [],
      "name": "totalSupply",
      "outputs": [
        {
          "internalType": "uint256",
          "name": "",
          "type": "uint256"
        }
      ],
      "stateMutability": "view",
      "type": "function"
    },
    {
      "inputs": [
        {
          "internalType": "address",
          "name": "to",
          "type": "address"
        },
        {
          "internalType": "uint256",
          "name": "amount",
          "type": "uint256"
        }
      ],
      "name": "transfer",
      "outputs": [
        {
          "internalType": "bool",
          "name": "",
          "type": "bool"
        }
      ],
      "stateMutability": "nonpayable",
      "type": "function"
    },
    {
      "inputs": [
        {
          "internalType": "address",
          "name": "from",
          "type": "address"
        },
        {
          "internalType": "address",
          "name": "to",
          "type": "address"
        },
        {
          "internalType": "uint256",
          "name": "amount",
          "type": "uint256"
        }
      ],
      "name": "transferFrom",
      "outputs": [
        {
          "internalType": "bool",
          "name": "",
          "type": "bool"
        }
      ],
      "stateMutability": "nonpayable",
      "type": "function"
    },
    {
      "inputs": [
        {
          "internalType": "address",
          "name": "newOwner",
          "type": "address"
        }
      ],
      "name": "transferOwnership",
      "outputs": [],
      "stateMutability": "nonpayable",
      "type": "function"
    },
    {
      "inputs": [
        {
          "internalType": "address",
          "name": "newImplementation",
          "type": "address"
        }
      ],
      "name": "upgradeTo",
      "outputs": [],
      "stateMutability": "nonpayable",
      "type": "function"
    },
    {
      "inputs": [
        {
          "internalType": "address",
          "name": "newImplementation",
          "type": "address"
        },
        {
          "internalType": "bytes",
          "name": "data",
          "type": "bytes"
        }
      ],
      "name": "upgradeToAndCall",
      "outputs": [],
      "stateMutability": "payable",
      "type": "function"
    }
  ],
  "bytecode": "0x60a060405230608052348015610013575f80fd5b5061001c610021565b6100de565b5f54610100900460ff161561008c5760405162461bcd60e51b815260206004820152602760248201527f496e697469616c697a61626c653a20636f6e747261637420697320696e697469604482015266616c697a696e6760c81b606482015260840160405180910390fd5b5f5460ff90811610156100dc575f805460ff191660ff9081179091556040519081527f7f26b83ff96e1f2b6a682f133852f6798a09c465da95921460cefb38474024989060200160405180910390a15b565b6080516118c16101125f395f81816104360152818161047f0152818161055301528181610593015261062001526118c15ff3fe608060405260043610610110575f3560e01c806352d1902d1161009d57806395d89b411161006257806395d89b41146102ce578063a457c2d7146102e2578063a9059cbb14610301578063dd62ed3e14610320578063f2fde38b1461033f575f80fd5b806352d1902d1461023757806370a082311461024b578063715018a61461027f5780638129fc1c146102935780638da5cb5b146102a7575f80fd5b8063313ce567116100e3578063313ce567146101aa5780633659cfe6146101c557806339509351146101e657806340c10f19146102055780634f1ef28614610224575f80fd5b806306fdde0314610114578063095ea7b31461013e57806318160ddd1461016d57806323b872dd1461018b575b5f80fd5b34801561011f575f80fd5b5061012861035e565b60405161013591906112fa565b60405180910390f35b348015610149575f80fd5b5061015d610158366004611347565b6103ee565b6040519015158152602001610135565b348015610178575f80fd5b506035545b604051908152602001610135565b348015610196575f80fd5b5061015d6101a536600461136f565b610407565b3480156101b5575f80fd5b5060405160128152602001610135565b3480156101d0575f80fd5b506101e46101df3660046113a8565b61042c565b005b3480156101f1575f80fd5b5061015d610200366004611347565b610512565b348015610210575f80fd5b506101e461021f366004611347565b610533565b6101e46102323660046113d5565b610549565b348015610242575f80fd5b5061017d610614565b348015610256575f80fd5b5061017d6102653660046113a8565b6001600160a01b03165f9081526033602052604090205490565b34801561028a575f80fd5b506101e46106c5565b34801561029e575f80fd5b506101e46106d8565b3480156102b2575f80fd5b506065546040516001600160a01b039091168152602001610135565b3480156102d9575f80fd5b50610128610854565b3480156102ed575f80fd5b5061015d6102fc366004611347565b610863565b34801561030c575f80fd5b5061015d61031b366004611347565b6108e8565b34801561032b575f80fd5b5061017d61033a366004611491565b6108f5565b34801561034a575f80fd5b506101e46103593660046113a8565b61091f565b60606036805461036d906114c2565b80601f0160208091040260200160405190810160405280929190818152602001828054610399906114c2565b80156103e45780601f106103bb576101008083540402835291602001916103e4565b820191905f5260205f20905b8154815290600101906020018083116103c757829003601f168201915b5050505050905090565b5f336103fb818585610995565b60019150505b92915050565b5f33610414858285610ab8565b61041f858585610b30565b60019150505b9392505050565b6001600160a01b037f000000000000000000000000000000000000000000000000000000000000000016300361047d5760405162461bcd60e51b8152600401610474906114fa565b60405180910390fd5b7f00000000000000000000000000000000000000000000000000000000000000006001600160a01b03166104c55f80516020611845833981519152546001600160a01b031690565b6001600160a01b0316146104eb5760405162461bcd60e51b815260040161047490611546565b6104f481610cd9565b604080515f8082526020820190925261050f91839190610ce1565b50565b5f336103fb81858561052483836108f5565b61052e91906115a6565b610995565b61053b610e50565b6105458282610eaa565b5050565b6001600160a01b037f00000000000000000000000000000000000000000000000000000000000000001630036105915760405162461bcd60e51b8152600401610474906114fa565b7f00000000000000000000000000000000000000000000000000000000000000006001600160a01b03166105d95f80516020611845833981519152546001600160a01b031690565b6001600160a01b0316146105ff5760405162461bcd60e51b815260040161047490611546565b61060882610cd9565b61054582826001610ce1565b5f306001600160a01b037f000000000000000000000000000000000000000000000000000000000000000016146106b35760405162461bcd60e51b815260206004820152603860248201527f555550535570677261646561626c653a206d757374206e6f742062652063616c60448201527f6c6564207468726f7567682064656c656761746563616c6c00000000000000006064820152608401610474565b505f8051602061184583398151915290565b6106cd610e50565b6106d65f610f69565b565b5f54610100900460ff16158080156106f657505f54600160ff909116105b8061070f5750303b15801561070f57505f5460ff166001145b6107725760405162461bcd60e51b815260206004820152602e60248201527f496e697469616c697a61626c653a20636f6e747261637420697320616c72656160448201526d191e481a5b9a5d1a585b1a5e995960921b6064820152608401610474565b5f805460ff191660011790558015610793575f805461ff0019166101001790555b6107d9604051806040016040528060078152602001663a2a32ba3432b960c91b815250604051806040016040528060058152602001641d1554d11560da1b815250610fba565b6107e1610fea565b6107e9611018565b61080d336107f96012600a611699565b6108089064174876e8006116a7565b610eaa565b801561050f575f805461ff0019169055604051600181527f7f26b83ff96e1f2b6a682f133852f6798a09c465da95921460cefb38474024989060200160405180910390a150565b60606037805461036d906114c2565b5f338161087082866108f5565b9050838110156108d05760405162461bcd60e51b815260206004820152602560248201527f45524332303a2064656372656173656420616c6c6f77616e63652062656c6f77604482015264207a65726f60d81b6064820152608401610474565b6108dd8286868403610995565b506001949350505050565b5f336103fb818585610b30565b6001600160a01b039182165f90815260346020908152604080832093909416825291909152205490565b610927610e50565b6001600160a01b03811661098c5760405162461bcd60e51b815260206004820152602660248201527f4f776e61626c653a206e6577206f776e657220697320746865207a65726f206160448201526564647265737360d01b6064820152608401610474565b61050f81610f69565b6001600160a01b0383166109f75760405162461bcd60e51b8152602060048201526024808201527f45524332303a20617070726f76652066726f6d20746865207a65726f206164646044820152637265737360e01b6064820152608401610474565b6001600160a01b038216610a585760405162461bcd60e51b815260206004820152602260248201527f45524332303a20617070726f766520746f20746865207a65726f206164647265604482015261737360f01b6064820152608401610474565b6001600160a01b038381165f8181526034602090815260408083209487168084529482529182902085905590518481527f8c5be1e5ebec7d5bd14f71427d1e84f3dd0314c0f7b2291e5b200ac8c7c3b925910160405180910390a3505050565b5f610ac384846108f5565b90505f198114610b2a5781811015610b1d5760405162461bcd60e51b815260206004820152601d60248201527f45524332303a20696e73756666696369656e7420616c6c6f77616e63650000006044820152606401610474565b610b2a8484848403610995565b50505050565b6001600160a01b038316610b945760405162461bcd60e51b815260206004820152602560248201527f45524332303a207472616e736665722066726f6d20746865207a65726f206164604482015264647265737360d81b6064820152608401610474565b6001600160a01b038216610bf65760405162461bcd60e51b815260206004820152602360248201527f45524332303a207472616e7366657220746f20746865207a65726f206164647260448201526265737360e81b6064820152608401610474565b6001600160a01b0383165f9081526033602052604090205481811015610c6d5760405162461bcd60e51b815260206004820152602660248201527f45524332303a207472616e7366657220616d6f756e7420657863656564732062604482015265616c616e636560d01b6064820152608401610474565b6001600160a01b038085165f8181526033602052604080822086860390559286168082529083902080548601905591517fddf252ad1be2c89b69c2b068fc378daa952ba7f163c4a11628f55a4df523b3ef90610ccc9086815260200190565b60405180910390a3610b2a565b61050f610e50565b7f4910fdfa16fed3260ed0e7147f7cc6da11a60208b5b9406d12a635614ffd91435460ff1615610d1957610d148361103e565b505050565b826001600160a01b03166352d1902d6040518163ffffffff1660e01b8152600401602060405180830381865afa925050508015610d73575060408051601f3d908101601f19168201909252610d70918101906116be565b60015b610dd65760405162461bcd60e51b815260206004820152602e60248201527f45524331393637557067726164653a206e657720696d706c656d656e7461746960448201526d6f6e206973206e6f74205555505360901b6064820152608401610474565b5f805160206118458339815191528114610e445760405162461bcd60e51b815260206004820152602960248201527f45524331393637557067726164653a20756e737570706f727465642070726f786044820152681a58589b195555525160ba1b6064820152608401610474565b50610d148383836110d9565b6065546001600160a01b031633146106d65760405162461bcd60e51b815260206004820181905260248201527f4f776e61626c653a2063616c6c6572206973206e6f7420746865206f776e65726044820152606401610474565b6001600160a01b038216610f005760405162461bcd60e51b815260206004820152601f60248201527f45524332303a206d696e7420746f20746865207a65726f2061646472657373006044820152606401610474565b8060355f828254610f1191906115a6565b90915550506001600160a01b0382165f818152603360209081526040808320805486019055518481527fddf252ad1be2c89b69c2b068fc378daa952ba7f163c4a11628f55a4df523b3ef910160405180910390a35050565b606580546001600160a01b038381166001600160a01b0319831681179093556040519116919082907f8be0079c531659141344cd1fd0a4f28419497f9722a3daafe3b4186f6b6457e0905f90a35050565b5f54610100900460ff16610fe05760405162461bcd60e51b8152600401610474906116d5565b61054582826110fd565b5f54610100900460ff166110105760405162461bcd60e51b8152600401610474906116d5565b6106d661113c565b5f54610100900460ff166106d65760405162461bcd60e51b8152600401610474906116d5565b6001600160a01b0381163b6110ab5760405162461bcd60e51b815260206004820152602d60248201527f455243313936373a206e657720696d706c656d656e746174696f6e206973206e60448201526c1bdd08184818dbdb9d1c9858dd609a1b6064820152608401610474565b5f8051602061184583398151915280546001600160a01b0319166001600160a01b0392909216919091179055565b6110e28361116b565b5f825111806110ee5750805b15610d1457610b2a83836111aa565b5f54610100900460ff166111235760405162461bcd60e51b8152600401610474906116d5565b603661112f838261176d565b506037610d14828261176d565b5f54610100900460ff166111625760405162461bcd60e51b8152600401610474906116d5565b6106d633610f69565b6111748161103e565b6040516001600160a01b038216907fbc7cd75a20ee27fd9adebab32041f755214dbc6bffa90cc0225b39da2e5c2d3b905f90a250565b60606001600160a01b0383163b6112125760405162461bcd60e51b815260206004820152602660248201527f416464726573733a2064656c65676174652063616c6c20746f206e6f6e2d636f6044820152651b9d1c9858dd60d21b6064820152608401610474565b5f80846001600160a01b03168460405161122c9190611829565b5f60405180830381855af49150503d805f8114611264576040519150601f19603f3d011682016040523d82523d5f602084013e611269565b606091505b509150915061129182826040518060600160405280602781526020016118656027913961129a565b95945050505050565b606083156112a9575081610425565b61042583838151156112be5781518083602001fd5b8060405162461bcd60e51b815260040161047491906112fa565b5f5b838110156112f25781810151838201526020016112da565b50505f910152565b602081525f82518060208401526113188160408501602087016112d8565b601f01601f19169190910160400192915050565b80356001600160a01b0381168114611342575f80fd5b919050565b5f8060408385031215611358575f80fd5b6113618361132c565b946020939093013593505050565b5f805f60608486031215611381575f80fd5b61138a8461132c565b92506113986020850161132c565b9150604084013590509250925092565b5f602082840312156113b8575f80fd5b6104258261132c565b634e487b7160e01b5f52604160045260245ffd5b5f80604083850312156113e6575f80fd5b6113ef8361132c565b9150602083013567ffffffffffffffff8082111561140b575f80fd5b818501915085601f83011261141e575f80fd5b813581811115611430576114306113c1565b604051601f8201601f19908116603f01168101908382118183101715611458576114586113c1565b81604052828152886020848701011115611470575f80fd5b826020860160208301375f6020848301015280955050505050509250929050565b5f80604083850312156114a2575f80fd5b6114ab8361132c565b91506114b96020840161132c565b90509250929050565b600181811c908216806114d657607f821691505b6020821081036114f457634e487b7160e01b5f52602260045260245ffd5b50919050565b6020808252602c908201527f46756e6374696f6e206d7573742062652063616c6c6564207468726f7567682060408201526b19195b1959d85d1958d85b1b60a21b606082015260800190565b6020808252602c908201527f46756e6374696f6e206d7573742062652063616c6c6564207468726f7567682060408201526b6163746976652070726f787960a01b606082015260800190565b634e487b7160e01b5f52601160045260245ffd5b8082018082111561040157610401611592565b600181815b808511156115f357815f19048211156115d9576115d9611592565b808516156115e657918102915b93841c93908002906115be565b509250929050565b5f8261160957506001610401565b8161161557505f610401565b816001811461162b576002811461163557611651565b6001915050610401565b60ff84111561164657611646611592565b50506001821b610401565b5060208310610133831016604e8410600b8410161715611674575081810a610401565b61167e83836115b9565b805f190482111561169157611691611592565b029392505050565b5f61042560ff8416836115fb565b808202811582820484141761040157610401611592565b5f602082840312156116ce575f80fd5b5051919050565b6020808252602b908201527f496e697469616c697a61626c653a20636f6e7472616374206973206e6f74206960408201526a6e697469616c697a696e6760a81b606082015260800190565b601f821115610d14575f81815260208120601f850160051c810160208610156117465750805b601f850160051c820191505b8181101561176557828155600101611752565b505050505050565b815167ffffffffffffffff811115611787576117876113c1565b61179b8161179584546114c2565b84611720565b602080601f8311600181146117ce575f84156117b75750858301515b5f19600386901b1c1916600185901b178555611765565b5f85815260208120601f198616915b828110156117fc578886015182559484019460019091019084016117dd565b508582101561181957878501515f19600388901b60f8161c191681555b5050505050600190811b01905550565b5f825161183a8184602087016112d8565b919091019291505056fe360894a13ba1a3210667c828492db98dca3e2076cc3735a920a3ca505d382bbc416464726573733a206c6f772d6c6576656c2064656c65676174652063616c6c206661696c6564a2646970667358221220866f41877e5e0ee505601b103f9df96412b3c55e9c054e32790ea80266b3347d64736f6c63430008140033",
  "linkReferences": {},
  "deployedLinkReferences": {}
}