{
  "_format": "hh-sol-artifact-1",
  "contractName": "GlobalFiUpgradeable",
  "sourceName": "contracts/GlobalFIUpgradeable.sol",
  "abi": [
    {
      "anonymous": false,
      "inputs": [
        {
          "indexed": false,
          "internalType": "address",
          "name": "previousAdmin",
          "type": "address"
        },
        {
          "indexed": false,
          "internalType": "address",
          "name": "newAdmin",
          "type": "address"
        }
      ],
      "name": "AdminChanged",
      "type": "event"
    },
    {
      "anonymous": false,
      "inputs": [
        {
          "indexed": true,
          "internalType": "address",
          "name": "beacon",
          "type": "address"
        }
      ],
      "name": "BeaconUpgraded",
      "type": "event"
    },
    {
      "anonymous": false,
      "inputs": [
        {
          "indexed": false,
          "internalType": "uint256",
          "name": "referrerId",
          "type": "uint256"
        },
        {
          "indexed": false,
          "internalType": "uint256",
          "name": "userId",
          "type": "uint256"
        },
        {
          "indexed": false,
          "internalType": "uint256",
          "name": "valueInWei",
          "type": "uint256"
        }
      ],
      "name": "DirectBusinessUpdated",
      "type": "event"
    },
    {
      "anonymous": false,
      "inputs": [
        {
          "indexed": false,
          "internalType": "uint256",
          "name": "id",
          "type": "uint256"
        },
        {
          "indexed": false,
          "internalType": "uint8",
          "name": "poolId",
          "type": "uint8"
        },
        {
          "indexed": false,
          "internalType": "uint256",
          "name": "rewardInWei",
          "type": "uint256"
        }
      ],
      "name": "DistributedPoolReward",
      "type": "event"
    },
    {
      "anonymous": false,
      "inputs": [
        {
          "indexed": false,
          "internalType": "address",
          "name": "userAddress",
          "type": "address"
        },
        {
          "indexed": false,
          "internalType": "uint256",
          "name": "id",
          "type": "uint256"
        }
      ],
      "name": "IdOwnerUpdated",
      "type": "event"
    },
    {
      "anonymous": false,
      "inputs": [
        {
          "indexed": false,
          "internalType": "address",
          "name": "userAddress",
          "type": "address"
        },
        {
          "indexed": false,
          "internalType": "uint256",
          "name": "id",
          "type": "uint256"
        }
      ],
      "name": "IdUpdated",
      "type": "event"
    },
    {
      "anonymous": false,
      "inputs": [
        {
          "indexed": false,
          "internalType": "uint256",
          "name": "id",
          "type": "uint256"
        },
        {
          "indexed": false,
          "internalType": "uint8",
          "name": "poolId",
          "type": "uint8"
        }
      ],
      "name": "IdUpgradedInPool",
      "type": "event"
    },
    {
      "anonymous": false,
      "inputs": [
        {
          "indexed": false,
          "internalType": "uint8",
          "name": "version",
          "type": "uint8"
        }
      ],
      "name": "Initialized",
      "type": "event"
    },
    {
      "anonymous": false,
      "inputs": [
        {
          "indexed": true,
          "internalType": "address",
          "name": "previousOwner",
          "type": "address"
        },
        {
          "indexed": true,
          "internalType": "address",
          "name": "newOwner",
          "type": "address"
        }
      ],
      "name": "OwnershipTransferred",
      "type": "event"
    },
    {
      "anonymous": false,
      "inputs": [
        {
          "indexed": false,
          "internalType": "address",
          "name": "account",
          "type": "address"
        }
      ],
      "name": "Paused",
      "type": "event"
    },
    {
      "anonymous": false,
      "inputs": [
        {
          "indexed": false,
          "internalType": "uint256",
          "name": "parentId",
          "type": "uint256"
        },
        {
          "indexed": false,
          "internalType": "uint256",
          "name": "referrerId",
          "type": "uint256"
        },
        {
          "indexed": false,
          "internalType": "uint256",
          "name": "userId",
          "type": "uint256"
        }
      ],
      "name": "RefereeAssigned",
      "type": "event"
    },
    {
      "anonymous": false,
      "inputs": [
        {
          "indexed": false,
          "internalType": "uint256",
          "name": "referrerId",
          "type": "uint256"
        },
        {
          "indexed": false,
          "internalType": "uint256",
          "name": "userId",
          "type": "uint256"
        },
        {
          "indexed": false,
          "internalType": "uint256",
          "name": "referralValue",
          "type": "uint256"
        },
        {
          "indexed": false,
          "internalType": "uint256",
          "name": "level",
          "type": "uint256"
        }
      ],
      "name": "ReferralDistributed",
      "type": "event"
    },
    {
      "anonymous": false,
      "inputs": [
        {
          "indexed": false,
          "internalType": "uint256",
          "name": "referrerId",
          "type": "uint256"
        },
        {
          "indexed": false,
          "internalType": "uint256",
          "name": "userId",
          "type": "uint256"
        }
      ],
      "name": "ReferrerUpdated",
      "type": "event"
    },
    {
      "anonymous": false,
      "inputs": [
        {
          "indexed": false,
          "internalType": "address",
          "name": "newAddress",
          "type": "address"
        }
      ],
      "name": "SelfAddressUpdated",
      "type": "event"
    },
    {
      "anonymous": false,
      "inputs": [
        {
          "indexed": false,
          "internalType": "uint256",
          "name": "userId",
          "type": "uint256"
        },
        {
          "indexed": false,
          "internalType": "uint256",
          "name": "valueInWei",
          "type": "uint256"
        }
      ],
      "name": "SelfBusinessUpdated",
      "type": "event"
    },
    {
      "anonymous": false,
      "inputs": [
        {
          "indexed": false,
          "internalType": "uint256",
          "name": "referrerId",
          "type": "uint256"
        },
        {
          "indexed": false,
          "internalType": "uint256",
          "name": "userId",
          "type": "uint256"
        },
        {
          "indexed": false,
          "internalType": "uint256",
          "name": "valueInWei",
          "type": "uint256"
        },
        {
          "indexed": false,
          "internalType": "uint256",
          "name": "level",
          "type": "uint256"
        }
      ],
      "name": "TeamBusinessUpdated",
      "type": "event"
    },
    {
      "anonymous": false,
      "inputs": [
        {
          "indexed": false,
          "internalType": "address",
          "name": "parent",
          "type": "address"
        },
        {
          "indexed": false,
          "internalType": "address",
          "name": "user",
          "type": "address"
        }
      ],
      "name": "TeamNonGlobaRemoved",
      "type": "event"
    },
    {
      "anonymous": false,
      "inputs": [
        {
          "indexed": false,
          "internalType": "address",
          "name": "parent",
          "type": "address"
        },
        {
          "indexed": false,
          "internalType": "address",
          "name": "user",
          "type": "address"
        }
      ],
      "name": "TeamNonGlobalAdded",
      "type": "event"
    },
    {
      "anonymous": false,
      "inputs": [
        {
          "indexed": false,
          "internalType": "uint256",
          "name": "parent",
          "type": "uint256"
        },
        {
          "indexed": false,
          "internalType": "uint256",
          "name": "userId",
          "type": "uint256"
        }
      ],
      "name": "TeamUpdated",
      "type": "event"
    },
    {
      "anonymous": false,
      "inputs": [
        {
          "indexed": false,
          "internalType": "address",
          "name": "account",
          "type": "address"
        }
      ],
      "name": "Unpaused",
      "type": "event"
    },
    {
      "anonymous": false,
      "inputs": [
        {
          "indexed": true,
          "internalType": "address",
          "name": "implementation",
          "type": "address"
        }
      ],
      "name": "Upgraded",
      "type": "event"
    },
    {
      "inputs": [
        {
          "internalType": "address",
          "name": "_tokenContractAddress",
          "type": "address"
        },
        {
          "internalType": "bool",
          "name": "_isStable",
          "type": "bool"
        },
        {
          "internalType": "address",
          "name": "_aggregatorContractAddress",
          "type": "address"
        }
      ],
      "name": "addBaseCurrency",
      "outputs": [],
      "stateMutability": "nonpayable",
      "type": "function"
    },
    {
      "inputs": [],
      "name": "getContractAnalytics",
      "outputs": [
        {
          "internalType": "address[]",
          "name": "usersAddress",
          "type": "address[]"
        },
        {
          "internalType": "uint256",
          "name": "usersCount",
          "type": "uint256"
        },
        {
          "internalType": "uint256",
          "name": "idsCount",
          "type": "uint256"
        },
        {
          "internalType": "uint256[]",
          "name": "nonGlobalIds",
          "type": "uint256[]"
        },
        {
          "internalType": "uint256",
          "name": "nonGlobalIdsCount",
          "type": "uint256"
        },
        {
          "internalType": "uint256",
          "name": "totalReferralPaid",
          "type": "uint256"
        },
        {
          "internalType": "uint256",
          "name": "totalValueRegistered",
          "type": "uint256"
        }
      ],
      "stateMutability": "view",
      "type": "function"
    },
    {
      "inputs": [],
      "name": "getContractDefaults",
      "outputs": [
        {
          "internalType": "uint256[]",
          "name": "levelRates",
          "type": "uint256[]"
        },
        {
          "internalType": "uint256",
          "name": "maxRefereeLimit",
          "type": "uint256"
        },
        {
          "internalType": "uint256",
          "name": "teamLevelsToCount",
          "type": "uint256"
        },
        {
          "internalType": "uint256",
          "name": "registrationAmountInUSD",
          "type": "uint256"
        },
        {
          "internalType": "address",
          "name": "adminAddress",
          "type": "address"
        },
        {
          "internalType": "address",
          "name": "taxBeneficiaryAddress",
          "type": "address"
        },
        {
          "internalType": "uint256",
          "name": "taxPer",
          "type": "uint256"
        }
      ],
      "stateMutability": "view",
      "type": "function"
    },
    {
      "inputs": [
        {
          "internalType": "uint256",
          "name": "_id",
          "type": "uint256"
        }
      ],
      "name": "getIdAccount",
      "outputs": [
        {
          "components": [
            {
              "internalType": "uint256",
              "name": "id",
              "type": "uint256"
            },
            {
              "internalType": "address",
              "name": "owner",
              "type": "address"
            },
            {
              "internalType": "uint256",
              "name": "referrerId",
              "type": "uint256"
            },
            {
              "internalType": "uint256",
              "name": "parentId",
              "type": "uint256"
            },
            {
              "components": [
                {
                  "internalType": "uint256",
                  "name": "refereeId",
                  "type": "uint256"
                },
                {
                  "internalType": "uint256",
                  "name": "assignedTo",
                  "type": "uint256"
                },
                {
                  "internalType": "uint256",
                  "name": "assignedFrom",
                  "type": "uint256"
                }
              ],
              "internalType": "struct RefereeStruct[]",
              "name": "refereeIds",
              "type": "tuple[]"
            },
            {
              "components": [
                {
                  "internalType": "uint256",
                  "name": "teamId",
                  "type": "uint256"
                },
                {
                  "internalType": "uint256",
                  "name": "teamLevel",
                  "type": "uint256"
                }
              ],
              "internalType": "struct TeamStruct[]",
              "name": "team",
              "type": "tuple[]"
            },
            {
              "components": [
                {
                  "internalType": "uint256",
                  "name": "selfBusiness",
                  "type": "uint256"
                },
                {
                  "internalType": "uint256",
                  "name": "directBusiness",
                  "type": "uint256"
                },
                {
                  "internalType": "uint256",
                  "name": "teamBusiness",
                  "type": "uint256"
                }
              ],
              "internalType": "struct BusinessStruct",
              "name": "business",
              "type": "tuple"
            },
            {
              "components": [
                {
                  "internalType": "uint256",
                  "name": "referralRewards",
                  "type": "uint256"
                },
                {
                  "internalType": "uint256",
                  "name": "spillOverRewards",
                  "type": "uint256"
                },
                {
                  "internalType": "uint256",
                  "name": "globalRewards",
                  "type": "uint256"
                }
              ],
              "internalType": "struct RewardsStruct",
              "name": "rewards",
              "type": "tuple"
            },
            {
              "internalType": "bool",
              "name": "isInPool",
              "type": "bool"
            },
            {
              "internalType": "bool",
              "name": "isRegenerated",
              "type": "bool"
            },
            {
              "internalType": "uint256[]",
              "name": "regenratedIds",
              "type": "uint256[]"
            },
            {
              "internalType": "uint256",
              "name": "regeneratedIdBy",
              "type": "uint256"
            }
          ],
          "internalType": "struct IdStruct",
          "name": "",
          "type": "tuple"
        }
      ],
      "stateMutability": "view",
      "type": "function"
    },
    {
      "inputs": [
        {
          "internalType": "uint8",
          "name": "_poolId",
          "type": "uint8"
        }
      ],
      "name": "getPools",
      "outputs": [
        {
          "components": [
            {
              "internalType": "uint8",
              "name": "poolId",
              "type": "uint8"
            },
            {
              "internalType": "uint256",
              "name": "rewardToDistribute",
              "type": "uint256"
            },
            {
              "internalType": "uint8",
              "name": "minUserCounter",
              "type": "uint8"
            },
            {
              "internalType": "uint256",
              "name": "userCountToUpgrade",
              "type": "uint256"
            },
            {
              "internalType": "uint256",
              "name": "count",
              "type": "uint256"
            },
            {
              "internalType": "uint256[]",
              "name": "userIds",
              "type": "uint256[]"
            },
            {
              "internalType": "uint256",
              "name": "totalRewardDistributed",
              "type": "uint256"
            }
          ],
          "internalType": "struct PoolStruct",
          "name": "",
          "type": "tuple"
        }
      ],
      "stateMutability": "view",
      "type": "function"
    },
    {
      "inputs": [],
      "name": "getSupportedCurrencies",
      "outputs": [
        {
          "components": [
            {
              "internalType": "address",
              "name": "contractAddress",
              "type": "address"
            },
            {
              "internalType": "uint256",
              "name": "decimals",
              "type": "uint256"
            },
            {
              "internalType": "bool",
              "name": "isStable",
              "type": "bool"
            },
            {
              "internalType": "address",
              "name": "aggregatorAddress",
              "type": "address"
            },
            {
              "internalType": "bool",
              "name": "isEnaled",
              "type": "bool"
            }
          ],
          "internalType": "struct SupportedTokensStruct[]",
          "name": "",
          "type": "tuple[]"
        }
      ],
      "stateMutability": "view",
      "type": "function"
    },
    {
      "inputs": [
        {
          "internalType": "address",
          "name": "_userAddress",
          "type": "address"
        }
      ],
      "name": "getUserAccount",
      "outputs": [
        {
          "components": [
            {
              "internalType": "address",
              "name": "selfAddress",
              "type": "address"
            },
            {
              "internalType": "uint256[]",
              "name": "ids",
              "type": "uint256[]"
            },
            {
              "internalType": "uint256[]",
              "name": "regeneratedIds",
              "type": "uint256[]"
            }
          ],
          "internalType": "struct AccountStruct",
          "name": "",
          "type": "tuple"
        }
      ],
      "stateMutability": "view",
      "type": "function"
    },
    {
      "inputs": [],
      "name": "initialize",
      "outputs": [],
      "stateMutability": "nonpayable",
      "type": "function"
    },
    {
      "inputs": [],
      "name": "owner",
      "outputs": [
        {
          "internalType": "address",
          "name": "",
          "type": "address"
        }
      ],
      "stateMutability": "view",
      "type": "function"
    },
    {
      "inputs": [],
      "name": "paused",
      "outputs": [
        {
          "internalType": "bool",
          "name": "",
          "type": "bool"
        }
      ],
      "stateMutability": "view",
      "type": "function"
    },
    {
      "inputs": [],
      "name": "proxiableUUID",
      "outputs": [
        {
          "internalType": "bytes32",
          "name": "",
          "type": "bytes32"
        }
      ],
      "stateMutability": "view",
      "type": "function"
    },
    {
      "inputs": [
        {
          "internalType": "uint256",
          "name": "_referrerId",
          "type": "uint256"
        },
        {
          "internalType": "address",
          "name": "_userAddress",
          "type": "address"
        },
        {
          "internalType": "address",
          "name": "_tokenAddress",
          "type": "address"
        }
      ],
      "name": "register",
      "outputs": [],
      "stateMutability": "nonpayable",
      "type": "function"
    },
    {
      "inputs": [
        {
          "internalType": "address",
          "name": "_tokenContractAddress",
          "type": "address"
        },
        {
          "internalType": "bool",
          "name": "_status",
          "type": "bool"
        }
      ],
      "name": "removeBaseCurrency",
      "outputs": [],
      "stateMutability": "nonpayable",
      "type": "function"
    },
    {
      "inputs": [],
      "name": "renounceOwnership",
      "outputs": [],
      "stateMutability": "nonpayable",
      "type": "function"
    },
    {
      "inputs": [
        {
          "internalType": "uint8[]",
          "name": "_poolId",
          "type": "uint8[]"
        },
        {
          "internalType": "uint256[]",
          "name": "_rewardToDistributeInDecimals",
          "type": "uint256[]"
        },
        {
          "internalType": "uint8",
          "name": "_minUserCounter",
          "type": "uint8"
        }
      ],
      "name": "setPools",
      "outputs": [],
      "stateMutability": "nonpayable",
      "type": "function"
    },
    {
      "inputs": [
        {
          "internalType": "address",
          "name": "newOwner",
          "type": "address"
        }
      ],
      "name": "transferOwnership",
      "outputs": [],
      "stateMutability": "nonpayable",
      "type": "function"
    },
    {
      "inputs": [
        {
          "internalType": "address",
          "name": "newImplementation",
          "type": "address"
        }
      ],
      "name": "upgradeTo",
      "outputs": [],
      "stateMutability": "nonpayable",
      "type": "function"
    },
    {
      "inputs": [
        {
          "internalType": "address",
          "name": "newImplementation",
          "type": "address"
        },
        {
          "internalType": "bytes",
          "name": "data",
          "type": "bytes"
        }
      ],
      "name": "upgradeToAndCall",
      "outputs": [],
      "stateMutability": "payable",
      "type": "function"
    }
  ],
  "bytecode": "0x60a060405230608052348015610013575f80fd5b506080516136cc6100485f395f81816105bf01528181610608015281816106a5015281816106e5015261077601526136cc5ff3fe608060405260043610610105575f3560e01c80638129fc1c11610092578063c48d8e0211610062578063c48d8e02146102a5578063f2fde38b146102d1578063f782abc7146102f0578063fb47e0161461030f578063ff43599c1461033b575f80fd5b80638129fc1c1461022457806383b41e66146102385780638da5cb5b1461025f578063a73c50fa14610286575f80fd5b80634f1ef286116100d85780634f1ef2861461019a57806352d1902d146101ad57806354f132e8146101cf5780635c975abb146101ee578063715018a614610210575f80fd5b80631a746344146101095780631ae57f83146101395780632ce758631461015a5780633659cfe61461017b575b5f80fd5b348015610114575f80fd5b5061011d610367565b6040516101309796959493929190612cba565b60405180910390f35b348015610144575f80fd5b50610158610153366004612d5c565b610420565b005b348015610165575f80fd5b5061016e61050d565b6040516101309190612dda565b348015610186575f80fd5b50610158610195366004612e6f565b6105b5565b6101586101a8366004612e9c565b61069b565b3480156101b8575f80fd5b506101c161076a565b604051908152602001610130565b3480156101da575f80fd5b506101586101e9366004612f65565b61081b565b3480156101f9575f80fd5b5060335460ff166040519015158152602001610130565b34801561021b575f80fd5b5061015861098c565b34801561022f575f80fd5b5061015861099f565b348015610243575f80fd5b5061024c610b34565b6040516101309796959493929190612f9a565b34801561026a575f80fd5b506065546040516001600160a01b039091168152602001610130565b348015610291575f80fd5b506101586102a036600461301d565b610c0c565b3480156102b0575f80fd5b506102c46102bf366004613056565b6110de565b6040516101309190613071565b3480156102dc575f80fd5b506101586102eb366004612e6f565b6111d2565b3480156102fb575f80fd5b5061015861030a3660046130db565b611248565b34801561031a575f80fd5b5061032e610329366004612e6f565b6114d7565b6040516101309190613106565b348015610346575f80fd5b5061035a610355366004613150565b6115e0565b60405161013091906131ec565b60605f805f805f8060ff8054806020026020016040519081016040528092919081815260200182805480156103b957602002820191905f5260205f20905b8154815260200190600101908083116103a5575b505050505096506101005495506101015f9054906101000a900460ff1660ff1694506101025493506101035f9054906101000a90046001600160a01b031692506101045f9054906101000a90046001600160a01b0316915061010554905090919293949596565b6104286117ec565b5f5b60ff8116851115610505575f61010d5f88888560ff1681811061044f5761044f613302565b90506020020160208101906104649190613056565b60ff1660ff1681526020019081526020015f20905086868360ff1681811061048e5761048e613302565b90506020020160208101906104a39190613056565b815460ff191660ff9182161782558590859084168181106104c6576104c6613302565b90506020020135670de0b6b3a76400006104e0919061332a565b6001820155600201805460ff191660ff84161790556104fe81613341565b905061042a565b505050505050565b6060610108805480602002602001604051908101604052809291908181526020015f905b828210156105ac575f8481526020908190206040805160a0810182526003860290920180546001600160a01b0390811684526001808301548587015260029092015460ff80821615159486019490945261010081049091166060850152600160a81b9004909116151560808301529083529092019101610531565b50505050905090565b6001600160a01b037f00000000000000000000000000000000000000000000000000000000000000001630036106065760405162461bcd60e51b81526004016105fd9061335f565b60405180910390fd5b7f00000000000000000000000000000000000000000000000000000000000000006001600160a01b031661064e5f80516020613650833981519152546001600160a01b031690565b6001600160a01b0316146106745760405162461bcd60e51b81526004016105fd906133ab565b61067d81611846565b604080515f808252602082019092526106989183919061184e565b50565b6001600160a01b037f00000000000000000000000000000000000000000000000000000000000000001630036106e35760405162461bcd60e51b81526004016105fd9061335f565b7f00000000000000000000000000000000000000000000000000000000000000006001600160a01b031661072b5f80516020613650833981519152546001600160a01b031690565b6001600160a01b0316146107515760405162461bcd60e51b81526004016105fd906133ab565b61075a82611846565b6107668282600161184e565b5050565b5f306001600160a01b037f000000000000000000000000000000000000000000000000000000000000000016146108095760405162461bcd60e51b815260206004820152603860248201527f555550535570677261646561626c653a206d757374206e6f742062652063616c60448201527f6c6564207468726f7567682064656c656761746563616c6c000000000000000060648201526084016105fd565b505f8051602061365083398151915290565b6108236117ec565b6001600160a01b038281165f90815261010c6020526040902054166108a75760405162461bcd60e51b815260206004820152603460248201527f736574537570706f72746564546f6b656e53746174757328293a20546f6b656e6044820152731034b9903737ba1030b23232b21030b23232b21760611b60648201526084016105fd565b6001600160a01b0382165f90815261010c6020526040902060020154811515600160a81b90910460ff161515036109545760405162461bcd60e51b815260206004820152604560248201527f736574537570706f72746564546f6b656e53746174757328293a20546f6b656e60448201527f2073746174757320697320616c72656164792073616d65206173206d656e746960648201526437b732b21760d91b608482015260a4016105fd565b6001600160a01b039091165f90815261010c602052604090206002018054911515600160a81b0260ff60a81b19909216919091179055565b6109946117ec565b61099d5f6119bd565b565b5f54610100900460ff16158080156109bd57505f54600160ff909116105b806109d65750303b1580156109d657505f5460ff166001145b610a395760405162461bcd60e51b815260206004820152602e60248201527f496e697469616c697a61626c653a20636f6e747261637420697320616c72656160448201526d191e481a5b9a5d1a585b1a5e995960921b60648201526084016105fd565b5f805460ff191660011790558015610a5a575f805461ff0019166101001790555b600261010055604080516020810190915260328152610a7d9060ff906001612b7d565b50610101805460ff1916601417905561010380546001600160a01b0319908116331790915561010480549091167314a8ee34edcb63f88d301215862ff5e017ebdff1179055678ac7230489e8000061010255600561010555610add611a0e565b610ae5611a3c565b610aed611a6a565b8015610698575f805461ff0019169055604051600181527f7f26b83ff96e1f2b6a682f133852f6798a09c465da95921460cefb38474024989060200160405180910390a150565b60605f8060605f805f60fb805480602002602001604051908101604052809291908181526020018280548015610b9157602002820191905f5260205f20905b81546001600160a01b03168152600190910190602001808311610b73575b505060fb5460fc5460fd805460408051602080840282018101909252828152989f50939d50919b5090985093508792508401905082828015610bf057602002820191905f5260205f20905b815481526020019060010190808311610bdc575b5050505050935061010654915061010754905090919293949596565b6101095460ff1615610c745760405162461bcd60e51b815260206004820152602b60248201527f5265656e7472616e6379477561726428293a20436f6e7472616374205265656e60448201526a1d1c985b98de51dd585c9960aa1b60648201526084016105fd565b610109805460ff19166001179055610102546001600160a01b0382165f90815261010c6020526040902060020154339190600160a81b900460ff1615610d4a57826001600160a01b03166323b872dd8330610ccf8588611a90565b6040516001600160e01b031960e086901b1681526001600160a01b03938416600482015292909116602483015260448201526064016020604051808303815f875af1158015610d20573d5f803e3d5ffd5b505050506040513d601f19601f82011682018060405250810190610d4491906133f7565b50610db1565b60405162461bcd60e51b815260206004820152603660248201527f726567697374657228293a20426173652043757272656e6379206973206e6f746044820152751039bab83837b93a32b21037b91032b730b13632b21760511b60648201526084016105fd565b5f85815261010b602090815260408083206001600160a01b038816845261010a90925282206001810154919290919003610e305760fb80546001810182555f919091527f3e7257b7272bb46d49cd6019b04ddee20da7c0cb13f7c1ec3391291b2ccebabc0180546001600160a01b0319166001600160a01b0386161790555b610e3a8187611b20565b5f610e43611b98565b5f81815261010b60205260409020909150610e5e8184611bad565b5060408051610180810182528254815260018301546001600160a01b03166020808301919091526002840154828401526003840154606083015260048401805484518184028101840190955280855261108994869360808601939192905f9084015b82821015610f0d578382905f5260205f2090600302016040518060600160405290815f82015481526020016001820154815260200160028201548152505081526020019060010190610ec0565b50505050815260200160058201805480602002602001604051908101604052809291908181526020015f905b82821015610f7c578382905f5260205f2090600202016040518060400160405290815f820154815260200160018201548152505081526020019060010190610f39565b505050908252506040805160608082018352600685015482526007850154602083810191909152600886015483850152808501929092528251808201845260098601548152600a86015481840152600b8601548185015283850152600c85015460ff80821615159286019290925261010090041615156080840152600d8401805483518184028101840190945280845260a090940193909183018282801561104157602002820191905f5260205f20905b81548152602001906001019080831161102d575b50505050508152602001600e820154815250505160fd80546001810182555f919091527f9346ac6dd7de6b96975fec380d4d994c4c12e6a8897544f22915316cc6cca2800155565b6110938482611ceb565b61109d8186612418565b6110a8818689612450565b6110b18761263f565b846101075f8282546110c39190613412565b9091555050610109805460ff19169055505050505050505050565b61111e6040518060e001604052805f60ff1681526020015f81526020015f60ff1681526020015f81526020015f8152602001606081526020015f81525090565b60ff8083165f90815261010d6020908152604091829020825160e0810184528154851681526001820154818401526002820154909416848401526003810154606085015260048101546080850152600581018054845181850281018501909552808552919360a08601939092908301828280156111b857602002820191905f5260205f20905b8154815260200190600101908083116111a4575b505050505081526020016006820154815250509050919050565b6111da6117ec565b6001600160a01b03811661123f5760405162461bcd60e51b815260206004820152602660248201527f4f776e61626c653a206e6577206f776e657220697320746865207a65726f206160448201526564647265737360d01b60648201526084016105fd565b610698816119bd565b6112506117ec565b6001600160a01b038381165f90815261010c602052604090205416156112d45760405162461bcd60e51b815260206004820152603360248201527f70757368537570706f72746564546f6b656e546f4c69737428293a20546f6b65604482015272371034b99030b63932b0b23c9030b23232b21760691b60648201526084016105fd565b6040518060a00160405280846001600160a01b03168152602001846001600160a01b031663313ce5676040518163ffffffff1660e01b8152600401602060405180830381865afa15801561132a573d5f803e3d5ffd5b505050506040513d601f19601f8201168201806040525081019061134e9190613425565b60ff90811682529315156020808301919091526001600160a01b03938416604080840191909152600160609384018190529685165f90815261010c8352818120855181549088166001600160a01b031991821617825593860151818a0190815592860151600282018054968801516080909801511515600160a81b90810260ff60a81b19998b16610100908102610100600160a81b031995151586166001600160a81b03199b8c1617178b1691909117835561010880549d8e01815590955292546003909b027f8543e9adbfbe1f62b7411fdf032fcfea758a7d6b332f64d971a1334c2ff364dd810180549097169b8a169b909b1790955592547f8543e9adbfbe1f62b7411fdf032fcfea758a7d6b332f64d971a1334c2ff364de8a015583547f8543e9adbfbe1f62b7411fdf032fcfea758a7d6b332f64d971a1334c2ff364df9099018054998916151560ff198b1681178255855484900490981690920296909216979093169690961793909317808255925485900490931615159093029216919091179055565b61150360405180606001604052805f6001600160a01b0316815260200160608152602001606081525090565b6001600160a01b038083165f90815261010a602090815260409182902082516060810184528154909416845260018101805484518185028101850190955280855291938584019390929083018282801561157a57602002820191905f5260205f20905b815481526020019060010190808311611566575b50505050508152602001600282018054806020026020016040519081016040528092919081815260200182805480156115d057602002820191905f5260205f20905b8154815260200190600101908083116115bc575b5050505050815250509050919050565b6115e8612bcb565b5f82815261010b602090815260408083208151610180810183528154815260018201546001600160a01b03168185015260028201548184015260038201546060820152600482018054845181870281018701909552808552919592946080870194939192919084015b8282101561169e578382905f5260205f2090600302016040518060600160405290815f82015481526020016001820154815260200160028201548152505081526020019060010190611651565b50505050815260200160058201805480602002602001604051908101604052809291908181526020015f905b8282101561170d578382905f5260205f2090600202016040518060400160405290815f8201548152602001600182015481525050815260200190600101906116ca565b505050908252506040805160608082018352600685015482526007850154602083810191909152600886015483850152808501929092528251808201845260098601548152600a86015481840152600b8601548185015283850152600c85015460ff80821615159286019290925261010090041615156080840152600d8401805483518184028101840190945280845260a09094019390918301828280156117d257602002820191905f5260205f20905b8154815260200190600101908083116117be575b50505050508152602001600e820154815250509050919050565b6065546001600160a01b0316331461099d5760405162461bcd60e51b815260206004820181905260248201527f4f776e61626c653a2063616c6c6572206973206e6f7420746865206f776e657260448201526064016105fd565b6106986117ec565b7f4910fdfa16fed3260ed0e7147f7cc6da11a60208b5b9406d12a635614ffd91435460ff161561188657611881836128cf565b505050565b826001600160a01b03166352d1902d6040518163ffffffff1660e01b8152600401602060405180830381865afa9250505080156118e0575060408051601f3d908101601f191682019092526118dd91810190613440565b60015b6119435760405162461bcd60e51b815260206004820152602e60248201527f45524331393637557067726164653a206e657720696d706c656d656e7461746960448201526d6f6e206973206e6f74205555505360901b60648201526084016105fd565b5f8051602061365083398151915281146119b15760405162461bcd60e51b815260206004820152602960248201527f45524331393637557067726164653a20756e737570706f727465642070726f786044820152681a58589b195555525160ba1b60648201526084016105fd565b5061188183838361296a565b606580546001600160a01b038381166001600160a01b0319831681179093556040519116919082907f8be0079c531659141344cd1fd0a4f28419497f9722a3daafe3b4186f6b6457e0905f90a35050565b5f54610100900460ff16611a345760405162461bcd60e51b81526004016105fd90613457565b61099d612994565b5f54610100900460ff16611a625760405162461bcd60e51b81526004016105fd90613457565b61099d6129c6565b5f54610100900460ff1661099d5760405162461bcd60e51b81526004016105fd90613457565b5f670de0b6b3a7640000826001600160a01b031663313ce5676040518163ffffffff1660e01b8152600401602060405180830381865afa158015611ad6573d5f803e3d5ffd5b505050506040513d601f19601f82011682018060405250810190611afa9190613425565b611b0590600a613582565b611b0f908561332a565b611b199190613590565b9392505050565b81546001600160a01b0316158015611b4057506001600160a01b03811615155b156107665781546001600160a01b0319166001600160a01b03821690811783556040519081527f3b819cfb39116b78a5d1267e92ab85058e96d63a7882322d296ab4135720b79a906020015b60405180910390a15050565b5f60fc546001611ba89190613412565b905090565b81545f9015611c0a5760405162461bcd60e51b815260206004820152602360248201527f5f757064617465496428293a20496420697320616c726561647920637265617460448201526232b21760e91b60648201526084016105fd565b60fc8054905f611c19836135af565b909155505060fc548084556001838101805491820181555f9081526020908190209091018290558354604080516001600160a01b0390921682529181018390529192507f1edfaf20eb0251dd2ca45e125c8b9a615022667b9822cf6a8dc1d2ce7e91ea68910160405180910390a181546001840180546001600160a01b0319166001600160a01b03928316179055825460408051919092168152602081018390527f4f3673673d1e6f88f67f26845b9609a7707201984d7885988d35aedf43b9fe44910160405180910390a192915050565b80546065546001600160a01b03163314611d6c5782545f03611d6c5760405162461bcd60e51b815260206004820152603460248201527f5f616464526566657272657228293a2052656665727265204964206973206e6f6044820152733a1030b1ba34bb30ba32b21037b9103d32b9379760611b60648201526084016105fd565b80836002015403611dda5760405162461bcd60e51b815260206004820152603260248201527f5f616464526566657272657228293a20526566657265652063616e6e6f74206260448201527132903932b332b93932b9103ab83634b7329760711b60648201526084016105fd565b600282015415611e3f5760405162461bcd60e51b815260206004820152602a60248201527f5f616464526566657272657228293a205573657220726566657272657220616c6044820152693932b0b23c9039b2ba1760b11b60648201526084016105fd565b82546003808401829055604080516101808101825292835260018601546001600160a01b0316602080850191909152600287015484830152918601546060840152600486018054825181850281018501909352808352612043949388936080860193909290915f9084015b82821015611ef7578382905f5260205f2090600302016040518060600160405290815f82015481526020016001820154815260200160028201548152505081526020019060010190611eaa565b50505050815260200160058201805480602002602001604051908101604052809291908181526020015f905b82821015611f66578382905f5260205f2090600202016040518060400160405290815f820154815260200160018201548152505081526020019060010190611f23565b505050908252506040805160608082018352600685015482526007850154602083810191909152600886015483850152808501929092528251808201845260098601548152600a86015481840152600b8601548185015283850152600c85015460ff80821615159286019290925261010090041615156080840152600d8401805483518184028101840190945280845260a090940193909183018282801561202b57602002820191905f5260205f20905b815481526020019060010190808311612017575b50505050508152602001600e820154815250506129f5565b6120dd578254600283810191909155604080516060810182528381525f602080830182815283850183815260048a0180546001808201835591865294849020955160039095029095019384559051938301939093559151930192909255845481519081529182018390527fe6b2c1ca4b33533eddccfdd2dd0fbe5ff44d75017001d4b2329b4daee1821436910160405180910390a161234b565b60fd546121385760405162461bcd60e51b8152602060048201526024808201527f5f616464526566657272657228293a20476c6f62616c2069647320617265206f6044820152633b32b91760e11b60648201526084016105fd565b5f61010b5f60fd60fe548154811061215257612152613302565b5f91825260208083209190910154835282810193909352604091820181208054600288810182905584516060808201875289825281880193845281870186815260048d8101805460018082018355918a528b8a2095516003918202909601958655965185820155915193850193909355875180830189528b8152808a018881528e54828b0190815294880180548085018255908a52988b90209151989096020196875593519386019390935551930192909255875481548451918252948101949094529183018590529092507f347a3b2fe969c7ab7c51c290dbcae965d7b5a6b03d2b9336a480169d79a5f51f910160405180910390a1805460408051918252602082018490527fe6b2c1ca4b33533eddccfdd2dd0fbe5ff44d75017001d4b2329b4daee1821436910160405180910390a160408051610180810182528254815260018301546001600160a01b03166020808301919091526002840154828401526003840154606083015260048401805484518184028101840190955280855261232f94869360808601939192905f9084018215611ef7578382905f5260205f2090600302016040518060600160405290815f82015481526020016001820154815260200160028201548152505081526020019060010190611eaa565b156123495760fe8054905f612343836135af565b91905055505b505b6101015460ff165f5b818110156124115760028401545f81815261010b6020526040812091900361237c5750612411565b80600501604051806040016040528086815260200184600161239e9190613412565b90528154600180820184555f9384526020938490208351600290930201918255918301519101558154604080519182529181018690527f48e403ae2a509cd9336134c0899083ba110bf3a35566606add88a2066ccbaa1a910160405180910390a1935061240a816135af565b9050612354565b5050505050565b815460408051918252602082018390527f7bc272836d15a231dbca2c8759d5bb751d4ecf39d918fef56f6cc2fc3c2386b09101611b8c565b81836006015f015f8282546124659190613412565b909155505060038301545f90815261010b6020526040902060018101546001600160a01b0316612493575f80fd5b82816006016001015f8282546124a99190613412565b90915550508054845460408051928352602083019190915281018490527f57b50e0e70daa32ac46409245990bb5a21b96da6f9c1bcbba5424aa58723907a9060600160405180910390a15f606460ff5f8154811061250957612509613302565b905f5260205f2001548561251d919061332a565b6125279190613590565b60018301549091506001600160a01b038085169163a9059cbb911661254c8487611a90565b6040516001600160e01b031960e085901b1681526001600160a01b03909216600483015260248201526044016020604051808303815f875af1158015612594573d5f803e3d5ffd5b505050506040513d601f19601f820116820180604052508101906125b891906133f7565b50815485546040805192835260208301919091528101829052600160608201527ff4bff7ddf097f430e0163107b212ddccc7c9a80ff7d32462be0c6f30bbbad0df9060800160405180910390a180826009015f015f82825461261a9190613412565b92505081905550806101065f8282546126339190613412565b90915550505050505050565b60015b60148160ff1610156107665760ff8082165f90815261010d602052604081208054909216900361267157505050565b6002810154600482015460ff909116116128be575f61010d816126958560016135c7565b60ff1660ff1681526020019081526020015f20905080600501826005018360030154815481106126c7576126c7613302565b5f918252602080832090910154835460018101855593835291209091015560038201546005830180547fdae0be714878398df4bce5e16513993cf11a07c4b626f7acf376a79f71f721f89290811061272157612721613302565b905f5260205f20015484600161273791906135c7565b6040805192835260ff90911660208301520160405180910390a15f61010b5f8460050185600301548154811061276f5761276f613302565b905f5260205f20015481526020019081526020015f209050846001600160a01b031663a9059cbb826001015f9054906101000a90046001600160a01b03166127bb866001015489611a90565b6040516001600160e01b031960e085901b1681526001600160a01b03909216600483015260248201526044016020604051808303815f875af1158015612803573d5f803e3d5ffd5b505050506040513d601f19601f8201168201806040525081019061282791906133f7565b507f89b70f5f92b02d089769dea775c6dce9797ebfb25ae57bcfbab1d88a31a672128360050184600301548154811061286257612862613302565b5f9182526020918290200154855460018701546040805193845260ff9092169383019390935281019190915260600160405180910390a18260010154836006015f8282546128b09190613412565b90915550505f600484015550505b506128c881613341565b9050612642565b6001600160a01b0381163b61293c5760405162461bcd60e51b815260206004820152602d60248201527f455243313936373a206e657720696d706c656d656e746174696f6e206973206e60448201526c1bdd08184818dbdb9d1c9858dd609a1b60648201526084016105fd565b5f8051602061365083398151915280546001600160a01b0319166001600160a01b0392909216919091179055565b61297383612a0e565b5f8251118061297f5750805b156118815761298e8383612a4d565b50505050565b5f54610100900460ff166129ba5760405162461bcd60e51b81526004016105fd90613457565b6033805460ff19169055565b5f54610100900460ff166129ec5760405162461bcd60e51b81526004016105fd90613457565b61099d336119bd565b5f6101005482608001515110612a09575060015b919050565b612a17816128cf565b6040516001600160a01b038216907fbc7cd75a20ee27fd9adebab32041f755214dbc6bffa90cc0225b39da2e5c2d3b905f90a250565b60606001600160a01b0383163b612ab55760405162461bcd60e51b815260206004820152602660248201527f416464726573733a2064656c65676174652063616c6c20746f206e6f6e2d636f6044820152651b9d1c9858dd60d21b60648201526084016105fd565b5f80846001600160a01b031684604051612acf9190613602565b5f60405180830381855af49150503d805f8114612b07576040519150601f19603f3d011682016040523d82523d5f602084013e612b0c565b606091505b5091509150612b34828260405180606001604052806027815260200161367060279139612b3f565b925050505b92915050565b60608315612b4e575081611b19565b611b198383815115612b635781518083602001fd5b8060405162461bcd60e51b81526004016105fd919061361d565b828054828255905f5260205f20908101928215612bbb579160200282015b82811115612bbb578251829060ff16905591602001919060010190612b9b565b50612bc7929150612c6d565b5090565b6040518061018001604052805f81526020015f6001600160a01b031681526020015f81526020015f81526020016060815260200160608152602001612c2760405180606001604052805f81526020015f81526020015f81525090565b8152602001612c4d60405180606001604052805f81526020015f81526020015f81525090565b81525f602082018190526040820181905260608083015260809091015290565b5b80821115612bc7575f8155600101612c6e565b5f8151808452602080850194508084015f5b83811015612caf57815187529582019590820190600101612c93565b509495945050505050565b60e081525f612ccc60e083018a612c81565b602083019890985250604081019590955260608501939093526001600160a01b0391821660808501521660a083015260c090910152919050565b5f8083601f840112612d16575f80fd5b50813567ffffffffffffffff811115612d2d575f80fd5b6020830191508360208260051b8501011115612d47575f80fd5b9250929050565b60ff81168114610698575f80fd5b5f805f805f60608688031215612d70575f80fd5b853567ffffffffffffffff80821115612d87575f80fd5b612d9389838a01612d06565b90975095506020880135915080821115612dab575f80fd5b50612db888828901612d06565b9094509250506040860135612dcc81612d4e565b809150509295509295909350565b602080825282518282018190525f919060409081850190868401855b82811015612e4c57815180516001600160a01b0390811686528782015188870152868201511515878701526060808301519091169086015260809081015115159085015260a09093019290850190600101612df6565b5091979650505050505050565b80356001600160a01b0381168114612a09575f80fd5b5f60208284031215612e7f575f80fd5b611b1982612e59565b634e487b7160e01b5f52604160045260245ffd5b5f8060408385031215612ead575f80fd5b612eb683612e59565b9150602083013567ffffffffffffffff80821115612ed2575f80fd5b818501915085601f830112612ee5575f80fd5b813581811115612ef757612ef7612e88565b604051601f8201601f19908116603f01168101908382118183101715612f1f57612f1f612e88565b81604052828152886020848701011115612f37575f80fd5b826020860160208301375f6020848301015280955050505050509250929050565b8015158114610698575f80fd5b5f8060408385031215612f76575f80fd5b612f7f83612e59565b91506020830135612f8f81612f58565b809150509250929050565b60e080825288519082018190525f90602090610100840190828c01845b82811015612fdc5781516001600160a01b031684529284019290840190600101612fb7565b50505089828501528860408501528381036060850152612ffc8189612c81565b608085019790975250505060a081019290925260c090910152949350505050565b5f805f6060848603121561302f575f80fd5b8335925061303f60208501612e59565b915061304d60408501612e59565b90509250925092565b5f60208284031215613066575f80fd5b8135611b1981612d4e565b6020815260ff82511660208201526020820151604082015260ff604083015116606082015260608201516080820152608082015160a08201525f60a083015160e060c08401526130c5610100840182612c81565b905060c084015160e08401528091505092915050565b5f805f606084860312156130ed575f80fd5b6130f684612e59565b9250602084013561303f81612f58565b602080825282516001600160a01b031682820152820151606060408301525f906131336080840182612c81565b90506040840151601f19848303016060850152612b348282612c81565b5f60208284031215613160575f80fd5b5035919050565b5f8151808452602080850194508084015f5b83811015612caf576131a08783518051825260208082015190830152604090810151910152565b6060969096019590820190600101613179565b5f8151808452602080850194508084015f5b83811015612caf5781518051885283015183880152604090960195908201906001016131c5565b60208152815160208201525f602083015161321260408401826001600160a01b03169052565b50604083015160608301526060830151608083015260808301516102008060a0850152613243610220850183613167565b915060a0850151601f19808685030160c087015261326184836131b3565b60c0880151805160e089015260208101516101008901526040810151610120890152909450915060e087015191506101406132b2818801848051825260208082015190830152604090810151910152565b61010088015115156101a088015261012088015115156101c0880152870151868503919091016101e087015290506132ea8382612c81565b92505061016085015181850152508091505092915050565b634e487b7160e01b5f52603260045260245ffd5b634e487b7160e01b5f52601160045260245ffd5b8082028115828204841417612b3957612b39613316565b5f60ff821660ff810361335657613356613316565b60010192915050565b6020808252602c908201527f46756e6374696f6e206d7573742062652063616c6c6564207468726f7567682060408201526b19195b1959d85d1958d85b1b60a21b606082015260800190565b6020808252602c908201527f46756e6374696f6e206d7573742062652063616c6c6564207468726f7567682060408201526b6163746976652070726f787960a01b606082015260800190565b5f60208284031215613407575f80fd5b8151611b1981612f58565b80820180821115612b3957612b39613316565b5f60208284031215613435575f80fd5b8151611b1981612d4e565b5f60208284031215613450575f80fd5b5051919050565b6020808252602b908201527f496e697469616c697a61626c653a20636f6e7472616374206973206e6f74206960408201526a6e697469616c697a696e6760a81b606082015260800190565b600181815b808511156134dc57815f19048211156134c2576134c2613316565b808516156134cf57918102915b93841c93908002906134a7565b509250929050565b5f826134f257506001612b39565b816134fe57505f612b39565b8160018114613514576002811461351e5761353a565b6001915050612b39565b60ff84111561352f5761352f613316565b50506001821b612b39565b5060208310610133831016604e8410600b841016171561355d575081810a612b39565b61356783836134a2565b805f190482111561357a5761357a613316565b029392505050565b5f611b1960ff8416836134e4565b5f826135aa57634e487b7160e01b5f52601260045260245ffd5b500490565b5f600182016135c0576135c0613316565b5060010190565b60ff8181168382160190811115612b3957612b39613316565b5f5b838110156135fa5781810151838201526020016135e2565b50505f910152565b5f82516136138184602087016135e0565b9190910192915050565b602081525f825180602084015261363b8160408501602087016135e0565b601f01601f1916919091016040019291505056fe360894a13ba1a3210667c828492db98dca3e2076cc3735a920a3ca505d382bbc416464726573733a206c6f772d6c6576656c2064656c65676174652063616c6c206661696c6564a264697066735822122052b4b702caa7cfadaf31e10d080e41734e8c6e1f8ceaf71641ca124d50cbc20164736f6c63430008140033",
  "linkReferences": {},
  "deployedLinkReferences": {}
}