{
  "_format": "hh-sol-artifact-1",
  "contractName": "GlobalFiUpgradeable",
  "sourceName": "contracts/GlobalFIUpgradeable.sol",
  "abi": [
    {
      "anonymous": false,
      "inputs": [
        {
          "indexed": false,
          "internalType": "address",
          "name": "previousAdmin",
          "type": "address"
        },
        {
          "indexed": false,
          "internalType": "address",
          "name": "newAdmin",
          "type": "address"
        }
      ],
      "name": "AdminChanged",
      "type": "event"
    },
    {
      "anonymous": false,
      "inputs": [
        {
          "indexed": true,
          "internalType": "address",
          "name": "beacon",
          "type": "address"
        }
      ],
      "name": "BeaconUpgraded",
      "type": "event"
    },
    {
      "anonymous": false,
      "inputs": [
        {
          "indexed": false,
          "internalType": "uint256",
          "name": "referrerId",
          "type": "uint256"
        },
        {
          "indexed": false,
          "internalType": "uint256",
          "name": "userId",
          "type": "uint256"
        },
        {
          "indexed": false,
          "internalType": "uint256",
          "name": "valueInWei",
          "type": "uint256"
        }
      ],
      "name": "DirectBusinessUpdated",
      "type": "event"
    },
    {
      "anonymous": false,
      "inputs": [
        {
          "indexed": false,
          "internalType": "uint256",
          "name": "id",
          "type": "uint256"
        },
        {
          "indexed": false,
          "internalType": "uint8",
          "name": "poolId",
          "type": "uint8"
        },
        {
          "indexed": false,
          "internalType": "uint256",
          "name": "rewardInWei",
          "type": "uint256"
        }
      ],
      "name": "DistributedPoolReward",
      "type": "event"
    },
    {
      "anonymous": false,
      "inputs": [
        {
          "indexed": false,
          "internalType": "address",
          "name": "userAddress",
          "type": "address"
        },
        {
          "indexed": false,
          "internalType": "uint256",
          "name": "id",
          "type": "uint256"
        }
      ],
      "name": "IdOwnerUpdated",
      "type": "event"
    },
    {
      "anonymous": false,
      "inputs": [
        {
          "indexed": false,
          "internalType": "address",
          "name": "userAddress",
          "type": "address"
        },
        {
          "indexed": false,
          "internalType": "uint256",
          "name": "id",
          "type": "uint256"
        }
      ],
      "name": "IdUpdated",
      "type": "event"
    },
    {
      "anonymous": false,
      "inputs": [
        {
          "indexed": false,
          "internalType": "uint256",
          "name": "id",
          "type": "uint256"
        },
        {
          "indexed": false,
          "internalType": "uint8",
          "name": "poolId",
          "type": "uint8"
        }
      ],
      "name": "IdUpgradedInPool",
      "type": "event"
    },
    {
      "anonymous": false,
      "inputs": [
        {
          "indexed": false,
          "internalType": "uint8",
          "name": "version",
          "type": "uint8"
        }
      ],
      "name": "Initialized",
      "type": "event"
    },
    {
      "anonymous": false,
      "inputs": [
        {
          "indexed": true,
          "internalType": "address",
          "name": "previousOwner",
          "type": "address"
        },
        {
          "indexed": true,
          "internalType": "address",
          "name": "newOwner",
          "type": "address"
        }
      ],
      "name": "OwnershipTransferred",
      "type": "event"
    },
    {
      "anonymous": false,
      "inputs": [
        {
          "indexed": false,
          "internalType": "address",
          "name": "account",
          "type": "address"
        }
      ],
      "name": "Paused",
      "type": "event"
    },
    {
      "anonymous": false,
      "inputs": [
        {
          "indexed": false,
          "internalType": "uint256",
          "name": "parentId",
          "type": "uint256"
        },
        {
          "indexed": false,
          "internalType": "uint256",
          "name": "referrerId",
          "type": "uint256"
        },
        {
          "indexed": false,
          "internalType": "uint256",
          "name": "userId",
          "type": "uint256"
        }
      ],
      "name": "RefereeAssigned",
      "type": "event"
    },
    {
      "anonymous": false,
      "inputs": [
        {
          "indexed": false,
          "internalType": "uint256",
          "name": "referrerId",
          "type": "uint256"
        },
        {
          "indexed": false,
          "internalType": "uint256",
          "name": "userId",
          "type": "uint256"
        },
        {
          "indexed": false,
          "internalType": "uint256",
          "name": "referralValue",
          "type": "uint256"
        },
        {
          "indexed": false,
          "internalType": "uint256",
          "name": "level",
          "type": "uint256"
        }
      ],
      "name": "ReferralDistributed",
      "type": "event"
    },
    {
      "anonymous": false,
      "inputs": [
        {
          "indexed": false,
          "internalType": "uint256",
          "name": "referrerId",
          "type": "uint256"
        },
        {
          "indexed": false,
          "internalType": "uint256",
          "name": "userId",
          "type": "uint256"
        }
      ],
      "name": "ReferrerUpdated",
      "type": "event"
    },
    {
      "anonymous": false,
      "inputs": [
        {
          "indexed": false,
          "internalType": "address",
          "name": "newAddress",
          "type": "address"
        }
      ],
      "name": "SelfAddressUpdated",
      "type": "event"
    },
    {
      "anonymous": false,
      "inputs": [
        {
          "indexed": false,
          "internalType": "uint256",
          "name": "userId",
          "type": "uint256"
        },
        {
          "indexed": false,
          "internalType": "uint256",
          "name": "valueInWei",
          "type": "uint256"
        }
      ],
      "name": "SelfBusinessUpdated",
      "type": "event"
    },
    {
      "anonymous": false,
      "inputs": [
        {
          "indexed": false,
          "internalType": "uint256",
          "name": "referrerId",
          "type": "uint256"
        },
        {
          "indexed": false,
          "internalType": "uint256",
          "name": "userId",
          "type": "uint256"
        },
        {
          "indexed": false,
          "internalType": "uint256",
          "name": "valueInWei",
          "type": "uint256"
        },
        {
          "indexed": false,
          "internalType": "uint256",
          "name": "level",
          "type": "uint256"
        }
      ],
      "name": "TeamBusinessUpdated",
      "type": "event"
    },
    {
      "anonymous": false,
      "inputs": [
        {
          "indexed": false,
          "internalType": "address",
          "name": "parent",
          "type": "address"
        },
        {
          "indexed": false,
          "internalType": "address",
          "name": "user",
          "type": "address"
        }
      ],
      "name": "TeamNonGlobaRemoved",
      "type": "event"
    },
    {
      "anonymous": false,
      "inputs": [
        {
          "indexed": false,
          "internalType": "address",
          "name": "parent",
          "type": "address"
        },
        {
          "indexed": false,
          "internalType": "address",
          "name": "user",
          "type": "address"
        }
      ],
      "name": "TeamNonGlobalAdded",
      "type": "event"
    },
    {
      "anonymous": false,
      "inputs": [
        {
          "indexed": false,
          "internalType": "uint256",
          "name": "parent",
          "type": "uint256"
        },
        {
          "indexed": false,
          "internalType": "uint256",
          "name": "userId",
          "type": "uint256"
        }
      ],
      "name": "TeamUpdated",
      "type": "event"
    },
    {
      "anonymous": false,
      "inputs": [
        {
          "indexed": false,
          "internalType": "address",
          "name": "account",
          "type": "address"
        }
      ],
      "name": "Unpaused",
      "type": "event"
    },
    {
      "anonymous": false,
      "inputs": [
        {
          "indexed": true,
          "internalType": "address",
          "name": "implementation",
          "type": "address"
        }
      ],
      "name": "Upgraded",
      "type": "event"
    },
    {
      "inputs": [
        {
          "internalType": "address",
          "name": "_tokenContractAddress",
          "type": "address"
        },
        {
          "internalType": "bool",
          "name": "_isStable",
          "type": "bool"
        },
        {
          "internalType": "address",
          "name": "_aggregatorContractAddress",
          "type": "address"
        }
      ],
      "name": "addBaseCurrency",
      "outputs": [],
      "stateMutability": "nonpayable",
      "type": "function"
    },
    {
      "inputs": [],
      "name": "getContractAnalytics",
      "outputs": [
        {
          "internalType": "uint256",
          "name": "usersCount",
          "type": "uint256"
        },
        {
          "internalType": "uint256",
          "name": "idsCount",
          "type": "uint256"
        },
        {
          "internalType": "uint256",
          "name": "nonGlobalIdsCount",
          "type": "uint256"
        },
        {
          "internalType": "uint256",
          "name": "totalReferralPaid",
          "type": "uint256"
        },
        {
          "internalType": "uint256",
          "name": "totalValueRegistered",
          "type": "uint256"
        }
      ],
      "stateMutability": "view",
      "type": "function"
    },
    {
      "inputs": [],
      "name": "getContractDefaults",
      "outputs": [
        {
          "internalType": "uint256[]",
          "name": "levelRates",
          "type": "uint256[]"
        },
        {
          "internalType": "uint256",
          "name": "maxRefereeLimit",
          "type": "uint256"
        },
        {
          "internalType": "uint256",
          "name": "teamLevelsToCount",
          "type": "uint256"
        },
        {
          "internalType": "uint256",
          "name": "registrationAmountInUSD",
          "type": "uint256"
        },
        {
          "internalType": "address",
          "name": "adminAddress",
          "type": "address"
        },
        {
          "internalType": "address",
          "name": "taxBeneficiaryAddress",
          "type": "address"
        },
        {
          "internalType": "uint256",
          "name": "taxPer",
          "type": "uint256"
        }
      ],
      "stateMutability": "view",
      "type": "function"
    },
    {
      "inputs": [
        {
          "internalType": "uint256",
          "name": "_id",
          "type": "uint256"
        }
      ],
      "name": "getIdAccount",
      "outputs": [
        {
          "components": [
            {
              "internalType": "uint256",
              "name": "id",
              "type": "uint256"
            },
            {
              "internalType": "address",
              "name": "owner",
              "type": "address"
            },
            {
              "internalType": "uint256",
              "name": "referrerId",
              "type": "uint256"
            },
            {
              "internalType": "uint256",
              "name": "parentId",
              "type": "uint256"
            },
            {
              "internalType": "uint256[]",
              "name": "refereeIds",
              "type": "uint256[]"
            },
            {
              "components": [
                {
                  "internalType": "uint256",
                  "name": "refereeId",
                  "type": "uint256"
                },
                {
                  "internalType": "uint256",
                  "name": "assignedToid",
                  "type": "uint256"
                }
              ],
              "internalType": "struct RefereeAssignedStruct[]",
              "name": "refereesAssigned",
              "type": "tuple[]"
            },
            {
              "components": [
                {
                  "internalType": "uint256",
                  "name": "teamId",
                  "type": "uint256"
                },
                {
                  "internalType": "uint256",
                  "name": "teamLevel",
                  "type": "uint256"
                }
              ],
              "internalType": "struct TeamStruct[]",
              "name": "team",
              "type": "tuple[]"
            },
            {
              "components": [
                {
                  "internalType": "uint256",
                  "name": "selfBusiness",
                  "type": "uint256"
                },
                {
                  "internalType": "uint256",
                  "name": "directBusiness",
                  "type": "uint256"
                },
                {
                  "internalType": "uint256",
                  "name": "teamBusiness",
                  "type": "uint256"
                }
              ],
              "internalType": "struct BusinessStruct",
              "name": "business",
              "type": "tuple"
            },
            {
              "components": [
                {
                  "internalType": "uint256",
                  "name": "referralRewards",
                  "type": "uint256"
                },
                {
                  "internalType": "uint256",
                  "name": "spillOverRewards",
                  "type": "uint256"
                },
                {
                  "internalType": "uint256",
                  "name": "globalRewards",
                  "type": "uint256"
                }
              ],
              "internalType": "struct RewardsStruct",
              "name": "rewards",
              "type": "tuple"
            },
            {
              "internalType": "bool",
              "name": "isInPool",
              "type": "bool"
            },
            {
              "internalType": "bool",
              "name": "isRegenerated",
              "type": "bool"
            },
            {
              "internalType": "uint256[]",
              "name": "regenratedIds",
              "type": "uint256[]"
            },
            {
              "internalType": "uint256",
              "name": "regeneratedIdBy",
              "type": "uint256"
            }
          ],
          "internalType": "struct IdStruct",
          "name": "",
          "type": "tuple"
        }
      ],
      "stateMutability": "view",
      "type": "function"
    },
    {
      "inputs": [
        {
          "internalType": "uint8",
          "name": "_poolId",
          "type": "uint8"
        }
      ],
      "name": "getPools",
      "outputs": [
        {
          "components": [
            {
              "internalType": "uint8",
              "name": "poolId",
              "type": "uint8"
            },
            {
              "internalType": "uint256",
              "name": "rewardToDistribute",
              "type": "uint256"
            },
            {
              "internalType": "uint8",
              "name": "minUserCounter",
              "type": "uint8"
            },
            {
              "internalType": "uint256",
              "name": "userCountToUpgrade",
              "type": "uint256"
            },
            {
              "internalType": "uint256",
              "name": "count",
              "type": "uint256"
            },
            {
              "internalType": "uint256[]",
              "name": "userIds",
              "type": "uint256[]"
            },
            {
              "internalType": "uint256",
              "name": "totalRewardDistributed",
              "type": "uint256"
            }
          ],
          "internalType": "struct PoolStruct",
          "name": "",
          "type": "tuple"
        }
      ],
      "stateMutability": "view",
      "type": "function"
    },
    {
      "inputs": [],
      "name": "getSupportedCurrencies",
      "outputs": [
        {
          "components": [
            {
              "internalType": "address",
              "name": "contractAddress",
              "type": "address"
            },
            {
              "internalType": "uint256",
              "name": "decimals",
              "type": "uint256"
            },
            {
              "internalType": "bool",
              "name": "isStable",
              "type": "bool"
            },
            {
              "internalType": "address",
              "name": "aggregatorAddress",
              "type": "address"
            },
            {
              "internalType": "bool",
              "name": "isEnaled",
              "type": "bool"
            }
          ],
          "internalType": "struct SupportedTokensStruct[]",
          "name": "",
          "type": "tuple[]"
        }
      ],
      "stateMutability": "view",
      "type": "function"
    },
    {
      "inputs": [
        {
          "internalType": "address",
          "name": "_userAddress",
          "type": "address"
        }
      ],
      "name": "getUserAccount",
      "outputs": [
        {
          "components": [
            {
              "internalType": "address",
              "name": "selfAddress",
              "type": "address"
            },
            {
              "internalType": "uint256[]",
              "name": "ids",
              "type": "uint256[]"
            },
            {
              "internalType": "uint256[]",
              "name": "regeneratedIds",
              "type": "uint256[]"
            }
          ],
          "internalType": "struct AccountStruct",
          "name": "",
          "type": "tuple"
        }
      ],
      "stateMutability": "view",
      "type": "function"
    },
    {
      "inputs": [],
      "name": "initialize",
      "outputs": [],
      "stateMutability": "nonpayable",
      "type": "function"
    },
    {
      "inputs": [],
      "name": "owner",
      "outputs": [
        {
          "internalType": "address",
          "name": "",
          "type": "address"
        }
      ],
      "stateMutability": "view",
      "type": "function"
    },
    {
      "inputs": [],
      "name": "paused",
      "outputs": [
        {
          "internalType": "bool",
          "name": "",
          "type": "bool"
        }
      ],
      "stateMutability": "view",
      "type": "function"
    },
    {
      "inputs": [],
      "name": "proxiableUUID",
      "outputs": [
        {
          "internalType": "bytes32",
          "name": "",
          "type": "bytes32"
        }
      ],
      "stateMutability": "view",
      "type": "function"
    },
    {
      "inputs": [
        {
          "internalType": "uint256",
          "name": "_referrerId",
          "type": "uint256"
        },
        {
          "internalType": "address",
          "name": "_userAddress",
          "type": "address"
        },
        {
          "internalType": "address",
          "name": "_tokenAddress",
          "type": "address"
        }
      ],
      "name": "register",
      "outputs": [],
      "stateMutability": "nonpayable",
      "type": "function"
    },
    {
      "inputs": [
        {
          "internalType": "address",
          "name": "_tokenContractAddress",
          "type": "address"
        },
        {
          "internalType": "bool",
          "name": "_status",
          "type": "bool"
        }
      ],
      "name": "removeBaseCurrency",
      "outputs": [],
      "stateMutability": "nonpayable",
      "type": "function"
    },
    {
      "inputs": [],
      "name": "renounceOwnership",
      "outputs": [],
      "stateMutability": "nonpayable",
      "type": "function"
    },
    {
      "inputs": [
        {
          "internalType": "uint8[]",
          "name": "_poolId",
          "type": "uint8[]"
        },
        {
          "internalType": "uint256[]",
          "name": "_rewardToDistributeInDecimals",
          "type": "uint256[]"
        },
        {
          "internalType": "uint8",
          "name": "_minUserCounter",
          "type": "uint8"
        }
      ],
      "name": "setPools",
      "outputs": [],
      "stateMutability": "nonpayable",
      "type": "function"
    },
    {
      "inputs": [
        {
          "internalType": "address",
          "name": "newOwner",
          "type": "address"
        }
      ],
      "name": "transferOwnership",
      "outputs": [],
      "stateMutability": "nonpayable",
      "type": "function"
    },
    {
      "inputs": [
        {
          "internalType": "address",
          "name": "newImplementation",
          "type": "address"
        }
      ],
      "name": "upgradeTo",
      "outputs": [],
      "stateMutability": "nonpayable",
      "type": "function"
    },
    {
      "inputs": [
        {
          "internalType": "address",
          "name": "newImplementation",
          "type": "address"
        },
        {
          "internalType": "bytes",
          "name": "data",
          "type": "bytes"
        }
      ],
      "name": "upgradeToAndCall",
      "outputs": [],
      "stateMutability": "payable",
      "type": "function"
    }
  ],
  "bytecode": "0x60a060405230608052348015610013575f80fd5b5060805161359b6100485f395f81816105dc01528181610625015281816106c2015281816107020152610793015261359b5ff3fe608060405260043610610105575f3560e01c80638129fc1c11610092578063c48d8e0211610062578063c48d8e02146102c3578063f2fde38b146102ef578063f782abc71461030e578063fb47e0161461032d578063ff43599c14610359575f80fd5b80638129fc1c1461022457806383b41e66146102385780638da5cb5b1461027d578063a73c50fa146102a4575f80fd5b80634f1ef286116100d85780634f1ef2861461019a57806352d1902d146101ad57806354f132e8146101cf5780635c975abb146101ee578063715018a614610210575f80fd5b80631a746344146101095780631ae57f83146101395780632ce758631461015a5780633659cfe61461017b575b5f80fd5b348015610114575f80fd5b5061011d610385565b6040516101309796959493929190612bc8565b60405180910390f35b348015610144575f80fd5b50610158610153366004612c93565b61043d565b005b348015610165575f80fd5b5061016e61052a565b6040516101309190612d11565b348015610186575f80fd5b50610158610195366004612da6565b6105d2565b6101586101a8366004612dd3565b6106b8565b3480156101b8575f80fd5b506101c1610787565b604051908152602001610130565b3480156101da575f80fd5b506101586101e9366004612e9c565b610838565b3480156101f9575f80fd5b5060335460ff166040519015158152602001610130565b34801561021b575f80fd5b506101586109a9565b34801561022f575f80fd5b506101586109bc565b348015610243575f80fd5b5060fb5460fc5460fd546101055461010654604080519586526020860194909452928401919091526060830152608082015260a001610130565b348015610288575f80fd5b506065546040516001600160a01b039091168152602001610130565b3480156102af575f80fd5b506101586102be366004612ed1565b610b50565b3480156102ce575f80fd5b506102e26102dd366004612f0a565b611068565b6040516101309190612f5e565b3480156102fa575f80fd5b50610158610309366004612da6565b61115c565b348015610319575f80fd5b50610158610328366004612fc8565b6111d2565b348015610338575f80fd5b5061034c610347366004612da6565b611461565b6040516101309190612ff3565b348015610364575f80fd5b5061037861037336600461303d565b61156a565b604051610130919061308d565b60605f805f805f8060fe8054806020026020016040519081016040528092919081815260200182805480156103d757602002820191905f5260205f20905b8154815260200190600101908083116103c3575b5050505050965060ff5495506101005f9054906101000a900460ff1660ff1694506101015493506101025f9054906101000a90046001600160a01b031692506101035f9054906101000a90046001600160a01b0316915061010454905090919293949596565b6104456117c1565b5f5b60ff8116851115610522575f61010c5f88888560ff1681811061046c5761046c6131c3565b90506020020160208101906104819190612f0a565b60ff1660ff1681526020019081526020015f20905086868360ff168181106104ab576104ab6131c3565b90506020020160208101906104c09190612f0a565b815460ff191660ff9182161782558590859084168181106104e3576104e36131c3565b90506020020135670de0b6b3a76400006104fd91906131eb565b6001820155600201805460ff191660ff841617905561051b81613202565b9050610447565b505050505050565b6060610107805480602002602001604051908101604052809291908181526020015f905b828210156105c9575f8481526020908190206040805160a0810182526003860290920180546001600160a01b0390811684526001808301548587015260029092015460ff80821615159486019490945261010081049091166060850152600160a81b900490911615156080830152908352909201910161054e565b50505050905090565b6001600160a01b037f00000000000000000000000000000000000000000000000000000000000000001630036106235760405162461bcd60e51b815260040161061a90613220565b60405180910390fd5b7f00000000000000000000000000000000000000000000000000000000000000006001600160a01b031661066b5f8051602061351f833981519152546001600160a01b031690565b6001600160a01b0316146106915760405162461bcd60e51b815260040161061a9061326c565b61069a8161181b565b604080515f808252602082019092526106b591839190611823565b50565b6001600160a01b037f00000000000000000000000000000000000000000000000000000000000000001630036107005760405162461bcd60e51b815260040161061a90613220565b7f00000000000000000000000000000000000000000000000000000000000000006001600160a01b03166107485f8051602061351f833981519152546001600160a01b031690565b6001600160a01b03161461076e5760405162461bcd60e51b815260040161061a9061326c565b6107778261181b565b61078382826001611823565b5050565b5f306001600160a01b037f000000000000000000000000000000000000000000000000000000000000000016146108265760405162461bcd60e51b815260206004820152603860248201527f555550535570677261646561626c653a206d757374206e6f742062652063616c60448201527f6c6564207468726f7567682064656c656761746563616c6c0000000000000000606482015260840161061a565b505f8051602061351f83398151915290565b6108406117c1565b6001600160a01b038281165f90815261010b6020526040902054166108c45760405162461bcd60e51b815260206004820152603460248201527f736574537570706f72746564546f6b656e53746174757328293a20546f6b656e6044820152731034b9903737ba1030b23232b21030b23232b21760611b606482015260840161061a565b6001600160a01b0382165f90815261010b6020526040902060020154811515600160a81b90910460ff161515036109715760405162461bcd60e51b815260206004820152604560248201527f736574537570706f72746564546f6b656e53746174757328293a20546f6b656e60448201527f2073746174757320697320616c72656164792073616d65206173206d656e746960648201526437b732b21760d91b608482015260a40161061a565b6001600160a01b039091165f90815261010b602052604090206002018054911515600160a81b0260ff60a81b19909216919091179055565b6109b16117c1565b6109ba5f611992565b565b5f54610100900460ff16158080156109da57505f54600160ff909116105b806109f35750303b1580156109f357505f5460ff166001145b610a565760405162461bcd60e51b815260206004820152602e60248201527f496e697469616c697a61626c653a20636f6e747261637420697320616c72656160448201526d191e481a5b9a5d1a585b1a5e995960921b606482015260840161061a565b5f805460ff191660011790558015610a77575f805461ff0019166101001790555b600260ff55604080516020810190915260328152610a999060fe906001612abd565b50610100805460ff1916601417905561010280546001600160a01b0319908116331790915561010380549091167314a8ee34edcb63f88d301215862ff5e017ebdff1179055678ac7230489e8000061010155600561010455610af96119e3565b610b01611a11565b610b09611a3f565b80156106b5575f805461ff0019169055604051600181527f7f26b83ff96e1f2b6a682f133852f6798a09c465da95921460cefb38474024989060200160405180910390a150565b6101085460ff1615610bb85760405162461bcd60e51b815260206004820152602b60248201527f5265656e7472616e6379477561726428293a20436f6e7472616374205265656e60448201526a1d1c985b98de51dd585c9960aa1b606482015260840161061a565b610108805460ff19166001179055610101546001600160a01b0382165f90815261010b6020526040902060020154339190600160a81b900460ff1615610c8e57826001600160a01b03166323b872dd8330610c138588611a65565b6040516001600160e01b031960e086901b1681526001600160a01b03938416600482015292909116602483015260448201526064016020604051808303815f875af1158015610c64573d5f803e3d5ffd5b505050506040513d601f19601f82011682018060405250810190610c8891906132b8565b50610cf5565b60405162461bcd60e51b815260206004820152603660248201527f726567697374657228293a20426173652043757272656e6379206973206e6f746044820152751039bab83837b93a32b21037b91032b730b13632b21760511b606482015260840161061a565b5f85815261010a602090815260408083206001600160a01b038816845261010990925282206001810154919290919003610d745760fb80546001810182555f919091527f3e7257b7272bb46d49cd6019b04ddee20da7c0cb13f7c1ec3391291b2ccebabc0180546001600160a01b0319166001600160a01b0386161790555b610d7e8187611af5565b5f610d87611b6d565b5f81815261010a60205260409020909150610da28184611b82565b50604080516101a0810182528254815260018301546001600160a01b0316602080830191909152600284015482840152600384015460608301526004840180548451818402810184019095528085526110189486936080860193919290830182828015610e2c57602002820191905f5260205f20905b815481526020019060010190808311610e18575b5050505050815260200160058201805480602002602001604051908101604052809291908181526020015f905b82821015610e9c578382905f5260205f2090600202016040518060400160405290815f820154815260200160018201548152505081526020019060010190610e59565b50505050815260200160068201805480602002602001604051908101604052809291908181526020015f905b82821015610f0b578382905f5260205f2090600202016040518060400160405290815f820154815260200160018201548152505081526020019060010190610ec8565b5050509082525060408051606080820183526007850154825260088501546020838101919091526009860154838501528085019290925282518082018452600a8601548152600b86015481840152600c8601548185015283850152600d85015460ff80821615159286019290925261010090041615156080840152600e8401805483518184028101840190945280845260a0909401939091830182828015610fd057602002820191905f5260205f20905b815481526020019060010190808311610fbc575b50505050508152602001600f820154815250505160fd80546001810182555f919091527f9346ac6dd7de6b96975fec380d4d994c4c12e6a8897544f22915316cc6cca2800155565b5f6110238583611cc0565b905061102f828761256d565b61103a82878a6125a5565b856101065f82825461104c91906132d3565b9091555050610108805460ff1916905550505050505050505050565b6110a86040518060e001604052805f60ff1681526020015f81526020015f60ff1681526020015f81526020015f8152602001606081526020015f81525090565b60ff8083165f90815261010c6020908152604091829020825160e0810184528154851681526001820154818401526002820154909416848401526003810154606085015260048101546080850152600581018054845181850281018501909552808552919360a086019390929083018282801561114257602002820191905f5260205f20905b81548152602001906001019080831161112e575b505050505081526020016006820154815250509050919050565b6111646117c1565b6001600160a01b0381166111c95760405162461bcd60e51b815260206004820152602660248201527f4f776e61626c653a206e6577206f776e657220697320746865207a65726f206160448201526564647265737360d01b606482015260840161061a565b6106b581611992565b6111da6117c1565b6001600160a01b038381165f90815261010b6020526040902054161561125e5760405162461bcd60e51b815260206004820152603360248201527f70757368537570706f72746564546f6b656e546f4c69737428293a20546f6b65604482015272371034b99030b63932b0b23c9030b23232b21760691b606482015260840161061a565b6040518060a00160405280846001600160a01b03168152602001846001600160a01b031663313ce5676040518163ffffffff1660e01b8152600401602060405180830381865afa1580156112b4573d5f803e3d5ffd5b505050506040513d601f19601f820116820180604052508101906112d891906132e6565b60ff90811682529315156020808301919091526001600160a01b03938416604080840191909152600160609384018190529685165f90815261010b8352818120855181549088166001600160a01b031991821617825593860151818a0190815592860151600282018054968801516080909801511515600160a81b90810260ff60a81b19998b16610100908102610100600160a81b031995151586166001600160a81b03199b8c1617178b1691909117835561010780549d8e01815590955292546003909b027f47c4908e245f386bfc1825973249847f4053a761ddb4880ad63c323a7b5a2a25810180549097169b8a169b909b1790955592547f47c4908e245f386bfc1825973249847f4053a761ddb4880ad63c323a7b5a2a268a015583547f47c4908e245f386bfc1825973249847f4053a761ddb4880ad63c323a7b5a2a279099018054998916151560ff198b1681178255855484900490981690920296909216979093169690961793909317808255925485900490931615159093029216919091179055565b61148d60405180606001604052805f6001600160a01b0316815260200160608152602001606081525090565b6001600160a01b038083165f908152610109602090815260409182902082516060810184528154909416845260018101805484518185028101850190955280855291938584019390929083018282801561150457602002820191905f5260205f20905b8154815260200190600101908083116114f0575b505050505081526020016002820180548060200260200160405190810160405280929190818152602001828054801561155a57602002820191905f5260205f20905b815481526020019060010190808311611546575b5050505050815250509050919050565b611572612b0b565b5f82815261010a602090815260409182902082516101a0810184528154815260018201546001600160a01b03168184015260028201548185015260038201546060820152600482018054855181860281018601909652808652919492936080860193929083018282801561160357602002820191905f5260205f20905b8154815260200190600101908083116115ef575b5050505050815260200160058201805480602002602001604051908101604052809291908181526020015f905b82821015611673578382905f5260205f2090600202016040518060400160405290815f820154815260200160018201548152505081526020019060010190611630565b50505050815260200160068201805480602002602001604051908101604052809291908181526020015f905b828210156116e2578382905f5260205f2090600202016040518060400160405290815f82015481526020016001820154815250508152602001906001019061169f565b5050509082525060408051606080820183526007850154825260088501546020838101919091526009860154838501528085019290925282518082018452600a8601548152600b86015481840152600c8601548185015283850152600d85015460ff80821615159286019290925261010090041615156080840152600e8401805483518184028101840190945280845260a09094019390918301828280156117a757602002820191905f5260205f20905b815481526020019060010190808311611793575b50505050508152602001600f820154815250509050919050565b6065546001600160a01b031633146109ba5760405162461bcd60e51b815260206004820181905260248201527f4f776e61626c653a2063616c6c6572206973206e6f7420746865206f776e6572604482015260640161061a565b6106b56117c1565b7f4910fdfa16fed3260ed0e7147f7cc6da11a60208b5b9406d12a635614ffd91435460ff161561185b5761185683612794565b505050565b826001600160a01b03166352d1902d6040518163ffffffff1660e01b8152600401602060405180830381865afa9250505080156118b5575060408051601f3d908101601f191682019092526118b291810190613301565b60015b6119185760405162461bcd60e51b815260206004820152602e60248201527f45524331393637557067726164653a206e657720696d706c656d656e7461746960448201526d6f6e206973206e6f74205555505360901b606482015260840161061a565b5f8051602061351f83398151915281146119865760405162461bcd60e51b815260206004820152602960248201527f45524331393637557067726164653a20756e737570706f727465642070726f786044820152681a58589b195555525160ba1b606482015260840161061a565b5061185683838361282f565b606580546001600160a01b038381166001600160a01b0319831681179093556040519116919082907f8be0079c531659141344cd1fd0a4f28419497f9722a3daafe3b4186f6b6457e0905f90a35050565b5f54610100900460ff16611a095760405162461bcd60e51b815260040161061a90613318565b6109ba612859565b5f54610100900460ff16611a375760405162461bcd60e51b815260040161061a90613318565b6109ba61288b565b5f54610100900460ff166109ba5760405162461bcd60e51b815260040161061a90613318565b5f670de0b6b3a7640000826001600160a01b031663313ce5676040518163ffffffff1660e01b8152600401602060405180830381865afa158015611aab573d5f803e3d5ffd5b505050506040513d601f19601f82011682018060405250810190611acf91906132e6565b611ada90600a613443565b611ae490856131eb565b611aee9190613451565b9392505050565b81546001600160a01b0316158015611b1557506001600160a01b03811615155b156107835781546001600160a01b0319166001600160a01b03821690811783556040519081527f3b819cfb39116b78a5d1267e92ab85058e96d63a7882322d296ab4135720b79a906020015b60405180910390a15050565b5f60fc546001611b7d91906132d3565b905090565b81545f9015611bdf5760405162461bcd60e51b815260206004820152602360248201527f5f757064617465496428293a20496420697320616c726561647920637265617460448201526232b21760e91b606482015260840161061a565b60fc8054905f611bee83613470565b909155505060fc548084556001838101805491820181555f9081526020908190209091018290558354604080516001600160a01b0390921682529181018390529192507f1edfaf20eb0251dd2ca45e125c8b9a615022667b9822cf6a8dc1d2ce7e91ea68910160405180910390a181546001840180546001600160a01b0319166001600160a01b03928316179055825460408051919092168152602081018390527f4f3673673d1e6f88f67f26845b9609a7707201984d7885988d35aedf43b9fe44910160405180910390a192915050565b80545f90611cd66065546001600160a01b031690565b6001600160a01b0316336001600160a01b031614611d5b5783545f03611d5b5760405162461bcd60e51b815260206004820152603460248201527f5f616464526566657272657228293a2052656665727265204964206973206e6f6044820152733a1030b1ba34bb30ba32b21037b9103d32b9379760611b606482015260840161061a565b80846002015403611dc95760405162461bcd60e51b815260206004820152603260248201527f5f616464526566657272657228293a20526566657265652063616e6e6f74206260448201527132903932b332b93932b9103ab83634b7329760711b606482015260840161061a565b600283015415611e2e5760405162461bcd60e51b815260206004820152602a60248201527f5f616464526566657272657228293a205573657220726566657272657220616c6044820152693932b0b23c9039b2ba1760b11b606482015260840161061a565b604080516101a0810182528554815260018601546001600160a01b0316602080830191909152600287015482840152600387015460608301526004870180548451818402810184019095528085526120739489936080860193919290830182828015611eb757602002820191905f5260205f20905b815481526020019060010190808311611ea3575b5050505050815260200160058201805480602002602001604051908101604052809291908181526020015f905b82821015611f27578382905f5260205f2090600202016040518060400160405290815f820154815260200160018201548152505081526020019060010190611ee4565b50505050815260200160068201805480602002602001604051908101604052809291908181526020015f905b82821015611f96578382905f5260205f2090600202016040518060400160405290815f820154815260200160018201548152505081526020019060010190611f53565b5050509082525060408051606080820183526007850154825260088501546020838101919091526009860154838501528085019290925282518082018452600a8601548152600b86015481840152600c8601548185015283850152600d85015460ff80821615159286019290925261010090041615156080840152600e8401805483518184028101840190945280845260a090940193909183018282801561205b57602002820191905f5260205f20905b815481526020019060010190808311612047575b50505050508152602001600f820154815250506128ba565b6120de5783546002840181905560038401556004840180546001810182555f918252602091829020018290558454604080519182529181018390527fe6b2c1ca4b33533eddccfdd2dd0fbe5ff44d75017001d4b2329b4daee1821436910160405180910390a161249e565b60fd546121395760405162461bcd60e51b8152602060048201526024808201527f5f616464526566657272657228293a20476c6f62616c2069647320617265206f6044820152633b32b91760e11b606482015260840161061a565b5f61010a5f60fd5f81548110612151576121516131c3565b5f91825260208083209190910154835282810193909352604091820181208054600289810191909155895460038a015583518085018552878152825481870190815260058c0180546001808201835591875295889020925195909302909101938455519201919091558754815483519182529381019390935290820184905291507f347a3b2fe969c7ab7c51c290dbcae965d7b5a6b03d2b9336a480169d79a5f51f9060600160405180910390a16004810180546001810182555f918252602091829020018390558154604080519182529181018490527fe6b2c1ca4b33533eddccfdd2dd0fbe5ff44d75017001d4b2329b4daee1821436910160405180910390a1604080516101a0810182528254815260018301546001600160a01b03166020808301919091526002840154828401526003840154606083015260048401805484518184028101840190955280855261249894869360808601939192908301828280156122dc57602002820191905f5260205f20905b8154815260200190600101908083116122c8575b5050505050815260200160058201805480602002602001604051908101604052809291908181526020015f905b8282101561234c578382905f5260205f2090600202016040518060400160405290815f820154815260200160018201548152505081526020019060010190612309565b50505050815260200160068201805480602002602001604051908101604052809291908181526020015f905b828210156123bb578382905f5260205f2090600202016040518060400160405290815f820154815260200160018201548152505081526020019060010190612378565b5050509082525060408051606080820183526007850154825260088501546020838101919091526009860154838501528085019290925282518082018452600a8601548152600b86015481840152600c8601548185015283850152600d85015460ff80821615159286019290925261010090041615156080840152600e8401805483518184028101840190945280845260a090940193909183018282801561248057602002820191905f5260205f20905b81548152602001906001019080831161246c575b50505050508152602001600f820154815250506128d2565b60019250505b6101005460ff165f5b818110156125645760028501545f81815261010a602052604081209190036124cf5750612564565b8060060160405180604001604052808681526020018460016124f191906132d3565b90528154600180820184555f9384526020938490208351600290930201918255918301519101558154604080519182529181018690527f48e403ae2a509cd9336134c0899083ba110bf3a35566606add88a2066ccbaa1a910160405180910390a1945061255d81613470565b90506124a7565b50505092915050565b815460408051918252602082018390527f7bc272836d15a231dbca2c8759d5bb751d4ecf39d918fef56f6cc2fc3c2386b09101611b61565b81836007015f015f8282546125ba91906132d3565b909155505060038301545f90815261010a6020526040902060018101546001600160a01b03166125e8575f80fd5b82816007016001015f8282546125fe91906132d3565b90915550508054845460408051928352602083019190915281018490527f57b50e0e70daa32ac46409245990bb5a21b96da6f9c1bcbba5424aa58723907a9060600160405180910390a15f606460fe5f8154811061265e5761265e6131c3565b905f5260205f2001548561267291906131eb565b61267c9190613451565b60018301549091506001600160a01b038085169163a9059cbb91166126a18487611a65565b6040516001600160e01b031960e085901b1681526001600160a01b03909216600483015260248201526044016020604051808303815f875af11580156126e9573d5f803e3d5ffd5b505050506040513d601f19601f8201168201806040525081019061270d91906132b8565b50815485546040805192835260208301919091528101829052600160608201527ff4bff7ddf097f430e0163107b212ddccc7c9a80ff7d32462be0c6f30bbbad0df9060800160405180910390a18082600a015f015f82825461276f91906132d3565b92505081905550806101055f82825461278891906132d3565b90915550505050505050565b6001600160a01b0381163b6128015760405162461bcd60e51b815260206004820152602d60248201527f455243313936373a206e657720696d706c656d656e746174696f6e206973206e60448201526c1bdd08184818dbdb9d1c9858dd609a1b606482015260840161061a565b5f8051602061351f83398151915280546001600160a01b0319166001600160a01b0392909216919091179055565b6128388361294e565b5f825111806128445750805b1561185657612853838361298d565b50505050565b5f54610100900460ff1661287f5760405162461bcd60e51b815260040161061a90613318565b6033805460ff19169055565b5f54610100900460ff166128b15760405162461bcd60e51b815260040161061a90613318565b6109ba33611992565b5f60ff54826080015151036128cd575060015b919050565b6128db816128ba565b156106b55760fd80546128f090600190613488565b81548110612900576129006131c3565b905f5260205f20015460fd5f8154811061291c5761291c6131c3565b5f9182526020909120015560fd8054806129385761293861349b565b600190038181905f5260205f20015f9055905550565b61295781612794565b6040516001600160a01b038216907fbc7cd75a20ee27fd9adebab32041f755214dbc6bffa90cc0225b39da2e5c2d3b905f90a250565b60606001600160a01b0383163b6129f55760405162461bcd60e51b815260206004820152602660248201527f416464726573733a2064656c65676174652063616c6c20746f206e6f6e2d636f6044820152651b9d1c9858dd60d21b606482015260840161061a565b5f80846001600160a01b031684604051612a0f91906134d1565b5f60405180830381855af49150503d805f8114612a47576040519150601f19603f3d011682016040523d82523d5f602084013e612a4c565b606091505b5091509150612a74828260405180606001604052806027815260200161353f60279139612a7f565b925050505b92915050565b60608315612a8e575081611aee565b611aee8383815115612aa35781518083602001fd5b8060405162461bcd60e51b815260040161061a91906134ec565b828054828255905f5260205f20908101928215612afb579160200282015b82811115612afb578251829060ff16905591602001919060010190612adb565b50612b07929150612bb4565b5090565b604051806101a001604052805f81526020015f6001600160a01b031681526020015f81526020015f8152602001606081526020016060815260200160608152602001612b6e60405180606001604052805f81526020015f81526020015f81525090565b8152602001612b9460405180606001604052805f81526020015f81526020015f81525090565b81525f602082018190526040820181905260608083015260809091015290565b5b80821115612b07575f8155600101612bb5565b60e080825288519082018190525f90602090610100840190828c01845b82811015612c0157815184529284019290840190600101612be5565b5050509083019890985250604081019590955260608501939093526001600160a01b0391821660808501521660a083015260c090910152919050565b5f8083601f840112612c4d575f80fd5b50813567ffffffffffffffff811115612c64575f80fd5b6020830191508360208260051b8501011115612c7e575f80fd5b9250929050565b60ff811681146106b5575f80fd5b5f805f805f60608688031215612ca7575f80fd5b853567ffffffffffffffff80821115612cbe575f80fd5b612cca89838a01612c3d565b90975095506020880135915080821115612ce2575f80fd5b50612cef88828901612c3d565b9094509250506040860135612d0381612c85565b809150509295509295909350565b602080825282518282018190525f919060409081850190868401855b82811015612d8357815180516001600160a01b0390811686528782015188870152868201511515878701526060808301519091169086015260809081015115159085015260a09093019290850190600101612d2d565b5091979650505050505050565b80356001600160a01b03811681146128cd575f80fd5b5f60208284031215612db6575f80fd5b611aee82612d90565b634e487b7160e01b5f52604160045260245ffd5b5f8060408385031215612de4575f80fd5b612ded83612d90565b9150602083013567ffffffffffffffff80821115612e09575f80fd5b818501915085601f830112612e1c575f80fd5b813581811115612e2e57612e2e612dbf565b604051601f8201601f19908116603f01168101908382118183101715612e5657612e56612dbf565b81604052828152886020848701011115612e6e575f80fd5b826020860160208301375f6020848301015280955050505050509250929050565b80151581146106b5575f80fd5b5f8060408385031215612ead575f80fd5b612eb683612d90565b91506020830135612ec681612e8f565b809150509250929050565b5f805f60608486031215612ee3575f80fd5b83359250612ef360208501612d90565b9150612f0160408501612d90565b90509250925092565b5f60208284031215612f1a575f80fd5b8135611aee81612c85565b5f8151808452602080850194508084015f5b83811015612f5357815187529582019590820190600101612f37565b509495945050505050565b6020815260ff82511660208201526020820151604082015260ff604083015116606082015260608201516080820152608082015160a08201525f60a083015160e060c0840152612fb2610100840182612f25565b905060c084015160e08401528091505092915050565b5f805f60608486031215612fda575f80fd5b612fe384612d90565b92506020840135612ef381612e8f565b602080825282516001600160a01b031682820152820151606060408301525f906130206080840182612f25565b90506040840151601f19848303016060850152612a748282612f25565b5f6020828403121561304d575f80fd5b5035919050565b5f8151808452602080850194508084015f5b83811015612f53578151805188528301518388015260409096019590820190600101613066565b60208152815160208201525f60208301516130b360408401826001600160a01b03169052565b50604083015160608301526060830151608083015260808301516102208060a08501526130e4610240850183612f25565b915060a0850151601f19808685030160c08701526131028483613054565b935060c08701519150808685030160e087015261311f8483613054565b935060e0870151915061010061314b818801848051825260208082015190830152604090810151910152565b8701519150610160613173878201848051825260208082015190830152604090810151910152565b61012088015115156101c088015261014088015115156101e08801528701518685039190910161020087015290506131ab8382612f25565b92505061018085015181850152508091505092915050565b634e487b7160e01b5f52603260045260245ffd5b634e487b7160e01b5f52601160045260245ffd5b8082028115828204841417612a7957612a796131d7565b5f60ff821660ff8103613217576132176131d7565b60010192915050565b6020808252602c908201527f46756e6374696f6e206d7573742062652063616c6c6564207468726f7567682060408201526b19195b1959d85d1958d85b1b60a21b606082015260800190565b6020808252602c908201527f46756e6374696f6e206d7573742062652063616c6c6564207468726f7567682060408201526b6163746976652070726f787960a01b606082015260800190565b5f602082840312156132c8575f80fd5b8151611aee81612e8f565b80820180821115612a7957612a796131d7565b5f602082840312156132f6575f80fd5b8151611aee81612c85565b5f60208284031215613311575f80fd5b5051919050565b6020808252602b908201527f496e697469616c697a61626c653a20636f6e7472616374206973206e6f74206960408201526a6e697469616c697a696e6760a81b606082015260800190565b600181815b8085111561339d57815f1904821115613383576133836131d7565b8085161561339057918102915b93841c9390800290613368565b509250929050565b5f826133b357506001612a79565b816133bf57505f612a79565b81600181146133d557600281146133df576133fb565b6001915050612a79565b60ff8411156133f0576133f06131d7565b50506001821b612a79565b5060208310610133831016604e8410600b841016171561341e575081810a612a79565b6134288383613363565b805f190482111561343b5761343b6131d7565b029392505050565b5f611aee60ff8416836133a5565b5f8261346b57634e487b7160e01b5f52601260045260245ffd5b500490565b5f60018201613481576134816131d7565b5060010190565b81810381811115612a7957612a796131d7565b634e487b7160e01b5f52603160045260245ffd5b5f5b838110156134c95781810151838201526020016134b1565b50505f910152565b5f82516134e28184602087016134af565b9190910192915050565b602081525f825180602084015261350a8160408501602087016134af565b601f01601f1916919091016040019291505056fe360894a13ba1a3210667c828492db98dca3e2076cc3735a920a3ca505d382bbc416464726573733a206c6f772d6c6576656c2064656c65676174652063616c6c206661696c6564a26469706673582212205acbb79678bd0deb56a572805a460ac54f3f9f94f519651c68d04bdca5b2292e64736f6c63430008140033",
  "linkReferences": {},
  "deployedLinkReferences": {}
}