{
  "_format": "hh-sol-artifact-1",
  "contractName": "EagleForceReferralRewards",
  "sourceName": "contracts/EagleForceReferralRewards.sol",
  "abi": [
    {
      "anonymous": false,
      "inputs": [
        {
          "indexed": false,
          "internalType": "address",
          "name": "previousAdmin",
          "type": "address"
        },
        {
          "indexed": false,
          "internalType": "address",
          "name": "newAdmin",
          "type": "address"
        }
      ],
      "name": "AdminChanged",
      "type": "event"
    },
    {
      "anonymous": false,
      "inputs": [
        {
          "indexed": false,
          "internalType": "address",
          "name": "coreMembersContract",
          "type": "address"
        },
        {
          "indexed": false,
          "internalType": "uint256",
          "name": "value",
          "type": "uint256"
        }
      ],
      "name": "AdminRewardPaid",
      "type": "event"
    },
    {
      "anonymous": false,
      "inputs": [
        {
          "indexed": true,
          "internalType": "address",
          "name": "beacon",
          "type": "address"
        }
      ],
      "name": "BeaconUpgraded",
      "type": "event"
    },
    {
      "anonymous": false,
      "inputs": [
        {
          "indexed": false,
          "internalType": "address",
          "name": "referrer",
          "type": "address"
        },
        {
          "indexed": false,
          "internalType": "address",
          "name": "user",
          "type": "address"
        },
        {
          "indexed": false,
          "internalType": "uint256",
          "name": "value",
          "type": "uint256"
        }
      ],
      "name": "DirectBusinessUpdated",
      "type": "event"
    },
    {
      "anonymous": false,
      "inputs": [
        {
          "indexed": false,
          "internalType": "address",
          "name": "globalAddress",
          "type": "address"
        },
        {
          "indexed": false,
          "internalType": "uint256",
          "name": "rewardValue",
          "type": "uint256"
        }
      ],
      "name": "GlobalRewardsPaid",
      "type": "event"
    },
    {
      "anonymous": false,
      "inputs": [
        {
          "indexed": false,
          "internalType": "address",
          "name": "ibpAddress",
          "type": "address"
        },
        {
          "indexed": false,
          "internalType": "address",
          "name": "userAddress",
          "type": "address"
        }
      ],
      "name": "IBPAdded",
      "type": "event"
    },
    {
      "anonymous": false,
      "inputs": [
        {
          "indexed": false,
          "internalType": "address",
          "name": "ibpAddress",
          "type": "address"
        },
        {
          "indexed": false,
          "internalType": "address",
          "name": "userAddress",
          "type": "address"
        },
        {
          "indexed": false,
          "internalType": "string",
          "name": "reason",
          "type": "string"
        }
      ],
      "name": "IBPNotAdded",
      "type": "event"
    },
    {
      "anonymous": false,
      "inputs": [
        {
          "indexed": false,
          "internalType": "address",
          "name": "ibpAddress",
          "type": "address"
        },
        {
          "indexed": false,
          "internalType": "uint256",
          "name": "rewardValue",
          "type": "uint256"
        }
      ],
      "name": "IBPRewardsPaid",
      "type": "event"
    },
    {
      "anonymous": false,
      "inputs": [
        {
          "indexed": false,
          "internalType": "uint8",
          "name": "version",
          "type": "uint8"
        }
      ],
      "name": "Initialized",
      "type": "event"
    },
    {
      "anonymous": false,
      "inputs": [
        {
          "indexed": false,
          "internalType": "uint256",
          "name": "value",
          "type": "uint256"
        }
      ],
      "name": "LiquidityAdded",
      "type": "event"
    },
    {
      "anonymous": false,
      "inputs": [
        {
          "indexed": false,
          "internalType": "address",
          "name": "userAddress",
          "type": "address"
        },
        {
          "indexed": false,
          "internalType": "string",
          "name": "reason",
          "type": "string"
        }
      ],
      "name": "NoRewardsPaid",
      "type": "event"
    },
    {
      "anonymous": false,
      "inputs": [
        {
          "indexed": true,
          "internalType": "address",
          "name": "previousOwner",
          "type": "address"
        },
        {
          "indexed": true,
          "internalType": "address",
          "name": "newOwner",
          "type": "address"
        }
      ],
      "name": "OwnershipTransferred",
      "type": "event"
    },
    {
      "anonymous": false,
      "inputs": [
        {
          "indexed": false,
          "internalType": "address",
          "name": "account",
          "type": "address"
        }
      ],
      "name": "Paused",
      "type": "event"
    },
    {
      "anonymous": false,
      "inputs": [
        {
          "indexed": false,
          "internalType": "address",
          "name": "referrerAddress",
          "type": "address"
        },
        {
          "indexed": false,
          "internalType": "uint256",
          "name": "rewardValue",
          "type": "uint256"
        },
        {
          "indexed": false,
          "internalType": "uint32",
          "name": "level",
          "type": "uint32"
        }
      ],
      "name": "ReferralRewardsPaid",
      "type": "event"
    },
    {
      "anonymous": false,
      "inputs": [
        {
          "indexed": false,
          "internalType": "address",
          "name": "referrerAddress",
          "type": "address"
        },
        {
          "indexed": false,
          "internalType": "address",
          "name": "refereeAddress",
          "type": "address"
        }
      ],
      "name": "ReferrerAdded",
      "type": "event"
    },
    {
      "anonymous": false,
      "inputs": [
        {
          "indexed": false,
          "internalType": "address",
          "name": "referrerAddress",
          "type": "address"
        },
        {
          "indexed": false,
          "internalType": "address",
          "name": "refereeAddress",
          "type": "address"
        },
        {
          "indexed": false,
          "internalType": "string",
          "name": "reason",
          "type": "string"
        }
      ],
      "name": "ReferrerNotAdded",
      "type": "event"
    },
    {
      "anonymous": false,
      "inputs": [
        {
          "indexed": false,
          "internalType": "address",
          "name": "userAddress",
          "type": "address"
        },
        {
          "indexed": false,
          "internalType": "uint256",
          "name": "userId",
          "type": "uint256"
        },
        {
          "indexed": false,
          "internalType": "uint8",
          "name": "planId",
          "type": "uint8"
        },
        {
          "indexed": false,
          "internalType": "address",
          "name": "referrerAddress",
          "type": "address"
        }
      ],
      "name": "Registration",
      "type": "event"
    },
    {
      "anonymous": false,
      "inputs": [
        {
          "indexed": false,
          "internalType": "address",
          "name": "userAddress",
          "type": "address"
        },
        {
          "indexed": false,
          "internalType": "uint256",
          "name": "rewardValue",
          "type": "uint256"
        },
        {
          "indexed": false,
          "internalType": "uint256",
          "name": "lapsedValued",
          "type": "uint256"
        }
      ],
      "name": "RewardLapsed",
      "type": "event"
    },
    {
      "anonymous": false,
      "inputs": [
        {
          "indexed": false,
          "internalType": "address",
          "name": "parentAddress",
          "type": "address"
        },
        {
          "indexed": false,
          "internalType": "address",
          "name": "referrerAddress",
          "type": "address"
        },
        {
          "indexed": false,
          "internalType": "address",
          "name": "refereeAddress",
          "type": "address"
        },
        {
          "indexed": false,
          "internalType": "uint32",
          "name": "level",
          "type": "uint32"
        }
      ],
      "name": "TeamAddressAdded",
      "type": "event"
    },
    {
      "anonymous": false,
      "inputs": [
        {
          "indexed": false,
          "internalType": "address",
          "name": "referrer",
          "type": "address"
        },
        {
          "indexed": false,
          "internalType": "address",
          "name": "user",
          "type": "address"
        },
        {
          "indexed": false,
          "internalType": "uint256",
          "name": "value",
          "type": "uint256"
        }
      ],
      "name": "TeamBusinessUpdated",
      "type": "event"
    },
    {
      "anonymous": false,
      "inputs": [
        {
          "indexed": false,
          "internalType": "address",
          "name": "account",
          "type": "address"
        }
      ],
      "name": "Unpaused",
      "type": "event"
    },
    {
      "anonymous": false,
      "inputs": [
        {
          "indexed": true,
          "internalType": "address",
          "name": "implementation",
          "type": "address"
        }
      ],
      "name": "Upgraded",
      "type": "event"
    },
    {
      "anonymous": false,
      "inputs": [
        {
          "indexed": false,
          "internalType": "address",
          "name": "globalAddress",
          "type": "address"
        },
        {
          "indexed": false,
          "internalType": "uint256",
          "name": "rewardValue",
          "type": "uint256"
        }
      ],
      "name": "WeeklyRewardsPaid",
      "type": "event"
    },
    {
      "inputs": [
        {
          "internalType": "address",
          "name": "_tokenAddress",
          "type": "address"
        }
      ],
      "name": "distributeWeeklyReward",
      "outputs": [],
      "stateMutability": "nonpayable",
      "type": "function"
    },
    {
      "inputs": [],
      "name": "getGlobalAddress",
      "outputs": [
        {
          "internalType": "address[]",
          "name": "globalAddress",
          "type": "address[]"
        },
        {
          "internalType": "uint256",
          "name": "globalAddressCount",
          "type": "uint256"
        }
      ],
      "stateMutability": "view",
      "type": "function"
    },
    {
      "inputs": [
        {
          "internalType": "uint8",
          "name": "_planId",
          "type": "uint8"
        }
      ],
      "name": "getPlanById",
      "outputs": [
        {
          "components": [
            {
              "internalType": "uint8",
              "name": "planId",
              "type": "uint8"
            },
            {
              "internalType": "string",
              "name": "name",
              "type": "string"
            },
            {
              "internalType": "uint256",
              "name": "value",
              "type": "uint256"
            },
            {
              "internalType": "uint256",
              "name": "maxLimitMultiplier",
              "type": "uint256"
            }
          ],
          "internalType": "struct PlanStruct",
          "name": "",
          "type": "tuple"
        }
      ],
      "stateMutability": "view",
      "type": "function"
    },
    {
      "inputs": [],
      "name": "getPlansCount",
      "outputs": [
        {
          "internalType": "uint8",
          "name": "planCount",
          "type": "uint8"
        }
      ],
      "stateMutability": "view",
      "type": "function"
    },
    {
      "inputs": [],
      "name": "getRandomGlobalAddress",
      "outputs": [
        {
          "internalType": "address",
          "name": "",
          "type": "address"
        }
      ],
      "stateMutability": "view",
      "type": "function"
    },
    {
      "inputs": [],
      "name": "getRegistrationsStats",
      "outputs": [
        {
          "internalType": "uint256",
          "name": "totalUser",
          "type": "uint256"
        },
        {
          "internalType": "uint256",
          "name": "totalRegistrationValue",
          "type": "uint256"
        },
        {
          "internalType": "uint256",
          "name": "totalReferralPaid",
          "type": "uint256"
        },
        {
          "internalType": "uint256",
          "name": "totalGlobalRewardsPaid",
          "type": "uint256"
        },
        {
          "internalType": "uint256",
          "name": "totalWeeklyRewardsPaid",
          "type": "uint256"
        },
        {
          "internalType": "uint256",
          "name": "totalAdminRewardsPaid",
          "type": "uint256"
        },
        {
          "internalType": "uint256",
          "name": "totalProviderRewardsPaid",
          "type": "uint256"
        }
      ],
      "stateMutability": "view",
      "type": "function"
    },
    {
      "inputs": [],
      "name": "getRewardTokenContract",
      "outputs": [
        {
          "internalType": "address",
          "name": "",
          "type": "address"
        }
      ],
      "stateMutability": "view",
      "type": "function"
    },
    {
      "inputs": [],
      "name": "getStakingContract",
      "outputs": [
        {
          "internalType": "address",
          "name": "",
          "type": "address"
        }
      ],
      "stateMutability": "view",
      "type": "function"
    },
    {
      "inputs": [
        {
          "internalType": "address",
          "name": "_tokenContractAddress",
          "type": "address"
        }
      ],
      "name": "getSupportedTokenInfo",
      "outputs": [
        {
          "components": [
            {
              "internalType": "address",
              "name": "contractAddress",
              "type": "address"
            },
            {
              "internalType": "string",
              "name": "name",
              "type": "string"
            },
            {
              "internalType": "string",
              "name": "symbol",
              "type": "string"
            },
            {
              "internalType": "uint8",
              "name": "decimals",
              "type": "uint8"
            },
            {
              "internalType": "bool",
              "name": "isStable",
              "type": "bool"
            },
            {
              "internalType": "address",
              "name": "aggregatorAddress",
              "type": "address"
            },
            {
              "internalType": "bool",
              "name": "isEnaled",
              "type": "bool"
            }
          ],
          "internalType": "struct SupportedTokensStruct",
          "name": "",
          "type": "tuple"
        }
      ],
      "stateMutability": "view",
      "type": "function"
    },
    {
      "inputs": [],
      "name": "getSupportedTokensList",
      "outputs": [
        {
          "components": [
            {
              "internalType": "address",
              "name": "contractAddress",
              "type": "address"
            },
            {
              "internalType": "string",
              "name": "name",
              "type": "string"
            },
            {
              "internalType": "string",
              "name": "symbol",
              "type": "string"
            },
            {
              "internalType": "uint8",
              "name": "decimals",
              "type": "uint8"
            },
            {
              "internalType": "bool",
              "name": "isStable",
              "type": "bool"
            },
            {
              "internalType": "address",
              "name": "aggregatorAddress",
              "type": "address"
            },
            {
              "internalType": "bool",
              "name": "isEnaled",
              "type": "bool"
            }
          ],
          "internalType": "struct SupportedTokensStruct[]",
          "name": "",
          "type": "tuple[]"
        }
      ],
      "stateMutability": "view",
      "type": "function"
    },
    {
      "inputs": [
        {
          "internalType": "address",
          "name": "_userAddress",
          "type": "address"
        }
      ],
      "name": "getUserAccount",
      "outputs": [
        {
          "components": [
            {
              "internalType": "uint256",
              "name": "userId",
              "type": "uint256"
            },
            {
              "internalType": "address",
              "name": "selfAddress",
              "type": "address"
            },
            {
              "internalType": "address",
              "name": "referrer",
              "type": "address"
            },
            {
              "internalType": "address[]",
              "name": "referees",
              "type": "address[]"
            },
            {
              "components": [
                {
                  "internalType": "address",
                  "name": "teamAddress",
                  "type": "address"
                },
                {
                  "internalType": "uint256",
                  "name": "teamLevel",
                  "type": "uint256"
                }
              ],
              "internalType": "struct TeamStruct[]",
              "name": "team",
              "type": "tuple[]"
            },
            {
              "internalType": "uint256",
              "name": "selfBusiness",
              "type": "uint256"
            },
            {
              "internalType": "uint256",
              "name": "directBusiness",
              "type": "uint256"
            },
            {
              "internalType": "uint256",
              "name": "teamBusiness",
              "type": "uint256"
            },
            {
              "internalType": "uint256",
              "name": "maxLimit",
              "type": "uint256"
            },
            {
              "internalType": "uint256",
              "name": "currentLimit",
              "type": "uint256"
            },
            {
              "internalType": "uint256",
              "name": "referralRewards",
              "type": "uint256"
            },
            {
              "internalType": "uint256",
              "name": "globalRewards",
              "type": "uint256"
            },
            {
              "internalType": "uint256",
              "name": "weeklyRewards",
              "type": "uint256"
            },
            {
              "internalType": "bool",
              "name": "isPayGlobal",
              "type": "bool"
            },
            {
              "internalType": "uint32[]",
              "name": "globalIndexes",
              "type": "uint32[]"
            }
          ],
          "internalType": "struct AccountStruct",
          "name": "",
          "type": "tuple"
        }
      ],
      "stateMutability": "view",
      "type": "function"
    },
    {
      "inputs": [
        {
          "internalType": "address",
          "name": "_userAddress",
          "type": "address"
        }
      ],
      "name": "getUserBusiness",
      "outputs": [
        {
          "internalType": "uint256",
          "name": "selfBusiness",
          "type": "uint256"
        },
        {
          "internalType": "uint256",
          "name": "directBusiness",
          "type": "uint256"
        },
        {
          "internalType": "uint256",
          "name": "teamBusiness",
          "type": "uint256"
        },
        {
          "internalType": "uint256",
          "name": "totalBusiness",
          "type": "uint256"
        }
      ],
      "stateMutability": "view",
      "type": "function"
    },
    {
      "inputs": [
        {
          "internalType": "address",
          "name": "_userAddress",
          "type": "address"
        }
      ],
      "name": "getUserLimit",
      "outputs": [
        {
          "internalType": "uint256",
          "name": "maxLimit",
          "type": "uint256"
        },
        {
          "internalType": "uint256",
          "name": "currentLimit",
          "type": "uint256"
        },
        {
          "internalType": "uint256",
          "name": "limitRemaingvalue",
          "type": "uint256"
        }
      ],
      "stateMutability": "view",
      "type": "function"
    },
    {
      "inputs": [
        {
          "internalType": "address",
          "name": "_userAddress",
          "type": "address"
        }
      ],
      "name": "getUserRewards",
      "outputs": [
        {
          "internalType": "uint256",
          "name": "referralReward",
          "type": "uint256"
        },
        {
          "internalType": "uint256",
          "name": "globalReward",
          "type": "uint256"
        },
        {
          "internalType": "uint256",
          "name": "weeklyReward",
          "type": "uint256"
        },
        {
          "internalType": "uint256",
          "name": "totalIncome",
          "type": "uint256"
        }
      ],
      "stateMutability": "view",
      "type": "function"
    },
    {
      "inputs": [
        {
          "internalType": "address",
          "name": "_userAddress",
          "type": "address"
        }
      ],
      "name": "getUserTeam",
      "outputs": [
        {
          "internalType": "address",
          "name": "referrer",
          "type": "address"
        },
        {
          "internalType": "address[]",
          "name": "referees",
          "type": "address[]"
        },
        {
          "internalType": "uint256",
          "name": "refereeCount",
          "type": "uint256"
        },
        {
          "components": [
            {
              "internalType": "address",
              "name": "teamAddress",
              "type": "address"
            },
            {
              "internalType": "uint256",
              "name": "teamLevel",
              "type": "uint256"
            }
          ],
          "internalType": "struct TeamStruct[]",
          "name": "team",
          "type": "tuple[]"
        },
        {
          "internalType": "uint256",
          "name": "teamCount",
          "type": "uint256"
        }
      ],
      "stateMutability": "view",
      "type": "function"
    },
    {
      "inputs": [],
      "name": "getWeeklyRewardToBeDistributed",
      "outputs": [
        {
          "internalType": "uint256",
          "name": "_rewardValue",
          "type": "uint256"
        },
        {
          "internalType": "uint256",
          "name": "_remianingTime",
          "type": "uint256"
        },
        {
          "internalType": "uint256",
          "name": "_endTime",
          "type": "uint256"
        }
      ],
      "stateMutability": "view",
      "type": "function"
    },
    {
      "inputs": [],
      "name": "initialize",
      "outputs": [],
      "stateMutability": "nonpayable",
      "type": "function"
    },
    {
      "inputs": [
        {
          "internalType": "address",
          "name": "_tokenContractAddress",
          "type": "address"
        }
      ],
      "name": "isTokenSupported",
      "outputs": [
        {
          "internalType": "bool",
          "name": "",
          "type": "bool"
        }
      ],
      "stateMutability": "view",
      "type": "function"
    },
    {
      "inputs": [
        {
          "internalType": "address",
          "name": "_userAddress",
          "type": "address"
        }
      ],
      "name": "isUserInGlobalList",
      "outputs": [
        {
          "internalType": "bool",
          "name": "isInList",
          "type": "bool"
        },
        {
          "internalType": "uint32[]",
          "name": "indexes",
          "type": "uint32[]"
        },
        {
          "internalType": "uint256",
          "name": "totalGlobalIds",
          "type": "uint256"
        }
      ],
      "stateMutability": "view",
      "type": "function"
    },
    {
      "inputs": [],
      "name": "owner",
      "outputs": [
        {
          "internalType": "address",
          "name": "",
          "type": "address"
        }
      ],
      "stateMutability": "view",
      "type": "function"
    },
    {
      "inputs": [],
      "name": "paused",
      "outputs": [
        {
          "internalType": "bool",
          "name": "",
          "type": "bool"
        }
      ],
      "stateMutability": "view",
      "type": "function"
    },
    {
      "inputs": [],
      "name": "proxiableUUID",
      "outputs": [
        {
          "internalType": "bytes32",
          "name": "",
          "type": "bytes32"
        }
      ],
      "stateMutability": "view",
      "type": "function"
    },
    {
      "inputs": [
        {
          "internalType": "address",
          "name": "_tokenContractAddress",
          "type": "address"
        },
        {
          "internalType": "bool",
          "name": "_isStable",
          "type": "bool"
        },
        {
          "internalType": "address",
          "name": "_aggregatorContractAddress",
          "type": "address"
        }
      ],
      "name": "pushSupportedTokenToList",
      "outputs": [],
      "stateMutability": "nonpayable",
      "type": "function"
    },
    {
      "inputs": [
        {
          "internalType": "address",
          "name": "_referrer",
          "type": "address"
        },
        {
          "internalType": "uint8",
          "name": "_planId",
          "type": "uint8"
        },
        {
          "internalType": "address",
          "name": "_tokenAddress",
          "type": "address"
        }
      ],
      "name": "registrationWithToken",
      "outputs": [],
      "stateMutability": "nonpayable",
      "type": "function"
    },
    {
      "inputs": [],
      "name": "renounceOwnership",
      "outputs": [],
      "stateMutability": "nonpayable",
      "type": "function"
    },
    {
      "inputs": [
        {
          "internalType": "address",
          "name": "_userAddress",
          "type": "address"
        },
        {
          "internalType": "uint256",
          "name": "_valueInDecimals",
          "type": "uint256"
        }
      ],
      "name": "setMaxLimit",
      "outputs": [],
      "stateMutability": "nonpayable",
      "type": "function"
    },
    {
      "inputs": [
        {
          "internalType": "uint8[]",
          "name": "_planId",
          "type": "uint8[]"
        },
        {
          "internalType": "string[]",
          "name": "_name",
          "type": "string[]"
        },
        {
          "internalType": "uint256[]",
          "name": "_valueInDecimals",
          "type": "uint256[]"
        },
        {
          "internalType": "uint256[]",
          "name": "_maxLimitMultiplier",
          "type": "uint256[]"
        }
      ],
      "name": "setPlans",
      "outputs": [],
      "stateMutability": "nonpayable",
      "type": "function"
    },
    {
      "inputs": [
        {
          "internalType": "address",
          "name": "_contractAddress",
          "type": "address"
        }
      ],
      "name": "setRewardTokenContract",
      "outputs": [],
      "stateMutability": "nonpayable",
      "type": "function"
    },
    {
      "inputs": [
        {
          "internalType": "address",
          "name": "_contractAddress",
          "type": "address"
        }
      ],
      "name": "setStakingContract",
      "outputs": [],
      "stateMutability": "nonpayable",
      "type": "function"
    },
    {
      "inputs": [
        {
          "internalType": "address",
          "name": "_tokenContractAddress",
          "type": "address"
        },
        {
          "internalType": "bool",
          "name": "_status",
          "type": "bool"
        }
      ],
      "name": "setSupportedTokenStatus",
      "outputs": [],
      "stateMutability": "nonpayable",
      "type": "function"
    },
    {
      "inputs": [
        {
          "internalType": "address",
          "name": "_userAddress",
          "type": "address"
        },
        {
          "internalType": "uint256",
          "name": "_valueInWei",
          "type": "uint256"
        }
      ],
      "name": "transferETH",
      "outputs": [],
      "stateMutability": "nonpayable",
      "type": "function"
    },
    {
      "inputs": [
        {
          "internalType": "address",
          "name": "newOwner",
          "type": "address"
        }
      ],
      "name": "transferOwnership",
      "outputs": [],
      "stateMutability": "nonpayable",
      "type": "function"
    },
    {
      "inputs": [
        {
          "internalType": "address",
          "name": "_tokenAddress",
          "type": "address"
        },
        {
          "internalType": "address",
          "name": "_userAddress",
          "type": "address"
        },
        {
          "internalType": "uint256",
          "name": "_valueInTokens",
          "type": "uint256"
        }
      ],
      "name": "transferTokens",
      "outputs": [],
      "stateMutability": "nonpayable",
      "type": "function"
    },
    {
      "inputs": [
        {
          "internalType": "address",
          "name": "_putAdminAddress",
          "type": "address"
        },
        {
          "internalType": "address",
          "name": "_putLiquidityAddress",
          "type": "address"
        }
      ],
      "name": "updateAddress",
      "outputs": [],
      "stateMutability": "nonpayable",
      "type": "function"
    },
    {
      "inputs": [
        {
          "internalType": "address",
          "name": "_userAddress",
          "type": "address"
        }
      ],
      "name": "updateUserAddress",
      "outputs": [],
      "stateMutability": "nonpayable",
      "type": "function"
    },
    {
      "inputs": [
        {
          "internalType": "address",
          "name": "newImplementation",
          "type": "address"
        }
      ],
      "name": "upgradeTo",
      "outputs": [],
      "stateMutability": "nonpayable",
      "type": "function"
    },
    {
      "inputs": [
        {
          "internalType": "address",
          "name": "newImplementation",
          "type": "address"
        },
        {
          "internalType": "bytes",
          "name": "data",
          "type": "bytes"
        }
      ],
      "name": "upgradeToAndCall",
      "outputs": [],
      "stateMutability": "payable",
      "type": "function"
    },
    {
      "stateMutability": "payable",
      "type": "receive"
    }
  ],
  "bytecode": "0x60a06040523060805234801561001457600080fd5b50608051615c476200004d60003960008181610f1f01528181610f5f015281816112340152818161127401526113070152615c476000f3fe60806040526004361061021e5760003560e01c80638da5cb5b11610123578063d0ff813e116100ab578063f2fde38b1161006f578063f2fde38b146106ea578063f53e0d671461070a578063f87127b41461071f578063faeda7e51461073f578063fb47e0161461077057600080fd5b8063d0ff813e1461063a578063d277b8a91461065d578063e6f6769e1461067d578063e74af32e1461069d578063e9587e86146106ca57600080fd5b8063a64b6e5f116100f2578063a64b6e5f14610593578063acc91865146105b3578063b7d68ada146105da578063bcb03b57146105fa578063c83e2c521461061a57600080fd5b80638da5cb5b146105165780638e68dce4146105345780639bfa882e146105535780639dd373b91461057357600080fd5b80635c975abb116101a657806375151b631161017557806375151b631461044b5780637b1a49091461048f5780638129fc1c146104af5780638327ffc2146104c4578063846688f7146104e657600080fd5b80635c975abb146103bf5780635eb08097146103e357806365eb204d14610403578063715018a61461043657600080fd5b80630efc12b1116101ed5780630efc12b11461030d5780633659cfe61461033a5780633ef575e91461035a5780634f1ef2861461038957806352d1902d1461039c57600080fd5b8063051ff2b91461022a5780630690c6a81461024c578063078b0fb7146102ad57806308fcfbbe146102ed57600080fd5b3661022557005b600080fd5b34801561023657600080fd5b5061024a610245366004614d4a565b61079d565b005b34801561025857600080fd5b5060fb5460fd546101005461010154610102546101035461010554604080519788526020880196909652948601939093526060850191909152608084015260a083015260c082015260e0015b60405180910390f35b3480156102b957600080fd5b506102cd6102c8366004614d8f565b610ba5565b6040805194855260208501939093529183015260608201526080016102a4565b3480156102f957600080fd5b5061024a610308366004614d8f565b610de1565b34801561031957600080fd5b5061032d610328366004614db9565b610e0c565b6040516102a49190614e26565b34801561034657600080fd5b5061024a610355366004614d8f565b610f15565b34801561036657600080fd5b5061037a610375366004614d8f565b610ff4565b6040516102a493929190614e6f565b61024a610397366004614f7b565b61122a565b3480156103a857600080fd5b506103b16112fa565b6040519081526020016102a4565b3480156103cb57600080fd5b5060335460ff165b60405190151581526020016102a4565b3480156103ef57600080fd5b5061024a6103fe366004614d8f565b6113ad565b34801561040f57600080fd5b50610111546001600160a01b03165b6040516001600160a01b0390911681526020016102a4565b34801561044257600080fd5b5061024a6113e3565b34801561045757600080fd5b506103d3610466366004614d8f565b6001600160a01b0316600090815261010e6020526040902060030154600160b01b900460ff1690565b34801561049b57600080fd5b5061024a6104aa366004614fdd565b6113f7565b3480156104bb57600080fd5b5061024a6114b3565b3480156104d057600080fd5b506104d96116c5565b6040516102a49190615087565b3480156104f257600080fd5b506104fb6118aa565b604080519384526020840192909252908201526060016102a4565b34801561052257600080fd5b506065546001600160a01b031661041e565b34801561054057600080fd5b50610112546001600160a01b031661041e565b34801561055f57600080fd5b5061024a61056e3660046150e9565b6118e0565b34801561057f57600080fd5b5061024a61058e366004614d8f565b61190c565b34801561059f57600080fd5b5061024a6105ae36600461511c565b611937565b3480156105bf57600080fd5b506105c86119b6565b60405160ff90911681526020016102a4565b3480156105e657600080fd5b5061024a6105f5366004615158565b611a0a565b34801561060657600080fd5b5061024a6106153660046151db565b611b7e565b34801561062657600080fd5b5061024a610635366004614fdd565b611cd1565b34801561064657600080fd5b5061064f611d0f565b6040516102a492919061537d565b34801561066957600080fd5b5061024a610678366004614d8f565b611d7b565b34801561068957600080fd5b5061024a61069836600461539f565b6120d0565b3480156106a957600080fd5b506106bd6106b8366004614d8f565b6120dc565b6040516102a491906153cd565b3480156106d657600080fd5b506104fb6106e5366004614d8f565b6122b0565b3480156106f657600080fd5b5061024a610705366004614d8f565b6124e6565b34801561071657600080fd5b5061041e61255c565b34801561072b57600080fd5b506102cd61073a366004614d8f565b61256b565b34801561074b57600080fd5b5061075f61075a366004614d8f565b6127aa565b6040516102a4959493929190615424565b34801561077c57600080fd5b5061079061078b366004614d8f565b6129e1565b6040516102a491906154a9565b6107a5612c7c565b6001600160a01b03838116600090815261010e6020526040902054161561082f5760405162461bcd60e51b815260206004820152603360248201527f70757368537570706f72746564546f6b656e546f4c69737428293a20546f6b65604482015272371034b99030b63932b0b23c9030b23232b21760691b60648201526084015b60405180910390fd5b6040518060e00160405280846001600160a01b03168152602001846001600160a01b03166306fdde036040518163ffffffff1660e01b8152600401600060405180830381865afa158015610887573d6000803e3d6000fd5b505050506040513d6000823e601f3d908101601f191682016040526108af91908101906155c3565b8152602001846001600160a01b03166395d89b416040518163ffffffff1660e01b8152600401600060405180830381865afa1580156108f2573d6000803e3d6000fd5b505050506040513d6000823e601f3d908101601f1916820160405261091a91908101906155c3565b8152602001846001600160a01b031663313ce5676040518163ffffffff1660e01b8152600401602060405180830381865afa15801561095d573d6000803e3d6000fd5b505050506040513d601f19601f820116820180604052508101906109819190615631565b60ff1681528315156020808301919091526001600160a01b0384811660408085019190915260016060909401849052878216600090815261010e845220845181546001600160a01b03191692169190911781559083015190918201906109e790826156ce565b50604082015160028201906109fc90826156ce565b50606082015160039091018054608084015160a085015160c0909501511515600160b01b0260ff60b01b196001600160a01b0396871662010000021662010000600160b81b03199215156101000261ffff1990941660ff90961695909517929092171692909217919091179055838116600090815261010e6020526040812061010b80546001818101835591909352815460049093027fc4a0eda7235d7f6fd09c1e1f9f82dc3264d0d2f064cb41576c42a996a7be2892810180546001600160a01b031916949095169390931784559092917fc4a0eda7235d7f6fd09c1e1f9f82dc3264d0d2f064cb41576c42a996a7be28930190610afd9084018261578e565b50600281810190610b109084018261578e565b506003918201805491909201805460ff19811660ff9384169081178355845461010090819004851615150261ffff19909216171780825583546001600160a01b036201000091829004160262010000600160b01b03198216811783559354600160b01b90819004909316151590920260ff60b01b1990931662010000600160b81b031990921691909117919091179055505050565b6001600160a01b03808216600090815261010c6020908152604080832081516101e08101835281548152600182015486168185015260028201549095168583015260038101805483518186028101860190945280845294958695869586958695939460608601939192909190830182828015610c4a57602002820191906000526020600020905b81546001600160a01b03168152600190910190602001808311610c2c575b5050505050815260200160048201805480602002602001604051908101604052809291908181526020016000905b82821015610cc0576000848152602090819020604080518082019091526002850290910180546001600160a01b03168252600190810154828401529083529092019101610c78565b5050505081526020016005820154815260200160068201548152602001600782015481526020016008820154815260200160098201548152602001600a8201548152602001600b8201548152602001600c8201548152602001600d820160009054906101000a900460ff16151515158152602001600e8201805480602002602001604051908101604052809291908181526020018280548015610dae57602002820191906000526020600020906000905b82829054906101000a900463ffffffff1663ffffffff1681526020019060040190602082600301049283019260010382029150808411610d715790505b50505050508152505090508061014001519450806101600151935080610180015192508061012001519150509193509193565b610de9612c7c565b61011180546001600160a01b0319166001600160a01b0392909216919091179055565b610e3a6040518060800160405280600060ff1681526020016060815260200160008152602001600081525090565b60ff808316600090815261010d60209081526040918290208251608081019093528054909316825260018301805492939291840191610e789061564e565b80601f0160208091040260200160405190810160405280929190818152602001828054610ea49061564e565b8015610ef15780601f10610ec657610100808354040283529160200191610ef1565b820191906000526020600020905b815481529060010190602001808311610ed457829003601f168201915b50505050508152602001600282015481526020016003820154815250509050919050565b6001600160a01b037f0000000000000000000000000000000000000000000000000000000000000000163003610f5d5760405162461bcd60e51b815260040161082690615861565b7f00000000000000000000000000000000000000000000000000000000000000006001600160a01b0316610fa6600080516020615bab833981519152546001600160a01b031690565b6001600160a01b031614610fcc5760405162461bcd60e51b8152600401610826906158ad565b610fd581612cd6565b60408051600080825260208201909252610ff191839190612cde565b50565b6001600160a01b03808216600090815261010c6020908152604080832081516101e0810183528154815260018201548616818501526002820154909516858301526003810180548351818602810186019094528084529495606095879586959294938589019392909183018282801561109657602002820191906000526020600020905b81546001600160a01b03168152600190910190602001808311611078575b5050505050815260200160048201805480602002602001604051908101604052809291908181526020016000905b8282101561110c576000848152602090819020604080518082019091526002850290910180546001600160a01b031682526001908101548284015290835290920191016110c4565b5050505081526020016005820154815260200160068201548152602001600782015481526020016008820154815260200160098201548152602001600a8201548152602001600b8201548152602001600c8201548152602001600d820160009054906101000a900460ff16151515158152602001600e82018054806020026020016040519081016040528092919081815260200182805480156111fa57602002820191906000526020600020906000905b82829054906101000a900463ffffffff1663ffffffff16815260200190600401906020826003010492830192600103820291508084116111bd5790505b50505050508152505090506000816101c0015151111561121957600193505b6101c0015180519395909450915050565b6001600160a01b037f00000000000000000000000000000000000000000000000000000000000000001630036112725760405162461bcd60e51b815260040161082690615861565b7f00000000000000000000000000000000000000000000000000000000000000006001600160a01b03166112bb600080516020615bab833981519152546001600160a01b031690565b6001600160a01b0316146112e15760405162461bcd60e51b8152600401610826906158ad565b6112ea82612cd6565b6112f682826001612cde565b5050565b6000306001600160a01b037f0000000000000000000000000000000000000000000000000000000000000000161461139a5760405162461bcd60e51b815260206004820152603860248201527f555550535570677261646561626c653a206d757374206e6f742062652063616c60448201527f6c6564207468726f7567682064656c656761746563616c6c00000000000000006064820152608401610826565b50600080516020615bab83398151915290565b6113b5612c7c565b6001600160a01b0316600081815261010c6020526040902060010180546001600160a01b0319169091179055565b6113eb612c7c565b6113f56000612e49565b565b6113ff612c7c565b6000826001600160a01b03168260405160006040518083038185875af1925050503d806000811461144c576040519150601f19603f3d011682016040523d82523d6000602084013e611451565b606091505b50509050806114ae5760405162461bcd60e51b815260206004820152602360248201527f7472616e7366657245544828293a2056616c7565206e6f74207472616e7366656044820152621c995960ea1b6064820152608401610826565b505050565b600054610100900460ff16158080156114d35750600054600160ff909116105b806114ed5750303b1580156114ed575060005460ff166001145b6115505760405162461bcd60e51b815260206004820152602e60248201527f496e697469616c697a61626c653a20636f6e747261637420697320616c72656160448201526d191e481a5b9a5d1a585b1a5e995960921b6064820152608401610826565b6000805460ff191660011790558015611573576000805461ff0019166101001790555b4260ff55604080516101408101825260288152600560208201819052918101919091526003606082018190526080820152600260a0820181905260c0820181905260e0820152600161010082018190526101208201526115d89061010690600a614cc9565b5061010780546001600160a01b031990811673fdeb4225c3eda06ec2e9235fdf866d9aba3d23ff179091556101088054821673d9e7481c8505aad2af5000b148df12ad8e0fa656179055610109805482163390811790915561010a8054831690911790556101128054821690556101118054909116733d3bbf32cb8ac95e58997ac324cb402326dfd58b17905561166d612e9b565b611675612eca565b61167d612ef9565b8015610ff1576000805461ff0019169055604051600181527f7f26b83ff96e1f2b6a682f133852f6798a09c465da95921460cefb38474024989060200160405180910390a150565b606061010b805480602002602001604051908101604052809291908181526020016000905b828210156118a15760008481526020908190206040805160e081019091526004850290910180546001600160a01b0316825260018101805492939192918401916117339061564e565b80601f016020809104026020016040519081016040528092919081815260200182805461175f9061564e565b80156117ac5780601f10611781576101008083540402835291602001916117ac565b820191906000526020600020905b81548152906001019060200180831161178f57829003601f168201915b505050505081526020016002820180546117c59061564e565b80601f01602080910402602001604051908101604052809291908181526020018280546117f19061564e565b801561183e5780601f106118135761010080835404028352916020019161183e565b820191906000526020600020905b81548152906001019060200180831161182157829003601f168201915b50505091835250506003919091015460ff80821660208085019190915261010083048216151560408501526001600160a01b03620100008404166060850152600160b01b90920416151560809092019190915290825260019290920191016116ea565b50505050905090565b60fe5460ff5460009081906118c29062093a8061590f565b905042808211156118da576118d78183615922565b92505b50909192565b6118e8612c7c565b5061010780546001600160a01b0319166001600160a01b0392909216919091179055565b611914612c7c565b61011280546001600160a01b0319166001600160a01b0392909216919091179055565b61193f612c7c565b60405163a9059cbb60e01b81526001600160a01b0384169063a9059cbb9061196d9085908590600401615935565b6020604051808303816000875af115801561198c573d6000803e3d6000fd5b505050506040513d601f19601f820116820180604052508101906119b0919061594e565b50505050565b6000805b60148160ff1610156119f45760ff8116600090815261010d6020526040902060020154156119f457816119ec8161596b565b9250506119f8565b5090565b80611a028161596b565b9150506119ba565b611a12612c7c565b6001600160a01b03828116600090815261010e602052604090205416611a975760405162461bcd60e51b815260206004820152603460248201527f736574537570706f72746564546f6b656e53746174757328293a20546f6b656e6044820152731034b9903737ba1030b23232b21030b23232b21760611b6064820152608401610826565b6001600160a01b038216600090815261010e6020526040902060030154811515600160b01b90910460ff16151503611b455760405162461bcd60e51b815260206004820152604560248201527f736574537570706f72746564546f6b656e53746174757328293a20546f6b656e60448201527f2073746174757320697320616c72656164792073616d65206173206d656e746960648201526437b732b21760d91b608482015260a401610826565b6001600160a01b03909116600090815261010e602052604090206003018054911515600160b01b0260ff60b01b19909216919091179055565b611b86612c7c565b60005b86811015611cc7576040518060800160405280898984818110611bae57611bae61598a565b9050602002016020810190611bc39190614db9565b60ff168152602001878381518110611bdd57611bdd61598a565b60200260200101518152602001868684818110611bfc57611bfc61598a565b90506020020135670de0b6b3a7640000611c1691906159a0565b8152602001848484818110611c2d57611c2d61598a565b9050602002013581525061010d60008a8a85818110611c4e57611c4e61598a565b9050602002016020810190611c639190614db9565b60ff908116825260208083019390935260409091016000208351815460ff19169216919091178155908201516001820190611c9e90826156ce565b506040820151600282015560609091015160039091015580611cbf816159b7565b915050611b89565b5050505050505050565b611cd9612c7c565b611ceb81670de0b6b3a76400006159a0565b6001600160a01b03909216600090815261010c602052604090206008019190915550565b6060600060fc805480602002602001604051908101604052809291908181526020018280548015611d6957602002820191906000526020600020905b81546001600160a01b03168152600190910190602001808311611d4b575b505060fc549396939550929350505050565b600060ff5462093a80611d8e919061590f565b90504281811015611de15760405162461bcd60e51b815260206004820152601c60248201527f5765656b6c792074696d65206973206e6f74206f766572207965742e000000006044820152606401610826565b6000611deb612f20565b6001600160a01b03808216600090815261010c60209081526040808320898516845261010e8352818420825160e08101909352805490951682526001850180549697509095939491939192840191611e429061564e565b80601f0160208091040260200160405190810160405280929190818152602001828054611e6e9061564e565b8015611ebb5780601f10611e9057610100808354040283529160200191611ebb565b820191906000526020600020905b815481529060010190602001808311611e9e57829003601f168201915b50505050508152602001600282018054611ed49061564e565b80601f0160208091040260200160405190810160405280929190818152602001828054611f009061564e565b8015611f4d5780601f10611f2257610100808354040283529160200191611f4d565b820191906000526020600020905b815481529060010190602001808311611f3057829003601f168201915b50505091835250506003919091015460ff808216602084015261010082048116151560408401526001600160a01b03620100008304166060840152600160b01b90910416151560809091015260fe54909150600090611fad908490612fa7565b905080156120c7578083600c016000828254611fc9919061590f565b92505081905550866001600160a01b031663a9059cbb856012856060015160ff1610611ff55783612008565b612008846012876060015160ff1661303e565b6040518363ffffffff1660e01b8152600401612025929190615935565b6020604051808303816000875af1158015612044573d6000803e3d6000fd5b505050506040513d601f19601f82011682018060405250810190612068919061594e565b50600060fe8190554260ff55610102805483929061208790849061590f565b90915550506040517ffff6edc60fd30afefcc47525cdf85502200830b22550391f79f9e383df03afad906120be9086908490615935565b60405180910390a15b50505050505050565b6114ae83338484613074565b6040805160e080820183526000808352606060208085018290528486018290529084018290526080840182905260a0840182905260c084018290526001600160a01b03868116835261010e82529185902085519384019095528454909116825260018401805493949293918401916121539061564e565b80601f016020809104026020016040519081016040528092919081815260200182805461217f9061564e565b80156121cc5780601f106121a1576101008083540402835291602001916121cc565b820191906000526020600020905b8154815290600101906020018083116121af57829003601f168201915b505050505081526020016002820180546121e59061564e565b80601f01602080910402602001604051908101604052809291908181526020018280546122119061564e565b801561225e5780601f106122335761010080835404028352916020019161225e565b820191906000526020600020905b81548152906001019060200180831161224157829003601f168201915b50505091835250506003919091015460ff808216602084015261010082048116151560408401526001600160a01b03620100008304166060840152600160b01b90910416151560809091015292915050565b6001600160a01b03808216600090815261010c6020908152604080832081516101e0810183528154815260018201548616818501526002820154909516858301526003810180548351818602810186019094528084529495869586958695929493606086019392909183018282801561235257602002820191906000526020600020905b81546001600160a01b03168152600190910190602001808311612334575b5050505050815260200160048201805480602002602001604051908101604052809291908181526020016000905b828210156123c8576000848152602090819020604080518082019091526002850290910180546001600160a01b03168252600190810154828401529083529092019101612380565b5050505081526020016005820154815260200160068201548152602001600782015481526020016008820154815260200160098201548152602001600a8201548152602001600b8201548152602001600c8201548152602001600d820160009054906101000a900460ff16151515158152602001600e82018054806020026020016040519081016040528092919081815260200182805480156124b657602002820191906000526020600020906000905b82829054906101000a900463ffffffff1663ffffffff16815260200190600401906020826003010492830192600103820291508084116124795790505b50505091909252505050610100810151610120820151909550935090506124dd8385615922565b93959294505050565b6124ee612c7c565b6001600160a01b0381166125535760405162461bcd60e51b815260206004820152602660248201527f4f776e61626c653a206e6577206f776e657220697320746865207a65726f206160448201526564647265737360d01b6064820152608401610826565b610ff181612e49565b6000612566612f20565b905090565b6001600160a01b03808216600090815261010c6020908152604080832081516101e0810183528154815260018201548616818501526002820154909516858301526003810180548351818602810186019094528084529495869586958695869593946060860193919290919083018282801561261057602002820191906000526020600020905b81546001600160a01b031681526001909101906020018083116125f2575b5050505050815260200160048201805480602002602001604051908101604052809291908181526020016000905b82821015612686576000848152602090819020604080518082019091526002850290910180546001600160a01b0316825260019081015482840152908352909201910161263e565b5050505081526020016005820154815260200160068201548152602001600782015481526020016008820154815260200160098201548152602001600a8201548152602001600b8201548152602001600c8201548152602001600d820160009054906101000a900460ff16151515158152602001600e820180548060200260200160405190810160405280929190818152602001828054801561277457602002820191906000526020600020906000905b82829054906101000a900463ffffffff1663ffffffff16815260200190600401906020826003010492830192600103820291508084116127375790505b5050509190925250505060a081015160c082015160e08301519197509550935090506127a0858461590f565b9150509193509193565b6001600160a01b03808216600090815261010c6020908152604080832081516101e0810183528154815260018201548616818501526002820154909516858301526003810180548351818602810186019094528084529495606095879587958795869590938589019383018282801561284c57602002820191906000526020600020905b81546001600160a01b0316815260019091019060200180831161282e575b5050505050815260200160048201805480602002602001604051908101604052809291908181526020016000905b828210156128c2576000848152602090819020604080518082019091526002850290910180546001600160a01b0316825260019081015482840152908352909201910161287a565b5050505081526020016005820154815260200160068201548152602001600782015481526020016008820154815260200160098201548152602001600a8201548152602001600b8201548152602001600c8201548152602001600d820160009054906101000a900460ff16151515158152602001600e82018054806020026020016040519081016040528092919081815260200182805480156129b057602002820191906000526020600020906000905b82829054906101000a900463ffffffff1663ffffffff16815260200190600401906020826003010492830192600103820291508084116129735790505b505050919092525050506040810151606082015180516080909301518051929b919a50929850919650945092505050565b612a6e604051806101e001604052806000815260200160006001600160a01b0316815260200160006001600160a01b0316815260200160608152602001606081526020016000815260200160008152602001600081526020016000815260200160008152602001600081526020016000815260200160008152602001600015158152602001606081525090565b6001600160a01b03808316600090815261010c602090815260409182902082516101e08101845281548152600182015485168184015260028201549094168484015260038101805484518185028101850190955280855291936060860193909290830182828015612b0857602002820191906000526020600020905b81546001600160a01b03168152600190910190602001808311612aea575b5050505050815260200160048201805480602002602001604051908101604052809291908181526020016000905b82821015612b7e576000848152602090819020604080518082019091526002850290910180546001600160a01b03168252600190810154828401529083529092019101612b36565b5050505081526020016005820154815260200160068201548152602001600782015481526020016008820154815260200160098201548152602001600a8201548152602001600b8201548152602001600c8201548152602001600d820160009054906101000a900460ff16151515158152602001600e8201805480602002602001604051908101604052809291908181526020018280548015612c6c57602002820191906000526020600020906000905b82829054906101000a900463ffffffff1663ffffffff1681526020019060040190602082600301049283019260010382029150808411612c2f5790505b5050505050815250509050919050565b6065546001600160a01b031633146113f55760405162461bcd60e51b815260206004820181905260248201527f4f776e61626c653a2063616c6c6572206973206e6f7420746865206f776e65726044820152606401610826565b610ff1612c7c565b7f4910fdfa16fed3260ed0e7147f7cc6da11a60208b5b9406d12a635614ffd91435460ff1615612d11576114ae83613ead565b826001600160a01b03166352d1902d6040518163ffffffff1660e01b8152600401602060405180830381865afa925050508015612d6b575060408051601f3d908101601f19168201909252612d68918101906159d0565b60015b612dce5760405162461bcd60e51b815260206004820152602e60248201527f45524331393637557067726164653a206e657720696d706c656d656e7461746960448201526d6f6e206973206e6f74205555505360901b6064820152608401610826565b600080516020615bab8339815191528114612e3d5760405162461bcd60e51b815260206004820152602960248201527f45524331393637557067726164653a20756e737570706f727465642070726f786044820152681a58589b195555525160ba1b6064820152608401610826565b506114ae838383613f49565b606580546001600160a01b038381166001600160a01b0319831681179093556040519116919082907f8be0079c531659141344cd1fd0a4f28419497f9722a3daafe3b4186f6b6457e090600090a35050565b600054610100900460ff16612ec25760405162461bcd60e51b8152600401610826906159e9565b6113f5613f6e565b600054610100900460ff16612ef15760405162461bcd60e51b8152600401610826906159e9565b6113f5613fa1565b600054610100900460ff166113f55760405162461bcd60e51b8152600401610826906159e9565b6000804244612f30600143615922565b60408051602081019490945283019190915240606082015260800160408051601f19818403018152919052805160209091012060fc54909150600090612f769083615a4a565b905060fc8181548110612f8b57612f8b61598a565b6000918252602090912001546001600160a01b03169392505050565b60008260080154828460090154612fbe919061590f565b1015612fe65781905080836009016000828254612fdb919061590f565b909155506130389050565b8260080154828460090154612ffb919061590f565b036130175781905080836009016000828254612fdb919061590f565b8260090154836008015461302b9190615922565b6008840154600985015590505b92915050565b600061304b83600a615b42565b61305683600a615b42565b61306090866159a0565b61306a9190615b4e565b90505b9392505050565b60ff808316600090815261010d60209081526040808320815160808101909252805490941681526001840180549394919391928401916130b39061564e565b80601f01602080910402602001604051908101604052809291908181526020018280546130df9061564e565b801561312c5780601f106131015761010080835404028352916020019161312c565b820191906000526020600020905b81548152906001019060200180831161310f57829003601f168201915b5050505050815260200160028201548152602001600382015481525050905060008160400151116131b25760405162461bcd60e51b815260206004820152602a60248201527f56616c7565206973207a65726f2e20506c656173652073656c65637420636f726044820152693932b1ba10383630b71760b11b6064820152608401610826565b6001600160a01b03808316600090815261010e60209081526040808320815160e08101909252805490941681526001840180549394919391928401916131f79061564e565b80601f01602080910402602001604051908101604052809291908181526020018280546132239061564e565b80156132705780601f1061324557610100808354040283529160200191613270565b820191906000526020600020905b81548152906001019060200180831161325357829003601f168201915b505050505081526020016002820180546132899061564e565b80601f01602080910402602001604051908101604052809291908181526020018280546132b59061564e565b80156133025780601f106132d757610100808354040283529160200191613302565b820191906000526020600020905b8154815290600101906020018083116132e557829003601f168201915b50505091835250506003919091015460ff808216602084015261010082048116151560408401526001600160a01b03620100008304166060840152600160b01b90910416151560809091015260c08101519091506133a25760405162461bcd60e51b815260206004820152601760248201527f546f6b656e206973206e6f7420737570706f727465642e0000000000000000006044820152606401610826565b600083905060006101068054806020026020016040519081016040528092919081815260200182805480156133f657602002820191906000526020600020905b8154815260200190600101908083116133e2575b50505050509050816001600160a01b03166323b872dd88306012876060015160ff161061342757876040015161343e565b61343e88604001516012896060015160ff1661303e565b6040516001600160e01b031960e086901b1681526001600160a01b03938416600482015292909116602483015260448201526064016020604051808303816000875af1158015613492573d6000803e3d6000fd5b505050506040513d601f19601f820116820180604052508101906134b6919061594e565b506001600160a01b03808816600090815261010c6020526040902061011254909116158015906134f15750610111546001600160a01b031615155b1561367d57610111546040516370a0823160e01b81523060048201526001600160a01b039091169060009082906370a0823190602401602060405180830381865afa158015613544573d6000803e3d6000fd5b505050506040513d601f19601f8201168201806040525081019061356891906159d0565b905086604001518111801561357f57506005830154155b1561367a576000600288604001516135979190615b4e565b61011254604051633528777d60e11b81529192506001600160a01b031690636a50eefa906135cb908e908590600401615935565b600060405180830381600087803b1580156135e557600080fd5b505af11580156135f9573d6000803e3d6000fd5b5050610112546040808c0151905163a9059cbb60e01b81526001600160a01b03808916955063a9059cbb945061363493169190600401615935565b6020604051808303816000875af1158015613653573d6000803e3d6000fd5b505050506040513d601f19601f82011682018060405250810190613677919061594e565b50505b50505b8460400151816005016000828254613695919061590f565b9091555050606085015160408601516136ae91906159a0565b8160080160008282546136c1919061590f565b9091555050604080516101e0810182528254815260018301546001600160a01b039081166020808401919091526002850154909116828401526003840180548451818402810184019095528085526138c8948693606086019391929083018282801561375657602002820191906000526020600020905b81546001600160a01b03168152600190910190602001808311613738575b5050505050815260200160048201805480602002602001604051908101604052809291908181526020016000905b828210156137cc576000848152602090819020604080518082019091526002850290910180546001600160a01b03168252600190810154828401529083529092019101613784565b5050505081526020016005820154815260200160068201548152602001600782015481526020016008820154815260200160098201548152602001600a8201548152602001600b8201548152602001600c8201548152602001600d820160009054906101000a900460ff16151515158152602001600e82018054806020026020016040519081016040528092919081815260200182805480156138ba57602002820191906000526020600020906000905b82829054906101000a900463ffffffff1663ffffffff168152602001906004019060208260030104928301926001038202915080841161387d5790505b505050505081525050613fd1565b6138d8576138d889898451613ff0565b805460000361393f5761393f8160018082015460fb8054928301815560008190527f3e7257b7272bb46d49cd6019b04ddee20da7c0cb13f7c1ec3391291b2ccebabc90920180546001600160a01b0319166001600160a01b03909216919091179055549055565b600181015481546002830154604080516001600160a01b039485168152602081019390935260ff8b16838201529216606082015290517feec4681e4b89378d8ab9529b5fbded5b42ed9bfb1f8740a2154b2feeb24c5f2e9181900360800190a160fc54156139b6576139b685604001518486614723565b6000805b83518160ff161015613dc357604080516101e0810182528454815260018501546001600160a01b03908116602080840191909152600287015490911682840152600386018054845181840281018401909552808552613ac99488936060860193919290830182828015613756576020028201919060005260206000209081546001600160a01b0316815260019091019060200180831161373857505050505081526020016004820180548060200260200160405190810160405280929190818152602001600090828210156137cc576000848152602090819020604080518082019091526002850290910180546001600160a01b03168252600190810154828401529083529092019101613784565b15613dc35760028301546001600160a01b0316600090815261010c602052604081209060ff83169003613c0d578760400151816006016000828254613b0e919061590f565b9091555050600d81015460ff168015613b33575060018101546001600160a01b031615155b8015613b5357506101075460018201546001600160a01b03908116911614155b15613bf85760018082015460fc8054808401825560008290527f371f36870d18f32a11fea0f144b021c8b407bb50f8e0267c711123f454b963c00180546001600160a01b0319166001600160a01b039093169290921790915554600e830191613bbb91615922565b8154600181018355600092835260209092206008830401805460079093166004026101000a63ffffffff8181021990941692909316929092021790555b600d8101805460ff19811660ff909116151790555b8760400151816007016000828254613c25919061590f565b925050819055506000613c6f826064888660ff1681518110613c4957613c4961598a565b60200260200101518c60400151613c6091906159a0565b613c6a9190615b4e565b612fa7565b90508015613dae578082600a016000828254613c8b919061590f565b90915550506001808301547f59aa67a3163b3c08cd7278a6a54f52cb090b48211796ff453948bbd26156832d916001600160a01b03909116908390613cd1908790615b62565b604080516001600160a01b039094168452602084019290925260ff169082015260600160405180910390a1600285015460608901516001600160a01b03808a169263a9059cbb92911690601260ff90911610613d2d5783613d40565b613d408460128d6060015160ff1661303e565b6040518363ffffffff1660e01b8152600401613d5d929190615935565b6020604051808303816000875af1158015613d7c573d6000803e3d6000fd5b505050506040513d601f19601f82011682018060405250810190613da0919061594e565b50613dab818561590f565b93505b50925080613dbb8161596b565b9150506139ba565b50806101006000828254613dd7919061590f565b9091555050604086015160fd8054600090613df390849061590f565b90915550506040860151606490613e0b9060086159a0565b613e159190615b4e565b60fe6000828254613e26919061590f565b90915550506040860151613e5390606490613e429060076159a0565b613e4c9190615b4e565b85876147f1565b613e7a60648760400151600a613e6991906159a0565b613e739190615b4e565b85876148e6565b613ea1606487604001516003613e9091906159a0565b613e9a9190615b4e565b85876149e2565b50505050505050505050565b6001600160a01b0381163b613f1a5760405162461bcd60e51b815260206004820152602d60248201527f455243313936373a206e657720696d706c656d656e746174696f6e206973206e60448201526c1bdd08184818dbdb9d1c9858dd609a1b6064820152608401610826565b600080516020615bab83398151915280546001600160a01b0319166001600160a01b0392909216919091179055565b613f5283614aa3565b600082511180613f5f5750805b156114ae576119b08383614ae3565b600054610100900460ff16613f955760405162461bcd60e51b8152600401610826906159e9565b6033805460ff19169055565b600054610100900460ff16613fc85760405162461bcd60e51b8152600401610826906159e9565b6113f533612e49565b60408101516000906001600160a01b031615613feb575060015b919050565b6001600160a01b03808316600090815261010c6020908152604080832081516101e0810183528154815260018201548616818501526002820154909516858301526003810180548351818602810186019094528084529195938693606086019390929183018282801561408c57602002820191906000526020600020905b81546001600160a01b0316815260019091019060200180831161406e575b5050505050815260200160048201805480602002602001604051908101604052809291908181526020016000905b82821015614102576000848152602090819020604080518082019091526002850290910180546001600160a01b031682526001908101548284015290835290920191016140ba565b5050505081526020016005820154815260200160068201548152602001600782015481526020016008820154815260200160098201548152602001600a8201548152602001600b8201548152602001600c8201548152602001600d820160009054906101000a900460ff16151515158152602001600e82018054806020026020016040519081016040528092919081815260200182805480156141f057602002820191906000526020600020906000905b82829054906101000a900463ffffffff1663ffffffff16815260200190600401906020826003010492830192600103820291508084116141b35790505b5050505050815250509050836001600160a01b031681604001516001600160a01b0316036142755760405162461bcd60e51b815260206004820152602c60248201527f52656665727265722055706c696e652043616e6e6f742062652072656665727260448201526b32b9103237bbb73634b7329760a11b6064820152608401610826565b846001600160a01b0316846001600160a01b0316036142e65760405162461bcd60e51b815260206004820152602760248201527f52656665727265722026205573657220616464726573732063616e6e6f742062604482015266329039b0b6b29760c91b6064820152608401610826565b6001600160a01b03851615801590614309575060208101516001600160a01b0316155b1561431e576001600160a01b03851660208201525b60018201546001600160a01b031661434e576001820180546001600160a01b0319166001600160a01b0386161790555b6001600160a01b0385166145cf57604080516001600160a01b038781168252861660208201526060818301819052603a908201527f5a65726f20616464726573732063616e6e6f742062652072656665727265722e60808201527f2053657474696e672064656661756c742072656665727265722e00000000000060a082015290517f32df26c7e54a821624fc8d22e1171e5793b90d1fccc483d3ff277b9c42bb22399181900360c00190a161010f5460ff1661445b5761010a546002830180546001600160a01b0319166001600160a01b039283169081179091556040805182815292871660208401529091600080516020615bf283398151915291015b60405180910390a1506145b7565b60fc541561456657604080516001600160a01b0387811682528616602082015260608183018190526049908201527f546865726520776173206e6f20676c6f62616c206164647265737320746f206160808201527f64642061732072656665727265722e2053657474696e672064656661756c742060a0820152683932b332b93932b91760b91b60c082015290517f32df26c7e54a821624fc8d22e1171e5793b90d1fccc483d3ff277b9c42bb22399181900360e00190a1600061451d612f20565b6002840180546001600160a01b0319166001600160a01b03838116918217909255604080519182529188166020820152919250600080516020615bf2833981519152910161444d565b61010a546002830180546001600160a01b0319166001600160a01b039283169081179091556040805182815292871660208401529091600080516020615bf2833981519152910160405180910390a1505b61010f805460ff19811660ff90911615179055614619565b6002820180546001600160a01b0319166001600160a01b03878116918217909255604080519182529186166020820152600080516020615bf2833981519152910160405180910390a15b60005b8360ff168160ff16101561471b5760028301546001600160a01b03161561471b5760028301546001600160a01b0316600090815261010c602052604081209060ff8316900361469657600381018054600181018255600091825260209091200180546001600160a01b0319166001600160a01b0388161790555b806004016040518060400160405280886001600160a01b031681526020018460016146c19190615b62565b60ff1690528154600180820184556000938452602093849020835160029093020180546001600160a01b0319166001600160a01b0390931692909217825591909201519101559250806147138161596b565b91505061461c565b505050505050565b600061472d612f20565b90506001600160a01b038116156119b057600061474a8286614bd7565b905080156147ea57836001600160a01b031663a9059cbb836012866060015160ff1610614777578361478a565b61478a846012886060015160ff1661303e565b6040518363ffffffff1660e01b81526004016147a7929190615935565b6020604051808303816000875af11580156147c6573d6000803e3d6000fd5b505050506040513d601f19601f8201168201806040525081019061471b919061594e565b5050505050565b6101085460608201516001600160a01b038085169263a9059cbb92911690601260ff909116106148215785614834565b614834866012866060015160ff1661303e565b6040518363ffffffff1660e01b8152600401614851929190615935565b6020604051808303816000875af1158015614870573d6000803e3d6000fd5b505050506040513d601f19601f82011682018060405250810190614894919061594e565b508261010460008282546148a8919061590f565b90915550506040518381527ffdb748c915e4e67b4bb23287bf4295a4595ce48b50343214369f72ccfb974cfa906020015b60405180910390a1505050565b6101075460608201516001600160a01b038085169263a9059cbb92911690601260ff909116106149165785614929565b614929866012866060015160ff1661303e565b6040518363ffffffff1660e01b8152600401614946929190615935565b6020604051808303816000875af1158015614965573d6000803e3d6000fd5b505050506040513d601f19601f82011682018060405250810190614989919061594e565b5082610103600082825461499d919061590f565b9091555050610107546040517facfb36c425bb6112a57cb8d3e22ad82ef6c2b19c961ba9e6d8279f3297cc2eae916148d9916001600160a01b03909116908690615935565b6101095460608201516001600160a01b038085169263a9059cbb92911690601260ff90911610614a125785614a25565b614a25866012866060015160ff1661303e565b6040518363ffffffff1660e01b8152600401614a42929190615935565b6020604051808303816000875af1158015614a61573d6000803e3d6000fd5b505050506040513d601f19601f82011682018060405250810190614a85919061594e565b50826101056000828254614a99919061590f565b9091555050505050565b614aac81613ead565b6040516001600160a01b038216907fbc7cd75a20ee27fd9adebab32041f755214dbc6bffa90cc0225b39da2e5c2d3b90600090a250565b60606001600160a01b0383163b614b4b5760405162461bcd60e51b815260206004820152602660248201527f416464726573733a2064656c65676174652063616c6c20746f206e6f6e2d636f6044820152651b9d1c9858dd60d21b6064820152608401610826565b600080846001600160a01b031684604051614b669190615b7b565b600060405180830381855af49150503d8060008114614ba1576040519150601f19603f3d011682016040523d82523d6000602084013e614ba6565b606091505b5091509150614bce8282604051806060016040528060278152602001615bcb60279139614c8b565b95945050505050565b6001600160a01b038216600090815261010c60205260408120614c01816064613c608660086159a0565b91508115614c84578181600b016000828254614c1d919061590f565b909155505060018101546040517fb2302fa600be82c096d9e1dbbf04e10c914ee4657708dd5d39c6f1a70f2188df91614c63916001600160a01b03909116908590615935565b60405180910390a1816101016000828254614c7e919061590f565b90915550505b5092915050565b60608315614c9a57508161306d565b61306d8383815115614caf5781518083602001fd5b8060405162461bcd60e51b81526004016108269190615b97565b828054828255906000526020600020908101928215614d09579160200282015b82811115614d09578251829060ff16905591602001919060010190614ce9565b506119f49291505b808211156119f45760008155600101614d11565b80356001600160a01b0381168114613feb57600080fd5b8015158114610ff157600080fd5b600080600060608486031215614d5f57600080fd5b614d6884614d25565b92506020840135614d7881614d3c565b9150614d8660408501614d25565b90509250925092565b600060208284031215614da157600080fd5b61306d82614d25565b60ff81168114610ff157600080fd5b600060208284031215614dcb57600080fd5b813561306d81614daa565b60005b83811015614df1578181015183820152602001614dd9565b50506000910152565b60008151808452614e12816020860160208601614dd6565b601f01601f19169290920160200192915050565b6020815260ff82511660208201526000602083015160806040840152614e4f60a0840182614dfa565b905060408401516060840152606084015160808401528091505092915050565b60006060820185151583526020606081850152818651808452608086019150828801935060005b81811015614eb857845163ffffffff1683529383019391830191600101614e96565b5050809350505050826040830152949350505050565b634e487b7160e01b600052604160045260246000fd5b604051601f8201601f1916810167ffffffffffffffff81118282101715614f0d57614f0d614ece565b604052919050565b600067ffffffffffffffff821115614f2f57614f2f614ece565b50601f01601f191660200190565b6000614f50614f4b84614f15565b614ee4565b9050828152838383011115614f6457600080fd5b828260208301376000602084830101529392505050565b60008060408385031215614f8e57600080fd5b614f9783614d25565b9150602083013567ffffffffffffffff811115614fb357600080fd5b8301601f81018513614fc457600080fd5b614fd385823560208401614f3d565b9150509250929050565b60008060408385031215614ff057600080fd5b614ff983614d25565b946020939093013593505050565b600060018060a01b03808351168452602083015160e0602086015261502f60e0860182614dfa565b9050604084015185820360408701526150488282614dfa565b91505060ff60608501511660608601526080840151151560808601528160a08501511660a086015260c0840151151560c0860152809250505092915050565b6000602080830181845280855180835260408601915060408160051b870101925083870160005b828110156150dc57603f198886030184526150ca858351615007565b945092850192908501906001016150ae565b5092979650505050505050565b600080604083850312156150fc57600080fd5b61510583614d25565b915061511360208401614d25565b90509250929050565b60008060006060848603121561513157600080fd5b61513a84614d25565b925061514860208501614d25565b9150604084013590509250925092565b6000806040838503121561516b57600080fd5b61517483614d25565b9150602083013561518481614d3c565b809150509250929050565b60008083601f8401126151a157600080fd5b50813567ffffffffffffffff8111156151b957600080fd5b6020830191508360208260051b85010111156151d457600080fd5b9250929050565b60008060008060008060006080888a0312156151f657600080fd5b67ffffffffffffffff808935111561520d57600080fd5b61521a8a8a358b0161518f565b9098509650602089013581101561523057600080fd5b602089013589018a601f82011261524657600080fd5b818135111561525757615257614ece565b6152676020823560051b01614ee4565b81358082526020808301929160051b8401018d81111561528657600080fd5b602084015b818110156152d75785813511156152a157600080fd5b8e603f8235870101126152b357600080fd5b6152c98f82358701602081013590604001614f3d565b84526020938401930161528b565b50508098505050508060408a013511156152f057600080fd5b6153008a60408b01358b0161518f565b9095509350606089013581101561531657600080fd5b506153278960608a01358a0161518f565b979a9699509497509295919491925050565b600081518084526020808501945080840160005b838110156153725781516001600160a01b03168752958201959082019060010161534d565b509495945050505050565b6040815260006153906040830185615339565b90508260208301529392505050565b6000806000606084860312156153b457600080fd5b6153bd84614d25565b92506020840135614d7881614daa565b60208152600061306d6020830184615007565b600081518084526020808501945080840160005b8381101561537257815180516001600160a01b0316885283015183880152604090960195908201906001016153f4565b6001600160a01b038616815260a06020820181905260009061544890830187615339565b856040840152828103606084015261546081866153e0565b9150508260808301529695505050505050565b600081518084526020808501945080840160005b8381101561537257815163ffffffff1687529582019590820190600101615487565b6020815281516020820152600060208301516154d060408401826001600160a01b03169052565b5060408301516001600160a01b03811660608401525060608301516101e0806080850152615502610200850183615339565b91506080850151601f19808685030160a087015261552084836153e0565b60a088015160c08881019190915288015160e08089019190915288015161010080890191909152880151610120808901919091528801516101408089019190915288015161016080890191909152880151610180808901919091528801516101a08089019190915288015190945091506101c06155a08188018415159052565b8701518685039091018387015290506155b98382615473565b9695505050505050565b6000602082840312156155d557600080fd5b815167ffffffffffffffff8111156155ec57600080fd5b8201601f810184136155fd57600080fd5b805161560b614f4b82614f15565b81815285602083850101111561562057600080fd5b614bce826020830160208601614dd6565b60006020828403121561564357600080fd5b815161306d81614daa565b600181811c9082168061566257607f821691505b60208210810361568257634e487b7160e01b600052602260045260246000fd5b50919050565b601f8211156114ae57600081815260208120601f850160051c810160208610156156af5750805b601f850160051c820191505b8181101561471b578281556001016156bb565b815167ffffffffffffffff8111156156e8576156e8614ece565b6156fc816156f6845461564e565b84615688565b602080601f83116001811461573157600084156157195750858301515b600019600386901b1c1916600185901b17855561471b565b600085815260208120601f198616915b8281101561576057888601518255948401946001909101908401615741565b508582101561577e5787850151600019600388901b60f8161c191681555b5050505050600190811b01905550565b818103615799575050565b6157a3825461564e565b67ffffffffffffffff8111156157bb576157bb614ece565b6157c9816156f6845461564e565b6000601f8211600181146157fd57600083156157e55750848201545b600019600385901b1c1916600184901b1784556147ea565b600085815260209020601f19841690600086815260209020845b838110156158375782860154825560019586019590910190602001615817565b508583101561577e5793015460001960f8600387901b161c19169092555050600190811b01905550565b6020808252602c908201527f46756e6374696f6e206d7573742062652063616c6c6564207468726f7567682060408201526b19195b1959d85d1958d85b1b60a21b606082015260800190565b6020808252602c908201527f46756e6374696f6e206d7573742062652063616c6c6564207468726f7567682060408201526b6163746976652070726f787960a01b606082015260800190565b634e487b7160e01b600052601160045260246000fd5b80820180821115613038576130386158f9565b81810381811115613038576130386158f9565b6001600160a01b03929092168252602082015260400190565b60006020828403121561596057600080fd5b815161306d81614d3c565b600060ff821660ff8103615981576159816158f9565b60010192915050565b634e487b7160e01b600052603260045260246000fd5b8082028115828204841417613038576130386158f9565b6000600182016159c9576159c96158f9565b5060010190565b6000602082840312156159e257600080fd5b5051919050565b6020808252602b908201527f496e697469616c697a61626c653a20636f6e7472616374206973206e6f74206960408201526a6e697469616c697a696e6760a81b606082015260800190565b634e487b7160e01b600052601260045260246000fd5b600082615a5957615a59615a34565b500690565b600181815b80851115615a99578160001904821115615a7f57615a7f6158f9565b80851615615a8c57918102915b93841c9390800290615a63565b509250929050565b600082615ab057506001613038565b81615abd57506000613038565b8160018114615ad35760028114615add57615af9565b6001915050613038565b60ff841115615aee57615aee6158f9565b50506001821b613038565b5060208310610133831016604e8410600b8410161715615b1c575081810a613038565b615b268383615a5e565b8060001904821115615b3a57615b3a6158f9565b029392505050565b600061306d8383615aa1565b600082615b5d57615b5d615a34565b500490565b60ff8181168382160190811115613038576130386158f9565b60008251615b8d818460208701614dd6565b9190910192915050565b60208152600061306d6020830184614dfa56fe360894a13ba1a3210667c828492db98dca3e2076cc3735a920a3ca505d382bbc416464726573733a206c6f772d6c6576656c2064656c65676174652063616c6c206661696c6564ec49a3c8c4ae06c18160fe86119c381c9d213ac3e052ff35b594da8687b193c7a26469706673582212207fad81d408ec7ecb5a87084b1e03ada78f3086203ed1c2a04fa7563f0b7938bb64736f6c63430008120033",
  "linkReferences": {},
  "deployedLinkReferences": {}
}